{
  "_format": "hh-sol-artifact-1",
  "contractName": "NounsWrapped",
  "sourceName": "contracts/NounsWrapped.sol",
  "abi": [
    {
      "inputs": [
        {
          "internalType": "address",
          "name": "_owner",
          "type": "address"
        },
        {
          "internalType": "uint256",
          "name": "_mintFee",
          "type": "uint256"
        }
      ],
      "stateMutability": "nonpayable",
      "type": "constructor"
    },
    {
      "inputs": [],
      "name": "AccountBalanceOverflow",
      "type": "error"
    },
    {
      "inputs": [],
      "name": "AlreadyInitialized",
      "type": "error"
    },
    {
      "inputs": [],
      "name": "BalanceQueryForZeroAddress",
      "type": "error"
    },
    {
      "inputs": [],
      "name": "InvalidPayment",
      "type": "error"
    },
    {
      "inputs": [],
      "name": "NewOwnerIsZeroAddress",
      "type": "error"
    },
    {
      "inputs": [],
      "name": "NoHandoverRequest",
      "type": "error"
    },
    {
      "inputs": [],
      "name": "NotOwnerNorApproved",
      "type": "error"
    },
    {
      "inputs": [],
      "name": "TokenAlreadyExists",
      "type": "error"
    },
    {
      "inputs": [],
      "name": "TokenDoesNotExist",
      "type": "error"
    },
    {
      "inputs": [],
      "name": "TransferFromIncorrectOwner",
      "type": "error"
    },
    {
      "inputs": [],
      "name": "TransferToNonERC721ReceiverImplementer",
      "type": "error"
    },
    {
      "inputs": [],
      "name": "TransferToZeroAddress",
      "type": "error"
    },
    {
      "inputs": [],
      "name": "Unauthorized",
      "type": "error"
    },
    {
      "anonymous": false,
      "inputs": [
        {
          "indexed": true,
          "internalType": "address",
          "name": "owner",
          "type": "address"
        },
        {
          "indexed": true,
          "internalType": "address",
          "name": "account",
          "type": "address"
        },
        {
          "indexed": true,
          "internalType": "uint256",
          "name": "id",
          "type": "uint256"
        }
      ],
      "name": "Approval",
      "type": "event"
    },
    {
      "anonymous": false,
      "inputs": [
        {
          "indexed": true,
          "internalType": "address",
          "name": "owner",
          "type": "address"
        },
        {
          "indexed": true,
          "internalType": "address",
          "name": "operator",
          "type": "address"
        },
        {
          "indexed": false,
          "internalType": "bool",
          "name": "isApproved",
          "type": "bool"
        }
      ],
      "name": "ApprovalForAll",
      "type": "event"
    },
    {
      "anonymous": false,
      "inputs": [
        {
          "indexed": true,
          "internalType": "address",
          "name": "pendingOwner",
          "type": "address"
        }
      ],
      "name": "OwnershipHandoverCanceled",
      "type": "event"
    },
    {
      "anonymous": false,
      "inputs": [
        {
          "indexed": true,
          "internalType": "address",
          "name": "pendingOwner",
          "type": "address"
        }
      ],
      "name": "OwnershipHandoverRequested",
      "type": "event"
    },
    {
      "anonymous": false,
      "inputs": [
        {
          "indexed": true,
          "internalType": "address",
          "name": "oldOwner",
          "type": "address"
        },
        {
          "indexed": true,
          "internalType": "address",
          "name": "newOwner",
          "type": "address"
        }
      ],
      "name": "OwnershipTransferred",
      "type": "event"
    },
    {
      "anonymous": false,
      "inputs": [
        {
          "indexed": false,
          "internalType": "uint256",
          "name": "oldMintFee",
          "type": "uint256"
        },
        {
          "indexed": false,
          "internalType": "uint256",
          "name": "newMintFee",
          "type": "uint256"
        }
      ],
      "name": "SetMintFee",
      "type": "event"
    },
    {
      "anonymous": false,
      "inputs": [
        {
          "indexed": true,
          "internalType": "address",
          "name": "from",
          "type": "address"
        },
        {
          "indexed": true,
          "internalType": "address",
          "name": "to",
          "type": "address"
        },
        {
          "indexed": true,
          "internalType": "uint256",
          "name": "id",
          "type": "uint256"
        }
      ],
      "name": "Transfer",
      "type": "event"
    },
    {
      "inputs": [
        {
          "internalType": "address",
          "name": "account",
          "type": "address"
        },
        {
          "internalType": "uint256",
          "name": "id",
          "type": "uint256"
        }
      ],
      "name": "approve",
      "outputs": [],
      "stateMutability": "payable",
      "type": "function"
    },
    {
      "inputs": [
        {
          "internalType": "address",
          "name": "owner",
          "type": "address"
        }
      ],
      "name": "balanceOf",
      "outputs": [
        {
          "internalType": "uint256",
          "name": "result",
          "type": "uint256"
        }
      ],
      "stateMutability": "view",
      "type": "function"
    },
    {
      "inputs": [
        {
          "internalType": "uint256",
          "name": "tokenId",
          "type": "uint256"
        }
      ],
      "name": "burn",
      "outputs": [],
      "stateMutability": "nonpayable",
      "type": "function"
    },
    {
      "inputs": [],
      "name": "cancelOwnershipHandover",
      "outputs": [],
      "stateMutability": "payable",
      "type": "function"
    },
    {
      "inputs": [
        {
          "internalType": "address",
          "name": "pendingOwner",
          "type": "address"
        }
      ],
      "name": "completeOwnershipHandover",
      "outputs": [],
      "stateMutability": "payable",
      "type": "function"
    },
    {
      "inputs": [],
      "name": "contractURI",
      "outputs": [
        {
          "internalType": "string",
          "name": "",
          "type": "string"
        }
      ],
      "stateMutability": "view",
      "type": "function"
    },
    {
      "inputs": [],
      "name": "eip712Domain",
      "outputs": [
        {
          "internalType": "bytes1",
          "name": "fields",
          "type": "bytes1"
        },
        {
          "internalType": "string",
          "name": "name",
          "type": "string"
        },
        {
          "internalType": "string",
          "name": "version",
          "type": "string"
        },
        {
          "internalType": "uint256",
          "name": "chainId",
          "type": "uint256"
        },
        {
          "internalType": "address",
          "name": "verifyingContract",
          "type": "address"
        },
        {
          "internalType": "bytes32",
          "name": "salt",
          "type": "bytes32"
        },
        {
          "internalType": "uint256[]",
          "name": "extensions",
          "type": "uint256[]"
        }
      ],
      "stateMutability": "view",
      "type": "function"
    },
    {
      "inputs": [
        {
          "internalType": "uint256",
          "name": "id",
          "type": "uint256"
        }
      ],
      "name": "getApproved",
      "outputs": [
        {
          "internalType": "address",
          "name": "result",
          "type": "address"
        }
      ],
      "stateMutability": "view",
      "type": "function"
    },
    {
      "inputs": [
        {
          "internalType": "address",
          "name": "owner",
          "type": "address"
        },
        {
          "internalType": "address",
          "name": "operator",
          "type": "address"
        }
      ],
      "name": "isApprovedForAll",
      "outputs": [
        {
          "internalType": "bool",
          "name": "result",
          "type": "bool"
        }
      ],
      "stateMutability": "view",
      "type": "function"
    },
    {
      "inputs": [
        {
          "internalType": "address",
          "name": "to",
          "type": "address"
        },
        {
          "components": [
            {
              "internalType": "uint16",
              "name": "props",
              "type": "uint16"
            },
            {
              "internalType": "uint16",
              "name": "sponsoredProps",
              "type": "uint16"
            },
            {
              "internalType": "uint24",
              "name": "votes",
              "type": "uint24"
            },
            {
              "internalType": "uint24",
              "name": "propHouseVotes",
              "type": "uint24"
            },
            {
              "internalType": "uint16",
              "name": "candProps",
              "type": "uint16"
            },
            {
              "internalType": "uint24",
              "name": "propsFeedback",
              "type": "uint24"
            },
            {
              "internalType": "string",
              "name": "username",
              "type": "string"
            }
          ],
          "internalType": "struct NounsWrapped.WrappedStats",
          "name": "stats",
          "type": "tuple"
        }
      ],
      "name": "mint",
      "outputs": [],
      "stateMutability": "payable",
      "type": "function"
    },
    {
      "inputs": [],
      "name": "mintFee",
      "outputs": [
        {
          "internalType": "uint256",
          "name": "",
          "type": "uint256"
        }
      ],
      "stateMutability": "view",
      "type": "function"
    },
    {
      "inputs": [],
      "name": "name",
      "outputs": [
        {
          "internalType": "string",
          "name": "",
          "type": "string"
        }
      ],
      "stateMutability": "pure",
      "type": "function"
    },
    {
      "inputs": [],
      "name": "owner",
      "outputs": [
        {
          "internalType": "address",
          "name": "result",
          "type": "address"
        }
      ],
      "stateMutability": "view",
      "type": "function"
    },
    {
      "inputs": [
        {
          "internalType": "uint256",
          "name": "id",
          "type": "uint256"
        }
      ],
      "name": "ownerOf",
      "outputs": [
        {
          "internalType": "address",
          "name": "result",
          "type": "address"
        }
      ],
      "stateMutability": "view",
      "type": "function"
    },
    {
      "inputs": [
        {
          "internalType": "address",
          "name": "pendingOwner",
          "type": "address"
        }
      ],
      "name": "ownershipHandoverExpiresAt",
      "outputs": [
        {
          "internalType": "uint256",
          "name": "result",
          "type": "uint256"
        }
      ],
      "stateMutability": "view",
      "type": "function"
    },
    {
      "inputs": [],
      "name": "renderer",
      "outputs": [
        {
          "internalType": "contract Renderer",
          "name": "",
          "type": "address"
        }
      ],
      "stateMutability": "view",
      "type": "function"
    },
    {
      "inputs": [],
      "name": "renounceOwnership",
      "outputs": [],
      "stateMutability": "payable",
      "type": "function"
    },
    {
      "inputs": [],
      "name": "requestOwnershipHandover",
      "outputs": [],
      "stateMutability": "payable",
      "type": "function"
    },
    {
      "inputs": [
        {
          "internalType": "address",
          "name": "from",
          "type": "address"
        },
        {
          "internalType": "address",
          "name": "to",
          "type": "address"
        },
        {
          "internalType": "uint256",
          "name": "id",
          "type": "uint256"
        }
      ],
      "name": "safeTransferFrom",
      "outputs": [],
      "stateMutability": "payable",
      "type": "function"
    },
    {
      "inputs": [
        {
          "internalType": "address",
          "name": "from",
          "type": "address"
        },
        {
          "internalType": "address",
          "name": "to",
          "type": "address"
        },
        {
          "internalType": "uint256",
          "name": "id",
          "type": "uint256"
        },
        {
          "internalType": "bytes",
          "name": "data",
          "type": "bytes"
        }
      ],
      "name": "safeTransferFrom",
      "outputs": [],
      "stateMutability": "payable",
      "type": "function"
    },
    {
      "inputs": [
        {
          "internalType": "uint256",
          "name": "tokenId",
          "type": "uint256"
        }
      ],
      "name": "seeds",
      "outputs": [
        {
          "internalType": "uint32",
          "name": "seed",
          "type": "uint32"
        }
      ],
      "stateMutability": "view",
      "type": "function"
    },
    {
      "inputs": [
        {
          "internalType": "address",
          "name": "operator",
          "type": "address"
        },
        {
          "internalType": "bool",
          "name": "isApproved",
          "type": "bool"
        }
      ],
      "name": "setApprovalForAll",
      "outputs": [],
      "stateMutability": "nonpayable",
      "type": "function"
    },
    {
      "inputs": [
        {
          "internalType": "uint256",
          "name": "_mintFee",
          "type": "uint256"
        }
      ],
      "name": "setMintFee",
      "outputs": [],
      "stateMutability": "nonpayable",
      "type": "function"
    },
    {
      "inputs": [
        {
          "internalType": "uint256",
          "name": "tokenId",
          "type": "uint256"
        }
      ],
      "name": "statsOf",
      "outputs": [
        {
          "internalType": "uint16",
          "name": "props",
          "type": "uint16"
        },
        {
          "internalType": "uint16",
          "name": "sponsoredProps",
          "type": "uint16"
        },
        {
          "internalType": "uint24",
          "name": "votes",
          "type": "uint24"
        },
        {
          "internalType": "uint24",
          "name": "propHouseVotes",
          "type": "uint24"
        },
        {
          "internalType": "uint16",
          "name": "candProps",
          "type": "uint16"
        },
        {
          "internalType": "uint24",
          "name": "propsFeedback",
          "type": "uint24"
        },
        {
          "internalType": "string",
          "name": "username",
          "type": "string"
        }
      ],
      "stateMutability": "view",
      "type": "function"
    },
    {
      "inputs": [
        {
          "internalType": "bytes4",
          "name": "interfaceId",
          "type": "bytes4"
        }
      ],
      "name": "supportsInterface",
      "outputs": [
        {
          "internalType": "bool",
          "name": "result",
          "type": "bool"
        }
      ],
      "stateMutability": "view",
      "type": "function"
    },
    {
      "inputs": [],
      "name": "symbol",
      "outputs": [
        {
          "internalType": "string",
          "name": "",
          "type": "string"
        }
      ],
      "stateMutability": "pure",
      "type": "function"
    },
    {
      "inputs": [],
      "name": "tokenIdCounter",
      "outputs": [
        {
          "internalType": "uint256",
          "name": "",
          "type": "uint256"
        }
      ],
      "stateMutability": "view",
      "type": "function"
    },
    {
      "inputs": [
        {
          "internalType": "address",
          "name": "",
          "type": "address"
        }
      ],
      "name": "tokenIdOf",
      "outputs": [
        {
          "internalType": "uint256",
          "name": "",
          "type": "uint256"
        }
      ],
      "stateMutability": "view",
      "type": "function"
    },
    {
      "inputs": [
        {
          "internalType": "uint256",
          "name": "tokenId",
          "type": "uint256"
        }
      ],
      "name": "tokenURI",
      "outputs": [
        {
          "internalType": "string",
          "name": "",
          "type": "string"
        }
      ],
      "stateMutability": "view",
      "type": "function"
    },
    {
      "inputs": [
        {
          "internalType": "address",
          "name": "from",
          "type": "address"
        },
        {
          "internalType": "address",
          "name": "to",
          "type": "address"
        },
        {
          "internalType": "uint256",
          "name": "id",
          "type": "uint256"
        }
      ],
      "name": "transferFrom",
      "outputs": [],
      "stateMutability": "payable",
      "type": "function"
    },
    {
      "inputs": [
        {
          "internalType": "address",
          "name": "newOwner",
          "type": "address"
        }
      ],
      "name": "transferOwnership",
      "outputs": [],
      "stateMutability": "payable",
      "type": "function"
    },
    {
      "inputs": [
        {
          "internalType": "address",
          "name": "to",
          "type": "address"
        }
      ],
      "name": "withdrawBalance",
      "outputs": [],
      "stateMutability": "nonpayable",
      "type": "function"
    }
  ],
  "bytecode": "0x61012034620001b95762005e2d6001600160401b03601f38839003908101601f191684019082821185831017620001a35780859160409586948552833981010312620001b95782516001600160a01b03938482169291839003620001b95760200151306080524660a05260a062000075620001be565b60128152600160208201714e6f756e732057726170706564203230323360701b81526020620000a3620001be565b8381520192603160f81b845251902091208160c0528060e0528651917f8b73c3c69bb8fe3d512ecc4cf759cc79239f7b179b0ffacaa9a75d522b39400f8352602083015286820152466060820152306080820152209461010095865284516140c78082019482861090861117620001a35762001d66823980600094039084f08015620001995783546001600160a01b03191691161782556001556002819055638b78c6d8198290557f8be0079c531659141344cd1fd0a4f28419497f9722a3daafe3b4186f6b6457e08180a351611b879182620001df833960805182505060a05182505060c05182505060e05182505051815050f35b85513d85823e3d90fd5b634e487b7160e01b600052604160045260246000fd5b600080fd5b60408051919082016001600160401b03811183821017620001a35760405256fe6080604052600436101561001257600080fd5b60003560e01c806301ffc9a71461021757806306fdde0314610212578063081812fc1461020d578063095ea7b31461020857806313966db51461020357806323b872dd146101fe57806325692962146101f957806342842e0e146101f457806342966c68146101ef57806354d1f13d146101ea5780636352211e146101e5578063666bf751146101e057806370a08231146101db578063715018a6146101d6578063756af45f146101d1578063773c02d4146101cc5780637bc5d64d146101c757806384b0196e146101c25780638ada6b0f146101bd5780638da5cb5b146101b857806395d89b41146101b357806398bdf6f5146101ae578063a22cb465146101a9578063b88d4fde146101a4578063c87b56dd1461019f578063e8a3d4851461019a578063e985e9c514610195578063eddd0d9c14610190578063f04e283e1461018b578063f0503e8014610186578063f2fde38b146101815763fee81cf41461017c57600080fd5b611066565b61102a565b610ff8565b610fa8565b610f54565b610f0f565b610e9e565b610d60565b610cc3565b610c4e565b610c30565b610be4565b610bb7565b610b8e565b610ad9565b610a4d565b6108e0565b61089e565b610857565b610802565b6106c9565b610699565b610652565b61053f565b6104f2565b6104a3565b61048f565b61043c565b610385565b6102f9565b6102c5565b34610264576020366003190112610264576004356001600160e01b0319811681036102645760209060e01c60405190635b5e139f8114906301ffc9a76380ac58cd82149114171715158152f35b600080fd5b60005b83811061027c5750506000910152565b818101518382015260200161026c565b906020916102a581518092818552858086019101610269565b601f01601f1916010190565b9060206102c292818152019061028c565b90565b34610264576000366003190112610264576102f56102e16110b5565b60405191829160208352602083019061028c565b0390f35b34610264576020366003190112610264576004356000818152673ec412a9852d173d60c11b601c5260209020810101805460601b1561034b57600101546040516001600160a01b039091168152602090f35b63ceea21b66000526004601cfd5b600435906001600160a01b038216820361026457565b602435906001600160a01b038216820361026457565b604036600319011261026457610399610359565b6024356000818152673ec412a9852d173d60c11b3317601c526020812082018201805491936001600160a01b03908116921690811561042f5782908233143315171561040b575b600101557f8c5be1e5ebec7d5bd14f71427d1e84f3dd0314c0f7b2291e5b200ac8c7c3b9258480a480f35b90508185526030600c2054156104225782906103e0565b634b6e7f1885526004601cfd5b63ceea21b685526004601cfd5b34610264576000366003190112610264576020600154604051908152f35b6060906003190112610264576001600160a01b0390600435828116810361026457916024359081168103610264579060443590565b6104a161049b3661045a565b916110e3565b005b6000806003193601126104ef5763389a75e1600c523381526202a30042016020600c2055337fdbf36a107da19e49527a7176a1babf963b4b0ff8cde35ee35d6cd8f1f9ac7e1d8280a280f35b80fd5b6104fb3661045a565b6105068183856110e3565b813b61050e57005b60405191602083019383851067ffffffffffffffff86111761053a576104a1946040526000845261171c565b610954565b3461026457602036600319011261026457638b78c6d81954600435906001600160a01b03163314801561063b575b156105d0576105ae816105826105bb936117b1565b61059e610599826000526003602052604060002090565b611224565b6000526004602052604060002090565b805463ffffffff19169055565b33600090815260056020526040812055005b55005b60405162461bcd60e51b815260206004820152603860248201527f4e6f756e73577261707065643a2075736572206973206e6f74206f776e65722060448201527f6f6620636f6e7472616374206f722074686520746f6b656e00000000000000006064820152608490fd5b50336000526005602052806040600020541461056d565b6000806003193601126104ef5763389a75e1600c52338152806020600c2055337ffa7b8eab7da67f412cc9575ed43464468f9bfbae89d1675917346ca6d8fe3c928280a280f35b346102645760203660031901126102645760206106b7600435611274565b6040516001600160a01b039091168152f35b600319604036820112610264576106de610359565b6024359167ffffffffffffffff83116102645760e09083360301126102645760015434036107bd576001600160a01b03811660009081526005602052604090206105cd919061072e9054156112a2565b61074161073c6002546112fd565b600255565b6107646002549360040161075f856000526003602052604060002090565b611477565b6107996107708461187b565b610784856000526004602052604060002090565b9063ffffffff1663ffffffff19825416179055565b6107a383826118ca565b6001600160a01b0316600090815260056020526040902090565b60405162461bcd60e51b815260206004820152601f60248201527f4e6f756e73577261707065643a20696e636f7272656374207061796d656e74006044820152606490fd5b346102645760203660031901126102645761081b610359565b801561084957673ec412a9852d173d60c11b601c52600052602063ffffffff601c600c205416604051908152f35b638f4eb6046000526004601cfd5b6000806003193601126104ef5761086c61196d565b80638b78c6d8198181547f8be0079c531659141344cd1fd0a4f28419497f9722a3daafe3b4186f6b6457e08280a35580f35b34610264576020366003190112610264576108b7610359565b6108bf61196d565b600080918180389247905af1156108d35780f35b63b12d13eb90526004601cfd5b34610264576020366003190112610264576001600160a01b03610901610359565b1660005260056020526020604060002054604051908152f35b90600182811c9216801561094a575b602083101461093457565b634e487b7160e01b600052602260045260246000fd5b91607f1691610929565b634e487b7160e01b600052604160045260246000fd5b6040810190811067ffffffffffffffff82111761053a57604052565b90601f8019910116810190811067ffffffffffffffff82111761053a57604052565b906040519182600082546109bb8161091a565b90818452602094600191600181169081600014610a2b57506001146109ec575b5050506109ea92500383610986565b565b600090815285812095935091905b818310610a135750506109ea93508201013880806109db565b855488840185015294850194879450918301916109fa565b925050506109ea94925060ff191682840152151560051b8201013880806109db565b3461026457602036600319011261026457600435600052600360205260406000208054906102f561ffff91610a88600162ffffff92016109a8565b906040519484869582168652808260101c166020870152828260201c166040870152828260381c1660608701528160501c16608086015260601c1660a084015260e060c084015260e083019061028c565b3461026457600036600319011261026457610af26110b5565b60405190610aff8261096a565b6001808352610b41602093603160f81b6020820152610b3360405194600f60f81b865260e0602087015260e086019061028c565b90848203604086015261028c565b92466060840152306080840152600060a084015282840360c0840152602060605194858152019360809160005b828110610b7b5785870386f35b8351875295810195928101928401610b6e565b34610264576000366003190112610264576000546040516001600160a01b039091168152602090f35b3461026457600036600319011261026457638b78c6d819546040516001600160a01b039091168152602090f35b34610264576000366003190112610264576102f5604051610c048161096a565b600b81526a4e5720f09f8e813230323360a81b602082015260405191829160208352602083019061028c565b34610264576000366003190112610264576020600254604051908152f35b3461026457604036600319011261026457610c67610359565b6024358015158091036102645781601c52670a5a2e7a0000000060085233600052806030600c205560005260018060a01b0316337f17307eab39ab6107e8899845ad3d59bd9653f200f220920489ca2b5937696c3160206000a3005b608036600319011261026457610cd7610359565b610cdf61036f565b6044356064359167ffffffffffffffff93848411610264573660238501121561026457836004013594851161026457366024868601011161026457610d258383836110e3565b813b610d2d57005b6000602086806024610d416104a19a611099565b98610d4f6040519a8b610986565b828a5201838901378601015261171c565b34610264576020366003190112610264576004356000610d92610d8d836000526003602052604060002090565b611587565b81549092906001600160a01b0316610dc1610db7836000526004602052604060002090565b5463ffffffff1690565b91610dce855161ffff1690565b92610e40610de1602088015161ffff1690565b96610df2604082015162ffffff1690565b90610e03606082015162ffffff1690565b608082015161ffff169060c0610e1f60a085015162ffffff1690565b930151936040519b8c9a8b998a99637941da8960e11b8b5260048b01611685565b03915afa908115610e99576102f591610e6a91600091610e76575b50610e646116f0565b90611a29565b604051918291826102b1565b610e9391503d806000833e610e8b8183610986565b810190611626565b38610e5b565b6116e4565b34610264576000806003193601126104ef578054604051635f17cac360e01b815291908190839060049082906001600160a01b03165afa8015610e99576102f592826102e19392610ef4575b5050610e646116f0565b610f0892503d8091833e610e8b8183610986565b3880610eea565b3461026457604036600319011261026457610f28610359565b610f3061036f565b601c52670a5a2e7a0000000060085260005260206030600c20546040519015158152f35b34610264576020366003190112610264577ffb91bfd69d367c5765cbdee560d21d74d56c2472a5c55dce2a7bda24e567c4346040600435610f9361196d565b600154908060015582519182526020820152a1005b602036600319011261026457610fbc610359565b610fc461196d565b63389a75e1600c52806000526020600c209081544211610fea5760006104a1925561198a565b636f5e88186000526004601cfd5b34610264576020366003190112610264576004356000526004602052602063ffffffff60406000205416604051908152f35b60203660031901126102645761103e610359565b61104661196d565b8060601b15611058576104a19061198a565b637448fbae6000526004601cfd5b346102645760203660031901126102645761107f610359565b63389a75e1600c52600052602080600c2054604051908152f35b67ffffffffffffffff811161053a57601f01601f191660200190565b604051906110c28261096a565b60128252714e6f756e732057726170706564203230323360701b6020830152565b6000838152673ec412a9852d173d60c11b3317601c908152602082208501850180546001600160a01b03958616959485169481168086148102156111db575085156111cf578484528382600101805480331488331417156111ad575b6111a5575b505085851818905580600c20600019815401905583825280600c2060018154019163ffffffff8316156111995750557fddf252ad1be2c89b69c2b068fc378daa952ba7f163c4a11628f55a4df523b3ef9080a4565b6004906301336cea8552fd5b558338611144565b9091506030600c2054156111c35790859161113f565b600485634b6e7f188852fd5b60048363ea553b348652fd5b8385600492156111ee5763a11481009052fd5b63ceea21b69052fd5b818110611202575050565b600081556001016111f7565b634e487b7160e01b600052601160045260246000fd5b600160009182815501611237815461091a565b8061124157505050565b82601f821160011461125257505055565b9091808252611270601f60208420940160051c8401600185016111f7565b5555565b6000818152673ec412a9852d173d60c11b601c5260209020810101546001600160a01b031690811561034b57565b156112a957565b60405162461bcd60e51b815260206004820152602660248201527f4e6f756e73577261707065643a207573657220616c7265616479206861732061604482015265103a37b5b2b760d11b6064820152608490fd5b600019811461130c5760010190565b61120e565b3561ffff811681036102645790565b3562ffffff811681036102645790565b903590601e1981360301821215610264570180359067ffffffffffffffff82116102645760200191813603831361026457565b9190601f811161137257505050565b6109ea926000526020600020906020601f840160051c8301931061139e575b601f0160051c01906111f7565b9091508190611391565b90929167ffffffffffffffff811161053a576113ce816113c8845461091a565b84611363565b6000601f821160011461140f578190611400939495600092611404575b50508160011b916000199060031b1c19161790565b9055565b0135905038806113eb565b601f1982169461142484600052602060002090565b91805b87811061145f575083600195969710611445575b505050811b019055565b0135600019600384901b60f8161c1916905538808061143b565b90926020600181928686013581550194019101611427565b60019061157e6109ea9361ffff61148d82611311565b168354908061ffff19831617855563ffff00006114ac60208501611311565b60101b1690818163ffffffff1985161717865566ffffff000000006114d360408601611320565b60201b169266ffffffffffffff1916171717835561151c6114f660608301611320565b845469ffffff00000000000000191660389190911b69ffffff0000000000000016178455565b61154761152b60808301611311565b845461ffff60501b191660509190911b61ffff60501b16178455565b61157461155660a08301611320565b845462ffffff60601b191660609190911b62ffffff60601b16178455565b60c0810190611330565b929091016113a8565b9060405160e0810181811067ffffffffffffffff82111761053a5760405260c06116216001839561161b815461ffff908181168852818160101c16602089015261160962ffffff926115e6848460201c1660408c019062ffffff169052565b62ffffff603884901c85161660608b01528260501c1660808a019061ffff169052565b60601c1660a087019062ffffff169052565b016109a8565b910152565b6020818303126102645780519067ffffffffffffffff8211610264570181601f8201121561026457805161165981611099565b926116676040519485610986565b81845260208284010111610264576102c29160208085019101610269565b9594909691926102c29998949363ffffffff61012099168852602088015261ffff9384809216604089015216606087015262ffffff948580921660808801521660a08601521660c08401521660e082015281610100820152019061028c565b6040513d6000823e3d90fd5b604051906116fd8261096a565b601082526f30b8383634b1b0ba34b7b717b539b7b760811b6020830152565b9060a46020939460405195869463150b7a028652338787015260018060a01b03166040860152606085015260808085015280518091818060a088015261179d575b505001906000601c8401915af11561178e575b5163757a42ff60e11b0161178057565b63d1a57ed66000526004601cfd5b3d15611770573d6000823e3d90fd5b818760c08801920160045afa50803861175d565b6117ba81611274565b506000818152673ec412a9852d173d60c11b601c52602081208201820180546001600160a01b0381169190821561186e57829081855284836001018054801560011715611847575b61183f575b5050189055601c600c2080546000190190557fddf252ad1be2c89b69c2b068fc378daa952ba7f163c4a11628f55a4df523b3ef8280a4565b558438611807565b91509192506030600c205415611861578492918691611802565b634b6e7f1886526004601cfd5b63ceea21b684526004601cfd5b600019430143811161130c57604051916020830191428352406040840152606083015260608252608082019180831067ffffffffffffffff84111761053a5763ffffffff926040525190201690565b6001600160a01b0316801561195f576000828152673ec412a9852d173d60c11b601c5260208120830183018054606081901b6119525783179055818152601c600c2060018154019063ffffffff82161561194557557fddf252ad1be2c89b69c2b068fc378daa952ba7f163c4a11628f55a4df523b3ef8180a4565b6301336cea83526004601cfd5b63c991cbb183526004601cfd5b63ea553b346000526004601cfd5b638b78c6d81954330361197c57565b6382b429006000526004601cfd5b60018060a01b0316638b78c6d8198181547f8be0079c531659141344cd1fd0a4f28419497f9722a3daafe3b4186f6b6457e0600080a355565b602d6109ea91939293604051948591643230ba309d60d91b60208401526119f4815180926020602587019101610269565b8201670ed8985cd94d8d0b60c21b6025820152611a1a8251809360208785019101610269565b0103600d810185520183610986565b611a52602060405183611a458295518092858086019101610269565b8101038084520182610986565b80916000606092519384611a6d575b50506102c292506119c3565b9092506003906002906003600287010460021b92604051957f4142434445464748494a4b4c4d4e4f505152535455565758595a616263646566601f52603f916106707f6768696a6b6c6d6e6f707172737475767778797a303132333435363738392d5f18603f5260208801928689019560048360208901975b0195838751818160121c165188538181600c1c1651600153818160061c165185531651855385518152019486861015611b23576004908490611ae6565b505050505090506102c2956040600093016040526003613d3d60f01b91066002048203525282523880611a6156fea264697066735822122096525514599685f244e1a7afe5c11591de414a8d50c4b217599bfe5ac7b90dd964736f6c6343000817003360808060405234610016576140ab908161001c8239f35b600080fdfe6080604052600436101561001257600080fd5b60003560e01c8063053f1eb01461023457806306f582061461022f5780632bee6807146101f857806332ab619c1461022a57806333174f98146101cb5780633708be65146102255780633d5be2c21461022057806343f2614f1461021b5780635f17cac314610216578063640bab411461021157806372617f8a1461020c5780637510ac24146102075780637dbb90a2146101c65780637f3693191461020257806387598e52146101ee5780638c8c3796146101fd578063a891b35e146101f8578063aabc9896146101f3578063afae76fa146101ee578063b55ccc62146101cb578063bc689620146101e9578063be58b0a9146101ad578063bee84ae3146101e4578063bf35dd0b146101ad578063c46b294d146101df578063cd475f26146101da578063cdea0cef146101d5578063ce5ad179146101d0578063d0c3efa8146101cb578063d5ed88ce146101c6578063d61974f1146101c1578063d9237f14146101bc578063f051dcf8146101b7578063f283b512146101b2578063f49717ee146101ad5763f6130adc146101a857600080fd5b611009565b610d70565b610f3d565b610f21565b610ea9565b610e53565b610c1a565b61099d565b610e37565b610dfc565b610de6565b610dca565b610d8c565b610d54565b610c7e565b610d0f565b61082c565b610ce9565b610c33565b610bfe565b610bd8565b610b8d565b610a5f565b610a14565b6109f8565b6109b9565b610952565b6105fb565b610452565b634e487b7160e01b600052604160045260246000fd5b604081019081106001600160401b0382111761026a57604052565b610239565b60e081019081106001600160401b0382111761026a57604052565b61010081019081106001600160401b0382111761026a57604052565b61028081019081106001600160401b0382111761026a57604052565b60c081019081106001600160401b0382111761026a57604052565b6102a081019081106001600160401b0382111761026a57604052565b61018081019081106001600160401b0382111761026a57604052565b6101c081019081106001600160401b0382111761026a57604052565b606081019081106001600160401b0382111761026a57604052565b60a081019081106001600160401b0382111761026a57604052565b608081019081106001600160401b0382111761026a57604052565b610a4081019081106001600160401b0382111761026a57604052565b90601f801991011681019081106001600160401b0382111761026a57604052565b604051906103cc8261026f565b565b604051906103cc8261024f565b6001600160401b03811161026a57601f01601f191660200190565b60005b8381106104095750506000910152565b81810151838201526020016103f9565b90602091610432815180928185528580860191016103f6565b601f01601f1916010190565b90602061044f928181520190610419565b90565b346104b45760003660031901126104b4576104b06040516104728161024f565b601a81527f253343253246626f647925334525334325324668746d6c2533450000000000006020820152604051918291602083526020830190610419565b0390f35b600080fd5b6044359061ffff821682036104b457565b60c4359061ffff821682036104b457565b60a4359061ffff821682036104b457565b6084359062ffffff821682036104b457565b60a4359062ffffff821682036104b457565b60e4359062ffffff821682036104b457565b60c4359062ffffff821682036104b457565b81601f820112156104b45780359061054b826103db565b92610559604051948561039e565b828452602083830101116104b457816000926020809301838601378301015290565b906101006003198301126104b45760043563ffffffff811681036104b4579160243561ffff811681036104b457916105b16104b9565b9160643562ffffff811681036104b457916105ca6104ec565b916105d36104db565b916105dc610522565b9160e435906001600160401b0382116104b45761044f91600401610534565b346104b4576104b061061e61060f3661057b565b9695909594919493929361163c565b604051918291602083526020830190610419565b6001600160401b03811161026a5760051b60200190565b35906001600160a01b03821682036104b457565b359060058210156104b457565b91909160e0818403126104b45761067f6103bf565b926001600160401b0382358181116104b4578261069d918501610534565b85526106ab60208401610649565b602086015260408301358181116104b457826106c8918501610534565b60408601526106d96060840161065d565b606086015260808301358181116104b457826106f6918501610534565b608086015260a08301358181116104b45782610713918501610534565b60a086015260c08301359081116104b45761072e9201610534565b60c0830152565b81601f820112156104b45780359160209161074f84610632565b9361075d604051958661039e565b808552838086019160051b830101928084116104b457848301915b8483106107885750505050505090565b82356001600160401b0381116104b45786916107a98484809489010161066a565b815201920191610778565b6003196020828201126104b457600435916001600160401b03918284116104b45760409084830301126104b457604051926107ee8461024f565b80600401358381116104b45782600461080992840101610735565b845260248101359283116104b4576108249201600401610735565b602082015290565b346104b4576104b061061e610840366107b4565b61175f565b6005111561084f57565b634e487b7160e01b600052602160045260246000fd5b90600582101561084f5752565b908082519081815260208091019281808460051b8301019501936000915b8483106108a05750505050505090565b9091929394958480610942600193601f198682030187528a5161092f61091c6108f76108d560e0855190808852870190610419565b898060a01b038886015116888701526040808601519087830390880152610419565b61090960608086015190870190610865565b6080808501519086830390870152610419565b60a0808401519085830390860152610419565b9160c08092015191818403910152610419565b9801930193019194939290610890565b346104b45761098f6104b06109786109693661057b565b96959095949194939293612f56565b604092919251938493604085526040850190610872565b908382036020850152610872565b346104b45760003660031901126104b4576020604051600d8152f35b346104b45760003660031901126104b457602060405160458152f35b604051906109e28261024f565b60078252661e17b432b0b21f60c91b6020830152565b346104b45760003660031901126104b4576104b061061e6109d5565b346104b45760003660031901126104b4576104b0604051610a348161024f565b600a8152692533436865616425334560b01b6020820152604051918291602083526020830190610419565b346104b45760003660031901126104b4576104b0604051610a7f8161028a565b60d181527f7b226e616d65223a224e6f756e7320577261707065642032303233222c22696d60208201527f616765223a22697066733a2f2f6261667962656966643374796e62337565347760408201527f746677697137367675787433753578326d7a72797473636f3569797a6376667860608201527f3534636c346b7761222c226465736372697074696f6e223a224120636f6d6d6560808201527f6d6f726174697665204e465420666f7220616c6c207468652070656f706c652060a08201527f696e766f6c76656420696e2070726f6c696665726174696e6720746865204e6f60c082015270756e732044414f20696e2032303233227d60781b60e08201526040519182918261043e565b346104b45760003660031901126104b4576104b0604051610bad8161024f565b600a81526925334368746d6c25334560b01b6020820152604051918291602083526020830190610419565b346104b45760203660031901126104b457602060405160036002600435010460021b8152f35b346104b45760003660031901126104b457602060405160168152f35b346104b4576104b061061e610c2e366107b4565b6131bb565b346104b45760003660031901126104b4576104b0604051610c538161024f565b600a815269253343626f647925334560b01b6020820152604051918291602083526020830190610419565b346104b45760003660031901126104b457602060405160278152f35b60206003198201126104b457600435906001600160401b0382116104b45761044f9160040161066a565b9091610cdb61044f93604084526040840190610419565b916020818403910152610419565b346104b457610cff610cfa36610c9a565b61341b565b906104b060405192839283610cc4565b346104b4576104b061061e610d233661057b565b969590959491949392936134d6565b60405190610d3f8261024f565b60068252651e343a36b61f60d11b6020830152565b346104b45760003660031901126104b4576104b061061e610d32565b346104b45760003660031901126104b457602060405160178152f35b346104b45760003660031901126104b4576020604051605a8152f35b60405190610db58261024f565b60068252651e3432b0b21f60d11b6020830152565b346104b45760003660031901126104b4576104b061061e610da8565b346104b457610cff610df736610c9a565b613702565b346104b4576104b061061e610e1036610c9a565b6137b3565b60405190610e228261024f565b60068252651e3137b23c9f60d11b6020830152565b346104b45760003660031901126104b4576104b061061e610e15565b346104b45760003660031901126104b4576104b0604051610e738161024f565b6015815274646174612533417465787425324668746d6c25324360581b6020820152604051918291602083526020830190610419565b346104b45760003660031901126104b4576104b0604051610ec98161024f565b600d81526c2533432532466865616425334560981b6020820152604051918291602083526020830190610419565b60405190610f048261024f565b600e82526d1e17b137b23c9f1e17b43a36b61f60911b6020830152565b346104b45760003660031901126104b4576104b061061e610ef7565b346104b4576101203660031901126104b45760043563ffffffff811681036104b457610f676104b9565b906064359061ffff821682036104b457610f7f6104ec565b610f876104fe565b610f8f6104ca565b90610f98610510565b9261010435956001600160401b0387116104b4576104b097610fc1610fcb983690600401610534565b96602435906138b5565b6040519182918261043e565b60405190610fe48261024f565b601682527519185d184e9d195e1d0bda1d1b5b0ed8985cd94d8d0b60521b6020830152565b346104b45760003660031901126104b4576104b061061e610fd7565b634e487b7160e01b600052603260045260246000fd5b80516001101561104b5760400190565b611025565b80516002101561104b5760600190565b80516003101561104b5760800190565b80516004101561104b5760a00190565b80511561104b5760200190565b80516005101561104b5760c00190565b80516006101561104b5760e00190565b80516007101561104b576101000190565b80516008101561104b576101200190565b80516009101561104b576101400190565b8051600a101561104b576101600190565b8051600b101561104b576101800190565b8051600c101561104b576101a00190565b8051600d101561104b576101c00190565b8051600e101561104b576101e00190565b8051600f101561104b576102000190565b80516010101561104b576102200190565b80516011101561104b576102400190565b80516012101561104b576102600190565b80516013101561104b576102800190565b805182101561104b5760209160051b010190565b604051906111ab826102a6565b61025c82527f68743a2037303070783b206261636b67726f756e642d636f6c6f723a00000000610260837f3c7374796c653e626f64797b666f6e742d66616d696c793a506f7070696e732c60208201527f73616e732d73657269663b6d617267696e3a303b70616464696e673a303b646960408201527f73706c61793a666c65783b6a7573746966792d636f6e74656e743a63656e746560608201527f723b616c69676e2d6974656d733a63656e7465727d23637b706f736974696f6e60808201527f3a72656c61746976657d23777b706f736974696f6e3a6162736f6c7574653b6460a08201527f6973706c61793a666c65783b666c65782d646972656374696f6e3a636f6c756d60c08201527f6e3b6865696768743a313030253b636f6c6f723a236666663b666f6e742d776560e08201527f696768743a3430307d2e747b666f6e742d73697a653a323870787d2e6c7b666f6101008201527f6e742d73697a653a313570783b6d617267696e2d746f703a3670787d2e732c2e6101208201527f757b666f6e742d73697a653a353070783b666f6e742d7765696768743a3630306101408201527f3b666f6e742d66616d696c793a4d6f6e747365727261742c73616e732d7365726101608201527f69667d2e757b666f6e742d73697a653a353670783b6f766572666c6f773a68696101808201527f6464656e3b666f6e742d66616d696c793a4d6f6e747365727261742c73616e736101a08201527f2d73657269667d2e677b666c65782d67726f773a317d23617b6d617267696e2d6101c08201527f746f703a312e3572656d3b6d617267696e2d6c6566743a312e3572656d7d237a6101e08201527f7b6d617267696e2d626f74746f6d3a312e3572656d3b6d617267696e2d6c65666102008201527f743a312e3572656d7d236d7b6d617267696e2d626f74746f6d3a63616c6328316102208201527f72656d202d20387078297d2e707b77696474683a2037303070783b20686569676102408201520152565b6040519061149d8261024f565b60098252683e9e17b9ba3cb6329f60b91b6020830152565b604051906114c28261024f565b600f82526e1e39ba3cb6329f1e17b9ba3cb6329f60891b6020830152565b604051906114ed826102c2565b609382527f3c73766720786d6c6e733d22687474703a2f2f7777772e77332e6f72672f323060208301527f30302f737667222076696577426f783d223020302037303020373030223e3c6660408301527f6f726569676e4f626a6563742077696474683d2231303025222068656967687460608301527f3d2231303025223e3c626f647920786d6c6e733d22687474703a2f2f7777772e6080830152723b999737b93397989c9c9c97bc343a36b6111f60691b60a0830152565b604051906115b48261024f565b601d82527f3c2f626f64793e3c2f666f726569676e4f626a6563743e3c2f7376673e0000006020830152565b919082018092116115ed57565b634e487b7160e01b600052601160045260246000fd5b604051906116108261024f565b601a82527f646174613a696d6167652f7376672b786d6c3b6261736536342c0000000000006020830152565b9591936116c7979361165395611672979389612f56565b91909260c06116618561103b565b510161166b61119e565b9052613c78565b60c061167d84611050565b51015260c061168b83611060565b5101611695611490565b905260c06116a283611070565b51016116ac6114b5565b9052601381526116ba6103ce565b91825260208201526131bb565b61172b6116d26114e0565b916117256116de6115a7565b9161171f6117186116fd6116f588518551906115e0565b8651906115e0565b60209060408051916060818401018252018152016000815290565b9586613d6b565b84613d6b565b82613d6b565b61044f611736611603565b916117596117526116fd6116f584516002600391010460021b90565b9384613d6b565b82613db1565b611768906131bb565b61044f6117976016600360028551010460021b0160209060408051916060818401018252018152016000815290565b9161175961171f610fd7565b60408051916117b1836102c2565b60058352829160009160005b60a080821015611806578351602092916117d68261026f565b606080835280859289848601528189860152898286015281608086015284015260c08301528289010152016117bd565b50509293505050565b60409060405161181e816102dd565b60148152809260009060005b61028081106118395750505050565b60209082516118478161026f565b606080825283908682840152808684015286818401528060808401528060a084015260c083015282870101520161182a565b60405190611886826102f9565b61015782527f383030222072656c3d227374796c657368656574222f3e000000000000000000610160837f3c6c696e6b20687265663d2268747470733a2f2f666f6e74732e676f6f676c6560208201527f617069732e636f6d222072656c3d22707265636f6e6e656374222f3e3c6c696e60408201527f6b20687265663d2268747470733a2f2f666f6e74732e677374617469632e636f60608201527f6d222072656c3d22707265636f6e6e656374222063726f73736f726967696e3d60808201527f2274727565222f3e3c6c696e6b20687265663d2268747470733a2f2f666f6e7460a08201527f732e676f6f676c65617069732e636f6d2f637373323f66616d696c793d506f7060c08201527f70696e733a77676874403230303b3330303b3430303b3530303b3630303b373060e08201527f303b3830303b393030222072656c3d227374796c657368656574222f3e3c6c696101008201527f6e6b20687265663d2268747470733a2f2f666f6e74732e676f6f676c656170696101208201527f732e636f6d2f6373733f66616d696c793d4d6f6e747365727261743a3430302c6101408201520152565b60405190611a40826102dd565b7f773b6865696768743a31303076683b6261636b67726f756e642d636f6c6f723a610280808452837f3c7374796c653e626f64797b666f6e742d66616d696c793a506f7070696e732c60208201527f73616e732d73657269663b6d617267696e3a303b70616464696e673a303b646960408201527f73706c61793a666c65783b6a7573746966792d636f6e74656e743a63656e746560608201527f723b616c69676e2d6974656d733a63656e7465727d23637b706f736974696f6e60808201527f3a72656c61746976657d23777b706f736974696f6e3a6162736f6c7574653b6460a08201527f6973706c61793a666c65783b666c65782d646972656374696f6e3a636f6c756d60c08201527f6e3b6865696768743a313030253b636f6c6f723a236666663b666f6e742d776560e08201527f696768743a3430307d2e747b666f6e742d73697a653a6d696e283476772c34766101008201527f68297d2e6c7b666f6e742d73697a653a6d696e28322e3576772c322e357668296101208201527f3b6d617267696e2d746f703a3570787d2e732c2e757b666f6e742d73697a653a6101408201527f6d696e28362e3576772c362e357668293b666f6e742d7765696768743a3630306101608201527f3b666f6e742d66616d696c793a4d6f6e747365727261742c73616e732d7365726101808201527f69667d2e757b666f6e742d73697a653a6d696e283776772c377668293b6f76656101a08201527f72666c6f773a68696464656e3b666f6e742d66616d696c793a4d6f6e747365726101c08201527f7261742c73616e732d73657269667d2e677b666c65782d67726f773a317d23616101e08201527f7b6d617267696e2d746f703a312e3572656d3b6d617267696e2d6c6566743a316102008201527f2e3572656d7d237a7b6d617267696e2d626f74746f6d3a312e3572656d3b6d616102208201527f7267696e2d6c6566743a312e3572656d7d236d7b6d617267696e2d626f74746f6102408201527f6d3a63616c63283172656d202d20387078297d2e707b77696474683a313030766102608201520152565b60405190611d5782610315565b61018f82526e3a37b69d183ebe9e17b9ba3cb6329f60891b6101a0837f3c7374796c652073636f7065643d2274727565223e406d65646961207363726560208201527f656e20616e6420286d696e2d6865696768743a3732307078297b23617b6d617260408201527f67696e2d746f703a322e3572656d3b6d617267696e2d6c6566743a322e35726560608201527f6d7d237a7b6d617267696e2d626f74746f6d3a322e3572656d3b6d617267696e60808201527f2d6c6566743a322e3572656d7d7d406d656469612073637265656e20616e642060a08201527f286d61782d6865696768743a3435307078297b23617b6d617267696e2d746f7060c08201527f3a3172656d3b6d617267696e2d6c6566743a3172656d7d237a7b6d617267696e60e08201527f2d626f74746f6d3a3172656d3b6d617267696e2d6c6566743a3172656d7d7d406101008201527f6d656469612073637265656e20616e6420286d61782d6865696768743a3330306101208201527f7078297b23617b6d617267696e2d746f703a2e3572656d3b6d617267696e2d6c6101408201527f6566743a2e3572656d7d237a7b6d617267696e2d626f74746f6d3a2e3572656d6101608201527f3b6d617267696e2d6c6566743a2e3572656d7d236d7b6d617267696e2d626f746101808201520152565b60405190611f5182610331565b602382527f3c6d61696e2069643d22632220636c6173733d22702220646174612d636f6c6f602083015262391e9160e91b6040830152565b60405190611f968261024f565b600d82526c11103230ba3096b9b2b2b21e9160991b6020830152565b60405190611fbf8261034c565b606482527f223e3c6469762069643d2277223e3c6469762069643d2261223e3c646976206360208301527f6c6173733d2274223e4e6f756e7320577261707065642032303233202d20427960408301527f204e6f756e734b61726d612e78797a3c2f6469763e3c64697620636c6173733d606083015263113a911f60e11b6080830152565b604051906120518261034c565b606982527f3c2f6469763e3c2f6469763e3c64697620636c6173733d2267223e3c2f64697660208301527f3e3c6469762069643d227a223e3c64697620636c6173733d226c223e4361737460408301527f206f6e204e6f756e732044414f3c2f6469763e3c64697620636c6173733d2273606083015268111034b21e9136911f60b91b6080830152565b604051906120e882610331565b603782527632b21e17b234bb1f1e3234bb1031b630b9b99e9139911f60491b6040837f20766f7465733c2f6469763e3c64697620636c6173733d226c223e437265617460208201520152565b6040519061214182610331565b603782527632b21e17b234bb1f1e3234bb1031b630b9b99e9139911f60491b6040837f2070726f70733c2f6469763e3c64697620636c6173733d226c223e437265617460208201520152565b6040519061219a82610367565b604682527f2063616e642070726f70733c2f6469763e3c64697620636c6173733d226c223e60208301527f43617374206f6e2050726f70486f7573653c2f6469763e3c64697620636c6173604083015265399e9139911f60d11b6060830152565b6040519061220882610331565b603e82527f206f6e2070726f70733c2f6469763e3c64697620636c6173733d2273223e00006040837f20766f7465733c2f6469763e3c64697620636c6173733d226c223e476976656e60208201520152565b6040519061226782610331565b603d82527f706f6e736f7265643c2f6469763e3c64697620636c6173733d2273223e0000006040837f20666565646261636b733c2f6469763e3c64697620636c6173733d226c223e5360208201520152565b604051906122c68261024f565b601f82527f2070726f70733c2f6469763e3c2f6469763e3c2f6469763e3c2f6d61696e3e006020830152565b604051906122ff82610382565b610a1982527f65287429292c3235297d28297d29293b3c2f7363726970743e00000000000000610a20837f3c7363726970743e646f63756d656e742e6164644576656e744c697374656e6560208201527f722822444f4d436f6e74656e744c6f61646564222c2866756e6374696f6e282960408201527f7b66756e6374696f6e206528297b72657475726e2077696e646f772e696e6e6560608201527f724865696768743e3d77696e646f772e696e6e657257696474683f77696e646f60808201527f772e696e6e657257696474683a77696e646f772e696e6e65724865696768747d60a08201527f636f6e737420743d646f63756d656e742e717565727953656c6563746f72282260c08201527f6d61696e22292c6e3d66756e6374696f6e2865297b636f6e737420743d32313460e08201527f373438333634373b6c6574206e3d6525743b72657475726e28293d3e286e3d316101008201527f363830372a6e25742c6e2f74297d287061727365496e7428742e6461746173656101208201527f742e736565642c313029293b6c6574206f3d66756e6374696f6e28652c74297b6101408201527f72657475726e204d6174682e666c6f6f72287428292a65297d28342c6e292c796101608201527f3d6528292c6c3d6528292c783d6c2f3732302c723d343d3d6f3f32303a333d3d6101808201527f6f3f34303a323d3d6f3f36303a313d3d6f3f38303a3132302c693d5b5d2c613d6101a08201527f3230302c733d3130303b76617220633d742e646174617365742e636f6c6f723b6101c08201527f636f6e737420753d646f63756d656e742e637265617465456c656d656e7428226101e08201527f63616e76617322292c683d646f63756d656e742e676574456c656d656e7442796102008201527f496428226322293b682e636c6173734c6973742e72656d6f766528227022292c6102208201527f682e617070656e644368696c642875293b636f6e737420663d752e676574436f6102408201527f6e746578742822326422293b66756e6374696f6e206428652c742c6e297b72656102608201527f7475726e28312d6e292a652b6e2a747d66756e6374696f6e207728652c742c6e6102808201527f2c6f2c792c6c2c78297b72657475726e7b783a64286428652c742c78292c64286102a08201527f742c6e2c78292c78292c793a642864286f2c792c78292c6428792c6c2c78292c6102c08201527f78297d7d66756e6374696f6e207028652c742c6e2c6f2c79297b6c6574206c3d6102e08201527f332a28742d65292c783d332a286e2d74292d6c2c723d332a28742d65292c693d6103008201527f332a286e2d74292d722c613d6f2d652d722d693b72657475726e7b783a286f2d6103208201527f652d6c2d78292a4d6174682e706f7728792c33292b782a4d6174682e706f77286103408201527f792c32292b6c2a792b652c793a612a4d6174682e706f7728792c33292b692a4d6103608201527f6174682e706f7728792c32292b722a792b657d7d636f6c733d792f28722a78296103808201527f2c726f77733d6c2f28722a78293b766172206d3d6e28292c763d6e28292c4d3d6103a08201527f6e28292c673d6e28292c453d6e28292c4c3d6e28292c433d6e28292c533d6e286103c08201527f292c713d6e28292c483d6e28292c493d6e28292c523d6e28293b6c657420573d6103e08201527f7b783a3336302a6d2a782c793a3336302a762a787d2c7a3d7b783a3165332a4d6104008201527f2a782c793a3165332a672a787d2c413d7b783a3530302a452a782c793a3165336104208201527f2a4c2a782b3530302a787d2c423d7b783a313135302a432a782d3135302a782c6104408201527f793a3165332a532a787d2c443d7b783a3165332a712a782c793a3165332a482a6104608201527f787d2c463d7b783a313135302a492a782d3135302a782c793a3165332a522a786104808201527f2b3530302a787d3b666f72286c657420653d303b653c3d732f333b652b2b297b6104a08201527f6c657420743d7728572e782c7a2e782c412e782c572e792c7a2e792c412e792c6104c08201527f652f28732f3329293b692e707573682874297d666f72286c657420653d303b656104e08201527f3c3d732f333b652b2b297b6c657420743d652f28732f33292c6e3d7028412e786105008201527f2c422e782c442e782c462e782c74292c6f3d7028412e792c422e792c442e792c6105208201527f462e792c74293b692e70757368287b783a6e2c793a6f7d297d666f72286c65746105408201527f20653d303b653c3d732f333b652b2b297b6c657420743d652f28732f33292c6e6105608201527f3d6428462e782c572e782c74292c6f3d6428462e792c572e792c74293b692e706105808201527f757368287b783a6e2c793a6f7d297d666f72286c657420653d303b653c3d732f6105a08201527f323b652b2b297b6c657420743d652f28732f32292c6e3d7028412e782c422e786105c08201527f2c442e782c462e782c74292c6f3d7028412e792c422e792c442e792c462e792c6105e08201527f74293b692e70757368287b783a6e2c793a6f7d297d6c6574204f3d303b77696e6106008201527f646f772e6164644576656e744c697374656e65722822726573697a65222c28666106208201527f756e6374696f6e28297b793d6528292c6c3d6528292c783d6c2f3732302c723d6106408201527f6f3d3d342a783f32302a783a333d3d6f3f34302a783a323d3d6f3f36302a783a6106608201527f313d3d6f3f38302a783a3132302a782c662e63616e7661732e77696474683d796106808201527f2c662e63616e7661732e6865696768743d6c3b6c657420743d7b783a3336302a6106a08201527f6d2a782c793a3336302a762a787d2c6e3d7b783a3165332a4d2a782c793a31656106c08201527f332a672a787d2c613d7b783a3530302a452a782c793a3165332a4c2a782b35306106e08201527f302a787d2c633d7b783a313135302a432a782d3135302a782c793a3165332a536107008201527f2a787d2c753d7b783a3165332a712a782c793a3165332a482a787d2c683d7b786107208201527f3a313135302a492a782d3135302a782c793a3165332a522a782b3530302a787d6107408201527f3b693d5b5d3b666f72286c657420653d303b653c3d732f333b652b2b297b6c656107608201527f74206f3d7728742e782c6e2e782c612e782c742e792c6e2e792c612e792c652f6107808201527f28732f3329293b692e70757368286f297d666f72286c657420653d303b653c3d6107a08201527f732f333b652b2b297b6c657420743d652f28732f33292c6e3d7028612e782c636107c08201527f2e782c752e782c682e782c74292c6f3d7028612e792c632e792c752e792c682e6107e08201527f792c74293b692e70757368287b783a6e2c793a6f7d297d666f72286c657420656108008201527f3d303b653c3d732f333b652b2b297b6c6574206e3d652f28732f33292c6f3d646108208201527f28682e782c742e782c6e292c793d6428682e792c742e792c6e293b692e7075736108408201527f68287b783a6f2c793a797d297d666f72286c657420653d303b653c3d732f323b6108608201527f652b2b297b6c657420743d652f28732f32292c6e3d7028612e782c632e782c756108808201527f2e782c682e782c74292c6f3d7028612e792c632e792c752e792c682e792c74296108a08201527f3b692e70757368287b783a6e2c793a6f7d297d7d29292c66756e6374696f6e206108c08201527f7428297b4f2b2b2c66756e6374696f6e28297b662e63616e7661732e776964746108e08201527f683d6528292c662e63616e7661732e6865696768743d6528292c662e66696c6c6109008201527f5374796c653d632c662e66696c6c5265637428302c302c792c6c293b666f72286109208201527f6c657420653d303b653c613b652b2b297b6c657420743d284f2d312b652a732f6109408201527f612b692e6c656e6774682925692e6c656e6774682c6e3d695b4d6174682e666c6109608201527f6f6f722874295d2c6f3d4d6174682e666c6f6f72286e2e782f72292a722c793d6109808201527f4d6174682e666c6f6f72286e2e792f72292a722c6c3d322a65253336303b662e6109a08201527f66696c6c5374796c653d6068736c28247b6c7d2c20313030252c2035302529606109c08201527f2c662e66696c6c52656374286f2c792d31302c722c72297d7d28292c736574546109e08201527f696d656f7574282828293d3e72657175657374416e696d6174696f6e4672616d610a008201520152565b9192979693959097612f666117a3565b9660c0998a978897889687612f7a8d611080565b5101612f84611879565b905287612f908d61103b565b5101612f9a611a33565b90528b88612fa783613c78565b91612fb190611050565b51015287612fbe8d611060565b5101612fc8611490565b905287612fd48d611070565b5101612fde611d4a565b9052612fe861180f565b9d8e9181612ff584611080565b5101612fff611f44565b905261300a81613c78565b826130148561103b565b5101528161302184611050565b510161302b611f89565b905263ffffffff1661303c90613ea2565b9161304690611060565b510152868d8161305582611070565b510161305f611fb2565b905261306a9061108d565b510152856130778d61109d565b5101613081612044565b90528b62ffffff968780961661309690613ea2565b916130a0906110ad565b510152876130ad8d6110be565b51016130b76120db565b90528b61ffff98898094166130cb90613ea2565b916130d5906110cf565b510152886130e28d6110e0565b51016130ec612134565b9052166130f890613ea2565b876131028c6110f1565b5101528661310f8b611102565b510161311961218d565b90521661312590613ea2565b8561312f8a611113565b5101528461313c89611124565b51016131466121fb565b90521661315290613ea2565b8361315c88611135565b5101528261316987611146565b510161317361225a565b90521661317f90613ea2565b8161318986611157565b5101528061319685611168565b51016131a06122b9565b90526131ab84611179565b51016131b56122f2565b90529190565b600081518051613277575b506131f7602083019182518051613267575b5060270160209060408051916060818401018252018152016000815290565b9161320361171f610d32565b61320e61171f610da8565b518051613257575b506132286132226109d5565b83613d6b565b613233613222610e15565b518051613247575b5061044f611725610ef7565b6132519082613f9a565b3861323b565b6132619083613f9a565b38613216565b61327090613ee1565b01386131d8565b6132819150613ee1565b386131c6565b6040519061329482610367565b6044825263194d8d0b60e21b6060837f3c73637269707420747970653d22746578742f6a6176617363726970742b706e60208201527f6722207372633d22646174613a746578742f6a6176617363726970743b62617360408201520152565b604051906133008261024f565b600b82526a111f1e17b9b1b934b83a1f60a91b6020830152565b6040519061332782610367565b60458252641cd94d8d0b60da1b6060837f3c73637269707420747970653d22746578742f6a6176617363726970742b677a60208201527f697022207372633d22646174613a746578742f6a6176617363726970743b626160408201520152565b6040519061339482610331565b60298252681d0ed8985cd94d8d0b60ba1b6040837f3c736372697074207372633d22646174613a746578742f6a617661736372697060208201520152565b604051906133df8261024f565b60088252671e39b1b934b83a1f60c11b6020830152565b604051906134038261024f565b60098252681e17b9b1b934b83a1f60b91b6020830152565b90606082016001815161342d81610845565b61343681610845565b0361344f575090506134466133d2565b9061044f6133f6565b6002815161345c81610845565b61346581610845565b0361347e57509050613475613387565b9061044f6132f3565b6003815161348b81610845565b61349481610845565b036134a45750905061347561331a565b600490516134b181610845565b6134ba81610845565b146134cc5760a0608083015192015190565b9050613475613287565b9161044f979593916134e9979593612f56565b604051916134f68361024f565b8252602082015261175f565b6040519061350f8261034c565b607c82527f32466a61766173637269707425323533426261736536342532353243000000006080837f253235334373637269707425323532307479706525323533442532353232746560208201527f787425323532466a6176617363726970742532353242706e672532353232253260408201527f353230737263253235334425323532326461746125323533417465787425323560608201520152565b604051906135ba8261024f565b601f82527f25323532322532353345253235334325323532467363726970742532353345006020830152565b604051906135f38261034c565b607d82527f3532466a617661736372697074253235334262617365363425323532430000006080837f253235334373637269707425323532307479706525323533442532353232746560208201527f787425323532466a6176617363726970742532353242677a697025323532322560408201527f323532307372632532353344253235323264617461253235334174657874253260608201520152565b6040519061369e82610367565b604982526873653634253235324360b81b6060837f253235334373637269707425323532307372632532353344253235323264617460208201527f6125323533417465787425323532466a6176617363726970742532353342626160408201520152565b90606082016001815161371481610845565b61371d81610845565b148015613796575b1561373e57509050613735613691565b9061044f6135ad565b6003815161374b81610845565b61375481610845565b03613764575090506137356135e6565b6004905161377181610845565b61377a81610845565b1461378c5760a0608083015192015190565b9050613735613502565b50600281516137a481610845565b6137ad81610845565b14613725565b60c08101518051613899575060018060a01b0360208201511660408251920151916040518092633e58d56560e21b825281806137f6600097889660048401610cc4565b03915afa91821561388d57809261380c57505090565b9091503d8082843e61381e818461039e565b820191602081840312613885578051906001600160401b038211613889570182601f8201121561388557805191613854836103db565b93613862604051958661039e565b8385526020848401011161388257509061044f91602080850191016103f6565b80fd5b5080fd5b8280fd5b604051903d90823e3d90fd5b905090565b906138b1602092828151948592016103f6565b0190565b9283898989898986899e9b9c99989f9d9a8686868686868f6138d6976134d6565b9e6138e09761163c565b986138ea90613ea2565b9561ffff808094166138fb90613ea2565b921661390690613ea2565b9262ffffff8080931661391890613ea2565b951661392390613ea2565b951661392e90613ea2565b951661393990613ea2565b604051713d9130b734b6b0ba34b7b72fbab936111d1160711b6020820152998a9991979160328b0161396a9161389e565b6b1116101134b6b0b3b2911d1160a11b8152600c016139889161389e565b6f222c20226e616d65223a20224944202360801b81526010016139aa9161389e565b7f222c202261747472696275746573223a5b7b2274726169745f74797065223a2081527f2250726f70732043726561746564222c202276616c7565223a0000000000000060208201526039016139ff9161389e565b7f7d2c7b2274726169745f74797065223a202250726f70732053706f6e736f726581526b32111610113b30b63ab2911d60a11b6020820152602c01613a439161389e565b7f7d2c7b2274726169745f74797065223a2022566f7465732043617374222c227681526530b63ab2911d60d11b6020820152602601613a819161389e565b7f7d2c7b2274726169745f74797065223a202250726f70486f75736520566f746581526a399116113b30b63ab2911d60a91b6020820152602b01613ac49161389e565b7f7d2c7b2274726169745f74797065223a202243616e6469646174652050726f7081526a399116113b30b63ab2911d60a91b6020820152602b01613b079161389e565b7f7d2c7b2274726169745f74797065223a2022466565646261636b73206769766581526a371116113b30b63ab2911d60a91b6020820152602b01613b4a9161389e565b7f7d2c7b2274726169745f74797065223a2022557365726e616d65222c2276616c8152643ab2911d1160d91b6020820152602501613b879161389e565b63227d5d7d60e01b815260040103601f198101825261044f908261039e565b60405190613bb38261024f565b60078252662344353343354560c81b6020830152565b60405190613bd68261024f565b6007825266119a9c9c1ba32360c91b6020830152565b60405190613bf98261024f565b60078252662344433545374160c81b6020830152565b60405190613c1c8261024f565b60078252662331343236453160c81b6020830152565b60405190613c3f8261024f565b60078252662331423338463560c81b6020830152565b60405190613c628261024f565b60078252662345333746393560c81b6020830152565b9060405191613c868361026f565b6006835260005b60c08110613d5a575091613d569192613ca4613ba6565b613cad83611080565b52613cb782611080565b50613cc0613bc9565b613cc98361103b565b52613cd38261103b565b50613cdc613bec565b613ce583611050565b52613cef82611050565b50613cf8613c0f565b613d0183611060565b52613d0b82611060565b50613d14613c32565b613d1d83611070565b52613d2782611070565b50613d30613c55565b613d398361108d565b52613d438261108d565b50600663ffffffff80921606169061118a565b5190565b806060602080938701015201613c8d565b90613d77815183614003565b8051906020906020838183019201019060208551860101905b828110613da257505050508151019052565b80518252908301908301613d90565b8151918215613e9d5760039260026003600283010460021b926003830692613dd98587614003565b604051967f4142434445464748494a4b4c4d4e4f505152535455565758595a616263646566601f52603f61022f197f6768696a6b6c6d6e6f707172737475767778797a303132333435363738392d5f01603f5260048260208a518b0101948601955b0193828551818160121c165183538181600c1c16516001840153818160061c165189840153165184820153019284811015613e7a576004908390613e3b565b5050509150506001603d92838115158403531460011b9003538151019052604052565b505050565b90604051608081019260a0820160405260008452925b6000190192600a906030828206018553049283613eb857809350608091030191601f1901918252565b80518015613f935760019160009182919084805b613f03575b50505050905090565b93859192939415613f7a575b600090613f25613f1f878761118a565b516137b3565b8060c0613f32898961118a565b5101525101613f4a613f44878761118a565b5161341b565b9190806080613f598a8a61118a565b5101528260a0613f698a8a61118a565b510152510190510194939291613ef5565b93019281841015613f8c578490613f0f565b9280613efa565b5050600090565b60009182600180805b613fb0575b505050505050565b15613ff1575b8181613fec60a0613fc7898861118a565b51613fd660808201518a613d6b565b613fe460c08201518a613d6b565b015187613d6b565b613fa3565b8094019382518510613fb65780613fa8565b9061401990603f19601f198401510192516115e0565b1161402057565b60405162461bcd60e51b815260206004820152602760248201527f44796e616d69634275666665723a20417070656e64696e67206f7574206f66206044820152663137bab732399760c91b6064820152608490fdfea2646970667358221220cda79e59a75ff1076c2fd16d3c3c48c1bf9a5906c7174d6a8965c3c5e751daa664736f6c63430008170033",
  "linkReferences": {},
  "deployedLinkReferences": {}
}