{
  "_format": "hh-sol-artifact-1",
  "contractName": "Renderer",
  "sourceName": "contracts/Renderer.sol",
  "abi": [
    {
      "inputs": [],
      "name": "BODY_OPEN_RAW",
      "outputs": [
        {
          "internalType": "bytes",
          "name": "",
          "type": "bytes"
        }
      ],
      "stateMutability": "view",
      "type": "function"
    },
    {
      "inputs": [],
      "name": "BODY_OPEN_URL_SAFE",
      "outputs": [
        {
          "internalType": "bytes",
          "name": "",
          "type": "bytes"
        }
      ],
      "stateMutability": "view",
      "type": "function"
    },
    {
      "inputs": [],
      "name": "BODY_RAW_BYTES",
      "outputs": [
        {
          "internalType": "uint256",
          "name": "",
          "type": "uint256"
        }
      ],
      "stateMutability": "view",
      "type": "function"
    },
    {
      "inputs": [],
      "name": "BODY_SAFE_BYTES",
      "outputs": [
        {
          "internalType": "uint256",
          "name": "",
          "type": "uint256"
        }
      ],
      "stateMutability": "view",
      "type": "function"
    },
    {
      "inputs": [],
      "name": "DATA_HTML_BASE64_URI_RAW",
      "outputs": [
        {
          "internalType": "bytes",
          "name": "",
          "type": "bytes"
        }
      ],
      "stateMutability": "view",
      "type": "function"
    },
    {
      "inputs": [],
      "name": "DATA_HTML_URL_SAFE",
      "outputs": [
        {
          "internalType": "bytes",
          "name": "",
          "type": "bytes"
        }
      ],
      "stateMutability": "view",
      "type": "function"
    },
    {
      "inputs": [],
      "name": "HEAD_CLOSE_RAW",
      "outputs": [
        {
          "internalType": "bytes",
          "name": "",
          "type": "bytes"
        }
      ],
      "stateMutability": "view",
      "type": "function"
    },
    {
      "inputs": [],
      "name": "HEAD_CLOSE_URL_SAFE",
      "outputs": [
        {
          "internalType": "bytes",
          "name": "",
          "type": "bytes"
        }
      ],
      "stateMutability": "view",
      "type": "function"
    },
    {
      "inputs": [],
      "name": "HEAD_OPEN_RAW",
      "outputs": [
        {
          "internalType": "bytes",
          "name": "",
          "type": "bytes"
        }
      ],
      "stateMutability": "view",
      "type": "function"
    },
    {
      "inputs": [],
      "name": "HEAD_OPEN_URL_SAFE",
      "outputs": [
        {
          "internalType": "bytes",
          "name": "",
          "type": "bytes"
        }
      ],
      "stateMutability": "view",
      "type": "function"
    },
    {
      "inputs": [],
      "name": "HEAD_RAW_BYTES",
      "outputs": [
        {
          "internalType": "uint256",
          "name": "",
          "type": "uint256"
        }
      ],
      "stateMutability": "view",
      "type": "function"
    },
    {
      "inputs": [],
      "name": "HEAD_URL_SAFE_BYTES",
      "outputs": [
        {
          "internalType": "uint256",
          "name": "",
          "type": "uint256"
        }
      ],
      "stateMutability": "view",
      "type": "function"
    },
    {
      "inputs": [],
      "name": "HTML_BASE64_DATA_URI_BYTES",
      "outputs": [
        {
          "internalType": "uint256",
          "name": "",
          "type": "uint256"
        }
      ],
      "stateMutability": "view",
      "type": "function"
    },
    {
      "inputs": [],
      "name": "HTML_BODY_CLOSED_RAW",
      "outputs": [
        {
          "internalType": "bytes",
          "name": "",
          "type": "bytes"
        }
      ],
      "stateMutability": "view",
      "type": "function"
    },
    {
      "inputs": [],
      "name": "HTML_BODY_CLOSED_URL_SAFE",
      "outputs": [
        {
          "internalType": "bytes",
          "name": "",
          "type": "bytes"
        }
      ],
      "stateMutability": "view",
      "type": "function"
    },
    {
      "inputs": [],
      "name": "HTML_OPEN_RAW",
      "outputs": [
        {
          "internalType": "bytes",
          "name": "",
          "type": "bytes"
        }
      ],
      "stateMutability": "view",
      "type": "function"
    },
    {
      "inputs": [],
      "name": "HTML_OPEN_URL_SAFE",
      "outputs": [
        {
          "internalType": "bytes",
          "name": "",
          "type": "bytes"
        }
      ],
      "stateMutability": "view",
      "type": "function"
    },
    {
      "inputs": [],
      "name": "HTML_RAW_BYTES",
      "outputs": [
        {
          "internalType": "uint256",
          "name": "",
          "type": "uint256"
        }
      ],
      "stateMutability": "view",
      "type": "function"
    },
    {
      "inputs": [],
      "name": "HTML_URL_SAFE_BYTES",
      "outputs": [
        {
          "internalType": "uint256",
          "name": "",
          "type": "uint256"
        }
      ],
      "stateMutability": "view",
      "type": "function"
    },
    {
      "inputs": [],
      "name": "RAW_BYTES",
      "outputs": [
        {
          "internalType": "uint256",
          "name": "",
          "type": "uint256"
        }
      ],
      "stateMutability": "view",
      "type": "function"
    },
    {
      "inputs": [],
      "name": "URLS_RAW_BYTES",
      "outputs": [
        {
          "internalType": "uint256",
          "name": "",
          "type": "uint256"
        }
      ],
      "stateMutability": "view",
      "type": "function"
    },
    {
      "inputs": [],
      "name": "URLS_SAFE_BYTES",
      "outputs": [
        {
          "internalType": "uint256",
          "name": "",
          "type": "uint256"
        }
      ],
      "stateMutability": "view",
      "type": "function"
    },
    {
      "inputs": [],
      "name": "URL_SAFE_BYTES",
      "outputs": [
        {
          "internalType": "uint256",
          "name": "",
          "type": "uint256"
        }
      ],
      "stateMutability": "view",
      "type": "function"
    },
    {
      "inputs": [],
      "name": "contractJSON",
      "outputs": [
        {
          "internalType": "string",
          "name": "",
          "type": "string"
        }
      ],
      "stateMutability": "pure",
      "type": "function"
    },
    {
      "inputs": [
        {
          "components": [
            {
              "internalType": "string",
              "name": "name",
              "type": "string"
            },
            {
              "internalType": "address",
              "name": "contractAddress",
              "type": "address"
            },
            {
              "internalType": "bytes",
              "name": "contractData",
              "type": "bytes"
            },
            {
              "internalType": "enum HTMLTagType",
              "name": "tagType",
              "type": "uint8"
            },
            {
              "internalType": "bytes",
              "name": "tagOpen",
              "type": "bytes"
            },
            {
              "internalType": "bytes",
              "name": "tagClose",
              "type": "bytes"
            },
            {
              "internalType": "bytes",
              "name": "tagContent",
              "type": "bytes"
            }
          ],
          "internalType": "struct HTMLTag",
          "name": "htmlTag",
          "type": "tuple"
        }
      ],
      "name": "fetchTagContent",
      "outputs": [
        {
          "internalType": "bytes",
          "name": "",
          "type": "bytes"
        }
      ],
      "stateMutability": "view",
      "type": "function"
    },
    {
      "inputs": [
        {
          "components": [
            {
              "components": [
                {
                  "internalType": "string",
                  "name": "name",
                  "type": "string"
                },
                {
                  "internalType": "address",
                  "name": "contractAddress",
                  "type": "address"
                },
                {
                  "internalType": "bytes",
                  "name": "contractData",
                  "type": "bytes"
                },
                {
                  "internalType": "enum HTMLTagType",
                  "name": "tagType",
                  "type": "uint8"
                },
                {
                  "internalType": "bytes",
                  "name": "tagOpen",
                  "type": "bytes"
                },
                {
                  "internalType": "bytes",
                  "name": "tagClose",
                  "type": "bytes"
                },
                {
                  "internalType": "bytes",
                  "name": "tagContent",
                  "type": "bytes"
                }
              ],
              "internalType": "struct HTMLTag[]",
              "name": "headTags",
              "type": "tuple[]"
            },
            {
              "components": [
                {
                  "internalType": "string",
                  "name": "name",
                  "type": "string"
                },
                {
                  "internalType": "address",
                  "name": "contractAddress",
                  "type": "address"
                },
                {
                  "internalType": "bytes",
                  "name": "contractData",
                  "type": "bytes"
                },
                {
                  "internalType": "enum HTMLTagType",
                  "name": "tagType",
                  "type": "uint8"
                },
                {
                  "internalType": "bytes",
                  "name": "tagOpen",
                  "type": "bytes"
                },
                {
                  "internalType": "bytes",
                  "name": "tagClose",
                  "type": "bytes"
                },
                {
                  "internalType": "bytes",
                  "name": "tagContent",
                  "type": "bytes"
                }
              ],
              "internalType": "struct HTMLTag[]",
              "name": "bodyTags",
              "type": "tuple[]"
            }
          ],
          "internalType": "struct HTMLRequest",
          "name": "htmlRequest",
          "type": "tuple"
        }
      ],
      "name": "getEncodedHTML",
      "outputs": [
        {
          "internalType": "bytes",
          "name": "",
          "type": "bytes"
        }
      ],
      "stateMutability": "view",
      "type": "function"
    },
    {
      "inputs": [
        {
          "components": [
            {
              "components": [
                {
                  "internalType": "string",
                  "name": "name",
                  "type": "string"
                },
                {
                  "internalType": "address",
                  "name": "contractAddress",
                  "type": "address"
                },
                {
                  "internalType": "bytes",
                  "name": "contractData",
                  "type": "bytes"
                },
                {
                  "internalType": "enum HTMLTagType",
                  "name": "tagType",
                  "type": "uint8"
                },
                {
                  "internalType": "bytes",
                  "name": "tagOpen",
                  "type": "bytes"
                },
                {
                  "internalType": "bytes",
                  "name": "tagClose",
                  "type": "bytes"
                },
                {
                  "internalType": "bytes",
                  "name": "tagContent",
                  "type": "bytes"
                }
              ],
              "internalType": "struct HTMLTag[]",
              "name": "headTags",
              "type": "tuple[]"
            },
            {
              "components": [
                {
                  "internalType": "string",
                  "name": "name",
                  "type": "string"
                },
                {
                  "internalType": "address",
                  "name": "contractAddress",
                  "type": "address"
                },
                {
                  "internalType": "bytes",
                  "name": "contractData",
                  "type": "bytes"
                },
                {
                  "internalType": "enum HTMLTagType",
                  "name": "tagType",
                  "type": "uint8"
                },
                {
                  "internalType": "bytes",
                  "name": "tagOpen",
                  "type": "bytes"
                },
                {
                  "internalType": "bytes",
                  "name": "tagClose",
                  "type": "bytes"
                },
                {
                  "internalType": "bytes",
                  "name": "tagContent",
                  "type": "bytes"
                }
              ],
              "internalType": "struct HTMLTag[]",
              "name": "bodyTags",
              "type": "tuple[]"
            }
          ],
          "internalType": "struct HTMLRequest",
          "name": "htmlRequest",
          "type": "tuple"
        }
      ],
      "name": "getEncodedHTMLString",
      "outputs": [
        {
          "internalType": "string",
          "name": "",
          "type": "string"
        }
      ],
      "stateMutability": "view",
      "type": "function"
    },
    {
      "inputs": [
        {
          "components": [
            {
              "components": [
                {
                  "internalType": "string",
                  "name": "name",
                  "type": "string"
                },
                {
                  "internalType": "address",
                  "name": "contractAddress",
                  "type": "address"
                },
                {
                  "internalType": "bytes",
                  "name": "contractData",
                  "type": "bytes"
                },
                {
                  "internalType": "enum HTMLTagType",
                  "name": "tagType",
                  "type": "uint8"
                },
                {
                  "internalType": "bytes",
                  "name": "tagOpen",
                  "type": "bytes"
                },
                {
                  "internalType": "bytes",
                  "name": "tagClose",
                  "type": "bytes"
                },
                {
                  "internalType": "bytes",
                  "name": "tagContent",
                  "type": "bytes"
                }
              ],
              "internalType": "struct HTMLTag[]",
              "name": "headTags",
              "type": "tuple[]"
            },
            {
              "components": [
                {
                  "internalType": "string",
                  "name": "name",
                  "type": "string"
                },
                {
                  "internalType": "address",
                  "name": "contractAddress",
                  "type": "address"
                },
                {
                  "internalType": "bytes",
                  "name": "contractData",
                  "type": "bytes"
                },
                {
                  "internalType": "enum HTMLTagType",
                  "name": "tagType",
                  "type": "uint8"
                },
                {
                  "internalType": "bytes",
                  "name": "tagOpen",
                  "type": "bytes"
                },
                {
                  "internalType": "bytes",
                  "name": "tagClose",
                  "type": "bytes"
                },
                {
                  "internalType": "bytes",
                  "name": "tagContent",
                  "type": "bytes"
                }
              ],
              "internalType": "struct HTMLTag[]",
              "name": "bodyTags",
              "type": "tuple[]"
            }
          ],
          "internalType": "struct HTMLRequest",
          "name": "htmlRequest",
          "type": "tuple"
        }
      ],
      "name": "getHTML",
      "outputs": [
        {
          "internalType": "bytes",
          "name": "",
          "type": "bytes"
        }
      ],
      "stateMutability": "view",
      "type": "function"
    },
    {
      "inputs": [
        {
          "components": [
            {
              "components": [
                {
                  "internalType": "string",
                  "name": "name",
                  "type": "string"
                },
                {
                  "internalType": "address",
                  "name": "contractAddress",
                  "type": "address"
                },
                {
                  "internalType": "bytes",
                  "name": "contractData",
                  "type": "bytes"
                },
                {
                  "internalType": "enum HTMLTagType",
                  "name": "tagType",
                  "type": "uint8"
                },
                {
                  "internalType": "bytes",
                  "name": "tagOpen",
                  "type": "bytes"
                },
                {
                  "internalType": "bytes",
                  "name": "tagClose",
                  "type": "bytes"
                },
                {
                  "internalType": "bytes",
                  "name": "tagContent",
                  "type": "bytes"
                }
              ],
              "internalType": "struct HTMLTag[]",
              "name": "headTags",
              "type": "tuple[]"
            },
            {
              "components": [
                {
                  "internalType": "string",
                  "name": "name",
                  "type": "string"
                },
                {
                  "internalType": "address",
                  "name": "contractAddress",
                  "type": "address"
                },
                {
                  "internalType": "bytes",
                  "name": "contractData",
                  "type": "bytes"
                },
                {
                  "internalType": "enum HTMLTagType",
                  "name": "tagType",
                  "type": "uint8"
                },
                {
                  "internalType": "bytes",
                  "name": "tagOpen",
                  "type": "bytes"
                },
                {
                  "internalType": "bytes",
                  "name": "tagClose",
                  "type": "bytes"
                },
                {
                  "internalType": "bytes",
                  "name": "tagContent",
                  "type": "bytes"
                }
              ],
              "internalType": "struct HTMLTag[]",
              "name": "bodyTags",
              "type": "tuple[]"
            }
          ],
          "internalType": "struct HTMLRequest",
          "name": "htmlRequest",
          "type": "tuple"
        }
      ],
      "name": "getHTMLString",
      "outputs": [
        {
          "internalType": "string",
          "name": "",
          "type": "string"
        }
      ],
      "stateMutability": "view",
      "type": "function"
    },
    {
      "inputs": [
        {
          "internalType": "uint32",
          "name": "seed",
          "type": "uint32"
        },
        {
          "internalType": "uint24",
          "name": "mins",
          "type": "uint24"
        },
        {
          "internalType": "uint16",
          "name": "streak",
          "type": "uint16"
        },
        {
          "internalType": "string",
          "name": "username",
          "type": "string"
        }
      ],
      "name": "htmlRequest",
      "outputs": [
        {
          "components": [
            {
              "internalType": "string",
              "name": "name",
              "type": "string"
            },
            {
              "internalType": "address",
              "name": "contractAddress",
              "type": "address"
            },
            {
              "internalType": "bytes",
              "name": "contractData",
              "type": "bytes"
            },
            {
              "internalType": "enum HTMLTagType",
              "name": "tagType",
              "type": "uint8"
            },
            {
              "internalType": "bytes",
              "name": "tagOpen",
              "type": "bytes"
            },
            {
              "internalType": "bytes",
              "name": "tagClose",
              "type": "bytes"
            },
            {
              "internalType": "bytes",
              "name": "tagContent",
              "type": "bytes"
            }
          ],
          "internalType": "struct HTMLTag[]",
          "name": "",
          "type": "tuple[]"
        },
        {
          "components": [
            {
              "internalType": "string",
              "name": "name",
              "type": "string"
            },
            {
              "internalType": "address",
              "name": "contractAddress",
              "type": "address"
            },
            {
              "internalType": "bytes",
              "name": "contractData",
              "type": "bytes"
            },
            {
              "internalType": "enum HTMLTagType",
              "name": "tagType",
              "type": "uint8"
            },
            {
              "internalType": "bytes",
              "name": "tagOpen",
              "type": "bytes"
            },
            {
              "internalType": "bytes",
              "name": "tagClose",
              "type": "bytes"
            },
            {
              "internalType": "bytes",
              "name": "tagContent",
              "type": "bytes"
            }
          ],
          "internalType": "struct HTMLTag[]",
          "name": "",
          "type": "tuple[]"
        }
      ],
      "stateMutability": "pure",
      "type": "function"
    },
    {
      "inputs": [
        {
          "internalType": "uint32",
          "name": "seed",
          "type": "uint32"
        },
        {
          "internalType": "uint24",
          "name": "mins",
          "type": "uint24"
        },
        {
          "internalType": "uint16",
          "name": "streak",
          "type": "uint16"
        },
        {
          "internalType": "string",
          "name": "username",
          "type": "string"
        }
      ],
      "name": "htmlURI",
      "outputs": [
        {
          "internalType": "bytes",
          "name": "",
          "type": "bytes"
        }
      ],
      "stateMutability": "view",
      "type": "function"
    },
    {
      "inputs": [
        {
          "internalType": "uint256",
          "name": "value",
          "type": "uint256"
        }
      ],
      "name": "sizeForBase64Encoding",
      "outputs": [
        {
          "internalType": "uint256",
          "name": "",
          "type": "uint256"
        }
      ],
      "stateMutability": "pure",
      "type": "function"
    },
    {
      "inputs": [
        {
          "internalType": "uint32",
          "name": "seed",
          "type": "uint32"
        },
        {
          "internalType": "uint24",
          "name": "mins",
          "type": "uint24"
        },
        {
          "internalType": "uint16",
          "name": "streak",
          "type": "uint16"
        },
        {
          "internalType": "string",
          "name": "username",
          "type": "string"
        }
      ],
      "name": "svgURI",
      "outputs": [
        {
          "internalType": "bytes",
          "name": "",
          "type": "bytes"
        }
      ],
      "stateMutability": "view",
      "type": "function"
    },
    {
      "inputs": [
        {
          "components": [
            {
              "internalType": "string",
              "name": "name",
              "type": "string"
            },
            {
              "internalType": "address",
              "name": "contractAddress",
              "type": "address"
            },
            {
              "internalType": "bytes",
              "name": "contractData",
              "type": "bytes"
            },
            {
              "internalType": "enum HTMLTagType",
              "name": "tagType",
              "type": "uint8"
            },
            {
              "internalType": "bytes",
              "name": "tagOpen",
              "type": "bytes"
            },
            {
              "internalType": "bytes",
              "name": "tagClose",
              "type": "bytes"
            },
            {
              "internalType": "bytes",
              "name": "tagContent",
              "type": "bytes"
            }
          ],
          "internalType": "struct HTMLTag",
          "name": "htmlTag",
          "type": "tuple"
        }
      ],
      "name": "tagOpenCloseForHTMLTag",
      "outputs": [
        {
          "internalType": "bytes",
          "name": "",
          "type": "bytes"
        },
        {
          "internalType": "bytes",
          "name": "",
          "type": "bytes"
        }
      ],
      "stateMutability": "pure",
      "type": "function"
    },
    {
      "inputs": [
        {
          "components": [
            {
              "internalType": "string",
              "name": "name",
              "type": "string"
            },
            {
              "internalType": "address",
              "name": "contractAddress",
              "type": "address"
            },
            {
              "internalType": "bytes",
              "name": "contractData",
              "type": "bytes"
            },
            {
              "internalType": "enum HTMLTagType",
              "name": "tagType",
              "type": "uint8"
            },
            {
              "internalType": "bytes",
              "name": "tagOpen",
              "type": "bytes"
            },
            {
              "internalType": "bytes",
              "name": "tagClose",
              "type": "bytes"
            },
            {
              "internalType": "bytes",
              "name": "tagContent",
              "type": "bytes"
            }
          ],
          "internalType": "struct HTMLTag",
          "name": "htmlTag",
          "type": "tuple"
        }
      ],
      "name": "tagOpenCloseForHTMLTagURLSafe",
      "outputs": [
        {
          "internalType": "bytes",
          "name": "",
          "type": "bytes"
        },
        {
          "internalType": "bytes",
          "name": "",
          "type": "bytes"
        }
      ],
      "stateMutability": "pure",
      "type": "function"
    },
    {
      "inputs": [
        {
          "internalType": "uint32",
          "name": "seed",
          "type": "uint32"
        },
        {
          "internalType": "uint256",
          "name": "fid",
          "type": "uint256"
        },
        {
          "internalType": "uint24",
          "name": "mins",
          "type": "uint24"
        },
        {
          "internalType": "uint16",
          "name": "streak",
          "type": "uint16"
        },
        {
          "internalType": "string",
          "name": "username",
          "type": "string"
        }
      ],
      "name": "tokenJSON",
      "outputs": [
        {
          "internalType": "string",
          "name": "",
          "type": "string"
        }
      ],
      "stateMutability": "view",
      "type": "function"
    }
  ],
  "bytecode": "0x608060405234801561000f575f80fd5b506138a58061001d5f395ff3fe608060405234801561000f575f80fd5b5060043610610213575f3560e01c8063b55ccc621161011f578063ce5ad179116100a9578063d9237f1411610079578063d9237f14146104ed578063edcdc42914610519578063f051dcf81461052c578063f49717ee14610413578063f6130adc14610559575f80fd5b8063ce5ad17914610481578063d0c3efa81461029d578063d5ed88ce146104a6578063d61974f1146104b9575f80fd5b8063bf35dd0b116100ef578063bf35dd0b14610413578063c46b294d14610423578063c72de22f14610448578063cd475f261461045b578063cdea0cef1461046e575f80fd5b8063b55ccc621461029d578063bc689620146103ee578063be58b0a914610413578063bee84ae31461041b575f80fd5b8063640bab41116101a05780637f369319116101705780637f3693191461038957806387598e52146103b25780638c8c3796146103ba578063a891b35e146103db578063afae76fa146103b2575f80fd5b8063640bab411461032557806372617f8a1461034e5780637510ac241461036e5780637dbb90a214610376575f80fd5b80633708be65116101e65780633708be65146102b35780633d5be2c2146102bb57806343f2614f146102e15780634e8909041461030a5780635f17cac31461031d575f80fd5b8063053f1eb0146102175780632bee68071461026957806330fe87311461027c57806333174f981461029d575b5f80fd5b6102536040518060400160405280601a81526020017f253343253246626f647925334525334325324668746d6c25334500000000000081525081565b6040516102609190611996565b60405180910390f35b610253610277366004611c4c565b61058e565b61028f61028a366004611d23565b610631565b604051610260929190611eb6565b6102a5600d81565b604051908152602001610260565b6102a5604581565b610253604051806040016040528060078152602001661e17b432b0b21f60c91b81525081565b6102536040518060400160405280600a8152602001692533436865616425334560b01b81525081565b610253610318366004611d23565b610a7b565b610253610cf7565b6102536040518060400160405280600a81526020016925334368746d6c25334560b01b81525081565b6102a561035c366004611ee3565b5f600360028301046004029050919050565b6102a5601681565b610253610384366004611c4c565b610d18565b6102536040518060400160405280600a815260200169253343626f647925334560b01b81525081565b6102a5602781565b6103cd6103c8366004611efa565b610e6f565b604051610260929190611f2c565b6102536103e9366004611c4c565b611015565b610253604051806040016040528060068152602001651e343a36b61f60d11b81525081565b6102a5601781565b6102a5605a81565b610253604051806040016040528060068152602001651e3432b0b21f60d11b81525081565b610253610456366004611f50565b611026565b6103cd610469366004611efa565b611094565b61025361047c366004611efa565b611217565b610253604051806040016040528060068152602001651e3137b23c9f60d11b81525081565b6102536104b4366004611c4c565b6112a7565b61025360405180604001604052806015815260200174646174612533417465787425324668746d6c25324360581b81525081565b6102536040518060400160405280600d81526020016c2533432532466865616425334560981b81525081565b610253610527366004611d23565b6112b2565b6102536040518060400160405280600e81526020016d1e17b137b23c9f1e17b43a36b61f60911b81525081565b6102536040518060400160405280601681526020017519185d184e9d195e1d0bda1d1b5b0ed8985cd94d8d0b60521b81525081565b60605f61059a83610d18565b90505f6105b482515f600360028301046004029050919050565b60160190505f6105da82604080518281016060018252910181525f602090910190815290565b905061061d6040518060400160405280601681526020017519185d184e9d195e1d0bda1d1b5b0ed8985cd94d8d0b60521b815250826112ee90919063ffffffff16565b61062981845f80611307565b949350505050565b60408051600580825260c0820190925260609182915f91816020015b6106556118f4565b81526020019060019003908161064d57905050905060405180610180016040528061015781526020016128726101579139815f8151811061069857610698611fc4565b602002602001015160c00181905250604051806102a0016040528061026b81526020016129c961026b9139816001815181106106d6576106d6611fc4565b602002602001015160c001819052506106ee87611413565b8160028151811061070157610701611fc4565b602002602001015160c00181905250604051806040016040528060098152602001683e9e17b9ba3cb6329f60b91b8152508160038151811061074557610745611fc4565b602002602001015160c00181905250604051806101c0016040528061018f8152602001612c3461018f91398160048151811061078357610783611fc4565b602090810291909101015160c0015260408051600c8082526101a082019092525f91816020015b6107b26118f4565b8152602001906001900390816107aa5790505090506040518060600160405280602381526020016125b060239139815f815181106107f2576107f2611fc4565b602002602001015160c0018190525061080a88611413565b8160018151811061081d5761081d611fc4565b602002602001015160c001819052506040518060400160405280600d81526020016c11103230ba3096b9b2b2b21e9160991b8152508160028151811061086557610865611fc4565b602002602001015160c001819052506108838863ffffffff166115ea565b8160038151811061089657610896611fc4565b602002602001015160c0018190525060405180608001604052806050815260200161382060509139816004815181106108d1576108d1611fc4565b602002602001015160c0018190525084816005815181106108f4576108f4611fc4565b602002602001015160c001819052506040518060a00160405280606d81526020016124b5606d91398160068151811061092f5761092f611fc4565b602002602001015160c0018190525061094c8762ffffff166115ea565b8160078151811061095f5761095f611fc4565b602002602001015160c001819052506040518060600160405280603d8152602001612835603d91398160088151811061099a5761099a611fc4565b602002602001015160c001819052506109b68661ffff166115ea565b816009815181106109c9576109c9611fc4565b602002602001015160c001819052506040518060400160405280601e81526020017f20646179733c2f6469763e3c2f6469763e3c2f6469763e3c2f6d61696e3e000081525081600a81518110610a2157610a21611fc4565b602002602001015160c0018190525060405180610a400160405280610a198152602001612dc3610a19913981600b81518110610a5f57610a5f611fc4565b602090810291909101015160c001529097909650945050505050565b60605f80610a8b87878787610631565b9150915060405180610280016040528061024e815260200161226761024e913982600181518110610abe57610abe611fc4565b602002602001015160c00181905250610ad687611413565b82600281518110610ae957610ae9611fc4565b602002602001015160c00181905250604051806040016040528060098152602001683e9e17b9ba3cb6329f60b91b81525082600381518110610b2d57610b2d611fc4565b602002602001015160c001819052506040518060400160405280600f81526020016e1e39ba3cb6329f1e17b9ba3cb6329f60891b81525082600481518110610b7757610b77611fc4565b602002602001015160c00181905250600b81525f60405180604001604052808481526020018381525090505f610bac82610d18565b90505f6040518060c00160405280609381526020016125d36093913990505f6040518060400160405280601d81526020017f3c2f626f64793e3c2f666f726569676e4f626a6563743e3c2f7376673e00000081525090505f610c3d825185518551610c179190611fd8565b610c219190611fd8565b604080518281016060018252910181525f602090910190815290565b9050610c4981846112ee565b610c5381856112ee565b610c5d81836112ee565b60408051808201909152601a8082527f646174613a696d6167652f7376672b786d6c3b6261736536342c00000000000060208301528251600360029091010460040290610caa9082611fd8565b90505f610ccd82604080518281016060018252910181525f602090910190815290565b9050610cd981846112ee565b610ce581855f80611307565b9e9d5050505050505050505050505050565b606060405180610100016040528060d6815260200161275f60d69139905090565b8051516060905f9015610d34578251610d31905f61162c565b90505b60208301515115610d4f57610d4d83602001515f61162c565b015b5f610d5c60278301610c21565b9050610d8f604051806040016040528060068152602001651e343a36b61f60d11b815250826112ee90919063ffffffff16565b6040805180820190915260068152651e3432b0b21f60d11b6020820152610db79082906112ee565b83515115610dcd57610dcd81855f01515f6117ab565b6040805180820190915260078152661e17b432b0b21f60c91b6020820152610df69082906112ee565b6040805180820190915260068152651e3137b23c9f60d11b6020820152610e1e9082906112ee565b60208401515115610e3857610e388185602001515f6117ab565b60408051808201909152600e81526d1e17b137b23c9f1e17b43a36b61f60911b6020820152610e689082906112ee565b9392505050565b606080600183606001516004811115610e8a57610e8a611d8e565b03610edb57604051806040016040528060088152602001671e39b1b934b83a1f60c11b815250604051806040016040528060098152602001681e17b9b1b934b83a1f60b91b81525091509150915091565b600283606001516004811115610ef357610ef3611d8e565b03610f3e5760405180606001604052806029815260200161223e602991396040518060400160405280600b81526020016a111f1e17b9b1b934b83a1f60a91b81525091509150915091565b600383606001516004811115610f5657610f56611d8e565b03610fa15760405180608001604052806045815260200161256b604591396040518060400160405280600b81526020016a111f1e17b9b1b934b83a1f60a91b81525091509150915091565b600483606001516004811115610fb957610fb9611d8e565b03611004576040518060800160405280604481526020016137dc604491396040518060400160405280600b81526020016a111f1e17b9b1b934b83a1f60a91b81525091509150915091565b5050608081015160a0909101519091565b60606110208261058e565b92915050565b6060611034868585856112b2565b61104087868686610a7b565b611049876115ea565b6110578762ffffff166115ea565b6110648761ffff166115ea565b8660405160200161107a96959493929190612012565b604051602081830303815290604052905095945050505050565b6060806001836060015160048111156110af576110af611d8e565b14806110d057506002836060015160048111156110ce576110ce611d8e565b145b1561112d57604051806080016040528060498152602001612522604991396040518060400160405280601f81526020017f253235323225323533452532353343253235324673637269707425323533450081525091509150915091565b60038360600151600481111561114557611145611d8e565b036111a2576040518060a00160405280607d8152602001612666607d91396040518060400160405280601f81526020017f253235323225323533452532353343253235324673637269707425323533450081525091509150915091565b6004836060015160048111156111ba576111ba611d8e565b03611004576040518060a00160405280607c81526020016126e3607c91396040518060400160405280601f81526020017f253235323225323533452532353343253235324673637269707425323533450081525091509150915091565b60c0810151516060901561122d575060c0015190565b602082015182516040808501519051633e58d56560e21b81526001600160a01b039093169263f963559492611266929091600401611f2c565b5f60405180830381865afa158015611280573d5f803e3d5ffd5b505050506040513d5f823e601f3d908101601f1916820160405261102091908101906121a6565b606061102082610d18565b60605f806112c287878787610631565b915091506112e360405180604001604052808481526020018381525061058e565b979650505050505050565b6112f98282516117e5565b611303828261186c565b5050565b82515f819003611317575061140d565b60036002828101829004901b9082068315611339576001811481151501820391505b61134387836117e5565b6040517f4142434445464748494a4b4c4d4e4f505152535455565758595a616263646566601f526102308615027f6768696a6b6c6d6e6f707172737475767778797a303132333435363738392d5f03603f52875160208901018488015b6003890198508851603f8160121c16518353603f81600c1c16516001840153603f8160061c16516002840153603f8116516003840153506004820191508089106113a05750856113ff57603d831515820353603d6001841460011b8203535b508751909201875250604052505b50505050565b60408051600680825260e082019092526060915f9190816020015b606081526020019060019003908161142e579050509050604051806040016040528060078152602001662335323444363160c81b815250815f8151811061147757611477611fc4565b60200260200101819052506040518060400160405280600781526020016611991b18999a9b60c91b815250816001815181106114b5576114b5611fc4565b602002602001018190525060405180604001604052806007815260200166119c209b19a21960c91b815250816002815181106114f3576114f3611fc4565b60200260200101819052506040518060400160405280600781526020016608ccd18c514e4d60ca1b8152508160038151811061153157611531611fc4565b60200260200101819052506040518060400160405280600781526020016608d090508cd0d160ca1b8152508160048151811061156f5761156f611fc4565b602002602001018190525060405180604001604052806007815260200166119c209b19a21960c91b815250816005815181106115ad576115ad611fc4565b6020908102919091010152806115c460068561220f565b63ffffffff16815181106115da576115da611fc4565b6020026020010151915050919050565b60606080604051019050602081016040525f8152805f19835b928101926030600a8206018453600a900480611603575050819003601f19909101908152919050565b5f82515f0361163c57505f611020565b60608060605f80875190505f5b61166b89828151811061165e5761165e611fc4565b6020026020010151611217565b93508389828151811061168057611680611fc4565b602002602001015160c001819052508780156116ca575060018982815181106116ab576116ab611fc4565b60200260200101516060015160048111156116c8576116c8611d8e565b145b156116e55783516003600290910104600402830192506116ec565b8351830192505b871561171e5761171489828151811061170757611707611fc4565b6020026020010151611094565b9096509450611746565b61174089828151811061173357611733611fc4565b6020026020010151610e6f565b90965094505b8589828151811061175957611759611fc4565b6020026020010151608001819052508489828151811061177b5761177b611fc4565b602090810291909101015160a0015285518551930190920191600101818110611649575090979650505050505050565b5f5b6117d1848483815181106117c3576117c3611fc4565b6020026020010151846118a2565b825181600101915081106117ad5750505050565b5f6117f683601f190151603f190190565b90505f8284516118069190611fd8565b90508082101561140d5760405162461bcd60e51b815260206004820152602760248201527f44796e616d69634275666665723a20417070656e64696e67206f7574206f66206044820152663137bab732399760c91b606482015260840160405180910390fd5b8051602082019150808201602084510184015b8184101561189757835181526020938401930161187f565b505082510190915250565b60808201516118b29084906112ee565b80156118cf5760c08201516118ca9084905f80611307565b6118df565b60c08201516118df9084906112ee565b60a08201516118ef9084906112ee565b505050565b6040518060e00160405280606081526020015f6001600160a01b03168152602001606081526020015f600481111561192e5761192e611d8e565b81526020016060815260200160608152602001606081525090565b5f5b8381101561196357818101518382015260200161194b565b50505f910152565b5f8151808452611982816020860160208601611949565b601f01601f19169290920160200192915050565b602081525f610e68602083018461196b565b634e487b7160e01b5f52604160045260245ffd5b60405160e0810167ffffffffffffffff811182821017156119df576119df6119a8565b60405290565b604051601f8201601f1916810167ffffffffffffffff81118282101715611a0e57611a0e6119a8565b604052919050565b5f67ffffffffffffffff821115611a2f57611a2f6119a8565b50601f01601f191660200190565b5f82601f830112611a4c575f80fd5b8135611a5f611a5a82611a16565b6119e5565b818152846020838601011115611a73575f80fd5b816020850160208301375f918101602001919091529392505050565b80356001600160a01b0381168114611aa5575f80fd5b919050565b803560058110611aa5575f80fd5b5f60e08284031215611ac8575f80fd5b611ad06119bc565b9050813567ffffffffffffffff80821115611ae9575f80fd5b611af585838601611a3d565b8352611b0360208501611a8f565b60208401526040840135915080821115611b1b575f80fd5b611b2785838601611a3d565b6040840152611b3860608501611aaa565b60608401526080840135915080821115611b50575f80fd5b611b5c85838601611a3d565b608084015260a0840135915080821115611b74575f80fd5b611b8085838601611a3d565b60a084015260c0840135915080821115611b98575f80fd5b50611ba584828501611a3d565b60c08301525092915050565b5f82601f830112611bc0575f80fd5b8135602067ffffffffffffffff80831115611bdd57611bdd6119a8565b8260051b611bec8382016119e5565b9384528581018301938381019088861115611c05575f80fd5b84880192505b85831015611c4057823584811115611c22575f8081fd5b611c308a87838c0101611ab8565b8352509184019190840190611c0b565b98975050505050505050565b5f60208284031215611c5c575f80fd5b813567ffffffffffffffff80821115611c73575f80fd5b9083019060408286031215611c86575f80fd5b604051604081018181108382111715611ca157611ca16119a8565b604052823582811115611cb2575f80fd5b611cbe87828601611bb1565b825250602083013582811115611cd2575f80fd5b611cde87828601611bb1565b60208301525095945050505050565b803563ffffffff81168114611aa5575f80fd5b803562ffffff81168114611aa5575f80fd5b803561ffff81168114611aa5575f80fd5b5f805f8060808587031215611d36575f80fd5b611d3f85611ced565b9350611d4d60208601611d00565b9250611d5b60408601611d12565b9150606085013567ffffffffffffffff811115611d76575f80fd5b611d8287828801611a3d565b91505092959194509250565b634e487b7160e01b5f52602160045260245ffd5b60058110611dbe57634e487b7160e01b5f52602160045260245ffd5b9052565b5f81518084526020808501808196508360051b810191508286015f5b85811015611ea9578284038952815160e08151818752611e008288018261196b565b838901516001600160a01b0316888a0152604080850151898303828b01529193509150611e2d838261196b565b92505050606080830151611e4382890182611da2565b505060808083015187830382890152611e5c838261196b565b9250505060a08083015187830382890152611e77838261196b565b9250505060c08083015192508682038188015250611e95818361196b565b9a87019a9550505090840190600101611dde565b5091979650505050505050565b604081525f611ec86040830185611dc2565b8281036020840152611eda8185611dc2565b95945050505050565b5f60208284031215611ef3575f80fd5b5035919050565b5f60208284031215611f0a575f80fd5b813567ffffffffffffffff811115611f20575f80fd5b61062984828501611ab8565b604081525f611f3e604083018561196b565b8281036020840152611eda818561196b565b5f805f805f60a08688031215611f64575f80fd5b611f6d86611ced565b945060208601359350611f8260408701611d00565b9250611f9060608701611d12565b9150608086013567ffffffffffffffff811115611fab575f80fd5b611fb788828901611a3d565b9150509295509295909350565b634e487b7160e01b5f52603260045260245ffd5b8082018082111561102057634e487b7160e01b5f52601160045260245ffd5b5f8151612008818560208601611949565b9290920192915050565b713d9130b734b6b0ba34b7b72fbab936111d1160711b815286515f9061203f816012850160208c01611949565b6a11161134b6b0b3b2911d1160a91b601291840191820152875161206a81601d840160208c01611949565b6e222c226e616d65223a22464944202360881b601d9290910191820152865161209a81602c840160208b01611949565b7f222c2261747472696275746573223a5b7b2274726169745f74797065223a224d602c92909101918201527f696e75746573205370656e742043617374696e67222c2276616c7565223a0000604c82015285516120fe81606a840160208a01611949565b61219861218861218261214c612146606a868801017f7d2c7b2274726169745f74797065223a2253747265616b222c2276616c7565228152601d60f91b602082015260210190565b8a611ff7565b7f7d2c7b2274726169745f74797065223a22557365726e616d65222c2276616c7581526332911d1160e11b602082015260240190565b87611ff7565b63227d5d7d60e01b815260040190565b9a9950505050505050505050565b5f602082840312156121b6575f80fd5b815167ffffffffffffffff8111156121cc575f80fd5b8201601f810184136121dc575f80fd5b80516121ea611a5a82611a16565b8181528560208385010111156121fe575f80fd5b611eda826020830160208601611949565b5f63ffffffff8084168061223157634e487b7160e01b5f52601260045260245ffd5b9216919091069291505056fe3c736372697074207372633d22646174613a746578742f6a6176617363726970743b6261736536342c3c7374796c653e626f64797b666f6e742d66616d696c793a506f7070696e732c73616e732d73657269663b6d617267696e3a303b70616464696e673a303b646973706c61793a666c65783b6a7573746966792d636f6e74656e743a63656e7465723b616c69676e2d6974656d733a63656e7465727d23637b706f736974696f6e3a72656c61746976657d23777b706f736974696f6e3a6162736f6c7574653b646973706c61793a666c65783b666c65782d646972656374696f6e3a636f6c756d6e3b6865696768743a313030253b636f6c6f723a236666663b666f6e742d7765696768743a3430307d2e747b666f6e742d73697a653a323870787d2e6c7b666f6e742d73697a653a323870787d2e732c2e757b666f6e742d73697a653a31313270783b666f6e742d7765696768743a3830303b666f6e742d66616d696c793a4d6f6e747365727261742c73616e732d73657269667d2e757b666f6e742d73697a653a353670783b6f766572666c6f773a68696464656e3b666f6e742d66616d696c793a4d6f6e747365727261742c73616e732d73657269667d2e677b666c65782d67726f773a317d23617b6d617267696e2d746f703a312e3572656d3b6d617267696e2d6c6566743a312e3572656d7d237a7b6d617267696e2d626f74746f6d3a312e3572656d3b6d617267696e2d6c6566743a312e3572656d7d236d7b6d617267696e2d626f74746f6d3a63616c63283172656d202d20387078297d2e707b77696474683a2037303070783b206865696768743a2037303070783b206261636b67726f756e642d636f6c6f723a3c2f6469763e3c2f6469763e3c64697620636c6173733d2267223e3c2f6469763e3c6469762069643d227a223e3c64697620636c6173733d226c223e4d696e75746573205370656e742043617374696e673c2f6469763e3c64697620636c6173733d2273222069643d226d223e25323533437363726970742532353230737263253235334425323532326461746125323533417465787425323532466a617661736372697074253235334262617365363425323532433c73637269707420747970653d22746578742f6a6176617363726970742b677a697022207372633d22646174613a746578742f6a6176617363726970743b6261736536342c3c6d61696e2069643d22632220636c6173733d22702220646174612d636f6c6f723d223c73766720786d6c6e733d22687474703a2f2f7777772e77332e6f72672f323030302f737667222076696577426f783d223020302037303020373030223e3c666f726569676e4f626a6563742077696474683d223130302522206865696768743d2231303025223e3c626f647920786d6c6e733d22687474703a2f2f7777772e77332e6f72672f313939392f7868746d6c223e2532353343736372697074253235323074797065253235334425323532327465787425323532466a6176617363726970742532353242677a697025323532322532353230737263253235334425323532326461746125323533417465787425323532466a617661736372697074253235334262617365363425323532432532353343736372697074253235323074797065253235334425323532327465787425323532466a6176617363726970742532353242706e6725323532322532353230737263253235334425323532326461746125323533417465787425323532466a617661736372697074253235334262617365363425323532437b226e616d65223a224e6f756e7320577261707065642032303233222c22696d616765223a22697066733a2f2f626166796265696265736573666363646474637a6174623674347074367136717a67767561673336746b79656c6d6e737461676b746e7272667469222c226465736372697074696f6e223a224120636f6d6d656d6f726174697665204e465420666f7220616c6c207468652070656f706c6520696e766f6c76656420696e2070726f6c696665726174696e6720746865204e6f756e732070726f746f636f6c20696e2032303233227d3c2f6469763e3c64697620636c6173733d226c223e4c6f6e6765737420436173742053747265616b3c2f6469763e3c64697620636c6173733d2273223e3c6c696e6b20687265663d2268747470733a2f2f666f6e74732e676f6f676c65617069732e636f6d222072656c3d22707265636f6e6e656374222f3e3c6c696e6b20687265663d2268747470733a2f2f666f6e74732e677374617469632e636f6d222072656c3d22707265636f6e6e656374222063726f73736f726967696e3d2274727565222f3e3c6c696e6b20687265663d2268747470733a2f2f666f6e74732e676f6f676c65617069732e636f6d2f637373323f66616d696c793d506f7070696e733a77676874403230303b3330303b3430303b3530303b3630303b3730303b3830303b393030222072656c3d227374796c657368656574222f3e3c6c696e6b20687265663d2268747470733a2f2f666f6e74732e676f6f676c65617069732e636f6d2f6373733f66616d696c793d4d6f6e747365727261743a3430302c383030222072656c3d227374796c657368656574222f3e3c7374796c653e626f64797b666f6e742d66616d696c793a506f7070696e732c73616e732d73657269663b6d617267696e3a303b70616464696e673a303b646973706c61793a666c65783b6a7573746966792d636f6e74656e743a63656e7465723b616c69676e2d6974656d733a63656e7465727d23637b706f736974696f6e3a72656c61746976657d23777b706f736974696f6e3a6162736f6c7574653b646973706c61793a666c65783b666c65782d646972656374696f6e3a636f6c756d6e3b6865696768743a313030253b636f6c6f723a236666663b666f6e742d7765696768743a3430307d2e747b666f6e742d73697a653a6d696e283476772c347668297d2e6c7b666f6e742d73697a653a6d696e283476772c347668297d2e732c2e757b666f6e742d73697a653a6d696e28313676772c31367668293b666f6e742d7765696768743a3830303b666f6e742d66616d696c793a4d6f6e747365727261742c73616e732d73657269667d2e757b666f6e742d73697a653a6d696e283876772c387668293b6f766572666c6f773a68696464656e3b666f6e742d66616d696c793a4d6f6e747365727261742c73616e732d73657269667d2e677b666c65782d67726f773a317d23617b6d617267696e2d746f703a312e3572656d3b6d617267696e2d6c6566743a312e3572656d7d237a7b6d617267696e2d626f74746f6d3a312e3572656d3b6d617267696e2d6c6566743a312e3572656d7d236d7b6d617267696e2d626f74746f6d3a63616c63283172656d202d20387078297d2e707b77696474683a31303076773b6865696768743a31303076683b6261636b67726f756e642d636f6c6f723a3c7374796c652073636f7065643d2274727565223e406d656469612073637265656e20616e6420286d696e2d6865696768743a3732307078297b23617b6d617267696e2d746f703a322e3572656d3b6d617267696e2d6c6566743a322e3572656d7d237a7b6d617267696e2d626f74746f6d3a322e3572656d3b6d617267696e2d6c6566743a322e3572656d7d7d406d656469612073637265656e20616e6420286d61782d6865696768743a3435307078297b23617b6d617267696e2d746f703a3172656d3b6d617267696e2d6c6566743a3172656d7d237a7b6d617267696e2d626f74746f6d3a3172656d3b6d617267696e2d6c6566743a3172656d7d7d406d656469612073637265656e20616e6420286d61782d6865696768743a3330307078297b23617b6d617267696e2d746f703a2e3572656d3b6d617267696e2d6c6566743a2e3572656d7d237a7b6d617267696e2d626f74746f6d3a2e3572656d3b6d617267696e2d6c6566743a2e3572656d7d236d7b6d617267696e2d626f74746f6d3a307d7d3c2f7374796c653e3c7363726970743e646f63756d656e742e6164644576656e744c697374656e65722822444f4d436f6e74656e744c6f61646564222c2866756e6374696f6e28297b66756e6374696f6e206528297b72657475726e2077696e646f772e696e6e65724865696768743e3d77696e646f772e696e6e657257696474683f77696e646f772e696e6e657257696474683a77696e646f772e696e6e65724865696768747d636f6e737420743d646f63756d656e742e717565727953656c6563746f7228226d61696e22292c6e3d66756e6374696f6e2865297b636f6e737420743d323134373438333634373b6c6574206e3d6525743b72657475726e28293d3e286e3d31363830372a6e25742c6e2f74297d287061727365496e7428742e646174617365742e736565642c313029293b6c6574206f3d66756e6374696f6e28652c74297b72657475726e204d6174682e666c6f6f72287428292a65297d28342c6e292c793d6528292c6c3d6528292c783d6c2f3732302c723d343d3d6f3f32303a333d3d6f3f34303a323d3d6f3f36303a313d3d6f3f38303a3132302c693d5b5d2c613d3230302c733d3130303b76617220633d742e646174617365742e636f6c6f723b636f6e737420753d646f63756d656e742e637265617465456c656d656e74282263616e76617322292c683d646f63756d656e742e676574456c656d656e744279496428226322293b682e636c6173734c6973742e72656d6f766528227022292c682e617070656e644368696c642875293b636f6e737420663d752e676574436f6e746578742822326422293b66756e6374696f6e206428652c742c6e297b72657475726e28312d6e292a652b6e2a747d66756e6374696f6e207728652c742c6e2c6f2c792c6c2c78297b72657475726e7b783a64286428652c742c78292c6428742c6e2c78292c78292c793a642864286f2c792c78292c6428792c6c2c78292c78297d7d66756e6374696f6e207028652c742c6e2c6f2c79297b6c6574206c3d332a28742d65292c783d332a286e2d74292d6c2c723d332a28742d65292c693d332a286e2d74292d722c613d6f2d652d722d693b72657475726e7b783a286f2d652d6c2d78292a4d6174682e706f7728792c33292b782a4d6174682e706f7728792c32292b6c2a792b652c793a612a4d6174682e706f7728792c33292b692a4d6174682e706f7728792c32292b722a792b657d7d636f6c733d792f28722a78292c726f77733d6c2f28722a78293b766172206d3d6e28292c763d6e28292c4d3d6e28292c673d6e28292c453d6e28292c4c3d6e28292c433d6e28292c533d6e28292c713d6e28292c483d6e28292c493d6e28292c523d6e28293b6c657420573d7b783a3336302a6d2a782c793a3336302a762a787d2c7a3d7b783a3165332a4d2a782c793a3165332a672a787d2c413d7b783a3530302a452a782c793a3165332a4c2a782b3530302a787d2c423d7b783a313135302a432a782d3135302a782c793a3165332a532a787d2c443d7b783a3165332a712a782c793a3165332a482a787d2c463d7b783a313135302a492a782d3135302a782c793a3165332a522a782b3530302a787d3b666f72286c657420653d303b653c3d732f333b652b2b297b6c657420743d7728572e782c7a2e782c412e782c572e792c7a2e792c412e792c652f28732f3329293b692e707573682874297d666f72286c657420653d303b653c3d732f333b652b2b297b6c657420743d652f28732f33292c6e3d7028412e782c422e782c442e782c462e782c74292c6f3d7028412e792c422e792c442e792c462e792c74293b692e70757368287b783a6e2c793a6f7d297d666f72286c657420653d303b653c3d732f333b652b2b297b6c657420743d652f28732f33292c6e3d6428462e782c572e782c74292c6f3d6428462e792c572e792c74293b692e70757368287b783a6e2c793a6f7d297d666f72286c657420653d303b653c3d732f323b652b2b297b6c657420743d652f28732f32292c6e3d7028412e782c422e782c442e782c462e782c74292c6f3d7028412e792c422e792c442e792c462e792c74293b692e70757368287b783a6e2c793a6f7d297d6c6574204f3d303b77696e646f772e6164644576656e744c697374656e65722822726573697a65222c2866756e6374696f6e28297b793d6528292c6c3d6528292c783d6c2f3732302c723d6f3d3d342a783f32302a783a333d3d6f3f34302a783a323d3d6f3f36302a783a313d3d6f3f38302a783a3132302a782c662e63616e7661732e77696474683d792c662e63616e7661732e6865696768743d6c3b6c657420743d7b783a3336302a6d2a782c793a3336302a762a787d2c6e3d7b783a3165332a4d2a782c793a3165332a672a787d2c613d7b783a3530302a452a782c793a3165332a4c2a782b3530302a787d2c633d7b783a313135302a432a782d3135302a782c793a3165332a532a787d2c753d7b783a3165332a712a782c793a3165332a482a787d2c683d7b783a313135302a492a782d3135302a782c793a3165332a522a782b3530302a787d3b693d5b5d3b666f72286c657420653d303b653c3d732f333b652b2b297b6c6574206f3d7728742e782c6e2e782c612e782c742e792c6e2e792c612e792c652f28732f3329293b692e70757368286f297d666f72286c657420653d303b653c3d732f333b652b2b297b6c657420743d652f28732f33292c6e3d7028612e782c632e782c752e782c682e782c74292c6f3d7028612e792c632e792c752e792c682e792c74293b692e70757368287b783a6e2c793a6f7d297d666f72286c657420653d303b653c3d732f333b652b2b297b6c6574206e3d652f28732f33292c6f3d6428682e782c742e782c6e292c793d6428682e792c742e792c6e293b692e70757368287b783a6f2c793a797d297d666f72286c657420653d303b653c3d732f323b652b2b297b6c657420743d652f28732f32292c6e3d7028612e782c632e782c752e782c682e782c74292c6f3d7028612e792c632e792c752e792c682e792c74293b692e70757368287b783a6e2c793a6f7d297d7d29292c66756e6374696f6e207428297b4f2b2b2c66756e6374696f6e28297b662e63616e7661732e77696474683d6528292c662e63616e7661732e6865696768743d6528292c662e66696c6c5374796c653d632c662e66696c6c5265637428302c302c792c6c293b666f72286c657420653d303b653c613b652b2b297b6c657420743d284f2d312b652a732f612b692e6c656e6774682925692e6c656e6774682c6e3d695b4d6174682e666c6f6f722874295d2c6f3d4d6174682e666c6f6f72286e2e782f72292a722c793d4d6174682e666c6f6f72286e2e792f72292a722c6c3d322a65253336303b662e66696c6c5374796c653d6068736c28247b6c7d2c20313030252c2035302529602c662e66696c6c52656374286f2c792d31302c722c72297d7d28292c73657454696d656f7574282828293d3e72657175657374416e696d6174696f6e4672616d65287429292c3235297d28297d29293b3c2f7363726970743e3c73637269707420747970653d22746578742f6a6176617363726970742b706e6722207372633d22646174613a746578742f6a6176617363726970743b6261736536342c223e3c6469762069643d2277223e3c6469762069643d2261223e3c64697620636c6173733d2274223e4e6f756e73205772617070656420323032333c2f6469763e3c64697620636c6173733d2275223ea2646970667358221220535574f9bb4dde8de5b54b33accabefaaa97c0be8e7f07b054c2d6deb2b8371764736f6c63430008150033",
  "linkReferences": {},
  "deployedLinkReferences": {}
}