{
	"data": {
		"bytecode": {
			"linkReferences": {},
			"object": "608060405234801561000f575f80fd5b50614f778061001d5f395ff3fe608060405234801561000f575f80fd5b506004361061021a575f3560e01c8063afae76fa11610123578063ce5ad179116100ab578063d9237f141161007a578063d9237f1414610689578063f051dcf8146106a7578063f283b512146106c5578063f49717ee146106f5578063f6130adc146107135761021a565b8063ce5ad179146105ff578063d0c3efa81461061d578063d5ed88ce1461063b578063d61974f11461066b5761021a565b8063bee84ae3116100f2578063bee84ae314610544578063bf35dd0b14610562578063c46b294d14610580578063cd475f261461059e578063cdea0cef146105cf5761021a565b8063afae76fa146104cc578063b55ccc62146104ea578063bc68962014610508578063be58b0a9146105265761021a565b8063640bab41116101a65780637f369319116101755780637f369319146103ff57806387598e521461041d5780638c8c37961461043b578063a891b35e1461046c578063aabc98961461049c5761021a565b8063640bab411461036357806372617f8a146103815780637510ac24146103b15780637dbb90a2146103cf5761021a565b806333174f98116101ed57806333174f98146102cd5780633708be65146102eb5780633d5be2c21461030957806343f2614f146103275780635f17cac3146103455761021a565b8063053f1eb01461021e57806306f582061461023c5780632bee68071461026c57806332ab619c1461029c575b5f80fd5b610226610731565b604051610233919061242c565b60405180910390f35b61025660048036038101906102519190612631565b61076a565b604051610263919061242c565b60405180910390f35b61028660048036038101906102819190612ac5565b6109ef565b604051610293919061242c565b60405180910390f35b6102b660048036038101906102b19190612631565b610a86565b6040516102c4929190612d98565b60405180910390f35b6102d5611104565b6040516102e29190612de5565b60405180910390f35b6102f3611109565b6040516103009190612de5565b60405180910390f35b61031161110e565b60405161031e919061242c565b60405180910390f35b61032f611147565b60405161033c919061242c565b60405180910390f35b61034d611180565b60405161035a9190612e46565b60405180910390f35b61036b6111a1565b604051610378919061242c565b60405180910390f35b61039b60048036038101906103969190612e90565b6111da565b6040516103a89190612de5565b60405180910390f35b6103b96111fa565b6040516103c69190612de5565b60405180910390f35b6103e960048036038101906103e49190612ac5565b6111ff565b6040516103f6919061242c565b60405180910390f35b6104076113fc565b604051610414919061242c565b60405180910390f35b610425611435565b6040516104329190612de5565b60405180910390f35b61045560048036038101906104509190612ebb565b61143a565b604051610463929190612f02565b60405180910390f35b61048660048036038101906104819190612ac5565b61168d565b6040516104939190612e46565b60405180910390f35b6104b660048036038101906104b19190612631565b61169f565b6040516104c3919061242c565b60405180910390f35b6104d46116e4565b6040516104e19190612de5565b60405180910390f35b6104f26116e9565b6040516104ff9190612de5565b60405180910390f35b6105106116ee565b60405161051d919061242c565b60405180910390f35b61052e611727565b60405161053b9190612de5565b60405180910390f35b61054c61172c565b6040516105599190612de5565b60405180910390f35b61056a611731565b6040516105779190612de5565b60405180910390f35b610588611736565b604051610595919061242c565b60405180910390f35b6105b860048036038101906105b39190612ebb565b61176f565b6040516105c6929190612f02565b60405180910390f35b6105e960048036038101906105e49190612ebb565b611951565b6040516105f6919061242c565b60405180910390f35b6106076119fc565b604051610614919061242c565b60405180910390f35b610625611a35565b6040516106329190612de5565b60405180910390f35b61065560048036038101906106509190612ac5565b611a3a565b6040516106629190612e46565b60405180910390f35b610673611a4c565b604051610680919061242c565b60405180910390f35b610691611a85565b60405161069e919061242c565b60405180910390f35b6106af611abe565b6040516106bc919061242c565b60405180910390f35b6106df60048036038101906106da9190612f37565b611af7565b6040516106ec9190612e46565b60405180910390f35b6106fd611bab565b60405161070a9190612de5565b60405180910390f35b61071b611bb0565b604051610728919061242c565b60405180910390f35b6040518060400160405280601a81526020017f253343253246626f647925334525334325324668746d6c25334500000000000081525081565b60605f8061077e8b8b8b8b8b8b8b8b610a86565b9150915060405180610280016040528061025c81526020016141c361025c9139826001815181106107b2576107b1613017565b5b602002602001015160c001819052506107ca8b611be9565b826002815181106107de576107dd613017565b5b602002602001015160c001819052506040518060400160405280600981526020017f7d3c2f7374796c653e00000000000000000000000000000000000000000000008152508260038151811061083757610836613017565b5b602002602001015160c001819052506040518060400160405280600f81526020017f3c7374796c653e3c2f7374796c653e0000000000000000000000000000000000815250826004815181106108905761088f613017565b5b602002602001015160c00181905250601381525f60405180604001604052808481526020018381525090505f6108c5826111ff565b90505f6040518060c00160405280609381526020016139e46093913990505f6040518060400160405280601d81526020017f3c2f626f64793e3c2f666f726569676e4f626a6563743e3c2f7376673e00000081525090505f61093f8251855185516109309190613071565b61093a9190613071565b611e6f565b905061094b8184611e98565b6109558185611e98565b61095f8183611e98565b5f6040518060400160405280601a81526020017f646174613a696d6167652f7376672b786d6c3b6261736536342c00000000000081525090505f6109a383516111da565b90508151816109b29190613071565b90505f6109be82611e6f565b90506109ca8184611e98565b6109d681855f80611eb1565b809a505050505050505050505098975050505050505050565b60605f6109fb836111ff565b90505f610a0882516111da565b90506016810190505f610a1a82611e6f565b9050610a646040518060400160405280601681526020017f646174613a746578742f68746d6c3b6261736536342c0000000000000000000081525082611e9890919063ffffffff16565b610a7b835f8084611eb1909392919063ffffffff16565b809350505050919050565b6060805f600567ffffffffffffffff811115610aa557610aa461250d565b5b604051908082528060200260200182016040528015610ade57816020015b610acb61233f565b815260200190600190039081610ac35790505b5090506040518061018001604052806101578152602001613edd6101579139815f81518110610b1057610b0f613017565b5b602002602001015160c00181905250604051806102a001604052806102698152602001613c74610269913981600181518110610b4f57610b4e613017565b5b602002602001015160c00181905250610b678b611be9565b81600281518110610b7b57610b7a613017565b5b602002602001015160c001819052506040518060400160405280600981526020017f7d3c2f7374796c653e000000000000000000000000000000000000000000000081525081600381518110610bd457610bd3613017565b5b602002602001015160c00181905250604051806101c0016040528061018f815260200161403461018f913981600481518110610c1357610c12613017565b5b602002602001015160c001819052505f601467ffffffffffffffff811115610c3e57610c3d61250d565b5b604051908082528060200260200182016040528015610c7757816020015b610c6461233f565b815260200190600190039081610c5c5790505b5090506040518060600160405280602381526020016139c160239139815f81518110610ca657610ca5613017565b5b602002602001015160c00181905250610cbe8c611be9565b81600181518110610cd257610cd1613017565b5b602002602001015160c001819052506040518060400160405280600d81526020017f2220646174612d736565643d220000000000000000000000000000000000000081525081600281518110610d2b57610d2a613017565b5b602002602001015160c00181905250610d498c63ffffffff16611fd9565b81600381518110610d5d57610d5c613017565b5b602002602001015160c00181905250604051806080016040528060508152602001614e7c6050913981600481518110610d9957610d98613017565b5b602002602001015160c001819052508481600581518110610dbd57610dbc613017565b5b602002602001015160c001819052506040518060a00160405280606281526020016138536062913981600681518110610df957610df8613017565b5b602002602001015160c00181905250610e168962ffffff16611fd9565b81600781518110610e2a57610e29613017565b5b602002602001015160c00181905250604051806060016040528060338152602001613c416033913981600881518110610e6657610e65613017565b5b602002602001015160c00181905250610e828b61ffff16611fd9565b81600981518110610e9657610e95613017565b5b602002602001015160c00181905250604051806060016040528060398152602001614ecc6039913981600a81518110610ed257610ed1613017565b5b602002602001015160c00181905250610eee8761ffff16611fd9565b81600b81518110610f0257610f01613017565b5b602002602001015160c001819052506040518060600160405280603f8152602001613982603f913981600c81518110610f3e57610f3d613017565b5b602002602001015160c00181905250610f5b8862ffffff16611fd9565b81600d81518110610f6f57610f6e613017565b5b602002602001015160c001819052506040518060600160405280603f8152602001613943603f913981600e81518110610fab57610faa613017565b5b602002602001015160c00181905250610fc88662ffffff16611fd9565b81600f81518110610fdc57610fdb613017565b5b602002602001015160c001819052506040518060600160405280603d8152602001614f05603d91398160108151811061101857611017613017565b5b602002602001015160c001819052506110348a61ffff16611fd9565b8160118151811061104857611047613017565b5b602002602001015160c001819052506040518060400160405280601f81526020017f2070726f70733c2f6469763e3c2f6469763e3c2f6469763e3c2f6d61696e3e00815250816012815181106110a1576110a0613017565b5b602002602001015160c0018190525060405180610a400160405280610a19815260200161441f610a199139816013815181106110e0576110df613017565b5b602002602001015160c0018190525081819350935050509850989650505050505050565b600d81565b604581565b6040518060400160405280600781526020017f3c2f686561643e0000000000000000000000000000000000000000000000000081525081565b6040518060400160405280600a81526020017f253343686561642533450000000000000000000000000000000000000000000081525081565b606060405180610100016040528060d18152602001613b7060d19139905090565b6040518060400160405280600a81526020017f25334368746d6c2533450000000000000000000000000000000000000000000081525081565b5f600360028301816111ef576111ee6130a4565b5b046004029050919050565b601681565b60605f80835f015151111561121e5761121b835f01515f612028565b90505b5f836020015151111561123e5761123983602001515f612028565b810190505b5f61125061124b836121cd565b611e6f565b905061129a6040518060400160405280600681526020017f3c68746d6c3e000000000000000000000000000000000000000000000000000081525082611e9890919063ffffffff16565b6112e26040518060400160405280600681526020017f3c686561643e000000000000000000000000000000000000000000000000000081525082611e9890919063ffffffff16565b5f845f01515111156112fd576112fc81855f01515f6121dc565b5b6113456040518060400160405280600781526020017f3c2f686561643e0000000000000000000000000000000000000000000000000081525082611e9890919063ffffffff16565b61138d6040518060400160405280600681526020017f3c626f64793e000000000000000000000000000000000000000000000000000081525082611e9890919063ffffffff16565b5f84602001515111156113aa576113a98185602001515f6121dc565b5b6113f26040518060400160405280600e81526020017f3c2f626f64793e3c2f68746d6c3e00000000000000000000000000000000000081525082611e9890919063ffffffff16565b8092505050919050565b6040518060400160405280600a81526020017f253343626f64792533450000000000000000000000000000000000000000000081525081565b602781565b6060806001600481111561145157611450612bde565b5b8360600151600481111561146857611467612bde565b5b036114e2576040518060400160405280600881526020017f3c7363726970743e0000000000000000000000000000000000000000000000008152506040518060400160405280600981526020017f3c2f7363726970743e000000000000000000000000000000000000000000000081525091509150611688565b600260048111156114f6576114f5612bde565b5b8360600151600481111561150d5761150c612bde565b5b0361156a5760405180606001604052806029815260200161382a602991396040518060400160405280600b81526020017f223e3c2f7363726970743e00000000000000000000000000000000000000000081525091509150611688565b6003600481111561157e5761157d612bde565b5b8360600151600481111561159557611594612bde565b5b036115f2576040518060800160405280604581526020016138fe604591396040518060400160405280600b81526020017f223e3c2f7363726970743e00000000000000000000000000000000000000000081525091509150611688565b60048081111561160557611604612bde565b5b8360600151600481111561161c5761161b612bde565b5b0361167957604051806080016040528060448152602001614e38604491396040518060400160405280600b81526020017f223e3c2f7363726970743e00000000000000000000000000000000000000000081525091509150611688565b82608001518360a00151915091505b915091565b6060611698826109ef565b9050919050565b60605f806116b38b8b8b8b8b8b8b8b610a86565b915091506116d46040518060400160405280848152602001838152506109ef565b9250505098975050505050505050565b602781565b600d81565b6040518060400160405280600681526020017f3c68746d6c3e000000000000000000000000000000000000000000000000000081525081565b601781565b605a81565b601781565b6040518060400160405280600681526020017f3c686561643e000000000000000000000000000000000000000000000000000081525081565b6060806001600481111561178657611785612bde565b5b8360600151600481111561179d5761179c612bde565b5b14806117d15750600260048111156117b8576117b7612bde565b5b836060015160048111156117cf576117ce612bde565b5b145b1561182e576040518060800160405280604981526020016138b5604991396040518060400160405280601f81526020017f25323532322532353345253235334325323532467363726970742532353345008152509150915061194c565b6003600481111561184257611841612bde565b5b8360600151600481111561185957611858612bde565b5b036118b6576040518060a00160405280607d8152602001613a77607d91396040518060400160405280601f81526020017f25323532322532353345253235334325323532467363726970742532353345008152509150915061194c565b6004808111156118c9576118c8612bde565b5b836060015160048111156118e0576118df612bde565b5b0361193d576040518060a00160405280607c8152602001613af4607c91396040518060400160405280601f81526020017f25323532322532353345253235334325323532467363726970742532353345008152509150915061194c565b82608001518360a00151915091505b915091565b60605f8260c0015151111561196c578160c0015190506119f7565b816020015173ffffffffffffffffffffffffffffffffffffffff1663f9635594835f015184604001516040518363ffffffff1660e01b81526004016119b29291906130d1565b5f60405180830381865afa1580156119cc573d5f803e3d5ffd5b505050506040513d5f823e3d601f19601f820116820180604052508101906119f49190613174565b90505b919050565b6040518060400160405280600681526020017f3c626f64793e000000000000000000000000000000000000000000000000000081525081565b600d81565b6060611a45826111ff565b9050919050565b6040518060400160405280601581526020017f646174612533417465787425324668746d6c253243000000000000000000000081525081565b6040518060400160405280600d81526020017f253343253246686561642533450000000000000000000000000000000000000081525081565b6040518060400160405280600e81526020017f3c2f626f64793e3c2f68746d6c3e00000000000000000000000000000000000081525081565b6060611b098a8989898989898961169f565b611b198b8a8a8a8a8a8a8a61076a565b611b228b611fd9565b611b2f8b61ffff16611fd9565b611b3c8b61ffff16611fd9565b611b4a8b62ffffff16611fd9565b611b588b62ffffff16611fd9565b611b658b61ffff16611fd9565b611b738b62ffffff16611fd9565b8a604051602001611b8d9a99989796959493929190613667565b60405160208183030381529060405290509998505050505050505050565b601781565b6040518060400160405280601681526020017f646174613a746578742f68746d6c3b6261736536342c0000000000000000000081525081565b60605f600667ffffffffffffffff811115611c0757611c0661250d565b5b604051908082528060200260200182016040528015611c3a57816020015b6060815260200190600190039081611c255790505b5090506040518060400160405280600781526020017f2344353343354500000000000000000000000000000000000000000000000000815250815f81518110611c8657611c85613017565b5b60200260200101819052506040518060400160405280600781526020017f233539383746460000000000000000000000000000000000000000000000000081525081600181518110611cdb57611cda613017565b5b60200260200101819052506040518060400160405280600781526020017f234443354537410000000000000000000000000000000000000000000000000081525081600281518110611d3057611d2f613017565b5b60200260200101819052506040518060400160405280600781526020017f233134323645310000000000000000000000000000000000000000000000000081525081600381518110611d8557611d84613017565b5b60200260200101819052506040518060400160405280600781526020017f233142333846350000000000000000000000000000000000000000000000000081525081600481518110611dda57611dd9613017565b5b60200260200101819052506040518060400160405280600781526020017f234533374639350000000000000000000000000000000000000000000000000081525081600581518110611e2f57611e2e613017565b5b602002602001018190525080600684611e48919061376b565b63ffffffff1681518110611e5f57611e5e613017565b5b6020026020010151915050919050565b60606040516060830180820180604052505060408301808252506020810191505f825250919050565b611ea3828251612217565b611ead828261227c565b5050565b5f835190505f845103611ec45750611fd3565b5f806003600284010460021b91506003830690508315611eeb576001811481151501820391505b611ef58783612217565b6040517f4142434445464748494a4b4c4d4e4f505152535455565758595a616263646566601f526102308615027f6768696a6b6c6d6e6f707172737475767778797a303132333435363738392d5f03603f52875160208901018488015b600115611fa8576003890198508851603f8160121c16518353603f81600c1c16516001840153603f8160061c16516002840153603f8116516003840153600483019250818a10611fa25750611fa8565b50611f52565b86611fc257603d841515830353603d6001851460011b8303535b848a51018a52826040525050505050505b50505050565b60606080604051019050602081016040525f8152805f19835b600115612013578184019350600a81066030018453600a8104905080611ff2575b50828203602084039350808452505050919050565b5f80835103612039575f90506121c7565b60608060605f80875190505f5b61206989828151811061205c5761205b613017565b5b6020026020010151611951565b93508389828151811061207f5761207e613017565b5b602002602001015160c001819052508780156120dd5750600160048111156120aa576120a9612bde565b5b8982815181106120bd576120bc613017565b5b60200260200101516060015160048111156120db576120da612bde565b5b145b156120f5576120ec84516111da565b830192506120fc565b8351830192505b87156121325761212589828151811061211857612117613017565b5b602002602001015161176f565b809650819750505061215e565b61215589828151811061214857612147613017565b5b602002602001015161143a565b80965081975050505b8589828151811061217257612171613017565b5b6020026020010151608001819052508489828151811061219557612194613017565b5b602002602001015160a00181905250855183019250845183019250818160010191508110612046578296505050505050505b92915050565b5f602790508181019050919050565b5f5b612203848483815181106121f5576121f4613017565b5b6020026020010151846122b9565b825181600101915081106121de5750505050565b5f6122218361232a565b90505f8284516122319190613071565b905080821015612276576040517f08c379a000000000000000000000000000000000000000000000000000000000815260040161226d9061380b565b60405180910390fd5b50505050565b8051602082019150808201602084510184015b818410156122ac578351815260208401935060208101905061228f565b5050808351018352505050565b6122d0826080015184611e9890919063ffffffff16565b80156122f6576122f18260c001515f8086611eb1909392919063ffffffff16565b61230e565b61230d8260c0015184611e9890919063ffffffff16565b5b6123258260a0015184611e9890919063ffffffff16565b505050565b5f806040602084035103905080915050919050565b6040518060e00160405280606081526020015f73ffffffffffffffffffffffffffffffffffffffff168152602001606081526020015f600481111561238757612386612bde565b5b81526020016060815260200160608152602001606081525090565b5f81519050919050565b5f82825260208201905092915050565b5f5b838110156123d95780820151818401526020810190506123be565b5f8484015250505050565b5f601f19601f8301169050919050565b5f6123fe826123a2565b61240881856123ac565b93506124188185602086016123bc565b612421816123e4565b840191505092915050565b5f6020820190508181035f83015261244481846123f4565b905092915050565b5f604051905090565b5f80fd5b5f80fd5b5f63ffffffff82169050919050565b6124758161245d565b811461247f575f80fd5b50565b5f813590506124908161246c565b92915050565b5f61ffff82169050919050565b6124ac81612496565b81146124b6575f80fd5b50565b5f813590506124c7816124a3565b92915050565b5f62ffffff82169050919050565b6124e4816124cd565b81146124ee575f80fd5b50565b5f813590506124ff816124db565b92915050565b5f80fd5b5f80fd5b7f4e487b71000000000000000000000000000000000000000000000000000000005f52604160045260245ffd5b612543826123e4565b810181811067ffffffffffffffff821117156125625761256161250d565b5b80604052505050565b5f61257461244c565b9050612580828261253a565b919050565b5f67ffffffffffffffff82111561259f5761259e61250d565b5b6125a8826123e4565b9050602081019050919050565b828183375f83830152505050565b5f6125d56125d084612585565b61256b565b9050828152602081018484840111156125f1576125f0612509565b5b6125fc8482856125b5565b509392505050565b5f82601f83011261261857612617612505565b5b81356126288482602086016125c3565b91505092915050565b5f805f805f805f80610100898b03121561264e5761264d612455565b5b5f61265b8b828c01612482565b985050602061266c8b828c016124b9565b975050604061267d8b828c016124b9565b965050606061268e8b828c016124f1565b955050608061269f8b828c016124f1565b94505060a06126b08b828c016124b9565b93505060c06126c18b828c016124f1565b92505060e089013567ffffffffffffffff8111156126e2576126e1612459565b5b6126ee8b828c01612604565b9150509295985092959890939650565b5f80fd5b5f80fd5b5f67ffffffffffffffff8211156127205761271f61250d565b5b602082029050602081019050919050565b5f80fd5b5f73ffffffffffffffffffffffffffffffffffffffff82169050919050565b5f61275e82612735565b9050919050565b61276e81612754565b8114612778575f80fd5b50565b5f8135905061278981612765565b92915050565b5f67ffffffffffffffff8211156127a9576127a861250d565b5b6127b2826123e4565b9050602081019050919050565b5f6127d16127cc8461278f565b61256b565b9050828152602081018484840111156127ed576127ec612509565b5b6127f88482856125b5565b509392505050565b5f82601f83011261281457612813612505565b5b81356128248482602086016127bf565b91505092915050565b60058110612839575f80fd5b50565b5f8135905061284a8161282d565b92915050565b5f60e08284031215612865576128646126fe565b5b61286f60e061256b565b90505f82013567ffffffffffffffff81111561288e5761288d612702565b5b61289a84828501612604565b5f8301525060206128ad8482850161277b565b602083015250604082013567ffffffffffffffff8111156128d1576128d0612702565b5b6128dd84828501612800565b60408301525060606128f18482850161283c565b606083015250608082013567ffffffffffffffff81111561291557612914612702565b5b61292184828501612800565b60808301525060a082013567ffffffffffffffff81111561294557612944612702565b5b61295184828501612800565b60a08301525060c082013567ffffffffffffffff81111561297557612974612702565b5b61298184828501612800565b60c08301525092915050565b5f61299f61299a84612706565b61256b565b905080838252602082019050602084028301858111156129c2576129c1612731565b5b835b81811015612a0957803567ffffffffffffffff8111156129e7576129e6612505565b5b8086016129f48982612850565b855260208501945050506020810190506129c4565b5050509392505050565b5f82601f830112612a2757612a26612505565b5b8135612a3784826020860161298d565b91505092915050565b5f60408284031215612a5557612a546126fe565b5b612a5f604061256b565b90505f82013567ffffffffffffffff811115612a7e57612a7d612702565b5b612a8a84828501612a13565b5f83015250602082013567ffffffffffffffff811115612aad57612aac612702565b5b612ab984828501612a13565b60208301525092915050565b5f60208284031215612ada57612ad9612455565b5b5f82013567ffffffffffffffff811115612af757612af6612459565b5b612b0384828501612a40565b91505092915050565b5f81519050919050565b5f82825260208201905092915050565b5f819050602082019050919050565b5f81519050919050565b5f82825260208201905092915050565b5f612b5982612b35565b612b638185612b3f565b9350612b738185602086016123bc565b612b7c816123e4565b840191505092915050565b612b9081612754565b82525050565b5f82825260208201905092915050565b5f612bb0826123a2565b612bba8185612b96565b9350612bca8185602086016123bc565b612bd3816123e4565b840191505092915050565b7f4e487b71000000000000000000000000000000000000000000000000000000005f52602160045260245ffd5b60058110612c1c57612c1b612bde565b5b50565b5f819050612c2c82612c0b565b919050565b5f612c3b82612c1f565b9050919050565b612c4b81612c31565b82525050565b5f60e083015f8301518482035f860152612c6b8282612b4f565b9150506020830151612c806020860182612b87565b5060408301518482036040860152612c988282612ba6565b9150506060830151612cad6060860182612c42565b5060808301518482036080860152612cc58282612ba6565b91505060a083015184820360a0860152612cdf8282612ba6565b91505060c083015184820360c0860152612cf98282612ba6565b9150508091505092915050565b5f612d118383612c51565b905092915050565b5f602082019050919050565b5f612d2f82612b0c565b612d398185612b16565b935083602082028501612d4b85612b26565b805f5b85811015612d865784840389528151612d678582612d06565b9450612d7283612d19565b925060208a01995050600181019050612d4e565b50829750879550505050505092915050565b5f6040820190508181035f830152612db08185612d25565b90508181036020830152612dc48184612d25565b90509392505050565b5f819050919050565b612ddf81612dcd565b82525050565b5f602082019050612df85f830184612dd6565b92915050565b5f82825260208201905092915050565b5f612e1882612b35565b612e228185612dfe565b9350612e328185602086016123bc565b612e3b816123e4565b840191505092915050565b5f6020820190508181035f830152612e5e8184612e0e565b905092915050565b612e6f81612dcd565b8114612e79575f80fd5b50565b5f81359050612e8a81612e66565b92915050565b5f60208284031215612ea557612ea4612455565b5b5f612eb284828501612e7c565b91505092915050565b5f60208284031215612ed057612ecf612455565b5b5f82013567ffffffffffffffff811115612eed57612eec612459565b5b612ef984828501612850565b91505092915050565b5f6040820190508181035f830152612f1a81856123f4565b90508181036020830152612f2e81846123f4565b90509392505050565b5f805f805f805f805f6101208a8c031215612f5557612f54612455565b5b5f612f628c828d01612482565b9950506020612f738c828d01612e7c565b9850506040612f848c828d016124b9565b9750506060612f958c828d016124b9565b9650506080612fa68c828d016124f1565b95505060a0612fb78c828d016124f1565b94505060c0612fc88c828d016124b9565b93505060e0612fd98c828d016124f1565b9250506101008a013567ffffffffffffffff811115612ffb57612ffa612459565b5b6130078c828d01612604565b9150509295985092959850929598565b7f4e487b71000000000000000000000000000000000000000000000000000000005f52603260045260245ffd5b7f4e487b71000000000000000000000000000000000000000000000000000000005f52601160045260245ffd5b5f61307b82612dcd565b915061308683612dcd565b925082820190508082111561309e5761309d613044565b5b92915050565b7f4e487b71000000000000000000000000000000000000000000000000000000005f52601260045260245ffd5b5f6040820190508181035f8301526130e98185612e0e565b905081810360208301526130fd81846123f4565b90509392505050565b5f6131186131138461278f565b61256b565b90508281526020810184848401111561313457613133612509565b5b61313f8482856123bc565b509392505050565b5f82601f83011261315b5761315a612505565b5b815161316b848260208601613106565b91505092915050565b5f6020828403121561318957613188612455565b5b5f82015167ffffffffffffffff8111156131a6576131a5612459565b5b6131b284828501613147565b91505092915050565b5f81905092915050565b7f7b22616e696d6174696f6e5f75726c223a2200000000000000000000000000005f82015250565b5f6131f96012836131bb565b9150613204826131c5565b601282019050919050565b5f81905092915050565b5f613223826123a2565b61322d818561320f565b935061323d8185602086016123bc565b80840191505092915050565b7f222c2022696d616765223a2200000000000000000000000000000000000000005f82015250565b5f61327d600c836131bb565b915061328882613249565b600c82019050919050565b7f222c20226e616d65223a202249442023000000000000000000000000000000005f82015250565b5f6132c76010836131bb565b91506132d282613293565b601082019050919050565b5f6132e782612b35565b6132f181856131bb565b93506133018185602086016123bc565b80840191505092915050565b7f222c202261747472696275746573223a5b7b2274726169745f74797065223a205f8201527f2250726f70732043726561746564222c202276616c7565223a00000000000000602082015250565b5f6133676039836131bb565b91506133728261330d565b603982019050919050565b7f7d2c7b2274726169745f74797065223a202250726f70732053706f6e736f72655f8201527f64222c202276616c7565223a0000000000000000000000000000000000000000602082015250565b5f6133d7602c836131bb565b91506133e28261337d565b602c82019050919050565b7f7d2c7b2274726169745f74797065223a2022566f7465732043617374222c22765f8201527f616c7565223a0000000000000000000000000000000000000000000000000000602082015250565b5f6134476026836131bb565b9150613452826133ed565b602682019050919050565b7f7d2c7b2274726169745f74797065223a202250726f70486f75736520566f74655f8201527f73222c2276616c7565223a000000000000000000000000000000000000000000602082015250565b5f6134b7602b836131bb565b91506134c28261345d565b602b82019050919050565b7f7d2c7b2274726169745f74797065223a202243616e6469646174652050726f705f8201527f73222c2276616c7565223a000000000000000000000000000000000000000000602082015250565b5f613527602b836131bb565b9150613532826134cd565b602b82019050919050565b7f7d2c7b2274726169745f74797065223a2022466565646261636b7320676976655f8201527f6e222c2276616c7565223a000000000000000000000000000000000000000000602082015250565b5f613597602b836131bb565b91506135a28261353d565b602b82019050919050565b7f7d2c7b2274726169745f74797065223a2022557365726e616d65222c2276616c5f8201527f7565223a22000000000000000000000000000000000000000000000000000000602082015250565b5f6136076025836131bb565b9150613612826135ad565b602582019050919050565b7f227d5d7d000000000000000000000000000000000000000000000000000000005f82015250565b5f6136516004836131bb565b915061365c8261361d565b600482019050919050565b5f613671826131ed565b915061367d828d613219565b915061368882613271565b9150613694828c613219565b915061369f826132bb565b91506136ab828b6132dd565b91506136b68261335b565b91506136c2828a6132dd565b91506136cd826133cb565b91506136d982896132dd565b91506136e48261343b565b91506136f082886132dd565b91506136fb826134ab565b915061370782876132dd565b91506137128261351b565b915061371e82866132dd565b91506137298261358b565b915061373582856132dd565b9150613740826135fb565b915061374c82846132dd565b915061375782613645565b91508190509b9a5050505050505050505050565b5f6137758261245d565b91506137808361245d565b9250826137905761378f6130a4565b5b828206905092915050565b7f44796e616d69634275666665723a20417070656e64696e67206f7574206f66205f8201527f626f756e64732e00000000000000000000000000000000000000000000000000602082015250565b5f6137f5602783612dfe565b91506138008261379b565b604082019050919050565b5f6020820190508181035f830152613822816137e9565b905091905056fe3c736372697074207372633d22646174613a746578742f6a6176617363726970743b6261736536342c3c2f6469763e3c2f6469763e3c64697620636c6173733d2267223e3c2f6469763e3c6469762069643d227a223e3c64697620636c6173733d226c223e566f74657320436173743c2f6469763e3c64697620636c6173733d2273222069643d226d223e25323533437363726970742532353230737263253235334425323532326461746125323533417465787425323532466a617661736372697074253235334262617365363425323532433c73637269707420747970653d22746578742f6a6176617363726970742b677a697022207372633d22646174613a746578742f6a6176617363726970743b6261736536342c20766f7465733c2f6469763e3c64697620636c6173733d226c223e466565646261636b7320676976656e3c2f6469763e3c64697620636c6173733d2273223e2070726f70733c2f6469763e3c64697620636c6173733d226c223e50726f70486f75736520566f7465733c2f6469763e3c64697620636c6173733d2273223e3c6d61696e2069643d22632220636c6173733d22702220646174612d636f6c6f723d223c73766720786d6c6e733d22687474703a2f2f7777772e77332e6f72672f323030302f737667222076696577426f783d223020302037303020373030223e3c666f726569676e4f626a6563742077696474683d223130302522206865696768743d2231303025223e3c626f647920786d6c6e733d22687474703a2f2f7777772e77332e6f72672f313939392f7868746d6c223e2532353343736372697074253235323074797065253235334425323532327465787425323532466a6176617363726970742532353242677a697025323532322532353230737263253235334425323532326461746125323533417465787425323532466a617661736372697074253235334262617365363425323532432532353343736372697074253235323074797065253235334425323532327465787425323532466a6176617363726970742532353242706e6725323532322532353230737263253235334425323532326461746125323533417465787425323532466a617661736372697074253235334262617365363425323532437b226e616d65223a224e6f756e7320577261707065642032303233222c22696d616765223a22697066733a2f2f6261667962656966643374796e623375653477746677697137367675787433753578326d7a72797473636f3569797a637666783534636c346b7761222c226465736372697074696f6e223a224120636f6d6d656d6f726174697665204e465420666f7220616c6c207468652070656f706c6520696e766f6c76656420696e2070726f6c696665726174696e6720746865204e6f756e732044414f20696e2032303233227d3c2f6469763e3c64697620636c6173733d226c223e44414f2070726f70733c2f6469763e3c64697620636c6173733d2273223e3c7374796c653e626f64797b666f6e742d66616d696c793a506f7070696e732c73616e732d73657269663b6d617267696e3a303b70616464696e673a303b646973706c61793a666c65783b6a7573746966792d636f6e74656e743a63656e7465723b616c69676e2d6974656d733a63656e7465727d23637b706f736974696f6e3a72656c61746976657d23777b706f736974696f6e3a6162736f6c7574653b646973706c61793a666c65783b666c65782d646972656374696f6e3a636f6c756d6e3b6865696768743a313030253b636f6c6f723a236666663b666f6e742d7765696768743a3430307d2e747b666f6e742d73697a653a6d696e283476772c347668297d2e6c7b666f6e742d73697a653a6d696e283376772c337668297d2e732c2e757b666f6e742d73697a653a6d696e283876772c387668293b666f6e742d7765696768743a3830303b666f6e742d66616d696c793a4d6f6e747365727261742c73616e732d73657269667d2e757b666f6e742d73697a653a6d696e283876772c387668293b6f766572666c6f773a68696464656e3b666f6e742d66616d696c793a4d6f6e747365727261742c73616e732d73657269667d2e677b666c65782d67726f773a317d23617b6d617267696e2d746f703a312e3572656d3b6d617267696e2d6c6566743a312e3572656d7d237a7b6d617267696e2d626f74746f6d3a312e3572656d3b6d617267696e2d6c6566743a312e3572656d7d236d7b6d617267696e2d626f74746f6d3a63616c63283172656d202d20387078297d2e707b77696474683a31303076773b6865696768743a31303076683b6261636b67726f756e642d636f6c6f723a3c6c696e6b20687265663d2268747470733a2f2f666f6e74732e676f6f676c65617069732e636f6d222072656c3d22707265636f6e6e656374222f3e3c6c696e6b20687265663d2268747470733a2f2f666f6e74732e677374617469632e636f6d222072656c3d22707265636f6e6e656374222063726f73736f726967696e3d2274727565222f3e3c6c696e6b20687265663d2268747470733a2f2f666f6e74732e676f6f676c65617069732e636f6d2f637373323f66616d696c793d506f7070696e733a77676874403230303b3330303b3430303b3530303b3630303b3730303b3830303b393030222072656c3d227374796c657368656574222f3e3c6c696e6b20687265663d2268747470733a2f2f666f6e74732e676f6f676c65617069732e636f6d2f6373733f66616d696c793d4d6f6e747365727261743a3430302c383030222072656c3d227374796c657368656574222f3e3c7374796c652073636f7065643d2274727565223e406d656469612073637265656e20616e6420286d696e2d6865696768743a3732307078297b23617b6d617267696e2d746f703a322e3572656d3b6d617267696e2d6c6566743a322e3572656d7d237a7b6d617267696e2d626f74746f6d3a322e3572656d3b6d617267696e2d6c6566743a322e3572656d7d7d406d656469612073637265656e20616e6420286d61782d6865696768743a3435307078297b23617b6d617267696e2d746f703a3172656d3b6d617267696e2d6c6566743a3172656d7d237a7b6d617267696e2d626f74746f6d3a3172656d3b6d617267696e2d6c6566743a3172656d7d7d406d656469612073637265656e20616e6420286d61782d6865696768743a3330307078297b23617b6d617267696e2d746f703a2e3572656d3b6d617267696e2d6c6566743a2e3572656d7d237a7b6d617267696e2d626f74746f6d3a2e3572656d3b6d617267696e2d6c6566743a2e3572656d7d236d7b6d617267696e2d626f74746f6d3a307d7d3c2f7374796c653e3c7374796c653e626f64797b666f6e742d66616d696c793a506f7070696e732c73616e732d73657269663b6d617267696e3a303b70616464696e673a303b646973706c61793a666c65783b6a7573746966792d636f6e74656e743a63656e7465723b616c69676e2d6974656d733a63656e7465727d23637b706f736974696f6e3a72656c61746976657d23777b706f736974696f6e3a6162736f6c7574653b646973706c61793a666c65783b666c65782d646972656374696f6e3a636f6c756d6e3b6865696768743a313030253b636f6c6f723a236666663b666f6e742d7765696768743a3430307d2e747b666f6e742d73697a653a323870787d2e6c7b666f6e742d73697a653a323070783b6d617267696e2d746f703a3870787d2e732c2e757b666f6e742d73697a653a363070783b666f6e742d7765696768743a3830303b666f6e742d66616d696c793a4d6f6e747365727261742c73616e732d73657269667d2e757b666f6e742d73697a653a353670783b6f766572666c6f773a68696464656e3b666f6e742d66616d696c793a4d6f6e747365727261742c73616e732d73657269667d2e677b666c65782d67726f773a317d23617b6d617267696e2d746f703a312e3572656d3b6d617267696e2d6c6566743a312e3572656d7d237a7b6d617267696e2d626f74746f6d3a312e3572656d3b6d617267696e2d6c6566743a312e3572656d7d236d7b6d617267696e2d626f74746f6d3a63616c63283172656d202d20387078297d2e707b77696474683a2037303070783b206865696768743a2037303070783b206261636b67726f756e642d636f6c6f723a3c7363726970743e646f63756d656e742e6164644576656e744c697374656e65722822444f4d436f6e74656e744c6f61646564222c2866756e6374696f6e28297b66756e6374696f6e206528297b72657475726e2077696e646f772e696e6e65724865696768743e3d77696e646f772e696e6e657257696474683f77696e646f772e696e6e657257696474683a77696e646f772e696e6e65724865696768747d636f6e737420743d646f63756d656e742e717565727953656c6563746f7228226d61696e22292c6e3d66756e6374696f6e2865297b636f6e737420743d323134373438333634373b6c6574206e3d6525743b72657475726e28293d3e286e3d31363830372a6e25742c6e2f74297d287061727365496e7428742e646174617365742e736565642c313029293b6c6574206f3d66756e6374696f6e28652c74297b72657475726e204d6174682e666c6f6f72287428292a65297d28342c6e292c793d6528292c6c3d6528292c783d6c2f3732302c723d343d3d6f3f32303a333d3d6f3f34303a323d3d6f3f36303a313d3d6f3f38303a3132302c693d5b5d2c613d3230302c733d3130303b76617220633d742e646174617365742e636f6c6f723b636f6e737420753d646f63756d656e742e637265617465456c656d656e74282263616e76617322292c683d646f63756d656e742e676574456c656d656e744279496428226322293b682e636c6173734c6973742e72656d6f766528227022292c682e617070656e644368696c642875293b636f6e737420663d752e676574436f6e746578742822326422293b66756e6374696f6e206428652c742c6e297b72657475726e28312d6e292a652b6e2a747d66756e6374696f6e207728652c742c6e2c6f2c792c6c2c78297b72657475726e7b783a64286428652c742c78292c6428742c6e2c78292c78292c793a642864286f2c792c78292c6428792c6c2c78292c78297d7d66756e6374696f6e207028652c742c6e2c6f2c79297b6c6574206c3d332a28742d65292c783d332a286e2d74292d6c2c723d332a28742d65292c693d332a286e2d74292d722c613d6f2d652d722d693b72657475726e7b783a286f2d652d6c2d78292a4d6174682e706f7728792c33292b782a4d6174682e706f7728792c32292b6c2a792b652c793a612a4d6174682e706f7728792c33292b692a4d6174682e706f7728792c32292b722a792b657d7d636f6c733d792f28722a78292c726f77733d6c2f28722a78293b766172206d3d6e28292c763d6e28292c4d3d6e28292c673d6e28292c453d6e28292c4c3d6e28292c433d6e28292c533d6e28292c713d6e28292c483d6e28292c493d6e28292c523d6e28293b6c657420573d7b783a3336302a6d2a782c793a3336302a762a787d2c7a3d7b783a3165332a4d2a782c793a3165332a672a787d2c413d7b783a3530302a452a782c793a3165332a4c2a782b3530302a787d2c423d7b783a313135302a432a782d3135302a782c793a3165332a532a787d2c443d7b783a3165332a712a782c793a3165332a482a787d2c463d7b783a313135302a492a782d3135302a782c793a3165332a522a782b3530302a787d3b666f72286c657420653d303b653c3d732f333b652b2b297b6c657420743d7728572e782c7a2e782c412e782c572e792c7a2e792c412e792c652f28732f3329293b692e707573682874297d666f72286c657420653d303b653c3d732f333b652b2b297b6c657420743d652f28732f33292c6e3d7028412e782c422e782c442e782c462e782c74292c6f3d7028412e792c422e792c442e792c462e792c74293b692e70757368287b783a6e2c793a6f7d297d666f72286c657420653d303b653c3d732f333b652b2b297b6c657420743d652f28732f33292c6e3d6428462e782c572e782c74292c6f3d6428462e792c572e792c74293b692e70757368287b783a6e2c793a6f7d297d666f72286c657420653d303b653c3d732f323b652b2b297b6c657420743d652f28732f32292c6e3d7028412e782c422e782c442e782c462e782c74292c6f3d7028412e792c422e792c442e792c462e792c74293b692e70757368287b783a6e2c793a6f7d297d6c6574204f3d303b77696e646f772e6164644576656e744c697374656e65722822726573697a65222c2866756e6374696f6e28297b793d6528292c6c3d6528292c783d6c2f3732302c723d6f3d3d342a783f32302a783a333d3d6f3f34302a783a323d3d6f3f36302a783a313d3d6f3f38302a783a3132302a782c662e63616e7661732e77696474683d792c662e63616e7661732e6865696768743d6c3b6c657420743d7b783a3336302a6d2a782c793a3336302a762a787d2c6e3d7b783a3165332a4d2a782c793a3165332a672a787d2c613d7b783a3530302a452a782c793a3165332a4c2a782b3530302a787d2c633d7b783a313135302a432a782d3135302a782c793a3165332a532a787d2c753d7b783a3165332a712a782c793a3165332a482a787d2c683d7b783a313135302a492a782d3135302a782c793a3165332a522a782b3530302a787d3b693d5b5d3b666f72286c657420653d303b653c3d732f333b652b2b297b6c6574206f3d7728742e782c6e2e782c612e782c742e792c6e2e792c612e792c652f28732f3329293b692e70757368286f297d666f72286c657420653d303b653c3d732f333b652b2b297b6c657420743d652f28732f33292c6e3d7028612e782c632e782c752e782c682e782c74292c6f3d7028612e792c632e792c752e792c682e792c74293b692e70757368287b783a6e2c793a6f7d297d666f72286c657420653d303b653c3d732f333b652b2b297b6c6574206e3d652f28732f33292c6f3d6428682e782c742e782c6e292c793d6428682e792c742e792c6e293b692e70757368287b783a6f2c793a797d297d666f72286c657420653d303b653c3d732f323b652b2b297b6c657420743d652f28732f32292c6e3d7028612e782c632e782c752e782c682e782c74292c6f3d7028612e792c632e792c752e792c682e792c74293b692e70757368287b783a6e2c793a6f7d297d7d29292c66756e6374696f6e207428297b4f2b2b2c66756e6374696f6e28297b662e63616e7661732e77696474683d6528292c662e63616e7661732e6865696768743d6528292c662e66696c6c5374796c653d632c662e66696c6c5265637428302c302c792c6c293b666f72286c657420653d303b653c613b652b2b297b6c657420743d284f2d312b652a732f612b692e6c656e6774682925692e6c656e6774682c6e3d695b4d6174682e666c6f6f722874295d2c6f3d4d6174682e666c6f6f72286e2e782f72292a722c793d4d6174682e666c6f6f72286e2e792f72292a722c6c3d322a65253336303b662e66696c6c5374796c653d6068736c28247b6c7d2c20313030252c2035302529602c662e66696c6c52656374286f2c792d31302c722c72297d7d28292c73657454696d656f7574282828293d3e72657175657374416e696d6174696f6e4672616d65287429292c3235297d28297d29293b3c2f7363726970743e3c73637269707420747970653d22746578742f6a6176617363726970742b706e6722207372633d22646174613a746578742f6a6176617363726970743b6261736536342c223e3c6469762069643d2277223e3c6469762069643d2261223e3c64697620636c6173733d2274223e4e6f756e73205772617070656420323032333c2f6469763e3c64697620636c6173733d2275223e3c2f6469763e3c64697620636c6173733d226c223e43616e6469646174652050726f70733c2f6469763e3c64697620636c6173733d2273223e20666565646261636b733c2f6469763e3c64697620636c6173733d226c223e53706f6e736f7265643c2f6469763e3c64697620636c6173733d2273223ea26469706673582212207c5cdb62e3f8e6a88c50e85a9703af03d2a9b85c69ef12af07669fda31f9eda264736f6c63430008150033",
			"opcodes": "PUSH1 0x80 PUSH1 0x40 MSTORE CALLVALUE DUP1 ISZERO PUSH2 0xF JUMPI PUSH0 DUP1 REVERT JUMPDEST POP PUSH2 0x4F77 DUP1 PUSH2 0x1D PUSH0 CODECOPY PUSH0 RETURN INVALID PUSH1 0x80 PUSH1 0x40 MSTORE CALLVALUE DUP1 ISZERO PUSH2 0xF JUMPI PUSH0 DUP1 REVERT JUMPDEST POP PUSH1 0x4 CALLDATASIZE LT PUSH2 0x21A JUMPI PUSH0 CALLDATALOAD PUSH1 0xE0 SHR DUP1 PUSH4 0xAFAE76FA GT PUSH2 0x123 JUMPI DUP1 PUSH4 0xCE5AD179 GT PUSH2 0xAB JUMPI DUP1 PUSH4 0xD9237F14 GT PUSH2 0x7A JUMPI DUP1 PUSH4 0xD9237F14 EQ PUSH2 0x689 JUMPI DUP1 PUSH4 0xF051DCF8 EQ PUSH2 0x6A7 JUMPI DUP1 PUSH4 0xF283B512 EQ PUSH2 0x6C5 JUMPI DUP1 PUSH4 0xF49717EE EQ PUSH2 0x6F5 JUMPI DUP1 PUSH4 0xF6130ADC EQ PUSH2 0x713 JUMPI PUSH2 0x21A JUMP JUMPDEST DUP1 PUSH4 0xCE5AD179 EQ PUSH2 0x5FF JUMPI DUP1 PUSH4 0xD0C3EFA8 EQ PUSH2 0x61D JUMPI DUP1 PUSH4 0xD5ED88CE EQ PUSH2 0x63B JUMPI DUP1 PUSH4 0xD61974F1 EQ PUSH2 0x66B JUMPI PUSH2 0x21A JUMP JUMPDEST DUP1 PUSH4 0xBEE84AE3 GT PUSH2 0xF2 JUMPI DUP1 PUSH4 0xBEE84AE3 EQ PUSH2 0x544 JUMPI DUP1 PUSH4 0xBF35DD0B EQ PUSH2 0x562 JUMPI DUP1 PUSH4 0xC46B294D EQ PUSH2 0x580 JUMPI DUP1 PUSH4 0xCD475F26 EQ PUSH2 0x59E JUMPI DUP1 PUSH4 0xCDEA0CEF EQ PUSH2 0x5CF JUMPI PUSH2 0x21A JUMP JUMPDEST DUP1 PUSH4 0xAFAE76FA EQ PUSH2 0x4CC JUMPI DUP1 PUSH4 0xB55CCC62 EQ PUSH2 0x4EA JUMPI DUP1 PUSH4 0xBC689620 EQ PUSH2 0x508 JUMPI DUP1 PUSH4 0xBE58B0A9 EQ PUSH2 0x526 JUMPI PUSH2 0x21A JUMP JUMPDEST DUP1 PUSH4 0x640BAB41 GT PUSH2 0x1A6 JUMPI DUP1 PUSH4 0x7F369319 GT PUSH2 0x175 JUMPI DUP1 PUSH4 0x7F369319 EQ PUSH2 0x3FF JUMPI DUP1 PUSH4 0x87598E52 EQ PUSH2 0x41D JUMPI DUP1 PUSH4 0x8C8C3796 EQ PUSH2 0x43B JUMPI DUP1 PUSH4 0xA891B35E EQ PUSH2 0x46C JUMPI DUP1 PUSH4 0xAABC9896 EQ PUSH2 0x49C JUMPI PUSH2 0x21A JUMP JUMPDEST DUP1 PUSH4 0x640BAB41 EQ PUSH2 0x363 JUMPI DUP1 PUSH4 0x72617F8A EQ PUSH2 0x381 JUMPI DUP1 PUSH4 0x7510AC24 EQ PUSH2 0x3B1 JUMPI DUP1 PUSH4 0x7DBB90A2 EQ PUSH2 0x3CF JUMPI PUSH2 0x21A JUMP JUMPDEST DUP1 PUSH4 0x33174F98 GT PUSH2 0x1ED JUMPI DUP1 PUSH4 0x33174F98 EQ PUSH2 0x2CD JUMPI DUP1 PUSH4 0x3708BE65 EQ PUSH2 0x2EB JUMPI DUP1 PUSH4 0x3D5BE2C2 EQ PUSH2 0x309 JUMPI DUP1 PUSH4 0x43F2614F EQ PUSH2 0x327 JUMPI DUP1 PUSH4 0x5F17CAC3 EQ PUSH2 0x345 JUMPI PUSH2 0x21A JUMP JUMPDEST DUP1 PUSH4 0x53F1EB0 EQ PUSH2 0x21E JUMPI DUP1 PUSH4 0x6F58206 EQ PUSH2 0x23C JUMPI DUP1 PUSH4 0x2BEE6807 EQ PUSH2 0x26C JUMPI DUP1 PUSH4 0x32AB619C EQ PUSH2 0x29C JUMPI JUMPDEST PUSH0 DUP1 REVERT JUMPDEST PUSH2 0x226 PUSH2 0x731 JUMP JUMPDEST PUSH1 0x40 MLOAD PUSH2 0x233 SWAP2 SWAP1 PUSH2 0x242C JUMP JUMPDEST PUSH1 0x40 MLOAD DUP1 SWAP2 SUB SWAP1 RETURN JUMPDEST PUSH2 0x256 PUSH1 0x4 DUP1 CALLDATASIZE SUB DUP2 ADD SWAP1 PUSH2 0x251 SWAP2 SWAP1 PUSH2 0x2631 JUMP JUMPDEST PUSH2 0x76A JUMP JUMPDEST PUSH1 0x40 MLOAD PUSH2 0x263 SWAP2 SWAP1 PUSH2 0x242C JUMP JUMPDEST PUSH1 0x40 MLOAD DUP1 SWAP2 SUB SWAP1 RETURN JUMPDEST PUSH2 0x286 PUSH1 0x4 DUP1 CALLDATASIZE SUB DUP2 ADD SWAP1 PUSH2 0x281 SWAP2 SWAP1 PUSH2 0x2AC5 JUMP JUMPDEST PUSH2 0x9EF JUMP JUMPDEST PUSH1 0x40 MLOAD PUSH2 0x293 SWAP2 SWAP1 PUSH2 0x242C JUMP JUMPDEST PUSH1 0x40 MLOAD DUP1 SWAP2 SUB SWAP1 RETURN JUMPDEST PUSH2 0x2B6 PUSH1 0x4 DUP1 CALLDATASIZE SUB DUP2 ADD SWAP1 PUSH2 0x2B1 SWAP2 SWAP1 PUSH2 0x2631 JUMP JUMPDEST PUSH2 0xA86 JUMP JUMPDEST PUSH1 0x40 MLOAD PUSH2 0x2C4 SWAP3 SWAP2 SWAP1 PUSH2 0x2D98 JUMP JUMPDEST PUSH1 0x40 MLOAD DUP1 SWAP2 SUB SWAP1 RETURN JUMPDEST PUSH2 0x2D5 PUSH2 0x1104 JUMP JUMPDEST PUSH1 0x40 MLOAD PUSH2 0x2E2 SWAP2 SWAP1 PUSH2 0x2DE5 JUMP JUMPDEST PUSH1 0x40 MLOAD DUP1 SWAP2 SUB SWAP1 RETURN JUMPDEST PUSH2 0x2F3 PUSH2 0x1109 JUMP JUMPDEST PUSH1 0x40 MLOAD PUSH2 0x300 SWAP2 SWAP1 PUSH2 0x2DE5 JUMP JUMPDEST PUSH1 0x40 MLOAD DUP1 SWAP2 SUB SWAP1 RETURN JUMPDEST PUSH2 0x311 PUSH2 0x110E JUMP JUMPDEST PUSH1 0x40 MLOAD PUSH2 0x31E SWAP2 SWAP1 PUSH2 0x242C JUMP JUMPDEST PUSH1 0x40 MLOAD DUP1 SWAP2 SUB SWAP1 RETURN JUMPDEST PUSH2 0x32F PUSH2 0x1147 JUMP JUMPDEST PUSH1 0x40 MLOAD PUSH2 0x33C SWAP2 SWAP1 PUSH2 0x242C JUMP JUMPDEST PUSH1 0x40 MLOAD DUP1 SWAP2 SUB SWAP1 RETURN JUMPDEST PUSH2 0x34D PUSH2 0x1180 JUMP JUMPDEST PUSH1 0x40 MLOAD PUSH2 0x35A SWAP2 SWAP1 PUSH2 0x2E46 JUMP JUMPDEST PUSH1 0x40 MLOAD DUP1 SWAP2 SUB SWAP1 RETURN JUMPDEST PUSH2 0x36B PUSH2 0x11A1 JUMP JUMPDEST PUSH1 0x40 MLOAD PUSH2 0x378 SWAP2 SWAP1 PUSH2 0x242C JUMP JUMPDEST PUSH1 0x40 MLOAD DUP1 SWAP2 SUB SWAP1 RETURN JUMPDEST PUSH2 0x39B PUSH1 0x4 DUP1 CALLDATASIZE SUB DUP2 ADD SWAP1 PUSH2 0x396 SWAP2 SWAP1 PUSH2 0x2E90 JUMP JUMPDEST PUSH2 0x11DA JUMP JUMPDEST PUSH1 0x40 MLOAD PUSH2 0x3A8 SWAP2 SWAP1 PUSH2 0x2DE5 JUMP JUMPDEST PUSH1 0x40 MLOAD DUP1 SWAP2 SUB SWAP1 RETURN JUMPDEST PUSH2 0x3B9 PUSH2 0x11FA JUMP JUMPDEST PUSH1 0x40 MLOAD PUSH2 0x3C6 SWAP2 SWAP1 PUSH2 0x2DE5 JUMP JUMPDEST PUSH1 0x40 MLOAD DUP1 SWAP2 SUB SWAP1 RETURN JUMPDEST PUSH2 0x3E9 PUSH1 0x4 DUP1 CALLDATASIZE SUB DUP2 ADD SWAP1 PUSH2 0x3E4 SWAP2 SWAP1 PUSH2 0x2AC5 JUMP JUMPDEST PUSH2 0x11FF JUMP JUMPDEST PUSH1 0x40 MLOAD PUSH2 0x3F6 SWAP2 SWAP1 PUSH2 0x242C JUMP JUMPDEST PUSH1 0x40 MLOAD DUP1 SWAP2 SUB SWAP1 RETURN JUMPDEST PUSH2 0x407 PUSH2 0x13FC JUMP JUMPDEST PUSH1 0x40 MLOAD PUSH2 0x414 SWAP2 SWAP1 PUSH2 0x242C JUMP JUMPDEST PUSH1 0x40 MLOAD DUP1 SWAP2 SUB SWAP1 RETURN JUMPDEST PUSH2 0x425 PUSH2 0x1435 JUMP JUMPDEST PUSH1 0x40 MLOAD PUSH2 0x432 SWAP2 SWAP1 PUSH2 0x2DE5 JUMP JUMPDEST PUSH1 0x40 MLOAD DUP1 SWAP2 SUB SWAP1 RETURN JUMPDEST PUSH2 0x455 PUSH1 0x4 DUP1 CALLDATASIZE SUB DUP2 ADD SWAP1 PUSH2 0x450 SWAP2 SWAP1 PUSH2 0x2EBB JUMP JUMPDEST PUSH2 0x143A JUMP JUMPDEST PUSH1 0x40 MLOAD PUSH2 0x463 SWAP3 SWAP2 SWAP1 PUSH2 0x2F02 JUMP JUMPDEST PUSH1 0x40 MLOAD DUP1 SWAP2 SUB SWAP1 RETURN JUMPDEST PUSH2 0x486 PUSH1 0x4 DUP1 CALLDATASIZE SUB DUP2 ADD SWAP1 PUSH2 0x481 SWAP2 SWAP1 PUSH2 0x2AC5 JUMP JUMPDEST PUSH2 0x168D JUMP JUMPDEST PUSH1 0x40 MLOAD PUSH2 0x493 SWAP2 SWAP1 PUSH2 0x2E46 JUMP JUMPDEST PUSH1 0x40 MLOAD DUP1 SWAP2 SUB SWAP1 RETURN JUMPDEST PUSH2 0x4B6 PUSH1 0x4 DUP1 CALLDATASIZE SUB DUP2 ADD SWAP1 PUSH2 0x4B1 SWAP2 SWAP1 PUSH2 0x2631 JUMP JUMPDEST PUSH2 0x169F JUMP JUMPDEST PUSH1 0x40 MLOAD PUSH2 0x4C3 SWAP2 SWAP1 PUSH2 0x242C JUMP JUMPDEST PUSH1 0x40 MLOAD DUP1 SWAP2 SUB SWAP1 RETURN JUMPDEST PUSH2 0x4D4 PUSH2 0x16E4 JUMP JUMPDEST PUSH1 0x40 MLOAD PUSH2 0x4E1 SWAP2 SWAP1 PUSH2 0x2DE5 JUMP JUMPDEST PUSH1 0x40 MLOAD DUP1 SWAP2 SUB SWAP1 RETURN JUMPDEST PUSH2 0x4F2 PUSH2 0x16E9 JUMP JUMPDEST PUSH1 0x40 MLOAD PUSH2 0x4FF SWAP2 SWAP1 PUSH2 0x2DE5 JUMP JUMPDEST PUSH1 0x40 MLOAD DUP1 SWAP2 SUB SWAP1 RETURN JUMPDEST PUSH2 0x510 PUSH2 0x16EE JUMP JUMPDEST PUSH1 0x40 MLOAD PUSH2 0x51D SWAP2 SWAP1 PUSH2 0x242C JUMP JUMPDEST PUSH1 0x40 MLOAD DUP1 SWAP2 SUB SWAP1 RETURN JUMPDEST PUSH2 0x52E PUSH2 0x1727 JUMP JUMPDEST PUSH1 0x40 MLOAD PUSH2 0x53B SWAP2 SWAP1 PUSH2 0x2DE5 JUMP JUMPDEST PUSH1 0x40 MLOAD DUP1 SWAP2 SUB SWAP1 RETURN JUMPDEST PUSH2 0x54C PUSH2 0x172C JUMP JUMPDEST PUSH1 0x40 MLOAD PUSH2 0x559 SWAP2 SWAP1 PUSH2 0x2DE5 JUMP JUMPDEST PUSH1 0x40 MLOAD DUP1 SWAP2 SUB SWAP1 RETURN JUMPDEST PUSH2 0x56A PUSH2 0x1731 JUMP JUMPDEST PUSH1 0x40 MLOAD PUSH2 0x577 SWAP2 SWAP1 PUSH2 0x2DE5 JUMP JUMPDEST PUSH1 0x40 MLOAD DUP1 SWAP2 SUB SWAP1 RETURN JUMPDEST PUSH2 0x588 PUSH2 0x1736 JUMP JUMPDEST PUSH1 0x40 MLOAD PUSH2 0x595 SWAP2 SWAP1 PUSH2 0x242C JUMP JUMPDEST PUSH1 0x40 MLOAD DUP1 SWAP2 SUB SWAP1 RETURN JUMPDEST PUSH2 0x5B8 PUSH1 0x4 DUP1 CALLDATASIZE SUB DUP2 ADD SWAP1 PUSH2 0x5B3 SWAP2 SWAP1 PUSH2 0x2EBB JUMP JUMPDEST PUSH2 0x176F JUMP JUMPDEST PUSH1 0x40 MLOAD PUSH2 0x5C6 SWAP3 SWAP2 SWAP1 PUSH2 0x2F02 JUMP JUMPDEST PUSH1 0x40 MLOAD DUP1 SWAP2 SUB SWAP1 RETURN JUMPDEST PUSH2 0x5E9 PUSH1 0x4 DUP1 CALLDATASIZE SUB DUP2 ADD SWAP1 PUSH2 0x5E4 SWAP2 SWAP1 PUSH2 0x2EBB JUMP JUMPDEST PUSH2 0x1951 JUMP JUMPDEST PUSH1 0x40 MLOAD PUSH2 0x5F6 SWAP2 SWAP1 PUSH2 0x242C JUMP JUMPDEST PUSH1 0x40 MLOAD DUP1 SWAP2 SUB SWAP1 RETURN JUMPDEST PUSH2 0x607 PUSH2 0x19FC JUMP JUMPDEST PUSH1 0x40 MLOAD PUSH2 0x614 SWAP2 SWAP1 PUSH2 0x242C JUMP JUMPDEST PUSH1 0x40 MLOAD DUP1 SWAP2 SUB SWAP1 RETURN JUMPDEST PUSH2 0x625 PUSH2 0x1A35 JUMP JUMPDEST PUSH1 0x40 MLOAD PUSH2 0x632 SWAP2 SWAP1 PUSH2 0x2DE5 JUMP JUMPDEST PUSH1 0x40 MLOAD DUP1 SWAP2 SUB SWAP1 RETURN JUMPDEST PUSH2 0x655 PUSH1 0x4 DUP1 CALLDATASIZE SUB DUP2 ADD SWAP1 PUSH2 0x650 SWAP2 SWAP1 PUSH2 0x2AC5 JUMP JUMPDEST PUSH2 0x1A3A JUMP JUMPDEST PUSH1 0x40 MLOAD PUSH2 0x662 SWAP2 SWAP1 PUSH2 0x2E46 JUMP JUMPDEST PUSH1 0x40 MLOAD DUP1 SWAP2 SUB SWAP1 RETURN JUMPDEST PUSH2 0x673 PUSH2 0x1A4C JUMP JUMPDEST PUSH1 0x40 MLOAD PUSH2 0x680 SWAP2 SWAP1 PUSH2 0x242C JUMP JUMPDEST PUSH1 0x40 MLOAD DUP1 SWAP2 SUB SWAP1 RETURN JUMPDEST PUSH2 0x691 PUSH2 0x1A85 JUMP JUMPDEST PUSH1 0x40 MLOAD PUSH2 0x69E SWAP2 SWAP1 PUSH2 0x242C JUMP JUMPDEST PUSH1 0x40 MLOAD DUP1 SWAP2 SUB SWAP1 RETURN JUMPDEST PUSH2 0x6AF PUSH2 0x1ABE JUMP JUMPDEST PUSH1 0x40 MLOAD PUSH2 0x6BC SWAP2 SWAP1 PUSH2 0x242C JUMP JUMPDEST PUSH1 0x40 MLOAD DUP1 SWAP2 SUB SWAP1 RETURN JUMPDEST PUSH2 0x6DF PUSH1 0x4 DUP1 CALLDATASIZE SUB DUP2 ADD SWAP1 PUSH2 0x6DA SWAP2 SWAP1 PUSH2 0x2F37 JUMP JUMPDEST PUSH2 0x1AF7 JUMP JUMPDEST PUSH1 0x40 MLOAD PUSH2 0x6EC SWAP2 SWAP1 PUSH2 0x2E46 JUMP JUMPDEST PUSH1 0x40 MLOAD DUP1 SWAP2 SUB SWAP1 RETURN JUMPDEST PUSH2 0x6FD PUSH2 0x1BAB JUMP JUMPDEST PUSH1 0x40 MLOAD PUSH2 0x70A SWAP2 SWAP1 PUSH2 0x2DE5 JUMP JUMPDEST PUSH1 0x40 MLOAD DUP1 SWAP2 SUB SWAP1 RETURN JUMPDEST PUSH2 0x71B PUSH2 0x1BB0 JUMP JUMPDEST PUSH1 0x40 MLOAD PUSH2 0x728 SWAP2 SWAP1 PUSH2 0x242C JUMP JUMPDEST PUSH1 0x40 MLOAD DUP1 SWAP2 SUB SWAP1 RETURN JUMPDEST PUSH1 0x40 MLOAD DUP1 PUSH1 0x40 ADD PUSH1 0x40 MSTORE DUP1 PUSH1 0x1A DUP2 MSTORE PUSH1 0x20 ADD PUSH32 0x253343253246626F647925334525334325324668746D6C253345000000000000 DUP2 MSTORE POP DUP2 JUMP JUMPDEST PUSH1 0x60 PUSH0 DUP1 PUSH2 0x77E DUP12 DUP12 DUP12 DUP12 DUP12 DUP12 DUP12 DUP12 PUSH2 0xA86 JUMP JUMPDEST SWAP2 POP SWAP2 POP PUSH1 0x40 MLOAD DUP1 PUSH2 0x280 ADD PUSH1 0x40 MSTORE DUP1 PUSH2 0x25C DUP2 MSTORE PUSH1 0x20 ADD PUSH2 0x41C3 PUSH2 0x25C SWAP2 CODECOPY DUP3 PUSH1 0x1 DUP2 MLOAD DUP2 LT PUSH2 0x7B2 JUMPI PUSH2 0x7B1 PUSH2 0x3017 JUMP JUMPDEST JUMPDEST PUSH1 0x20 MUL PUSH1 0x20 ADD ADD MLOAD PUSH1 0xC0 ADD DUP2 SWAP1 MSTORE POP PUSH2 0x7CA DUP12 PUSH2 0x1BE9 JUMP JUMPDEST DUP3 PUSH1 0x2 DUP2 MLOAD DUP2 LT PUSH2 0x7DE JUMPI PUSH2 0x7DD PUSH2 0x3017 JUMP JUMPDEST JUMPDEST PUSH1 0x20 MUL PUSH1 0x20 ADD ADD MLOAD PUSH1 0xC0 ADD DUP2 SWAP1 MSTORE POP PUSH1 0x40 MLOAD DUP1 PUSH1 0x40 ADD PUSH1 0x40 MSTORE DUP1 PUSH1 0x9 DUP2 MSTORE PUSH1 0x20 ADD PUSH32 0x7D3C2F7374796C653E0000000000000000000000000000000000000000000000 DUP2 MSTORE POP DUP3 PUSH1 0x3 DUP2 MLOAD DUP2 LT PUSH2 0x837 JUMPI PUSH2 0x836 PUSH2 0x3017 JUMP JUMPDEST JUMPDEST PUSH1 0x20 MUL PUSH1 0x20 ADD ADD MLOAD PUSH1 0xC0 ADD DUP2 SWAP1 MSTORE POP PUSH1 0x40 MLOAD DUP1 PUSH1 0x40 ADD PUSH1 0x40 MSTORE DUP1 PUSH1 0xF DUP2 MSTORE PUSH1 0x20 ADD PUSH32 0x3C7374796C653E3C2F7374796C653E0000000000000000000000000000000000 DUP2 MSTORE POP DUP3 PUSH1 0x4 DUP2 MLOAD DUP2 LT PUSH2 0x890 JUMPI PUSH2 0x88F PUSH2 0x3017 JUMP JUMPDEST JUMPDEST PUSH1 0x20 MUL PUSH1 0x20 ADD ADD MLOAD PUSH1 0xC0 ADD DUP2 SWAP1 MSTORE POP PUSH1 0x13 DUP2 MSTORE PUSH0 PUSH1 0x40 MLOAD DUP1 PUSH1 0x40 ADD PUSH1 0x40 MSTORE DUP1 DUP5 DUP2 MSTORE PUSH1 0x20 ADD DUP4 DUP2 MSTORE POP SWAP1 POP PUSH0 PUSH2 0x8C5 DUP3 PUSH2 0x11FF JUMP JUMPDEST SWAP1 POP PUSH0 PUSH1 0x40 MLOAD DUP1 PUSH1 0xC0 ADD PUSH1 0x40 MSTORE DUP1 PUSH1 0x93 DUP2 MSTORE PUSH1 0x20 ADD PUSH2 0x39E4 PUSH1 0x93 SWAP2 CODECOPY SWAP1 POP PUSH0 PUSH1 0x40 MLOAD DUP1 PUSH1 0x40 ADD PUSH1 0x40 MSTORE DUP1 PUSH1 0x1D DUP2 MSTORE PUSH1 0x20 ADD PUSH32 0x3C2F626F64793E3C2F666F726569676E4F626A6563743E3C2F7376673E000000 DUP2 MSTORE POP SWAP1 POP PUSH0 PUSH2 0x93F DUP3 MLOAD DUP6 MLOAD DUP6 MLOAD PUSH2 0x930 SWAP2 SWAP1 PUSH2 0x3071 JUMP JUMPDEST PUSH2 0x93A SWAP2 SWAP1 PUSH2 0x3071 JUMP JUMPDEST PUSH2 0x1E6F JUMP JUMPDEST SWAP1 POP PUSH2 0x94B DUP2 DUP5 PUSH2 0x1E98 JUMP JUMPDEST PUSH2 0x955 DUP2 DUP6 PUSH2 0x1E98 JUMP JUMPDEST PUSH2 0x95F DUP2 DUP4 PUSH2 0x1E98 JUMP JUMPDEST PUSH0 PUSH1 0x40 MLOAD DUP1 PUSH1 0x40 ADD PUSH1 0x40 MSTORE DUP1 PUSH1 0x1A DUP2 MSTORE PUSH1 0x20 ADD PUSH32 0x646174613A696D6167652F7376672B786D6C3B6261736536342C000000000000 DUP2 MSTORE POP SWAP1 POP PUSH0 PUSH2 0x9A3 DUP4 MLOAD PUSH2 0x11DA JUMP JUMPDEST SWAP1 POP DUP2 MLOAD DUP2 PUSH2 0x9B2 SWAP2 SWAP1 PUSH2 0x3071 JUMP JUMPDEST SWAP1 POP PUSH0 PUSH2 0x9BE DUP3 PUSH2 0x1E6F JUMP JUMPDEST SWAP1 POP PUSH2 0x9CA DUP2 DUP5 PUSH2 0x1E98 JUMP JUMPDEST PUSH2 0x9D6 DUP2 DUP6 PUSH0 DUP1 PUSH2 0x1EB1 JUMP JUMPDEST DUP1 SWAP11 POP POP POP POP POP POP POP POP POP POP POP SWAP9 SWAP8 POP POP POP POP POP POP POP POP JUMP JUMPDEST PUSH1 0x60 PUSH0 PUSH2 0x9FB DUP4 PUSH2 0x11FF JUMP JUMPDEST SWAP1 POP PUSH0 PUSH2 0xA08 DUP3 MLOAD PUSH2 0x11DA JUMP JUMPDEST SWAP1 POP PUSH1 0x16 DUP2 ADD SWAP1 POP PUSH0 PUSH2 0xA1A DUP3 PUSH2 0x1E6F JUMP JUMPDEST SWAP1 POP PUSH2 0xA64 PUSH1 0x40 MLOAD DUP1 PUSH1 0x40 ADD PUSH1 0x40 MSTORE DUP1 PUSH1 0x16 DUP2 MSTORE PUSH1 0x20 ADD PUSH32 0x646174613A746578742F68746D6C3B6261736536342C00000000000000000000 DUP2 MSTORE POP DUP3 PUSH2 0x1E98 SWAP1 SWAP2 SWAP1 PUSH4 0xFFFFFFFF AND JUMP JUMPDEST PUSH2 0xA7B DUP4 PUSH0 DUP1 DUP5 PUSH2 0x1EB1 SWAP1 SWAP4 SWAP3 SWAP2 SWAP1 PUSH4 0xFFFFFFFF AND JUMP JUMPDEST DUP1 SWAP4 POP POP POP POP SWAP2 SWAP1 POP JUMP JUMPDEST PUSH1 0x60 DUP1 PUSH0 PUSH1 0x5 PUSH8 0xFFFFFFFFFFFFFFFF DUP2 GT ISZERO PUSH2 0xAA5 JUMPI PUSH2 0xAA4 PUSH2 0x250D JUMP JUMPDEST JUMPDEST PUSH1 0x40 MLOAD SWAP1 DUP1 DUP3 MSTORE DUP1 PUSH1 0x20 MUL PUSH1 0x20 ADD DUP3 ADD PUSH1 0x40 MSTORE DUP1 ISZERO PUSH2 0xADE JUMPI DUP2 PUSH1 0x20 ADD JUMPDEST PUSH2 0xACB PUSH2 0x233F JUMP JUMPDEST DUP2 MSTORE PUSH1 0x20 ADD SWAP1 PUSH1 0x1 SWAP1 SUB SWAP1 DUP2 PUSH2 0xAC3 JUMPI SWAP1 POP JUMPDEST POP SWAP1 POP PUSH1 0x40 MLOAD DUP1 PUSH2 0x180 ADD PUSH1 0x40 MSTORE DUP1 PUSH2 0x157 DUP2 MSTORE PUSH1 0x20 ADD PUSH2 0x3EDD PUSH2 0x157 SWAP2 CODECOPY DUP2 PUSH0 DUP2 MLOAD DUP2 LT PUSH2 0xB10 JUMPI PUSH2 0xB0F PUSH2 0x3017 JUMP JUMPDEST JUMPDEST PUSH1 0x20 MUL PUSH1 0x20 ADD ADD MLOAD PUSH1 0xC0 ADD DUP2 SWAP1 MSTORE POP PUSH1 0x40 MLOAD DUP1 PUSH2 0x2A0 ADD PUSH1 0x40 MSTORE DUP1 PUSH2 0x269 DUP2 MSTORE PUSH1 0x20 ADD PUSH2 0x3C74 PUSH2 0x269 SWAP2 CODECOPY DUP2 PUSH1 0x1 DUP2 MLOAD DUP2 LT PUSH2 0xB4F JUMPI PUSH2 0xB4E PUSH2 0x3017 JUMP JUMPDEST JUMPDEST PUSH1 0x20 MUL PUSH1 0x20 ADD ADD MLOAD PUSH1 0xC0 ADD DUP2 SWAP1 MSTORE POP PUSH2 0xB67 DUP12 PUSH2 0x1BE9 JUMP JUMPDEST DUP2 PUSH1 0x2 DUP2 MLOAD DUP2 LT PUSH2 0xB7B JUMPI PUSH2 0xB7A PUSH2 0x3017 JUMP JUMPDEST JUMPDEST PUSH1 0x20 MUL PUSH1 0x20 ADD ADD MLOAD PUSH1 0xC0 ADD DUP2 SWAP1 MSTORE POP PUSH1 0x40 MLOAD DUP1 PUSH1 0x40 ADD PUSH1 0x40 MSTORE DUP1 PUSH1 0x9 DUP2 MSTORE PUSH1 0x20 ADD PUSH32 0x7D3C2F7374796C653E0000000000000000000000000000000000000000000000 DUP2 MSTORE POP DUP2 PUSH1 0x3 DUP2 MLOAD DUP2 LT PUSH2 0xBD4 JUMPI PUSH2 0xBD3 PUSH2 0x3017 JUMP JUMPDEST JUMPDEST PUSH1 0x20 MUL PUSH1 0x20 ADD ADD MLOAD PUSH1 0xC0 ADD DUP2 SWAP1 MSTORE POP PUSH1 0x40 MLOAD DUP1 PUSH2 0x1C0 ADD PUSH1 0x40 MSTORE DUP1 PUSH2 0x18F DUP2 MSTORE PUSH1 0x20 ADD PUSH2 0x4034 PUSH2 0x18F SWAP2 CODECOPY DUP2 PUSH1 0x4 DUP2 MLOAD DUP2 LT PUSH2 0xC13 JUMPI PUSH2 0xC12 PUSH2 0x3017 JUMP JUMPDEST JUMPDEST PUSH1 0x20 MUL PUSH1 0x20 ADD ADD MLOAD PUSH1 0xC0 ADD DUP2 SWAP1 MSTORE POP PUSH0 PUSH1 0x14 PUSH8 0xFFFFFFFFFFFFFFFF DUP2 GT ISZERO PUSH2 0xC3E JUMPI PUSH2 0xC3D PUSH2 0x250D JUMP JUMPDEST JUMPDEST PUSH1 0x40 MLOAD SWAP1 DUP1 DUP3 MSTORE DUP1 PUSH1 0x20 MUL PUSH1 0x20 ADD DUP3 ADD PUSH1 0x40 MSTORE DUP1 ISZERO PUSH2 0xC77 JUMPI DUP2 PUSH1 0x20 ADD JUMPDEST PUSH2 0xC64 PUSH2 0x233F JUMP JUMPDEST DUP2 MSTORE PUSH1 0x20 ADD SWAP1 PUSH1 0x1 SWAP1 SUB SWAP1 DUP2 PUSH2 0xC5C JUMPI SWAP1 POP JUMPDEST POP SWAP1 POP PUSH1 0x40 MLOAD DUP1 PUSH1 0x60 ADD PUSH1 0x40 MSTORE DUP1 PUSH1 0x23 DUP2 MSTORE PUSH1 0x20 ADD PUSH2 0x39C1 PUSH1 0x23 SWAP2 CODECOPY DUP2 PUSH0 DUP2 MLOAD DUP2 LT PUSH2 0xCA6 JUMPI PUSH2 0xCA5 PUSH2 0x3017 JUMP JUMPDEST JUMPDEST PUSH1 0x20 MUL PUSH1 0x20 ADD ADD MLOAD PUSH1 0xC0 ADD DUP2 SWAP1 MSTORE POP PUSH2 0xCBE DUP13 PUSH2 0x1BE9 JUMP JUMPDEST DUP2 PUSH1 0x1 DUP2 MLOAD DUP2 LT PUSH2 0xCD2 JUMPI PUSH2 0xCD1 PUSH2 0x3017 JUMP JUMPDEST JUMPDEST PUSH1 0x20 MUL PUSH1 0x20 ADD ADD MLOAD PUSH1 0xC0 ADD DUP2 SWAP1 MSTORE POP PUSH1 0x40 MLOAD DUP1 PUSH1 0x40 ADD PUSH1 0x40 MSTORE DUP1 PUSH1 0xD DUP2 MSTORE PUSH1 0x20 ADD PUSH32 0x2220646174612D736565643D2200000000000000000000000000000000000000 DUP2 MSTORE POP DUP2 PUSH1 0x2 DUP2 MLOAD DUP2 LT PUSH2 0xD2B JUMPI PUSH2 0xD2A PUSH2 0x3017 JUMP JUMPDEST JUMPDEST PUSH1 0x20 MUL PUSH1 0x20 ADD ADD MLOAD PUSH1 0xC0 ADD DUP2 SWAP1 MSTORE POP PUSH2 0xD49 DUP13 PUSH4 0xFFFFFFFF AND PUSH2 0x1FD9 JUMP JUMPDEST DUP2 PUSH1 0x3 DUP2 MLOAD DUP2 LT PUSH2 0xD5D JUMPI PUSH2 0xD5C PUSH2 0x3017 JUMP JUMPDEST JUMPDEST PUSH1 0x20 MUL PUSH1 0x20 ADD ADD MLOAD PUSH1 0xC0 ADD DUP2 SWAP1 MSTORE POP PUSH1 0x40 MLOAD DUP1 PUSH1 0x80 ADD PUSH1 0x40 MSTORE DUP1 PUSH1 0x50 DUP2 MSTORE PUSH1 0x20 ADD PUSH2 0x4E7C PUSH1 0x50 SWAP2 CODECOPY DUP2 PUSH1 0x4 DUP2 MLOAD DUP2 LT PUSH2 0xD99 JUMPI PUSH2 0xD98 PUSH2 0x3017 JUMP JUMPDEST JUMPDEST PUSH1 0x20 MUL PUSH1 0x20 ADD ADD MLOAD PUSH1 0xC0 ADD DUP2 SWAP1 MSTORE POP DUP5 DUP2 PUSH1 0x5 DUP2 MLOAD DUP2 LT PUSH2 0xDBD JUMPI PUSH2 0xDBC PUSH2 0x3017 JUMP JUMPDEST JUMPDEST PUSH1 0x20 MUL PUSH1 0x20 ADD ADD MLOAD PUSH1 0xC0 ADD DUP2 SWAP1 MSTORE POP PUSH1 0x40 MLOAD DUP1 PUSH1 0xA0 ADD PUSH1 0x40 MSTORE DUP1 PUSH1 0x62 DUP2 MSTORE PUSH1 0x20 ADD PUSH2 0x3853 PUSH1 0x62 SWAP2 CODECOPY DUP2 PUSH1 0x6 DUP2 MLOAD DUP2 LT PUSH2 0xDF9 JUMPI PUSH2 0xDF8 PUSH2 0x3017 JUMP JUMPDEST JUMPDEST PUSH1 0x20 MUL PUSH1 0x20 ADD ADD MLOAD PUSH1 0xC0 ADD DUP2 SWAP1 MSTORE POP PUSH2 0xE16 DUP10 PUSH3 0xFFFFFF AND PUSH2 0x1FD9 JUMP JUMPDEST DUP2 PUSH1 0x7 DUP2 MLOAD DUP2 LT PUSH2 0xE2A JUMPI PUSH2 0xE29 PUSH2 0x3017 JUMP JUMPDEST JUMPDEST PUSH1 0x20 MUL PUSH1 0x20 ADD ADD MLOAD PUSH1 0xC0 ADD DUP2 SWAP1 MSTORE POP PUSH1 0x40 MLOAD DUP1 PUSH1 0x60 ADD PUSH1 0x40 MSTORE DUP1 PUSH1 0x33 DUP2 MSTORE PUSH1 0x20 ADD PUSH2 0x3C41 PUSH1 0x33 SWAP2 CODECOPY DUP2 PUSH1 0x8 DUP2 MLOAD DUP2 LT PUSH2 0xE66 JUMPI PUSH2 0xE65 PUSH2 0x3017 JUMP JUMPDEST JUMPDEST PUSH1 0x20 MUL PUSH1 0x20 ADD ADD MLOAD PUSH1 0xC0 ADD DUP2 SWAP1 MSTORE POP PUSH2 0xE82 DUP12 PUSH2 0xFFFF AND PUSH2 0x1FD9 JUMP JUMPDEST DUP2 PUSH1 0x9 DUP2 MLOAD DUP2 LT PUSH2 0xE96 JUMPI PUSH2 0xE95 PUSH2 0x3017 JUMP JUMPDEST JUMPDEST PUSH1 0x20 MUL PUSH1 0x20 ADD ADD MLOAD PUSH1 0xC0 ADD DUP2 SWAP1 MSTORE POP PUSH1 0x40 MLOAD DUP1 PUSH1 0x60 ADD PUSH1 0x40 MSTORE DUP1 PUSH1 0x39 DUP2 MSTORE PUSH1 0x20 ADD PUSH2 0x4ECC PUSH1 0x39 SWAP2 CODECOPY DUP2 PUSH1 0xA DUP2 MLOAD DUP2 LT PUSH2 0xED2 JUMPI PUSH2 0xED1 PUSH2 0x3017 JUMP JUMPDEST JUMPDEST PUSH1 0x20 MUL PUSH1 0x20 ADD ADD MLOAD PUSH1 0xC0 ADD DUP2 SWAP1 MSTORE POP PUSH2 0xEEE DUP8 PUSH2 0xFFFF AND PUSH2 0x1FD9 JUMP JUMPDEST DUP2 PUSH1 0xB DUP2 MLOAD DUP2 LT PUSH2 0xF02 JUMPI PUSH2 0xF01 PUSH2 0x3017 JUMP JUMPDEST JUMPDEST PUSH1 0x20 MUL PUSH1 0x20 ADD ADD MLOAD PUSH1 0xC0 ADD DUP2 SWAP1 MSTORE POP PUSH1 0x40 MLOAD DUP1 PUSH1 0x60 ADD PUSH1 0x40 MSTORE DUP1 PUSH1 0x3F DUP2 MSTORE PUSH1 0x20 ADD PUSH2 0x3982 PUSH1 0x3F SWAP2 CODECOPY DUP2 PUSH1 0xC DUP2 MLOAD DUP2 LT PUSH2 0xF3E JUMPI PUSH2 0xF3D PUSH2 0x3017 JUMP JUMPDEST JUMPDEST PUSH1 0x20 MUL PUSH1 0x20 ADD ADD MLOAD PUSH1 0xC0 ADD DUP2 SWAP1 MSTORE POP PUSH2 0xF5B DUP9 PUSH3 0xFFFFFF AND PUSH2 0x1FD9 JUMP JUMPDEST DUP2 PUSH1 0xD DUP2 MLOAD DUP2 LT PUSH2 0xF6F JUMPI PUSH2 0xF6E PUSH2 0x3017 JUMP JUMPDEST JUMPDEST PUSH1 0x20 MUL PUSH1 0x20 ADD ADD MLOAD PUSH1 0xC0 ADD DUP2 SWAP1 MSTORE POP PUSH1 0x40 MLOAD DUP1 PUSH1 0x60 ADD PUSH1 0x40 MSTORE DUP1 PUSH1 0x3F DUP2 MSTORE PUSH1 0x20 ADD PUSH2 0x3943 PUSH1 0x3F SWAP2 CODECOPY DUP2 PUSH1 0xE DUP2 MLOAD DUP2 LT PUSH2 0xFAB JUMPI PUSH2 0xFAA PUSH2 0x3017 JUMP JUMPDEST JUMPDEST PUSH1 0x20 MUL PUSH1 0x20 ADD ADD MLOAD PUSH1 0xC0 ADD DUP2 SWAP1 MSTORE POP PUSH2 0xFC8 DUP7 PUSH3 0xFFFFFF AND PUSH2 0x1FD9 JUMP JUMPDEST DUP2 PUSH1 0xF DUP2 MLOAD DUP2 LT PUSH2 0xFDC JUMPI PUSH2 0xFDB PUSH2 0x3017 JUMP JUMPDEST JUMPDEST PUSH1 0x20 MUL PUSH1 0x20 ADD ADD MLOAD PUSH1 0xC0 ADD DUP2 SWAP1 MSTORE POP PUSH1 0x40 MLOAD DUP1 PUSH1 0x60 ADD PUSH1 0x40 MSTORE DUP1 PUSH1 0x3D DUP2 MSTORE PUSH1 0x20 ADD PUSH2 0x4F05 PUSH1 0x3D SWAP2 CODECOPY DUP2 PUSH1 0x10 DUP2 MLOAD DUP2 LT PUSH2 0x1018 JUMPI PUSH2 0x1017 PUSH2 0x3017 JUMP JUMPDEST JUMPDEST PUSH1 0x20 MUL PUSH1 0x20 ADD ADD MLOAD PUSH1 0xC0 ADD DUP2 SWAP1 MSTORE POP PUSH2 0x1034 DUP11 PUSH2 0xFFFF AND PUSH2 0x1FD9 JUMP JUMPDEST DUP2 PUSH1 0x11 DUP2 MLOAD DUP2 LT PUSH2 0x1048 JUMPI PUSH2 0x1047 PUSH2 0x3017 JUMP JUMPDEST JUMPDEST PUSH1 0x20 MUL PUSH1 0x20 ADD ADD MLOAD PUSH1 0xC0 ADD DUP2 SWAP1 MSTORE POP PUSH1 0x40 MLOAD DUP1 PUSH1 0x40 ADD PUSH1 0x40 MSTORE DUP1 PUSH1 0x1F DUP2 MSTORE PUSH1 0x20 ADD PUSH32 0x2070726F70733C2F6469763E3C2F6469763E3C2F6469763E3C2F6D61696E3E00 DUP2 MSTORE POP DUP2 PUSH1 0x12 DUP2 MLOAD DUP2 LT PUSH2 0x10A1 JUMPI PUSH2 0x10A0 PUSH2 0x3017 JUMP JUMPDEST JUMPDEST PUSH1 0x20 MUL PUSH1 0x20 ADD ADD MLOAD PUSH1 0xC0 ADD DUP2 SWAP1 MSTORE POP PUSH1 0x40 MLOAD DUP1 PUSH2 0xA40 ADD PUSH1 0x40 MSTORE DUP1 PUSH2 0xA19 DUP2 MSTORE PUSH1 0x20 ADD PUSH2 0x441F PUSH2 0xA19 SWAP2 CODECOPY DUP2 PUSH1 0x13 DUP2 MLOAD DUP2 LT PUSH2 0x10E0 JUMPI PUSH2 0x10DF PUSH2 0x3017 JUMP JUMPDEST JUMPDEST PUSH1 0x20 MUL PUSH1 0x20 ADD ADD MLOAD PUSH1 0xC0 ADD DUP2 SWAP1 MSTORE POP DUP2 DUP2 SWAP4 POP SWAP4 POP POP POP SWAP9 POP SWAP9 SWAP7 POP POP POP POP POP POP POP JUMP JUMPDEST PUSH1 0xD DUP2 JUMP JUMPDEST PUSH1 0x45 DUP2 JUMP JUMPDEST PUSH1 0x40 MLOAD DUP1 PUSH1 0x40 ADD PUSH1 0x40 MSTORE DUP1 PUSH1 0x7 DUP2 MSTORE PUSH1 0x20 ADD PUSH32 0x3C2F686561643E00000000000000000000000000000000000000000000000000 DUP2 MSTORE POP DUP2 JUMP JUMPDEST PUSH1 0x40 MLOAD DUP1 PUSH1 0x40 ADD PUSH1 0x40 MSTORE DUP1 PUSH1 0xA DUP2 MSTORE PUSH1 0x20 ADD PUSH32 0x2533436865616425334500000000000000000000000000000000000000000000 DUP2 MSTORE POP DUP2 JUMP JUMPDEST PUSH1 0x60 PUSH1 0x40 MLOAD DUP1 PUSH2 0x100 ADD PUSH1 0x40 MSTORE DUP1 PUSH1 0xD1 DUP2 MSTORE PUSH1 0x20 ADD PUSH2 0x3B70 PUSH1 0xD1 SWAP2 CODECOPY SWAP1 POP SWAP1 JUMP JUMPDEST PUSH1 0x40 MLOAD DUP1 PUSH1 0x40 ADD PUSH1 0x40 MSTORE DUP1 PUSH1 0xA DUP2 MSTORE PUSH1 0x20 ADD PUSH32 0x25334368746D6C25334500000000000000000000000000000000000000000000 DUP2 MSTORE POP DUP2 JUMP JUMPDEST PUSH0 PUSH1 0x3 PUSH1 0x2 DUP4 ADD DUP2 PUSH2 0x11EF JUMPI PUSH2 0x11EE PUSH2 0x30A4 JUMP JUMPDEST JUMPDEST DIV PUSH1 0x4 MUL SWAP1 POP SWAP2 SWAP1 POP JUMP JUMPDEST PUSH1 0x16 DUP2 JUMP JUMPDEST PUSH1 0x60 PUSH0 DUP1 DUP4 PUSH0 ADD MLOAD MLOAD GT ISZERO PUSH2 0x121E JUMPI PUSH2 0x121B DUP4 PUSH0 ADD MLOAD PUSH0 PUSH2 0x2028 JUMP JUMPDEST SWAP1 POP JUMPDEST PUSH0 DUP4 PUSH1 0x20 ADD MLOAD MLOAD GT ISZERO PUSH2 0x123E JUMPI PUSH2 0x1239 DUP4 PUSH1 0x20 ADD MLOAD PUSH0 PUSH2 0x2028 JUMP JUMPDEST DUP2 ADD SWAP1 POP JUMPDEST PUSH0 PUSH2 0x1250 PUSH2 0x124B DUP4 PUSH2 0x21CD JUMP JUMPDEST PUSH2 0x1E6F JUMP JUMPDEST SWAP1 POP PUSH2 0x129A PUSH1 0x40 MLOAD DUP1 PUSH1 0x40 ADD PUSH1 0x40 MSTORE DUP1 PUSH1 0x6 DUP2 MSTORE PUSH1 0x20 ADD PUSH32 0x3C68746D6C3E0000000000000000000000000000000000000000000000000000 DUP2 MSTORE POP DUP3 PUSH2 0x1E98 SWAP1 SWAP2 SWAP1 PUSH4 0xFFFFFFFF AND JUMP JUMPDEST PUSH2 0x12E2 PUSH1 0x40 MLOAD DUP1 PUSH1 0x40 ADD PUSH1 0x40 MSTORE DUP1 PUSH1 0x6 DUP2 MSTORE PUSH1 0x20 ADD PUSH32 0x3C686561643E0000000000000000000000000000000000000000000000000000 DUP2 MSTORE POP DUP3 PUSH2 0x1E98 SWAP1 SWAP2 SWAP1 PUSH4 0xFFFFFFFF AND JUMP JUMPDEST PUSH0 DUP5 PUSH0 ADD MLOAD MLOAD GT ISZERO PUSH2 0x12FD JUMPI PUSH2 0x12FC DUP2 DUP6 PUSH0 ADD MLOAD PUSH0 PUSH2 0x21DC JUMP JUMPDEST JUMPDEST PUSH2 0x1345 PUSH1 0x40 MLOAD DUP1 PUSH1 0x40 ADD PUSH1 0x40 MSTORE DUP1 PUSH1 0x7 DUP2 MSTORE PUSH1 0x20 ADD PUSH32 0x3C2F686561643E00000000000000000000000000000000000000000000000000 DUP2 MSTORE POP DUP3 PUSH2 0x1E98 SWAP1 SWAP2 SWAP1 PUSH4 0xFFFFFFFF AND JUMP JUMPDEST PUSH2 0x138D PUSH1 0x40 MLOAD DUP1 PUSH1 0x40 ADD PUSH1 0x40 MSTORE DUP1 PUSH1 0x6 DUP2 MSTORE PUSH1 0x20 ADD PUSH32 0x3C626F64793E0000000000000000000000000000000000000000000000000000 DUP2 MSTORE POP DUP3 PUSH2 0x1E98 SWAP1 SWAP2 SWAP1 PUSH4 0xFFFFFFFF AND JUMP JUMPDEST PUSH0 DUP5 PUSH1 0x20 ADD MLOAD MLOAD GT ISZERO PUSH2 0x13AA JUMPI PUSH2 0x13A9 DUP2 DUP6 PUSH1 0x20 ADD MLOAD PUSH0 PUSH2 0x21DC JUMP JUMPDEST JUMPDEST PUSH2 0x13F2 PUSH1 0x40 MLOAD DUP1 PUSH1 0x40 ADD PUSH1 0x40 MSTORE DUP1 PUSH1 0xE DUP2 MSTORE PUSH1 0x20 ADD PUSH32 0x3C2F626F64793E3C2F68746D6C3E000000000000000000000000000000000000 DUP2 MSTORE POP DUP3 PUSH2 0x1E98 SWAP1 SWAP2 SWAP1 PUSH4 0xFFFFFFFF AND JUMP JUMPDEST DUP1 SWAP3 POP POP POP SWAP2 SWAP1 POP JUMP JUMPDEST PUSH1 0x40 MLOAD DUP1 PUSH1 0x40 ADD PUSH1 0x40 MSTORE DUP1 PUSH1 0xA DUP2 MSTORE PUSH1 0x20 ADD PUSH32 0x253343626F647925334500000000000000000000000000000000000000000000 DUP2 MSTORE POP DUP2 JUMP JUMPDEST PUSH1 0x27 DUP2 JUMP JUMPDEST PUSH1 0x60 DUP1 PUSH1 0x1 PUSH1 0x4 DUP2 GT ISZERO PUSH2 0x1451 JUMPI PUSH2 0x1450 PUSH2 0x2BDE JUMP JUMPDEST JUMPDEST DUP4 PUSH1 0x60 ADD MLOAD PUSH1 0x4 DUP2 GT ISZERO PUSH2 0x1468 JUMPI PUSH2 0x1467 PUSH2 0x2BDE JUMP JUMPDEST JUMPDEST SUB PUSH2 0x14E2 JUMPI PUSH1 0x40 MLOAD DUP1 PUSH1 0x40 ADD PUSH1 0x40 MSTORE DUP1 PUSH1 0x8 DUP2 MSTORE PUSH1 0x20 ADD PUSH32 0x3C7363726970743E000000000000000000000000000000000000000000000000 DUP2 MSTORE POP PUSH1 0x40 MLOAD DUP1 PUSH1 0x40 ADD PUSH1 0x40 MSTORE DUP1 PUSH1 0x9 DUP2 MSTORE PUSH1 0x20 ADD PUSH32 0x3C2F7363726970743E0000000000000000000000000000000000000000000000 DUP2 MSTORE POP SWAP2 POP SWAP2 POP PUSH2 0x1688 JUMP JUMPDEST PUSH1 0x2 PUSH1 0x4 DUP2 GT ISZERO PUSH2 0x14F6 JUMPI PUSH2 0x14F5 PUSH2 0x2BDE JUMP JUMPDEST JUMPDEST DUP4 PUSH1 0x60 ADD MLOAD PUSH1 0x4 DUP2 GT ISZERO PUSH2 0x150D JUMPI PUSH2 0x150C PUSH2 0x2BDE JUMP JUMPDEST JUMPDEST SUB PUSH2 0x156A JUMPI PUSH1 0x40 MLOAD DUP1 PUSH1 0x60 ADD PUSH1 0x40 MSTORE DUP1 PUSH1 0x29 DUP2 MSTORE PUSH1 0x20 ADD PUSH2 0x382A PUSH1 0x29 SWAP2 CODECOPY PUSH1 0x40 MLOAD DUP1 PUSH1 0x40 ADD PUSH1 0x40 MSTORE DUP1 PUSH1 0xB DUP2 MSTORE PUSH1 0x20 ADD PUSH32 0x223E3C2F7363726970743E000000000000000000000000000000000000000000 DUP2 MSTORE POP SWAP2 POP SWAP2 POP PUSH2 0x1688 JUMP JUMPDEST PUSH1 0x3 PUSH1 0x4 DUP2 GT ISZERO PUSH2 0x157E JUMPI PUSH2 0x157D PUSH2 0x2BDE JUMP JUMPDEST JUMPDEST DUP4 PUSH1 0x60 ADD MLOAD PUSH1 0x4 DUP2 GT ISZERO PUSH2 0x1595 JUMPI PUSH2 0x1594 PUSH2 0x2BDE JUMP JUMPDEST JUMPDEST SUB PUSH2 0x15F2 JUMPI PUSH1 0x40 MLOAD DUP1 PUSH1 0x80 ADD PUSH1 0x40 MSTORE DUP1 PUSH1 0x45 DUP2 MSTORE PUSH1 0x20 ADD PUSH2 0x38FE PUSH1 0x45 SWAP2 CODECOPY PUSH1 0x40 MLOAD DUP1 PUSH1 0x40 ADD PUSH1 0x40 MSTORE DUP1 PUSH1 0xB DUP2 MSTORE PUSH1 0x20 ADD PUSH32 0x223E3C2F7363726970743E000000000000000000000000000000000000000000 DUP2 MSTORE POP SWAP2 POP SWAP2 POP PUSH2 0x1688 JUMP JUMPDEST PUSH1 0x4 DUP1 DUP2 GT ISZERO PUSH2 0x1605 JUMPI PUSH2 0x1604 PUSH2 0x2BDE JUMP JUMPDEST JUMPDEST DUP4 PUSH1 0x60 ADD MLOAD PUSH1 0x4 DUP2 GT ISZERO PUSH2 0x161C JUMPI PUSH2 0x161B PUSH2 0x2BDE JUMP JUMPDEST JUMPDEST SUB PUSH2 0x1679 JUMPI PUSH1 0x40 MLOAD DUP1 PUSH1 0x80 ADD PUSH1 0x40 MSTORE DUP1 PUSH1 0x44 DUP2 MSTORE PUSH1 0x20 ADD PUSH2 0x4E38 PUSH1 0x44 SWAP2 CODECOPY PUSH1 0x40 MLOAD DUP1 PUSH1 0x40 ADD PUSH1 0x40 MSTORE DUP1 PUSH1 0xB DUP2 MSTORE PUSH1 0x20 ADD PUSH32 0x223E3C2F7363726970743E000000000000000000000000000000000000000000 DUP2 MSTORE POP SWAP2 POP SWAP2 POP PUSH2 0x1688 JUMP JUMPDEST DUP3 PUSH1 0x80 ADD MLOAD DUP4 PUSH1 0xA0 ADD MLOAD SWAP2 POP SWAP2 POP JUMPDEST SWAP2 POP SWAP2 JUMP JUMPDEST PUSH1 0x60 PUSH2 0x1698 DUP3 PUSH2 0x9EF JUMP JUMPDEST SWAP1 POP SWAP2 SWAP1 POP JUMP JUMPDEST PUSH1 0x60 PUSH0 DUP1 PUSH2 0x16B3 DUP12 DUP12 DUP12 DUP12 DUP12 DUP12 DUP12 DUP12 PUSH2 0xA86 JUMP JUMPDEST SWAP2 POP SWAP2 POP PUSH2 0x16D4 PUSH1 0x40 MLOAD DUP1 PUSH1 0x40 ADD PUSH1 0x40 MSTORE DUP1 DUP5 DUP2 MSTORE PUSH1 0x20 ADD DUP4 DUP2 MSTORE POP PUSH2 0x9EF JUMP JUMPDEST SWAP3 POP POP POP SWAP9 SWAP8 POP POP POP POP POP POP POP POP JUMP JUMPDEST PUSH1 0x27 DUP2 JUMP JUMPDEST PUSH1 0xD DUP2 JUMP JUMPDEST PUSH1 0x40 MLOAD DUP1 PUSH1 0x40 ADD PUSH1 0x40 MSTORE DUP1 PUSH1 0x6 DUP2 MSTORE PUSH1 0x20 ADD PUSH32 0x3C68746D6C3E0000000000000000000000000000000000000000000000000000 DUP2 MSTORE POP DUP2 JUMP JUMPDEST PUSH1 0x17 DUP2 JUMP JUMPDEST PUSH1 0x5A DUP2 JUMP JUMPDEST PUSH1 0x17 DUP2 JUMP JUMPDEST PUSH1 0x40 MLOAD DUP1 PUSH1 0x40 ADD PUSH1 0x40 MSTORE DUP1 PUSH1 0x6 DUP2 MSTORE PUSH1 0x20 ADD PUSH32 0x3C686561643E0000000000000000000000000000000000000000000000000000 DUP2 MSTORE POP DUP2 JUMP JUMPDEST PUSH1 0x60 DUP1 PUSH1 0x1 PUSH1 0x4 DUP2 GT ISZERO PUSH2 0x1786 JUMPI PUSH2 0x1785 PUSH2 0x2BDE JUMP JUMPDEST JUMPDEST DUP4 PUSH1 0x60 ADD MLOAD PUSH1 0x4 DUP2 GT ISZERO PUSH2 0x179D JUMPI PUSH2 0x179C PUSH2 0x2BDE JUMP JUMPDEST JUMPDEST EQ DUP1 PUSH2 0x17D1 JUMPI POP PUSH1 0x2 PUSH1 0x4 DUP2 GT ISZERO PUSH2 0x17B8 JUMPI PUSH2 0x17B7 PUSH2 0x2BDE JUMP JUMPDEST JUMPDEST DUP4 PUSH1 0x60 ADD MLOAD PUSH1 0x4 DUP2 GT ISZERO PUSH2 0x17CF JUMPI PUSH2 0x17CE PUSH2 0x2BDE JUMP JUMPDEST JUMPDEST EQ JUMPDEST ISZERO PUSH2 0x182E JUMPI PUSH1 0x40 MLOAD DUP1 PUSH1 0x80 ADD PUSH1 0x40 MSTORE DUP1 PUSH1 0x49 DUP2 MSTORE PUSH1 0x20 ADD PUSH2 0x38B5 PUSH1 0x49 SWAP2 CODECOPY PUSH1 0x40 MLOAD DUP1 PUSH1 0x40 ADD PUSH1 0x40 MSTORE DUP1 PUSH1 0x1F DUP2 MSTORE PUSH1 0x20 ADD PUSH32 0x2532353232253235334525323533432532353246736372697074253235334500 DUP2 MSTORE POP SWAP2 POP SWAP2 POP PUSH2 0x194C JUMP JUMPDEST PUSH1 0x3 PUSH1 0x4 DUP2 GT ISZERO PUSH2 0x1842 JUMPI PUSH2 0x1841 PUSH2 0x2BDE JUMP JUMPDEST JUMPDEST DUP4 PUSH1 0x60 ADD MLOAD PUSH1 0x4 DUP2 GT ISZERO PUSH2 0x1859 JUMPI PUSH2 0x1858 PUSH2 0x2BDE JUMP JUMPDEST JUMPDEST SUB PUSH2 0x18B6 JUMPI PUSH1 0x40 MLOAD DUP1 PUSH1 0xA0 ADD PUSH1 0x40 MSTORE DUP1 PUSH1 0x7D DUP2 MSTORE PUSH1 0x20 ADD PUSH2 0x3A77 PUSH1 0x7D SWAP2 CODECOPY PUSH1 0x40 MLOAD DUP1 PUSH1 0x40 ADD PUSH1 0x40 MSTORE DUP1 PUSH1 0x1F DUP2 MSTORE PUSH1 0x20 ADD PUSH32 0x2532353232253235334525323533432532353246736372697074253235334500 DUP2 MSTORE POP SWAP2 POP SWAP2 POP PUSH2 0x194C JUMP JUMPDEST PUSH1 0x4 DUP1 DUP2 GT ISZERO PUSH2 0x18C9 JUMPI PUSH2 0x18C8 PUSH2 0x2BDE JUMP JUMPDEST JUMPDEST DUP4 PUSH1 0x60 ADD MLOAD PUSH1 0x4 DUP2 GT ISZERO PUSH2 0x18E0 JUMPI PUSH2 0x18DF PUSH2 0x2BDE JUMP JUMPDEST JUMPDEST SUB PUSH2 0x193D JUMPI PUSH1 0x40 MLOAD DUP1 PUSH1 0xA0 ADD PUSH1 0x40 MSTORE DUP1 PUSH1 0x7C DUP2 MSTORE PUSH1 0x20 ADD PUSH2 0x3AF4 PUSH1 0x7C SWAP2 CODECOPY PUSH1 0x40 MLOAD DUP1 PUSH1 0x40 ADD PUSH1 0x40 MSTORE DUP1 PUSH1 0x1F DUP2 MSTORE PUSH1 0x20 ADD PUSH32 0x2532353232253235334525323533432532353246736372697074253235334500 DUP2 MSTORE POP SWAP2 POP SWAP2 POP PUSH2 0x194C JUMP JUMPDEST DUP3 PUSH1 0x80 ADD MLOAD DUP4 PUSH1 0xA0 ADD MLOAD SWAP2 POP SWAP2 POP JUMPDEST SWAP2 POP SWAP2 JUMP JUMPDEST PUSH1 0x60 PUSH0 DUP3 PUSH1 0xC0 ADD MLOAD MLOAD GT ISZERO PUSH2 0x196C JUMPI DUP2 PUSH1 0xC0 ADD MLOAD SWAP1 POP PUSH2 0x19F7 JUMP JUMPDEST DUP2 PUSH1 0x20 ADD MLOAD PUSH20 0xFFFFFFFFFFFFFFFFFFFFFFFFFFFFFFFFFFFFFFFF AND PUSH4 0xF9635594 DUP4 PUSH0 ADD MLOAD DUP5 PUSH1 0x40 ADD MLOAD PUSH1 0x40 MLOAD DUP4 PUSH4 0xFFFFFFFF AND PUSH1 0xE0 SHL DUP2 MSTORE PUSH1 0x4 ADD PUSH2 0x19B2 SWAP3 SWAP2 SWAP1 PUSH2 0x30D1 JUMP JUMPDEST PUSH0 PUSH1 0x40 MLOAD DUP1 DUP4 SUB DUP2 DUP7 GAS STATICCALL ISZERO DUP1 ISZERO PUSH2 0x19CC JUMPI RETURNDATASIZE PUSH0 DUP1 RETURNDATACOPY RETURNDATASIZE PUSH0 REVERT JUMPDEST POP POP POP POP PUSH1 0x40 MLOAD RETURNDATASIZE PUSH0 DUP3 RETURNDATACOPY RETURNDATASIZE PUSH1 0x1F NOT PUSH1 0x1F DUP3 ADD AND DUP3 ADD DUP1 PUSH1 0x40 MSTORE POP DUP2 ADD SWAP1 PUSH2 0x19F4 SWAP2 SWAP1 PUSH2 0x3174 JUMP JUMPDEST SWAP1 POP JUMPDEST SWAP2 SWAP1 POP JUMP JUMPDEST PUSH1 0x40 MLOAD DUP1 PUSH1 0x40 ADD PUSH1 0x40 MSTORE DUP1 PUSH1 0x6 DUP2 MSTORE PUSH1 0x20 ADD PUSH32 0x3C626F64793E0000000000000000000000000000000000000000000000000000 DUP2 MSTORE POP DUP2 JUMP JUMPDEST PUSH1 0xD DUP2 JUMP JUMPDEST PUSH1 0x60 PUSH2 0x1A45 DUP3 PUSH2 0x11FF JUMP JUMPDEST SWAP1 POP SWAP2 SWAP1 POP JUMP JUMPDEST PUSH1 0x40 MLOAD DUP1 PUSH1 0x40 ADD PUSH1 0x40 MSTORE DUP1 PUSH1 0x15 DUP2 MSTORE PUSH1 0x20 ADD PUSH32 0x646174612533417465787425324668746D6C2532430000000000000000000000 DUP2 MSTORE POP DUP2 JUMP JUMPDEST PUSH1 0x40 MLOAD DUP1 PUSH1 0x40 ADD PUSH1 0x40 MSTORE DUP1 PUSH1 0xD DUP2 MSTORE PUSH1 0x20 ADD PUSH32 0x2533432532466865616425334500000000000000000000000000000000000000 DUP2 MSTORE POP DUP2 JUMP JUMPDEST PUSH1 0x40 MLOAD DUP1 PUSH1 0x40 ADD PUSH1 0x40 MSTORE DUP1 PUSH1 0xE DUP2 MSTORE PUSH1 0x20 ADD PUSH32 0x3C2F626F64793E3C2F68746D6C3E000000000000000000000000000000000000 DUP2 MSTORE POP DUP2 JUMP JUMPDEST PUSH1 0x60 PUSH2 0x1B09 DUP11 DUP10 DUP10 DUP10 DUP10 DUP10 DUP10 DUP10 PUSH2 0x169F JUMP JUMPDEST PUSH2 0x1B19 DUP12 DUP11 DUP11 DUP11 DUP11 DUP11 DUP11 DUP11 PUSH2 0x76A JUMP JUMPDEST PUSH2 0x1B22 DUP12 PUSH2 0x1FD9 JUMP JUMPDEST PUSH2 0x1B2F DUP12 PUSH2 0xFFFF AND PUSH2 0x1FD9 JUMP JUMPDEST PUSH2 0x1B3C DUP12 PUSH2 0xFFFF AND PUSH2 0x1FD9 JUMP JUMPDEST PUSH2 0x1B4A DUP12 PUSH3 0xFFFFFF AND PUSH2 0x1FD9 JUMP JUMPDEST PUSH2 0x1B58 DUP12 PUSH3 0xFFFFFF AND PUSH2 0x1FD9 JUMP JUMPDEST PUSH2 0x1B65 DUP12 PUSH2 0xFFFF AND PUSH2 0x1FD9 JUMP JUMPDEST PUSH2 0x1B73 DUP12 PUSH3 0xFFFFFF AND PUSH2 0x1FD9 JUMP JUMPDEST DUP11 PUSH1 0x40 MLOAD PUSH1 0x20 ADD PUSH2 0x1B8D SWAP11 SWAP10 SWAP9 SWAP8 SWAP7 SWAP6 SWAP5 SWAP4 SWAP3 SWAP2 SWAP1 PUSH2 0x3667 JUMP JUMPDEST PUSH1 0x40 MLOAD PUSH1 0x20 DUP2 DUP4 SUB SUB DUP2 MSTORE SWAP1 PUSH1 0x40 MSTORE SWAP1 POP SWAP10 SWAP9 POP POP POP POP POP POP POP POP POP JUMP JUMPDEST PUSH1 0x17 DUP2 JUMP JUMPDEST PUSH1 0x40 MLOAD DUP1 PUSH1 0x40 ADD PUSH1 0x40 MSTORE DUP1 PUSH1 0x16 DUP2 MSTORE PUSH1 0x20 ADD PUSH32 0x646174613A746578742F68746D6C3B6261736536342C00000000000000000000 DUP2 MSTORE POP DUP2 JUMP JUMPDEST PUSH1 0x60 PUSH0 PUSH1 0x6 PUSH8 0xFFFFFFFFFFFFFFFF DUP2 GT ISZERO PUSH2 0x1C07 JUMPI PUSH2 0x1C06 PUSH2 0x250D JUMP JUMPDEST JUMPDEST PUSH1 0x40 MLOAD SWAP1 DUP1 DUP3 MSTORE DUP1 PUSH1 0x20 MUL PUSH1 0x20 ADD DUP3 ADD PUSH1 0x40 MSTORE DUP1 ISZERO PUSH2 0x1C3A JUMPI DUP2 PUSH1 0x20 ADD JUMPDEST PUSH1 0x60 DUP2 MSTORE PUSH1 0x20 ADD SWAP1 PUSH1 0x1 SWAP1 SUB SWAP1 DUP2 PUSH2 0x1C25 JUMPI SWAP1 POP JUMPDEST POP SWAP1 POP PUSH1 0x40 MLOAD DUP1 PUSH1 0x40 ADD PUSH1 0x40 MSTORE DUP1 PUSH1 0x7 DUP2 MSTORE PUSH1 0x20 ADD PUSH32 0x2344353343354500000000000000000000000000000000000000000000000000 DUP2 MSTORE POP DUP2 PUSH0 DUP2 MLOAD DUP2 LT PUSH2 0x1C86 JUMPI PUSH2 0x1C85 PUSH2 0x3017 JUMP JUMPDEST JUMPDEST PUSH1 0x20 MUL PUSH1 0x20 ADD ADD DUP2 SWAP1 MSTORE POP PUSH1 0x40 MLOAD DUP1 PUSH1 0x40 ADD PUSH1 0x40 MSTORE DUP1 PUSH1 0x7 DUP2 MSTORE PUSH1 0x20 ADD PUSH32 0x2335393837464600000000000000000000000000000000000000000000000000 DUP2 MSTORE POP DUP2 PUSH1 0x1 DUP2 MLOAD DUP2 LT PUSH2 0x1CDB JUMPI PUSH2 0x1CDA PUSH2 0x3017 JUMP JUMPDEST JUMPDEST PUSH1 0x20 MUL PUSH1 0x20 ADD ADD DUP2 SWAP1 MSTORE POP PUSH1 0x40 MLOAD DUP1 PUSH1 0x40 ADD PUSH1 0x40 MSTORE DUP1 PUSH1 0x7 DUP2 MSTORE PUSH1 0x20 ADD PUSH32 0x2344433545374100000000000000000000000000000000000000000000000000 DUP2 MSTORE POP DUP2 PUSH1 0x2 DUP2 MLOAD DUP2 LT PUSH2 0x1D30 JUMPI PUSH2 0x1D2F PUSH2 0x3017 JUMP JUMPDEST JUMPDEST PUSH1 0x20 MUL PUSH1 0x20 ADD ADD DUP2 SWAP1 MSTORE POP PUSH1 0x40 MLOAD DUP1 PUSH1 0x40 ADD PUSH1 0x40 MSTORE DUP1 PUSH1 0x7 DUP2 MSTORE PUSH1 0x20 ADD PUSH32 0x2331343236453100000000000000000000000000000000000000000000000000 DUP2 MSTORE POP DUP2 PUSH1 0x3 DUP2 MLOAD DUP2 LT PUSH2 0x1D85 JUMPI PUSH2 0x1D84 PUSH2 0x3017 JUMP JUMPDEST JUMPDEST PUSH1 0x20 MUL PUSH1 0x20 ADD ADD DUP2 SWAP1 MSTORE POP PUSH1 0x40 MLOAD DUP1 PUSH1 0x40 ADD PUSH1 0x40 MSTORE DUP1 PUSH1 0x7 DUP2 MSTORE PUSH1 0x20 ADD PUSH32 0x2331423338463500000000000000000000000000000000000000000000000000 DUP2 MSTORE POP DUP2 PUSH1 0x4 DUP2 MLOAD DUP2 LT PUSH2 0x1DDA JUMPI PUSH2 0x1DD9 PUSH2 0x3017 JUMP JUMPDEST JUMPDEST PUSH1 0x20 MUL PUSH1 0x20 ADD ADD DUP2 SWAP1 MSTORE POP PUSH1 0x40 MLOAD DUP1 PUSH1 0x40 ADD PUSH1 0x40 MSTORE DUP1 PUSH1 0x7 DUP2 MSTORE PUSH1 0x20 ADD PUSH32 0x2345333746393500000000000000000000000000000000000000000000000000 DUP2 MSTORE POP DUP2 PUSH1 0x5 DUP2 MLOAD DUP2 LT PUSH2 0x1E2F JUMPI PUSH2 0x1E2E PUSH2 0x3017 JUMP JUMPDEST JUMPDEST PUSH1 0x20 MUL PUSH1 0x20 ADD ADD DUP2 SWAP1 MSTORE POP DUP1 PUSH1 0x6 DUP5 PUSH2 0x1E48 SWAP2 SWAP1 PUSH2 0x376B JUMP JUMPDEST PUSH4 0xFFFFFFFF AND DUP2 MLOAD DUP2 LT PUSH2 0x1E5F JUMPI PUSH2 0x1E5E PUSH2 0x3017 JUMP JUMPDEST JUMPDEST PUSH1 0x20 MUL PUSH1 0x20 ADD ADD MLOAD SWAP2 POP POP SWAP2 SWAP1 POP JUMP JUMPDEST PUSH1 0x60 PUSH1 0x40 MLOAD PUSH1 0x60 DUP4 ADD DUP1 DUP3 ADD DUP1 PUSH1 0x40 MSTORE POP POP PUSH1 0x40 DUP4 ADD DUP1 DUP3 MSTORE POP PUSH1 0x20 DUP2 ADD SWAP2 POP PUSH0 DUP3 MSTORE POP SWAP2 SWAP1 POP JUMP JUMPDEST PUSH2 0x1EA3 DUP3 DUP3 MLOAD PUSH2 0x2217 JUMP JUMPDEST PUSH2 0x1EAD DUP3 DUP3 PUSH2 0x227C JUMP JUMPDEST POP POP JUMP JUMPDEST PUSH0 DUP4 MLOAD SWAP1 POP PUSH0 DUP5 MLOAD SUB PUSH2 0x1EC4 JUMPI POP PUSH2 0x1FD3 JUMP JUMPDEST PUSH0 DUP1 PUSH1 0x3 PUSH1 0x2 DUP5 ADD DIV PUSH1 0x2 SHL SWAP2 POP PUSH1 0x3 DUP4 MOD SWAP1 POP DUP4 ISZERO PUSH2 0x1EEB JUMPI PUSH1 0x1 DUP2 EQ DUP2 ISZERO ISZERO ADD DUP3 SUB SWAP2 POP JUMPDEST PUSH2 0x1EF5 DUP8 DUP4 PUSH2 0x2217 JUMP JUMPDEST PUSH1 0x40 MLOAD PUSH32 0x4142434445464748494A4B4C4D4E4F505152535455565758595A616263646566 PUSH1 0x1F MSTORE PUSH2 0x230 DUP7 ISZERO MUL PUSH32 0x6768696A6B6C6D6E6F707172737475767778797A303132333435363738392D5F SUB PUSH1 0x3F MSTORE DUP8 MLOAD PUSH1 0x20 DUP10 ADD ADD DUP5 DUP9 ADD JUMPDEST PUSH1 0x1 ISZERO PUSH2 0x1FA8 JUMPI PUSH1 0x3 DUP10 ADD SWAP9 POP DUP9 MLOAD PUSH1 0x3F DUP2 PUSH1 0x12 SHR AND MLOAD DUP4 MSTORE8 PUSH1 0x3F DUP2 PUSH1 0xC SHR AND MLOAD PUSH1 0x1 DUP5 ADD MSTORE8 PUSH1 0x3F DUP2 PUSH1 0x6 SHR AND MLOAD PUSH1 0x2 DUP5 ADD MSTORE8 PUSH1 0x3F DUP2 AND MLOAD PUSH1 0x3 DUP5 ADD MSTORE8 PUSH1 0x4 DUP4 ADD SWAP3 POP DUP2 DUP11 LT PUSH2 0x1FA2 JUMPI POP PUSH2 0x1FA8 JUMP JUMPDEST POP PUSH2 0x1F52 JUMP JUMPDEST DUP7 PUSH2 0x1FC2 JUMPI PUSH1 0x3D DUP5 ISZERO ISZERO DUP4 SUB MSTORE8 PUSH1 0x3D PUSH1 0x1 DUP6 EQ PUSH1 0x1 SHL DUP4 SUB MSTORE8 JUMPDEST DUP5 DUP11 MLOAD ADD DUP11 MSTORE DUP3 PUSH1 0x40 MSTORE POP POP POP POP POP POP JUMPDEST POP POP POP POP JUMP JUMPDEST PUSH1 0x60 PUSH1 0x80 PUSH1 0x40 MLOAD ADD SWAP1 POP PUSH1 0x20 DUP2 ADD PUSH1 0x40 MSTORE PUSH0 DUP2 MSTORE DUP1 PUSH0 NOT DUP4 JUMPDEST PUSH1 0x1 ISZERO PUSH2 0x2013 JUMPI DUP2 DUP5 ADD SWAP4 POP PUSH1 0xA DUP2 MOD PUSH1 0x30 ADD DUP5 MSTORE8 PUSH1 0xA DUP2 DIV SWAP1 POP DUP1 PUSH2 0x1FF2 JUMPI JUMPDEST POP DUP3 DUP3 SUB PUSH1 0x20 DUP5 SUB SWAP4 POP DUP1 DUP5 MSTORE POP POP POP SWAP2 SWAP1 POP JUMP JUMPDEST PUSH0 DUP1 DUP4 MLOAD SUB PUSH2 0x2039 JUMPI PUSH0 SWAP1 POP PUSH2 0x21C7 JUMP JUMPDEST PUSH1 0x60 DUP1 PUSH1 0x60 PUSH0 DUP1 DUP8 MLOAD SWAP1 POP PUSH0 JUMPDEST PUSH2 0x2069 DUP10 DUP3 DUP2 MLOAD DUP2 LT PUSH2 0x205C JUMPI PUSH2 0x205B PUSH2 0x3017 JUMP JUMPDEST JUMPDEST PUSH1 0x20 MUL PUSH1 0x20 ADD ADD MLOAD PUSH2 0x1951 JUMP JUMPDEST SWAP4 POP DUP4 DUP10 DUP3 DUP2 MLOAD DUP2 LT PUSH2 0x207F JUMPI PUSH2 0x207E PUSH2 0x3017 JUMP JUMPDEST JUMPDEST PUSH1 0x20 MUL PUSH1 0x20 ADD ADD MLOAD PUSH1 0xC0 ADD DUP2 SWAP1 MSTORE POP DUP8 DUP1 ISZERO PUSH2 0x20DD JUMPI POP PUSH1 0x1 PUSH1 0x4 DUP2 GT ISZERO PUSH2 0x20AA JUMPI PUSH2 0x20A9 PUSH2 0x2BDE JUMP JUMPDEST JUMPDEST DUP10 DUP3 DUP2 MLOAD DUP2 LT PUSH2 0x20BD JUMPI PUSH2 0x20BC PUSH2 0x3017 JUMP JUMPDEST JUMPDEST PUSH1 0x20 MUL PUSH1 0x20 ADD ADD MLOAD PUSH1 0x60 ADD MLOAD PUSH1 0x4 DUP2 GT ISZERO PUSH2 0x20DB JUMPI PUSH2 0x20DA PUSH2 0x2BDE JUMP JUMPDEST JUMPDEST EQ JUMPDEST ISZERO PUSH2 0x20F5 JUMPI PUSH2 0x20EC DUP5 MLOAD PUSH2 0x11DA JUMP JUMPDEST DUP4 ADD SWAP3 POP PUSH2 0x20FC JUMP JUMPDEST DUP4 MLOAD DUP4 ADD SWAP3 POP JUMPDEST DUP8 ISZERO PUSH2 0x2132 JUMPI PUSH2 0x2125 DUP10 DUP3 DUP2 MLOAD DUP2 LT PUSH2 0x2118 JUMPI PUSH2 0x2117 PUSH2 0x3017 JUMP JUMPDEST JUMPDEST PUSH1 0x20 MUL PUSH1 0x20 ADD ADD MLOAD PUSH2 0x176F JUMP JUMPDEST DUP1 SWAP7 POP DUP2 SWAP8 POP POP POP PUSH2 0x215E JUMP JUMPDEST PUSH2 0x2155 DUP10 DUP3 DUP2 MLOAD DUP2 LT PUSH2 0x2148 JUMPI PUSH2 0x2147 PUSH2 0x3017 JUMP JUMPDEST JUMPDEST PUSH1 0x20 MUL PUSH1 0x20 ADD ADD MLOAD PUSH2 0x143A JUMP JUMPDEST DUP1 SWAP7 POP DUP2 SWAP8 POP POP POP JUMPDEST DUP6 DUP10 DUP3 DUP2 MLOAD DUP2 LT PUSH2 0x2172 JUMPI PUSH2 0x2171 PUSH2 0x3017 JUMP JUMPDEST JUMPDEST PUSH1 0x20 MUL PUSH1 0x20 ADD ADD MLOAD PUSH1 0x80 ADD DUP2 SWAP1 MSTORE POP DUP5 DUP10 DUP3 DUP2 MLOAD DUP2 LT PUSH2 0x2195 JUMPI PUSH2 0x2194 PUSH2 0x3017 JUMP JUMPDEST JUMPDEST PUSH1 0x20 MUL PUSH1 0x20 ADD ADD MLOAD PUSH1 0xA0 ADD DUP2 SWAP1 MSTORE POP DUP6 MLOAD DUP4 ADD SWAP3 POP DUP5 MLOAD DUP4 ADD SWAP3 POP DUP2 DUP2 PUSH1 0x1 ADD SWAP2 POP DUP2 LT PUSH2 0x2046 JUMPI DUP3 SWAP7 POP POP POP POP POP POP POP JUMPDEST SWAP3 SWAP2 POP POP JUMP JUMPDEST PUSH0 PUSH1 0x27 SWAP1 POP DUP2 DUP2 ADD SWAP1 POP SWAP2 SWAP1 POP JUMP JUMPDEST PUSH0 JUMPDEST PUSH2 0x2203 DUP5 DUP5 DUP4 DUP2 MLOAD DUP2 LT PUSH2 0x21F5 JUMPI PUSH2 0x21F4 PUSH2 0x3017 JUMP JUMPDEST JUMPDEST PUSH1 0x20 MUL PUSH1 0x20 ADD ADD MLOAD DUP5 PUSH2 0x22B9 JUMP JUMPDEST DUP3 MLOAD DUP2 PUSH1 0x1 ADD SWAP2 POP DUP2 LT PUSH2 0x21DE JUMPI POP POP POP POP JUMP JUMPDEST PUSH0 PUSH2 0x2221 DUP4 PUSH2 0x232A JUMP JUMPDEST SWAP1 POP PUSH0 DUP3 DUP5 MLOAD PUSH2 0x2231 SWAP2 SWAP1 PUSH2 0x3071 JUMP JUMPDEST SWAP1 POP DUP1 DUP3 LT ISZERO PUSH2 0x2276 JUMPI PUSH1 0x40 MLOAD PUSH32 0x8C379A000000000000000000000000000000000000000000000000000000000 DUP2 MSTORE PUSH1 0x4 ADD PUSH2 0x226D SWAP1 PUSH2 0x380B JUMP JUMPDEST PUSH1 0x40 MLOAD DUP1 SWAP2 SUB SWAP1 REVERT JUMPDEST POP POP POP POP JUMP JUMPDEST DUP1 MLOAD PUSH1 0x20 DUP3 ADD SWAP2 POP DUP1 DUP3 ADD PUSH1 0x20 DUP5 MLOAD ADD DUP5 ADD JUMPDEST DUP2 DUP5 LT ISZERO PUSH2 0x22AC JUMPI DUP4 MLOAD DUP2 MSTORE PUSH1 0x20 DUP5 ADD SWAP4 POP PUSH1 0x20 DUP2 ADD SWAP1 POP PUSH2 0x228F JUMP JUMPDEST POP POP DUP1 DUP4 MLOAD ADD DUP4 MSTORE POP POP POP JUMP JUMPDEST PUSH2 0x22D0 DUP3 PUSH1 0x80 ADD MLOAD DUP5 PUSH2 0x1E98 SWAP1 SWAP2 SWAP1 PUSH4 0xFFFFFFFF AND JUMP JUMPDEST DUP1 ISZERO PUSH2 0x22F6 JUMPI PUSH2 0x22F1 DUP3 PUSH1 0xC0 ADD MLOAD PUSH0 DUP1 DUP7 PUSH2 0x1EB1 SWAP1 SWAP4 SWAP3 SWAP2 SWAP1 PUSH4 0xFFFFFFFF AND JUMP JUMPDEST PUSH2 0x230E JUMP JUMPDEST PUSH2 0x230D DUP3 PUSH1 0xC0 ADD MLOAD DUP5 PUSH2 0x1E98 SWAP1 SWAP2 SWAP1 PUSH4 0xFFFFFFFF AND JUMP JUMPDEST JUMPDEST PUSH2 0x2325 DUP3 PUSH1 0xA0 ADD MLOAD DUP5 PUSH2 0x1E98 SWAP1 SWAP2 SWAP1 PUSH4 0xFFFFFFFF AND JUMP JUMPDEST POP POP POP JUMP JUMPDEST PUSH0 DUP1 PUSH1 0x40 PUSH1 0x20 DUP5 SUB MLOAD SUB SWAP1 POP DUP1 SWAP2 POP POP SWAP2 SWAP1 POP JUMP JUMPDEST PUSH1 0x40 MLOAD DUP1 PUSH1 0xE0 ADD PUSH1 0x40 MSTORE DUP1 PUSH1 0x60 DUP2 MSTORE PUSH1 0x20 ADD PUSH0 PUSH20 0xFFFFFFFFFFFFFFFFFFFFFFFFFFFFFFFFFFFFFFFF AND DUP2 MSTORE PUSH1 0x20 ADD PUSH1 0x60 DUP2 MSTORE PUSH1 0x20 ADD PUSH0 PUSH1 0x4 DUP2 GT ISZERO PUSH2 0x2387 JUMPI PUSH2 0x2386 PUSH2 0x2BDE JUMP JUMPDEST JUMPDEST DUP2 MSTORE PUSH1 0x20 ADD PUSH1 0x60 DUP2 MSTORE PUSH1 0x20 ADD PUSH1 0x60 DUP2 MSTORE PUSH1 0x20 ADD PUSH1 0x60 DUP2 MSTORE POP SWAP1 JUMP JUMPDEST PUSH0 DUP2 MLOAD SWAP1 POP SWAP2 SWAP1 POP JUMP JUMPDEST PUSH0 DUP3 DUP3 MSTORE PUSH1 0x20 DUP3 ADD SWAP1 POP SWAP3 SWAP2 POP POP JUMP JUMPDEST PUSH0 JUMPDEST DUP4 DUP2 LT ISZERO PUSH2 0x23D9 JUMPI DUP1 DUP3 ADD MLOAD DUP2 DUP5 ADD MSTORE PUSH1 0x20 DUP2 ADD SWAP1 POP PUSH2 0x23BE JUMP JUMPDEST PUSH0 DUP5 DUP5 ADD MSTORE POP POP POP POP JUMP JUMPDEST PUSH0 PUSH1 0x1F NOT PUSH1 0x1F DUP4 ADD AND SWAP1 POP SWAP2 SWAP1 POP JUMP JUMPDEST PUSH0 PUSH2 0x23FE DUP3 PUSH2 0x23A2 JUMP JUMPDEST PUSH2 0x2408 DUP2 DUP6 PUSH2 0x23AC JUMP JUMPDEST SWAP4 POP PUSH2 0x2418 DUP2 DUP6 PUSH1 0x20 DUP7 ADD PUSH2 0x23BC JUMP JUMPDEST PUSH2 0x2421 DUP2 PUSH2 0x23E4 JUMP JUMPDEST DUP5 ADD SWAP2 POP POP SWAP3 SWAP2 POP POP JUMP JUMPDEST PUSH0 PUSH1 0x20 DUP3 ADD SWAP1 POP DUP2 DUP2 SUB PUSH0 DUP4 ADD MSTORE PUSH2 0x2444 DUP2 DUP5 PUSH2 0x23F4 JUMP JUMPDEST SWAP1 POP SWAP3 SWAP2 POP POP JUMP JUMPDEST PUSH0 PUSH1 0x40 MLOAD SWAP1 POP SWAP1 JUMP JUMPDEST PUSH0 DUP1 REVERT JUMPDEST PUSH0 DUP1 REVERT JUMPDEST PUSH0 PUSH4 0xFFFFFFFF DUP3 AND SWAP1 POP SWAP2 SWAP1 POP JUMP JUMPDEST PUSH2 0x2475 DUP2 PUSH2 0x245D JUMP JUMPDEST DUP2 EQ PUSH2 0x247F JUMPI PUSH0 DUP1 REVERT JUMPDEST POP JUMP JUMPDEST PUSH0 DUP2 CALLDATALOAD SWAP1 POP PUSH2 0x2490 DUP2 PUSH2 0x246C JUMP JUMPDEST SWAP3 SWAP2 POP POP JUMP JUMPDEST PUSH0 PUSH2 0xFFFF DUP3 AND SWAP1 POP SWAP2 SWAP1 POP JUMP JUMPDEST PUSH2 0x24AC DUP2 PUSH2 0x2496 JUMP JUMPDEST DUP2 EQ PUSH2 0x24B6 JUMPI PUSH0 DUP1 REVERT JUMPDEST POP JUMP JUMPDEST PUSH0 DUP2 CALLDATALOAD SWAP1 POP PUSH2 0x24C7 DUP2 PUSH2 0x24A3 JUMP JUMPDEST SWAP3 SWAP2 POP POP JUMP JUMPDEST PUSH0 PUSH3 0xFFFFFF DUP3 AND SWAP1 POP SWAP2 SWAP1 POP JUMP JUMPDEST PUSH2 0x24E4 DUP2 PUSH2 0x24CD JUMP JUMPDEST DUP2 EQ PUSH2 0x24EE JUMPI PUSH0 DUP1 REVERT JUMPDEST POP JUMP JUMPDEST PUSH0 DUP2 CALLDATALOAD SWAP1 POP PUSH2 0x24FF DUP2 PUSH2 0x24DB JUMP JUMPDEST SWAP3 SWAP2 POP POP JUMP JUMPDEST PUSH0 DUP1 REVERT JUMPDEST PUSH0 DUP1 REVERT JUMPDEST PUSH32 0x4E487B7100000000000000000000000000000000000000000000000000000000 PUSH0 MSTORE PUSH1 0x41 PUSH1 0x4 MSTORE PUSH1 0x24 PUSH0 REVERT JUMPDEST PUSH2 0x2543 DUP3 PUSH2 0x23E4 JUMP JUMPDEST DUP2 ADD DUP2 DUP2 LT PUSH8 0xFFFFFFFFFFFFFFFF DUP3 GT OR ISZERO PUSH2 0x2562 JUMPI PUSH2 0x2561 PUSH2 0x250D JUMP JUMPDEST JUMPDEST DUP1 PUSH1 0x40 MSTORE POP POP POP JUMP JUMPDEST PUSH0 PUSH2 0x2574 PUSH2 0x244C JUMP JUMPDEST SWAP1 POP PUSH2 0x2580 DUP3 DUP3 PUSH2 0x253A JUMP JUMPDEST SWAP2 SWAP1 POP JUMP JUMPDEST PUSH0 PUSH8 0xFFFFFFFFFFFFFFFF DUP3 GT ISZERO PUSH2 0x259F JUMPI PUSH2 0x259E PUSH2 0x250D JUMP JUMPDEST JUMPDEST PUSH2 0x25A8 DUP3 PUSH2 0x23E4 JUMP JUMPDEST SWAP1 POP PUSH1 0x20 DUP2 ADD SWAP1 POP SWAP2 SWAP1 POP JUMP JUMPDEST DUP3 DUP2 DUP4 CALLDATACOPY PUSH0 DUP4 DUP4 ADD MSTORE POP POP POP JUMP JUMPDEST PUSH0 PUSH2 0x25D5 PUSH2 0x25D0 DUP5 PUSH2 0x2585 JUMP JUMPDEST PUSH2 0x256B JUMP JUMPDEST SWAP1 POP DUP3 DUP2 MSTORE PUSH1 0x20 DUP2 ADD DUP5 DUP5 DUP5 ADD GT ISZERO PUSH2 0x25F1 JUMPI PUSH2 0x25F0 PUSH2 0x2509 JUMP JUMPDEST JUMPDEST PUSH2 0x25FC DUP5 DUP3 DUP6 PUSH2 0x25B5 JUMP JUMPDEST POP SWAP4 SWAP3 POP POP POP JUMP JUMPDEST PUSH0 DUP3 PUSH1 0x1F DUP4 ADD SLT PUSH2 0x2618 JUMPI PUSH2 0x2617 PUSH2 0x2505 JUMP JUMPDEST JUMPDEST DUP2 CALLDATALOAD PUSH2 0x2628 DUP5 DUP3 PUSH1 0x20 DUP7 ADD PUSH2 0x25C3 JUMP JUMPDEST SWAP2 POP POP SWAP3 SWAP2 POP POP JUMP JUMPDEST PUSH0 DUP1 PUSH0 DUP1 PUSH0 DUP1 PUSH0 DUP1 PUSH2 0x100 DUP10 DUP12 SUB SLT ISZERO PUSH2 0x264E JUMPI PUSH2 0x264D PUSH2 0x2455 JUMP JUMPDEST JUMPDEST PUSH0 PUSH2 0x265B DUP12 DUP3 DUP13 ADD PUSH2 0x2482 JUMP JUMPDEST SWAP9 POP POP PUSH1 0x20 PUSH2 0x266C DUP12 DUP3 DUP13 ADD PUSH2 0x24B9 JUMP JUMPDEST SWAP8 POP POP PUSH1 0x40 PUSH2 0x267D DUP12 DUP3 DUP13 ADD PUSH2 0x24B9 JUMP JUMPDEST SWAP7 POP POP PUSH1 0x60 PUSH2 0x268E DUP12 DUP3 DUP13 ADD PUSH2 0x24F1 JUMP JUMPDEST SWAP6 POP POP PUSH1 0x80 PUSH2 0x269F DUP12 DUP3 DUP13 ADD PUSH2 0x24F1 JUMP JUMPDEST SWAP5 POP POP PUSH1 0xA0 PUSH2 0x26B0 DUP12 DUP3 DUP13 ADD PUSH2 0x24B9 JUMP JUMPDEST SWAP4 POP POP PUSH1 0xC0 PUSH2 0x26C1 DUP12 DUP3 DUP13 ADD PUSH2 0x24F1 JUMP JUMPDEST SWAP3 POP POP PUSH1 0xE0 DUP10 ADD CALLDATALOAD PUSH8 0xFFFFFFFFFFFFFFFF DUP2 GT ISZERO PUSH2 0x26E2 JUMPI PUSH2 0x26E1 PUSH2 0x2459 JUMP JUMPDEST JUMPDEST PUSH2 0x26EE DUP12 DUP3 DUP13 ADD PUSH2 0x2604 JUMP JUMPDEST SWAP2 POP POP SWAP3 SWAP6 SWAP9 POP SWAP3 SWAP6 SWAP9 SWAP1 SWAP4 SWAP7 POP JUMP JUMPDEST PUSH0 DUP1 REVERT JUMPDEST PUSH0 DUP1 REVERT JUMPDEST PUSH0 PUSH8 0xFFFFFFFFFFFFFFFF DUP3 GT ISZERO PUSH2 0x2720 JUMPI PUSH2 0x271F PUSH2 0x250D JUMP JUMPDEST JUMPDEST PUSH1 0x20 DUP3 MUL SWAP1 POP PUSH1 0x20 DUP2 ADD SWAP1 POP SWAP2 SWAP1 POP JUMP JUMPDEST PUSH0 DUP1 REVERT JUMPDEST PUSH0 PUSH20 0xFFFFFFFFFFFFFFFFFFFFFFFFFFFFFFFFFFFFFFFF DUP3 AND SWAP1 POP SWAP2 SWAP1 POP JUMP JUMPDEST PUSH0 PUSH2 0x275E DUP3 PUSH2 0x2735 JUMP JUMPDEST SWAP1 POP SWAP2 SWAP1 POP JUMP JUMPDEST PUSH2 0x276E DUP2 PUSH2 0x2754 JUMP JUMPDEST DUP2 EQ PUSH2 0x2778 JUMPI PUSH0 DUP1 REVERT JUMPDEST POP JUMP JUMPDEST PUSH0 DUP2 CALLDATALOAD SWAP1 POP PUSH2 0x2789 DUP2 PUSH2 0x2765 JUMP JUMPDEST SWAP3 SWAP2 POP POP JUMP JUMPDEST PUSH0 PUSH8 0xFFFFFFFFFFFFFFFF DUP3 GT ISZERO PUSH2 0x27A9 JUMPI PUSH2 0x27A8 PUSH2 0x250D JUMP JUMPDEST JUMPDEST PUSH2 0x27B2 DUP3 PUSH2 0x23E4 JUMP JUMPDEST SWAP1 POP PUSH1 0x20 DUP2 ADD SWAP1 POP SWAP2 SWAP1 POP JUMP JUMPDEST PUSH0 PUSH2 0x27D1 PUSH2 0x27CC DUP5 PUSH2 0x278F JUMP JUMPDEST PUSH2 0x256B JUMP JUMPDEST SWAP1 POP DUP3 DUP2 MSTORE PUSH1 0x20 DUP2 ADD DUP5 DUP5 DUP5 ADD GT ISZERO PUSH2 0x27ED JUMPI PUSH2 0x27EC PUSH2 0x2509 JUMP JUMPDEST JUMPDEST PUSH2 0x27F8 DUP5 DUP3 DUP6 PUSH2 0x25B5 JUMP JUMPDEST POP SWAP4 SWAP3 POP POP POP JUMP JUMPDEST PUSH0 DUP3 PUSH1 0x1F DUP4 ADD SLT PUSH2 0x2814 JUMPI PUSH2 0x2813 PUSH2 0x2505 JUMP JUMPDEST JUMPDEST DUP2 CALLDATALOAD PUSH2 0x2824 DUP5 DUP3 PUSH1 0x20 DUP7 ADD PUSH2 0x27BF JUMP JUMPDEST SWAP2 POP POP SWAP3 SWAP2 POP POP JUMP JUMPDEST PUSH1 0x5 DUP2 LT PUSH2 0x2839 JUMPI PUSH0 DUP1 REVERT JUMPDEST POP JUMP JUMPDEST PUSH0 DUP2 CALLDATALOAD SWAP1 POP PUSH2 0x284A DUP2 PUSH2 0x282D JUMP JUMPDEST SWAP3 SWAP2 POP POP JUMP JUMPDEST PUSH0 PUSH1 0xE0 DUP3 DUP5 SUB SLT ISZERO PUSH2 0x2865 JUMPI PUSH2 0x2864 PUSH2 0x26FE JUMP JUMPDEST JUMPDEST PUSH2 0x286F PUSH1 0xE0 PUSH2 0x256B JUMP JUMPDEST SWAP1 POP PUSH0 DUP3 ADD CALLDATALOAD PUSH8 0xFFFFFFFFFFFFFFFF DUP2 GT ISZERO PUSH2 0x288E JUMPI PUSH2 0x288D PUSH2 0x2702 JUMP JUMPDEST JUMPDEST PUSH2 0x289A DUP5 DUP3 DUP6 ADD PUSH2 0x2604 JUMP JUMPDEST PUSH0 DUP4 ADD MSTORE POP PUSH1 0x20 PUSH2 0x28AD DUP5 DUP3 DUP6 ADD PUSH2 0x277B JUMP JUMPDEST PUSH1 0x20 DUP4 ADD MSTORE POP PUSH1 0x40 DUP3 ADD CALLDATALOAD PUSH8 0xFFFFFFFFFFFFFFFF DUP2 GT ISZERO PUSH2 0x28D1 JUMPI PUSH2 0x28D0 PUSH2 0x2702 JUMP JUMPDEST JUMPDEST PUSH2 0x28DD DUP5 DUP3 DUP6 ADD PUSH2 0x2800 JUMP JUMPDEST PUSH1 0x40 DUP4 ADD MSTORE POP PUSH1 0x60 PUSH2 0x28F1 DUP5 DUP3 DUP6 ADD PUSH2 0x283C JUMP JUMPDEST PUSH1 0x60 DUP4 ADD MSTORE POP PUSH1 0x80 DUP3 ADD CALLDATALOAD PUSH8 0xFFFFFFFFFFFFFFFF DUP2 GT ISZERO PUSH2 0x2915 JUMPI PUSH2 0x2914 PUSH2 0x2702 JUMP JUMPDEST JUMPDEST PUSH2 0x2921 DUP5 DUP3 DUP6 ADD PUSH2 0x2800 JUMP JUMPDEST PUSH1 0x80 DUP4 ADD MSTORE POP PUSH1 0xA0 DUP3 ADD CALLDATALOAD PUSH8 0xFFFFFFFFFFFFFFFF DUP2 GT ISZERO PUSH2 0x2945 JUMPI PUSH2 0x2944 PUSH2 0x2702 JUMP JUMPDEST JUMPDEST PUSH2 0x2951 DUP5 DUP3 DUP6 ADD PUSH2 0x2800 JUMP JUMPDEST PUSH1 0xA0 DUP4 ADD MSTORE POP PUSH1 0xC0 DUP3 ADD CALLDATALOAD PUSH8 0xFFFFFFFFFFFFFFFF DUP2 GT ISZERO PUSH2 0x2975 JUMPI PUSH2 0x2974 PUSH2 0x2702 JUMP JUMPDEST JUMPDEST PUSH2 0x2981 DUP5 DUP3 DUP6 ADD PUSH2 0x2800 JUMP JUMPDEST PUSH1 0xC0 DUP4 ADD MSTORE POP SWAP3 SWAP2 POP POP JUMP JUMPDEST PUSH0 PUSH2 0x299F PUSH2 0x299A DUP5 PUSH2 0x2706 JUMP JUMPDEST PUSH2 0x256B JUMP JUMPDEST SWAP1 POP DUP1 DUP4 DUP3 MSTORE PUSH1 0x20 DUP3 ADD SWAP1 POP PUSH1 0x20 DUP5 MUL DUP4 ADD DUP6 DUP2 GT ISZERO PUSH2 0x29C2 JUMPI PUSH2 0x29C1 PUSH2 0x2731 JUMP JUMPDEST JUMPDEST DUP4 JUMPDEST DUP2 DUP2 LT ISZERO PUSH2 0x2A09 JUMPI DUP1 CALLDATALOAD PUSH8 0xFFFFFFFFFFFFFFFF DUP2 GT ISZERO PUSH2 0x29E7 JUMPI PUSH2 0x29E6 PUSH2 0x2505 JUMP JUMPDEST JUMPDEST DUP1 DUP7 ADD PUSH2 0x29F4 DUP10 DUP3 PUSH2 0x2850 JUMP JUMPDEST DUP6 MSTORE PUSH1 0x20 DUP6 ADD SWAP5 POP POP POP PUSH1 0x20 DUP2 ADD SWAP1 POP PUSH2 0x29C4 JUMP JUMPDEST POP POP POP SWAP4 SWAP3 POP POP POP JUMP JUMPDEST PUSH0 DUP3 PUSH1 0x1F DUP4 ADD SLT PUSH2 0x2A27 JUMPI PUSH2 0x2A26 PUSH2 0x2505 JUMP JUMPDEST JUMPDEST DUP2 CALLDATALOAD PUSH2 0x2A37 DUP5 DUP3 PUSH1 0x20 DUP7 ADD PUSH2 0x298D JUMP JUMPDEST SWAP2 POP POP SWAP3 SWAP2 POP POP JUMP JUMPDEST PUSH0 PUSH1 0x40 DUP3 DUP5 SUB SLT ISZERO PUSH2 0x2A55 JUMPI PUSH2 0x2A54 PUSH2 0x26FE JUMP JUMPDEST JUMPDEST PUSH2 0x2A5F PUSH1 0x40 PUSH2 0x256B JUMP JUMPDEST SWAP1 POP PUSH0 DUP3 ADD CALLDATALOAD PUSH8 0xFFFFFFFFFFFFFFFF DUP2 GT ISZERO PUSH2 0x2A7E JUMPI PUSH2 0x2A7D PUSH2 0x2702 JUMP JUMPDEST JUMPDEST PUSH2 0x2A8A DUP5 DUP3 DUP6 ADD PUSH2 0x2A13 JUMP JUMPDEST PUSH0 DUP4 ADD MSTORE POP PUSH1 0x20 DUP3 ADD CALLDATALOAD PUSH8 0xFFFFFFFFFFFFFFFF DUP2 GT ISZERO PUSH2 0x2AAD JUMPI PUSH2 0x2AAC PUSH2 0x2702 JUMP JUMPDEST JUMPDEST PUSH2 0x2AB9 DUP5 DUP3 DUP6 ADD PUSH2 0x2A13 JUMP JUMPDEST PUSH1 0x20 DUP4 ADD MSTORE POP SWAP3 SWAP2 POP POP JUMP JUMPDEST PUSH0 PUSH1 0x20 DUP3 DUP5 SUB SLT ISZERO PUSH2 0x2ADA JUMPI PUSH2 0x2AD9 PUSH2 0x2455 JUMP JUMPDEST JUMPDEST PUSH0 DUP3 ADD CALLDATALOAD PUSH8 0xFFFFFFFFFFFFFFFF DUP2 GT ISZERO PUSH2 0x2AF7 JUMPI PUSH2 0x2AF6 PUSH2 0x2459 JUMP JUMPDEST JUMPDEST PUSH2 0x2B03 DUP5 DUP3 DUP6 ADD PUSH2 0x2A40 JUMP JUMPDEST SWAP2 POP POP SWAP3 SWAP2 POP POP JUMP JUMPDEST PUSH0 DUP2 MLOAD SWAP1 POP SWAP2 SWAP1 POP JUMP JUMPDEST PUSH0 DUP3 DUP3 MSTORE PUSH1 0x20 DUP3 ADD SWAP1 POP SWAP3 SWAP2 POP POP JUMP JUMPDEST PUSH0 DUP2 SWAP1 POP PUSH1 0x20 DUP3 ADD SWAP1 POP SWAP2 SWAP1 POP JUMP JUMPDEST PUSH0 DUP2 MLOAD SWAP1 POP SWAP2 SWAP1 POP JUMP JUMPDEST PUSH0 DUP3 DUP3 MSTORE PUSH1 0x20 DUP3 ADD SWAP1 POP SWAP3 SWAP2 POP POP JUMP JUMPDEST PUSH0 PUSH2 0x2B59 DUP3 PUSH2 0x2B35 JUMP JUMPDEST PUSH2 0x2B63 DUP2 DUP6 PUSH2 0x2B3F JUMP JUMPDEST SWAP4 POP PUSH2 0x2B73 DUP2 DUP6 PUSH1 0x20 DUP7 ADD PUSH2 0x23BC JUMP JUMPDEST PUSH2 0x2B7C DUP2 PUSH2 0x23E4 JUMP JUMPDEST DUP5 ADD SWAP2 POP POP SWAP3 SWAP2 POP POP JUMP JUMPDEST PUSH2 0x2B90 DUP2 PUSH2 0x2754 JUMP JUMPDEST DUP3 MSTORE POP POP JUMP JUMPDEST PUSH0 DUP3 DUP3 MSTORE PUSH1 0x20 DUP3 ADD SWAP1 POP SWAP3 SWAP2 POP POP JUMP JUMPDEST PUSH0 PUSH2 0x2BB0 DUP3 PUSH2 0x23A2 JUMP JUMPDEST PUSH2 0x2BBA DUP2 DUP6 PUSH2 0x2B96 JUMP JUMPDEST SWAP4 POP PUSH2 0x2BCA DUP2 DUP6 PUSH1 0x20 DUP7 ADD PUSH2 0x23BC JUMP JUMPDEST PUSH2 0x2BD3 DUP2 PUSH2 0x23E4 JUMP JUMPDEST DUP5 ADD SWAP2 POP POP SWAP3 SWAP2 POP POP JUMP JUMPDEST PUSH32 0x4E487B7100000000000000000000000000000000000000000000000000000000 PUSH0 MSTORE PUSH1 0x21 PUSH1 0x4 MSTORE PUSH1 0x24 PUSH0 REVERT JUMPDEST PUSH1 0x5 DUP2 LT PUSH2 0x2C1C JUMPI PUSH2 0x2C1B PUSH2 0x2BDE JUMP JUMPDEST JUMPDEST POP JUMP JUMPDEST PUSH0 DUP2 SWAP1 POP PUSH2 0x2C2C DUP3 PUSH2 0x2C0B JUMP JUMPDEST SWAP2 SWAP1 POP JUMP JUMPDEST PUSH0 PUSH2 0x2C3B DUP3 PUSH2 0x2C1F JUMP JUMPDEST SWAP1 POP SWAP2 SWAP1 POP JUMP JUMPDEST PUSH2 0x2C4B DUP2 PUSH2 0x2C31 JUMP JUMPDEST DUP3 MSTORE POP POP JUMP JUMPDEST PUSH0 PUSH1 0xE0 DUP4 ADD PUSH0 DUP4 ADD MLOAD DUP5 DUP3 SUB PUSH0 DUP7 ADD MSTORE PUSH2 0x2C6B DUP3 DUP3 PUSH2 0x2B4F JUMP JUMPDEST SWAP2 POP POP PUSH1 0x20 DUP4 ADD MLOAD PUSH2 0x2C80 PUSH1 0x20 DUP7 ADD DUP3 PUSH2 0x2B87 JUMP JUMPDEST POP PUSH1 0x40 DUP4 ADD MLOAD DUP5 DUP3 SUB PUSH1 0x40 DUP7 ADD MSTORE PUSH2 0x2C98 DUP3 DUP3 PUSH2 0x2BA6 JUMP JUMPDEST SWAP2 POP POP PUSH1 0x60 DUP4 ADD MLOAD PUSH2 0x2CAD PUSH1 0x60 DUP7 ADD DUP3 PUSH2 0x2C42 JUMP JUMPDEST POP PUSH1 0x80 DUP4 ADD MLOAD DUP5 DUP3 SUB PUSH1 0x80 DUP7 ADD MSTORE PUSH2 0x2CC5 DUP3 DUP3 PUSH2 0x2BA6 JUMP JUMPDEST SWAP2 POP POP PUSH1 0xA0 DUP4 ADD MLOAD DUP5 DUP3 SUB PUSH1 0xA0 DUP7 ADD MSTORE PUSH2 0x2CDF DUP3 DUP3 PUSH2 0x2BA6 JUMP JUMPDEST SWAP2 POP POP PUSH1 0xC0 DUP4 ADD MLOAD DUP5 DUP3 SUB PUSH1 0xC0 DUP7 ADD MSTORE PUSH2 0x2CF9 DUP3 DUP3 PUSH2 0x2BA6 JUMP JUMPDEST SWAP2 POP POP DUP1 SWAP2 POP POP SWAP3 SWAP2 POP POP JUMP JUMPDEST PUSH0 PUSH2 0x2D11 DUP4 DUP4 PUSH2 0x2C51 JUMP JUMPDEST SWAP1 POP SWAP3 SWAP2 POP POP JUMP JUMPDEST PUSH0 PUSH1 0x20 DUP3 ADD SWAP1 POP SWAP2 SWAP1 POP JUMP JUMPDEST PUSH0 PUSH2 0x2D2F DUP3 PUSH2 0x2B0C JUMP JUMPDEST PUSH2 0x2D39 DUP2 DUP6 PUSH2 0x2B16 JUMP JUMPDEST SWAP4 POP DUP4 PUSH1 0x20 DUP3 MUL DUP6 ADD PUSH2 0x2D4B DUP6 PUSH2 0x2B26 JUMP JUMPDEST DUP1 PUSH0 JUMPDEST DUP6 DUP2 LT ISZERO PUSH2 0x2D86 JUMPI DUP5 DUP5 SUB DUP10 MSTORE DUP2 MLOAD PUSH2 0x2D67 DUP6 DUP3 PUSH2 0x2D06 JUMP JUMPDEST SWAP5 POP PUSH2 0x2D72 DUP4 PUSH2 0x2D19 JUMP JUMPDEST SWAP3 POP PUSH1 0x20 DUP11 ADD SWAP10 POP POP PUSH1 0x1 DUP2 ADD SWAP1 POP PUSH2 0x2D4E JUMP JUMPDEST POP DUP3 SWAP8 POP DUP8 SWAP6 POP POP POP POP POP POP SWAP3 SWAP2 POP POP JUMP JUMPDEST PUSH0 PUSH1 0x40 DUP3 ADD SWAP1 POP DUP2 DUP2 SUB PUSH0 DUP4 ADD MSTORE PUSH2 0x2DB0 DUP2 DUP6 PUSH2 0x2D25 JUMP JUMPDEST SWAP1 POP DUP2 DUP2 SUB PUSH1 0x20 DUP4 ADD MSTORE PUSH2 0x2DC4 DUP2 DUP5 PUSH2 0x2D25 JUMP JUMPDEST SWAP1 POP SWAP4 SWAP3 POP POP POP JUMP JUMPDEST PUSH0 DUP2 SWAP1 POP SWAP2 SWAP1 POP JUMP JUMPDEST PUSH2 0x2DDF DUP2 PUSH2 0x2DCD JUMP JUMPDEST DUP3 MSTORE POP POP JUMP JUMPDEST PUSH0 PUSH1 0x20 DUP3 ADD SWAP1 POP PUSH2 0x2DF8 PUSH0 DUP4 ADD DUP5 PUSH2 0x2DD6 JUMP JUMPDEST SWAP3 SWAP2 POP POP JUMP JUMPDEST PUSH0 DUP3 DUP3 MSTORE PUSH1 0x20 DUP3 ADD SWAP1 POP SWAP3 SWAP2 POP POP JUMP JUMPDEST PUSH0 PUSH2 0x2E18 DUP3 PUSH2 0x2B35 JUMP JUMPDEST PUSH2 0x2E22 DUP2 DUP6 PUSH2 0x2DFE JUMP JUMPDEST SWAP4 POP PUSH2 0x2E32 DUP2 DUP6 PUSH1 0x20 DUP7 ADD PUSH2 0x23BC JUMP JUMPDEST PUSH2 0x2E3B DUP2 PUSH2 0x23E4 JUMP JUMPDEST DUP5 ADD SWAP2 POP POP SWAP3 SWAP2 POP POP JUMP JUMPDEST PUSH0 PUSH1 0x20 DUP3 ADD SWAP1 POP DUP2 DUP2 SUB PUSH0 DUP4 ADD MSTORE PUSH2 0x2E5E DUP2 DUP5 PUSH2 0x2E0E JUMP JUMPDEST SWAP1 POP SWAP3 SWAP2 POP POP JUMP JUMPDEST PUSH2 0x2E6F DUP2 PUSH2 0x2DCD JUMP JUMPDEST DUP2 EQ PUSH2 0x2E79 JUMPI PUSH0 DUP1 REVERT JUMPDEST POP JUMP JUMPDEST PUSH0 DUP2 CALLDATALOAD SWAP1 POP PUSH2 0x2E8A DUP2 PUSH2 0x2E66 JUMP JUMPDEST SWAP3 SWAP2 POP POP JUMP JUMPDEST PUSH0 PUSH1 0x20 DUP3 DUP5 SUB SLT ISZERO PUSH2 0x2EA5 JUMPI PUSH2 0x2EA4 PUSH2 0x2455 JUMP JUMPDEST JUMPDEST PUSH0 PUSH2 0x2EB2 DUP5 DUP3 DUP6 ADD PUSH2 0x2E7C JUMP JUMPDEST SWAP2 POP POP SWAP3 SWAP2 POP POP JUMP JUMPDEST PUSH0 PUSH1 0x20 DUP3 DUP5 SUB SLT ISZERO PUSH2 0x2ED0 JUMPI PUSH2 0x2ECF PUSH2 0x2455 JUMP JUMPDEST JUMPDEST PUSH0 DUP3 ADD CALLDATALOAD PUSH8 0xFFFFFFFFFFFFFFFF DUP2 GT ISZERO PUSH2 0x2EED JUMPI PUSH2 0x2EEC PUSH2 0x2459 JUMP JUMPDEST JUMPDEST PUSH2 0x2EF9 DUP5 DUP3 DUP6 ADD PUSH2 0x2850 JUMP JUMPDEST SWAP2 POP POP SWAP3 SWAP2 POP POP JUMP JUMPDEST PUSH0 PUSH1 0x40 DUP3 ADD SWAP1 POP DUP2 DUP2 SUB PUSH0 DUP4 ADD MSTORE PUSH2 0x2F1A DUP2 DUP6 PUSH2 0x23F4 JUMP JUMPDEST SWAP1 POP DUP2 DUP2 SUB PUSH1 0x20 DUP4 ADD MSTORE PUSH2 0x2F2E DUP2 DUP5 PUSH2 0x23F4 JUMP JUMPDEST SWAP1 POP SWAP4 SWAP3 POP POP POP JUMP JUMPDEST PUSH0 DUP1 PUSH0 DUP1 PUSH0 DUP1 PUSH0 DUP1 PUSH0 PUSH2 0x120 DUP11 DUP13 SUB SLT ISZERO PUSH2 0x2F55 JUMPI PUSH2 0x2F54 PUSH2 0x2455 JUMP JUMPDEST JUMPDEST PUSH0 PUSH2 0x2F62 DUP13 DUP3 DUP14 ADD PUSH2 0x2482 JUMP JUMPDEST SWAP10 POP POP PUSH1 0x20 PUSH2 0x2F73 DUP13 DUP3 DUP14 ADD PUSH2 0x2E7C JUMP JUMPDEST SWAP9 POP POP PUSH1 0x40 PUSH2 0x2F84 DUP13 DUP3 DUP14 ADD PUSH2 0x24B9 JUMP JUMPDEST SWAP8 POP POP PUSH1 0x60 PUSH2 0x2F95 DUP13 DUP3 DUP14 ADD PUSH2 0x24B9 JUMP JUMPDEST SWAP7 POP POP PUSH1 0x80 PUSH2 0x2FA6 DUP13 DUP3 DUP14 ADD PUSH2 0x24F1 JUMP JUMPDEST SWAP6 POP POP PUSH1 0xA0 PUSH2 0x2FB7 DUP13 DUP3 DUP14 ADD PUSH2 0x24F1 JUMP JUMPDEST SWAP5 POP POP PUSH1 0xC0 PUSH2 0x2FC8 DUP13 DUP3 DUP14 ADD PUSH2 0x24B9 JUMP JUMPDEST SWAP4 POP POP PUSH1 0xE0 PUSH2 0x2FD9 DUP13 DUP3 DUP14 ADD PUSH2 0x24F1 JUMP JUMPDEST SWAP3 POP POP PUSH2 0x100 DUP11 ADD CALLDATALOAD PUSH8 0xFFFFFFFFFFFFFFFF DUP2 GT ISZERO PUSH2 0x2FFB JUMPI PUSH2 0x2FFA PUSH2 0x2459 JUMP JUMPDEST JUMPDEST PUSH2 0x3007 DUP13 DUP3 DUP14 ADD PUSH2 0x2604 JUMP JUMPDEST SWAP2 POP POP SWAP3 SWAP6 SWAP9 POP SWAP3 SWAP6 SWAP9 POP SWAP3 SWAP6 SWAP9 JUMP JUMPDEST PUSH32 0x4E487B7100000000000000000000000000000000000000000000000000000000 PUSH0 MSTORE PUSH1 0x32 PUSH1 0x4 MSTORE PUSH1 0x24 PUSH0 REVERT JUMPDEST PUSH32 0x4E487B7100000000000000000000000000000000000000000000000000000000 PUSH0 MSTORE PUSH1 0x11 PUSH1 0x4 MSTORE PUSH1 0x24 PUSH0 REVERT JUMPDEST PUSH0 PUSH2 0x307B DUP3 PUSH2 0x2DCD JUMP JUMPDEST SWAP2 POP PUSH2 0x3086 DUP4 PUSH2 0x2DCD JUMP JUMPDEST SWAP3 POP DUP3 DUP3 ADD SWAP1 POP DUP1 DUP3 GT ISZERO PUSH2 0x309E JUMPI PUSH2 0x309D PUSH2 0x3044 JUMP JUMPDEST JUMPDEST SWAP3 SWAP2 POP POP JUMP JUMPDEST PUSH32 0x4E487B7100000000000000000000000000000000000000000000000000000000 PUSH0 MSTORE PUSH1 0x12 PUSH1 0x4 MSTORE PUSH1 0x24 PUSH0 REVERT JUMPDEST PUSH0 PUSH1 0x40 DUP3 ADD SWAP1 POP DUP2 DUP2 SUB PUSH0 DUP4 ADD MSTORE PUSH2 0x30E9 DUP2 DUP6 PUSH2 0x2E0E JUMP JUMPDEST SWAP1 POP DUP2 DUP2 SUB PUSH1 0x20 DUP4 ADD MSTORE PUSH2 0x30FD DUP2 DUP5 PUSH2 0x23F4 JUMP JUMPDEST SWAP1 POP SWAP4 SWAP3 POP POP POP JUMP JUMPDEST PUSH0 PUSH2 0x3118 PUSH2 0x3113 DUP5 PUSH2 0x278F JUMP JUMPDEST PUSH2 0x256B JUMP JUMPDEST SWAP1 POP DUP3 DUP2 MSTORE PUSH1 0x20 DUP2 ADD DUP5 DUP5 DUP5 ADD GT ISZERO PUSH2 0x3134 JUMPI PUSH2 0x3133 PUSH2 0x2509 JUMP JUMPDEST JUMPDEST PUSH2 0x313F DUP5 DUP3 DUP6 PUSH2 0x23BC JUMP JUMPDEST POP SWAP4 SWAP3 POP POP POP JUMP JUMPDEST PUSH0 DUP3 PUSH1 0x1F DUP4 ADD SLT PUSH2 0x315B JUMPI PUSH2 0x315A PUSH2 0x2505 JUMP JUMPDEST JUMPDEST DUP2 MLOAD PUSH2 0x316B DUP5 DUP3 PUSH1 0x20 DUP7 ADD PUSH2 0x3106 JUMP JUMPDEST SWAP2 POP POP SWAP3 SWAP2 POP POP JUMP JUMPDEST PUSH0 PUSH1 0x20 DUP3 DUP5 SUB SLT ISZERO PUSH2 0x3189 JUMPI PUSH2 0x3188 PUSH2 0x2455 JUMP JUMPDEST JUMPDEST PUSH0 DUP3 ADD MLOAD PUSH8 0xFFFFFFFFFFFFFFFF DUP2 GT ISZERO PUSH2 0x31A6 JUMPI PUSH2 0x31A5 PUSH2 0x2459 JUMP JUMPDEST JUMPDEST PUSH2 0x31B2 DUP5 DUP3 DUP6 ADD PUSH2 0x3147 JUMP JUMPDEST SWAP2 POP POP SWAP3 SWAP2 POP POP JUMP JUMPDEST PUSH0 DUP2 SWAP1 POP SWAP3 SWAP2 POP POP JUMP JUMPDEST PUSH32 0x7B22616E696D6174696F6E5F75726C223A220000000000000000000000000000 PUSH0 DUP3 ADD MSTORE POP JUMP JUMPDEST PUSH0 PUSH2 0x31F9 PUSH1 0x12 DUP4 PUSH2 0x31BB JUMP JUMPDEST SWAP2 POP PUSH2 0x3204 DUP3 PUSH2 0x31C5 JUMP JUMPDEST PUSH1 0x12 DUP3 ADD SWAP1 POP SWAP2 SWAP1 POP JUMP JUMPDEST PUSH0 DUP2 SWAP1 POP SWAP3 SWAP2 POP POP JUMP JUMPDEST PUSH0 PUSH2 0x3223 DUP3 PUSH2 0x23A2 JUMP JUMPDEST PUSH2 0x322D DUP2 DUP6 PUSH2 0x320F JUMP JUMPDEST SWAP4 POP PUSH2 0x323D DUP2 DUP6 PUSH1 0x20 DUP7 ADD PUSH2 0x23BC JUMP JUMPDEST DUP1 DUP5 ADD SWAP2 POP POP SWAP3 SWAP2 POP POP JUMP JUMPDEST PUSH32 0x222C2022696D616765223A220000000000000000000000000000000000000000 PUSH0 DUP3 ADD MSTORE POP JUMP JUMPDEST PUSH0 PUSH2 0x327D PUSH1 0xC DUP4 PUSH2 0x31BB JUMP JUMPDEST SWAP2 POP PUSH2 0x3288 DUP3 PUSH2 0x3249 JUMP JUMPDEST PUSH1 0xC DUP3 ADD SWAP1 POP SWAP2 SWAP1 POP JUMP JUMPDEST PUSH32 0x222C20226E616D65223A20224944202300000000000000000000000000000000 PUSH0 DUP3 ADD MSTORE POP JUMP JUMPDEST PUSH0 PUSH2 0x32C7 PUSH1 0x10 DUP4 PUSH2 0x31BB JUMP JUMPDEST SWAP2 POP PUSH2 0x32D2 DUP3 PUSH2 0x3293 JUMP JUMPDEST PUSH1 0x10 DUP3 ADD SWAP1 POP SWAP2 SWAP1 POP JUMP JUMPDEST PUSH0 PUSH2 0x32E7 DUP3 PUSH2 0x2B35 JUMP JUMPDEST PUSH2 0x32F1 DUP2 DUP6 PUSH2 0x31BB JUMP JUMPDEST SWAP4 POP PUSH2 0x3301 DUP2 DUP6 PUSH1 0x20 DUP7 ADD PUSH2 0x23BC JUMP JUMPDEST DUP1 DUP5 ADD SWAP2 POP POP SWAP3 SWAP2 POP POP JUMP JUMPDEST PUSH32 0x222C202261747472696275746573223A5B7B2274726169745F74797065223A20 PUSH0 DUP3 ADD MSTORE PUSH32 0x2250726F70732043726561746564222C202276616C7565223A00000000000000 PUSH1 0x20 DUP3 ADD MSTORE POP JUMP JUMPDEST PUSH0 PUSH2 0x3367 PUSH1 0x39 DUP4 PUSH2 0x31BB JUMP JUMPDEST SWAP2 POP PUSH2 0x3372 DUP3 PUSH2 0x330D JUMP JUMPDEST PUSH1 0x39 DUP3 ADD SWAP1 POP SWAP2 SWAP1 POP JUMP JUMPDEST PUSH32 0x7D2C7B2274726169745F74797065223A202250726F70732053706F6E736F7265 PUSH0 DUP3 ADD MSTORE PUSH32 0x64222C202276616C7565223A0000000000000000000000000000000000000000 PUSH1 0x20 DUP3 ADD MSTORE POP JUMP JUMPDEST PUSH0 PUSH2 0x33D7 PUSH1 0x2C DUP4 PUSH2 0x31BB JUMP JUMPDEST SWAP2 POP PUSH2 0x33E2 DUP3 PUSH2 0x337D JUMP JUMPDEST PUSH1 0x2C DUP3 ADD SWAP1 POP SWAP2 SWAP1 POP JUMP JUMPDEST PUSH32 0x7D2C7B2274726169745F74797065223A2022566F7465732043617374222C2276 PUSH0 DUP3 ADD MSTORE PUSH32 0x616C7565223A0000000000000000000000000000000000000000000000000000 PUSH1 0x20 DUP3 ADD MSTORE POP JUMP JUMPDEST PUSH0 PUSH2 0x3447 PUSH1 0x26 DUP4 PUSH2 0x31BB JUMP JUMPDEST SWAP2 POP PUSH2 0x3452 DUP3 PUSH2 0x33ED JUMP JUMPDEST PUSH1 0x26 DUP3 ADD SWAP1 POP SWAP2 SWAP1 POP JUMP JUMPDEST PUSH32 0x7D2C7B2274726169745F74797065223A202250726F70486F75736520566F7465 PUSH0 DUP3 ADD MSTORE PUSH32 0x73222C2276616C7565223A000000000000000000000000000000000000000000 PUSH1 0x20 DUP3 ADD MSTORE POP JUMP JUMPDEST PUSH0 PUSH2 0x34B7 PUSH1 0x2B DUP4 PUSH2 0x31BB JUMP JUMPDEST SWAP2 POP PUSH2 0x34C2 DUP3 PUSH2 0x345D JUMP JUMPDEST PUSH1 0x2B DUP3 ADD SWAP1 POP SWAP2 SWAP1 POP JUMP JUMPDEST PUSH32 0x7D2C7B2274726169745F74797065223A202243616E6469646174652050726F70 PUSH0 DUP3 ADD MSTORE PUSH32 0x73222C2276616C7565223A000000000000000000000000000000000000000000 PUSH1 0x20 DUP3 ADD MSTORE POP JUMP JUMPDEST PUSH0 PUSH2 0x3527 PUSH1 0x2B DUP4 PUSH2 0x31BB JUMP JUMPDEST SWAP2 POP PUSH2 0x3532 DUP3 PUSH2 0x34CD JUMP JUMPDEST PUSH1 0x2B DUP3 ADD SWAP1 POP SWAP2 SWAP1 POP JUMP JUMPDEST PUSH32 0x7D2C7B2274726169745F74797065223A2022466565646261636B732067697665 PUSH0 DUP3 ADD MSTORE PUSH32 0x6E222C2276616C7565223A000000000000000000000000000000000000000000 PUSH1 0x20 DUP3 ADD MSTORE POP JUMP JUMPDEST PUSH0 PUSH2 0x3597 PUSH1 0x2B DUP4 PUSH2 0x31BB JUMP JUMPDEST SWAP2 POP PUSH2 0x35A2 DUP3 PUSH2 0x353D JUMP JUMPDEST PUSH1 0x2B DUP3 ADD SWAP1 POP SWAP2 SWAP1 POP JUMP JUMPDEST PUSH32 0x7D2C7B2274726169745F74797065223A2022557365726E616D65222C2276616C PUSH0 DUP3 ADD MSTORE PUSH32 0x7565223A22000000000000000000000000000000000000000000000000000000 PUSH1 0x20 DUP3 ADD MSTORE POP JUMP JUMPDEST PUSH0 PUSH2 0x3607 PUSH1 0x25 DUP4 PUSH2 0x31BB JUMP JUMPDEST SWAP2 POP PUSH2 0x3612 DUP3 PUSH2 0x35AD JUMP JUMPDEST PUSH1 0x25 DUP3 ADD SWAP1 POP SWAP2 SWAP1 POP JUMP JUMPDEST PUSH32 0x227D5D7D00000000000000000000000000000000000000000000000000000000 PUSH0 DUP3 ADD MSTORE POP JUMP JUMPDEST PUSH0 PUSH2 0x3651 PUSH1 0x4 DUP4 PUSH2 0x31BB JUMP JUMPDEST SWAP2 POP PUSH2 0x365C DUP3 PUSH2 0x361D JUMP JUMPDEST PUSH1 0x4 DUP3 ADD SWAP1 POP SWAP2 SWAP1 POP JUMP JUMPDEST PUSH0 PUSH2 0x3671 DUP3 PUSH2 0x31ED JUMP JUMPDEST SWAP2 POP PUSH2 0x367D DUP3 DUP14 PUSH2 0x3219 JUMP JUMPDEST SWAP2 POP PUSH2 0x3688 DUP3 PUSH2 0x3271 JUMP JUMPDEST SWAP2 POP PUSH2 0x3694 DUP3 DUP13 PUSH2 0x3219 JUMP JUMPDEST SWAP2 POP PUSH2 0x369F DUP3 PUSH2 0x32BB JUMP JUMPDEST SWAP2 POP PUSH2 0x36AB DUP3 DUP12 PUSH2 0x32DD JUMP JUMPDEST SWAP2 POP PUSH2 0x36B6 DUP3 PUSH2 0x335B JUMP JUMPDEST SWAP2 POP PUSH2 0x36C2 DUP3 DUP11 PUSH2 0x32DD JUMP JUMPDEST SWAP2 POP PUSH2 0x36CD DUP3 PUSH2 0x33CB JUMP JUMPDEST SWAP2 POP PUSH2 0x36D9 DUP3 DUP10 PUSH2 0x32DD JUMP JUMPDEST SWAP2 POP PUSH2 0x36E4 DUP3 PUSH2 0x343B JUMP JUMPDEST SWAP2 POP PUSH2 0x36F0 DUP3 DUP9 PUSH2 0x32DD JUMP JUMPDEST SWAP2 POP PUSH2 0x36FB DUP3 PUSH2 0x34AB JUMP JUMPDEST SWAP2 POP PUSH2 0x3707 DUP3 DUP8 PUSH2 0x32DD JUMP JUMPDEST SWAP2 POP PUSH2 0x3712 DUP3 PUSH2 0x351B JUMP JUMPDEST SWAP2 POP PUSH2 0x371E DUP3 DUP7 PUSH2 0x32DD JUMP JUMPDEST SWAP2 POP PUSH2 0x3729 DUP3 PUSH2 0x358B JUMP JUMPDEST SWAP2 POP PUSH2 0x3735 DUP3 DUP6 PUSH2 0x32DD JUMP JUMPDEST SWAP2 POP PUSH2 0x3740 DUP3 PUSH2 0x35FB JUMP JUMPDEST SWAP2 POP PUSH2 0x374C DUP3 DUP5 PUSH2 0x32DD JUMP JUMPDEST SWAP2 POP PUSH2 0x3757 DUP3 PUSH2 0x3645 JUMP JUMPDEST SWAP2 POP DUP2 SWAP1 POP SWAP12 SWAP11 POP POP POP POP POP POP POP POP POP POP POP JUMP JUMPDEST PUSH0 PUSH2 0x3775 DUP3 PUSH2 0x245D JUMP JUMPDEST SWAP2 POP PUSH2 0x3780 DUP4 PUSH2 0x245D JUMP JUMPDEST SWAP3 POP DUP3 PUSH2 0x3790 JUMPI PUSH2 0x378F PUSH2 0x30A4 JUMP JUMPDEST JUMPDEST DUP3 DUP3 MOD SWAP1 POP SWAP3 SWAP2 POP POP JUMP JUMPDEST PUSH32 0x44796E616D69634275666665723A20417070656E64696E67206F7574206F6620 PUSH0 DUP3 ADD MSTORE PUSH32 0x626F756E64732E00000000000000000000000000000000000000000000000000 PUSH1 0x20 DUP3 ADD MSTORE POP JUMP JUMPDEST PUSH0 PUSH2 0x37F5 PUSH1 0x27 DUP4 PUSH2 0x2DFE JUMP JUMPDEST SWAP2 POP PUSH2 0x3800 DUP3 PUSH2 0x379B JUMP JUMPDEST PUSH1 0x40 DUP3 ADD SWAP1 POP SWAP2 SWAP1 POP JUMP JUMPDEST PUSH0 PUSH1 0x20 DUP3 ADD SWAP1 POP DUP2 DUP2 SUB PUSH0 DUP4 ADD MSTORE PUSH2 0x3822 DUP2 PUSH2 0x37E9 JUMP JUMPDEST SWAP1 POP SWAP2 SWAP1 POP JUMP INVALID EXTCODECOPY PUSH20 0x6372697074207372633D22646174613A74657874 0x2F PUSH11 0x6176617363726970743B62 PUSH2 0x7365 CALLDATASIZE CALLVALUE 0x2C EXTCODECOPY 0x2F PUSH5 0x69763E3C2F PUSH5 0x69763E3C64 PUSH10 0x7620636C6173733D2267 0x22 RETURNDATACOPY EXTCODECOPY 0x2F PUSH5 0x69763E3C64 PUSH10 0x762069643D227A223E3C PUSH5 0x697620636C PUSH2 0x7373 RETURNDATASIZE 0x22 PUSH13 0x223E566F74657320436173743C 0x2F PUSH5 0x69763E3C64 PUSH10 0x7620636C6173733D2273 0x22 KECCAK256 PUSH10 0x643D226D223E25323533 NUMBER PUSH20 0x6372697074253235323073726325323533442532 CALLDATALOAD ORIGIN ORIGIN PUSH5 0x6174612532 CALLDATALOAD CALLER COINBASE PUSH21 0x65787425323532466A617661736372697074253235 CALLER TIMESTAMP PUSH3 0x617365 CALLDATASIZE CALLVALUE 0x25 ORIGIN CALLDATALOAD ORIGIN NUMBER EXTCODECOPY PUSH20 0x637269707420747970653D22746578742F6A6176 PUSH2 0x7363 PUSH19 0x6970742B677A697022207372633D2264617461 GASPRICE PUSH21 0x6578742F6A6176617363726970743B626173653634 0x2C KECCAK256 PUSH23 0x6F7465733C2F6469763E3C64697620636C6173733D226C 0x22 RETURNDATACOPY CHAINID PUSH6 0x65646261636B PUSH20 0x20676976656E3C2F6469763E3C64697620636C61 PUSH20 0x733D2273223E2070726F70733C2F6469763E3C64 PUSH10 0x7620636C6173733D226C 0x22 RETURNDATACOPY POP PUSH19 0x6F70486F75736520566F7465733C2F6469763E EXTCODECOPY PUSH5 0x697620636C PUSH2 0x7373 RETURNDATASIZE 0x22 PUSH20 0x223E3C6D61696E2069643D22632220636C617373 RETURNDATASIZE 0x22 PUSH17 0x2220646174612D636F6C6F723D223C7376 PUSH8 0x20786D6C6E733D22 PUSH9 0x7474703A2F2F777777 0x2E PUSH24 0x332E6F72672F323030302F737667222076696577426F783D 0x22 ADDRESS KECCAK256 ADDRESS KECCAK256 CALLDATACOPY ADDRESS ADDRESS KECCAK256 CALLDATACOPY ADDRESS ADDRESS 0x22 RETURNDATACOPY EXTCODECOPY PUSH7 0x6F726569676E4F PUSH3 0x6A6563 PUSH21 0x2077696474683D223130302522206865696768743D 0x22 BALANCE ADDRESS ADDRESS 0x25 0x22 RETURNDATACOPY EXTCODECOPY PUSH3 0x6F6479 KECCAK256 PUSH25 0x6D6C6E733D22687474703A2F2F7777772E77332E6F72672F31 CODECOPY CODECOPY CODECOPY 0x2F PUSH25 0x68746D6C223E25323533437363726970742532353230747970 PUSH6 0x253235334425 ORIGIN CALLDATALOAD ORIGIN ORIGIN PUSH21 0x65787425323532466A617661736372697074253235 ORIGIN TIMESTAMP PUSH8 0x7A69702532353232 0x25 ORIGIN CALLDATALOAD ORIGIN ADDRESS PUSH20 0x7263253235334425323532326461746125323533 COINBASE PUSH21 0x65787425323532466A617661736372697074253235 CALLER TIMESTAMP PUSH3 0x617365 CALLDATASIZE CALLVALUE 0x25 ORIGIN CALLDATALOAD ORIGIN NUMBER 0x25 ORIGIN CALLDATALOAD CALLER NUMBER PUSH20 0x6372697074253235323074797065253235334425 ORIGIN CALLDATALOAD ORIGIN ORIGIN PUSH21 0x65787425323532466A617661736372697074253235 ORIGIN TIMESTAMP PUSH17 0x6E67253235323225323532307372632532 CALLDATALOAD CALLER PREVRANDAO 0x25 ORIGIN CALLDATALOAD ORIGIN ORIGIN PUSH5 0x6174612532 CALLDATALOAD CALLER COINBASE PUSH21 0x65787425323532466A617661736372697074253235 CALLER TIMESTAMP PUSH3 0x617365 CALLDATASIZE CALLVALUE 0x25 ORIGIN CALLDATALOAD ORIGIN NUMBER PUSH28 0x226E616D65223A224E6F756E7320577261707065642032303233222C 0x22 PUSH10 0x6D616765223A22697066 PUSH20 0x3A2F2F6261667962656966643374796E62337565 CALLVALUE PUSH24 0x746677697137367675787433753578326D7A72797473636F CALLDATALOAD PUSH10 0x797A637666783534636C CALLVALUE PUSH12 0x7761222C2264657363726970 PUSH21 0x696F6E223A224120636F6D6D656D6F726174697665 KECCAK256 0x4E CHAINID SLOAD KECCAK256 PUSH7 0x6F7220616C6C20 PUSH21 0x68652070656F706C6520696E766F6C76656420696E KECCAK256 PUSH17 0x726F6C696665726174696E672074686520 0x4E PUSH16 0x756E732044414F20696E203230323322 PUSH30 0x3C2F6469763E3C64697620636C6173733D226C223E44414F2070726F7073 EXTCODECOPY 0x2F PUSH5 0x69763E3C64 PUSH10 0x7620636C6173733D2273 0x22 RETURNDATACOPY EXTCODECOPY PUSH20 0x74796C653E626F64797B666F6E742D66616D696C PUSH26 0x3A506F7070696E732C73616E732D73657269663B6D617267696E GASPRICE ADDRESS EXTCODESIZE PUSH17 0x616464696E673A303B646973706C61793A PUSH7 0x6C65783B6A7573 PUSH21 0x6966792D636F6E74656E743A63656E7465723B616C PUSH10 0x676E2D6974656D733A63 PUSH6 0x6E7465727D23 PUSH4 0x7B706F73 PUSH10 0x74696F6E3A72656C6174 PUSH10 0x76657D23777B706F7369 PUSH21 0x696F6E3A6162736F6C7574653B646973706C61793A PUSH7 0x6C65783B666C65 PUSH25 0x2D646972656374696F6E3A636F6C756D6E3B6865696768743A BALANCE ADDRESS ADDRESS 0x25 EXTCODESIZE PUSH4 0x6F6C6F72 GASPRICE 0x23 PUSH7 0x66663B666F6E74 0x2D PUSH24 0x65696768743A3430307D2E747B666F6E742D73697A653A6D PUSH10 0x6E283476772C34766829 PUSH30 0x2E6C7B666F6E742D73697A653A6D696E283376772C337668297D2E732C2E PUSH22 0x7B666F6E742D73697A653A6D696E283876772C387668 0x29 EXTCODESIZE PUSH7 0x6F6E742D776569 PUSH8 0x68743A3830303B66 PUSH16 0x6E742D66616D696C793A4D6F6E747365 PUSH19 0x7261742C73616E732D73657269667D2E757B66 PUSH16 0x6E742D73697A653A6D696E283876772C CODESIZE PUSH23 0x68293B6F766572666C6F773A68696464656E3B666F6E74 0x2D PUSH7 0x616D696C793A4D PUSH16 0x6E747365727261742C73616E732D7365 PUSH19 0x69667D2E677B666C65782D67726F773A317D23 PUSH2 0x7B6D PUSH2 0x7267 PUSH10 0x6E2D746F703A312E3572 PUSH6 0x6D3B6D617267 PUSH10 0x6E2D6C6566743A312E35 PUSH19 0x656D7D237A7B6D617267696E2D626F74746F6D GASPRICE BALANCE 0x2E CALLDATALOAD PUSH19 0x656D3B6D617267696E2D6C6566743A312E3572 PUSH6 0x6D7D236D7B6D PUSH2 0x7267 PUSH10 0x6E2D626F74746F6D3A63 PUSH2 0x6C63 0x28 BALANCE PUSH19 0x656D202D20387078297D2E707B77696474683A BALANCE ADDRESS ADDRESS PUSH23 0x773B6865696768743A31303076683B6261636B67726F75 PUSH15 0x642D636F6C6F723A3C6C696E6B2068 PUSH19 0x65663D2268747470733A2F2F666F6E74732E67 PUSH16 0x6F676C65617069732E636F6D22207265 PUSH13 0x3D22707265636F6E6E65637422 0x2F RETURNDATACOPY EXTCODECOPY PUSH13 0x696E6B20687265663D22687474 PUSH17 0x733A2F2F666F6E74732E67737461746963 0x2E PUSH4 0x6F6D2220 PUSH19 0x656C3D22707265636F6E6E656374222063726F PUSH20 0x736F726967696E3D2274727565222F3E3C6C696E PUSH12 0x20687265663D226874747073 GASPRICE 0x2F 0x2F PUSH7 0x6F6E74732E676F PUSH16 0x676C65617069732E636F6D2F63737332 EXTCODEHASH PUSH7 0x616D696C793D50 PUSH16 0x7070696E733A77676874403230303B33 ADDRESS ADDRESS EXTCODESIZE CALLVALUE ADDRESS ADDRESS EXTCODESIZE CALLDATALOAD ADDRESS ADDRESS EXTCODESIZE CALLDATASIZE ADDRESS ADDRESS EXTCODESIZE CALLDATACOPY ADDRESS ADDRESS EXTCODESIZE CODESIZE ADDRESS ADDRESS EXTCODESIZE CODECOPY ADDRESS ADDRESS 0x22 KECCAK256 PUSH19 0x656C3D227374796C657368656574222F3E3C6C PUSH10 0x6E6B20687265663D2268 PUSH21 0x7470733A2F2F666F6E74732E676F6F676C65617069 PUSH20 0x2E636F6D2F6373733F66616D696C793D4D6F6E74 PUSH20 0x65727261743A3430302C383030222072656C3D22 PUSH20 0x74796C657368656574222F3E3C7374796C652073 PUSH4 0x6F706564 RETURNDATASIZE 0x22 PUSH21 0x727565223E406D656469612073637265656E20616E PUSH5 0x20286D696E 0x2D PUSH9 0x65696768743A373230 PUSH17 0x78297B23617B6D617267696E2D746F703A ORIGIN 0x2E CALLDATALOAD PUSH19 0x656D3B6D617267696E2D6C6566743A322E3572 PUSH6 0x6D7D237A7B6D PUSH2 0x7267 PUSH10 0x6E2D626F74746F6D3A32 0x2E CALLDATALOAD PUSH19 0x656D3B6D617267696E2D6C6566743A322E3572 PUSH6 0x6D7D7D406D65 PUSH5 0x6961207363 PUSH19 0x65656E20616E6420286D61782D686569676874 GASPRICE CALLVALUE CALLDATALOAD ADDRESS PUSH17 0x78297B23617B6D617267696E2D746F703A BALANCE PUSH19 0x656D3B6D617267696E2D6C6566743A3172656D PUSH30 0x237A7B6D617267696E2D626F74746F6D3A3172656D3B6D617267696E2D6C PUSH6 0x66743A317265 PUSH14 0x7D7D406D65646961207363726565 PUSH15 0x20616E6420286D61782D6865696768 PUSH21 0x3A3330307078297B23617B6D617267696E2D746F70 GASPRICE 0x2E CALLDATALOAD PUSH19 0x656D3B6D617267696E2D6C6566743A2E357265 PUSH14 0x7D237A7B6D617267696E2D626F74 PUSH21 0x6F6D3A2E3572656D3B6D617267696E2D6C6566743A 0x2E CALLDATALOAD PUSH19 0x656D7D236D7B6D617267696E2D626F74746F6D GASPRICE ADDRESS PUSH30 0x7D3C2F7374796C653E3C7374796C653E626F64797B666F6E742D66616D69 PUSH13 0x793A506F7070696E732C73616E PUSH20 0x2D73657269663B6D617267696E3A303B70616464 PUSH10 0x6E673A303B646973706C PUSH2 0x793A PUSH7 0x6C65783B6A7573 PUSH21 0x6966792D636F6E74656E743A63656E7465723B616C PUSH10 0x676E2D6974656D733A63 PUSH6 0x6E7465727D23 PUSH4 0x7B706F73 PUSH10 0x74696F6E3A72656C6174 PUSH10 0x76657D23777B706F7369 PUSH21 0x696F6E3A6162736F6C7574653B646973706C61793A PUSH7 0x6C65783B666C65 PUSH25 0x2D646972656374696F6E3A636F6C756D6E3B6865696768743A BALANCE ADDRESS ADDRESS 0x25 EXTCODESIZE PUSH4 0x6F6C6F72 GASPRICE 0x23 PUSH7 0x66663B666F6E74 0x2D PUSH24 0x65696768743A3430307D2E747B666F6E742D73697A653A32 CODESIZE PUSH17 0x787D2E6C7B666F6E742D73697A653A3230 PUSH17 0x783B6D617267696E2D746F703A3870787D 0x2E PUSH20 0x2C2E757B666F6E742D73697A653A363070783B66 PUSH16 0x6E742D7765696768743A3830303B666F PUSH15 0x742D66616D696C793A4D6F6E747365 PUSH19 0x7261742C73616E732D73657269667D2E757B66 PUSH16 0x6E742D73697A653A353670783B6F7665 PUSH19 0x666C6F773A68696464656E3B666F6E742D6661 PUSH14 0x696C793A4D6F6E74736572726174 0x2C PUSH20 0x616E732D73657269667D2E677B666C65782D6772 PUSH16 0x773A317D23617B6D617267696E2D746F PUSH17 0x3A312E3572656D3B6D617267696E2D6C65 PUSH7 0x743A312E357265 PUSH14 0x7D237A7B6D617267696E2D626F74 PUSH21 0x6F6D3A312E3572656D3B6D617267696E2D6C656674 GASPRICE BALANCE 0x2E CALLDATALOAD PUSH19 0x656D7D236D7B6D617267696E2D626F74746F6D GASPRICE PUSH4 0x616C6328 BALANCE PUSH19 0x656D202D20387078297D2E707B77696474683A KECCAK256 CALLDATACOPY ADDRESS ADDRESS PUSH17 0x783B206865696768743A2037303070783B KECCAK256 PUSH3 0x61636B PUSH8 0x726F756E642D636F PUSH13 0x6F723A3C7363726970743E646F PUSH4 0x756D656E PUSH21 0x2E6164644576656E744C697374656E65722822444F 0x4D NUMBER PUSH16 0x6E74656E744C6F61646564222C286675 PUSH15 0x6374696F6E28297B66756E6374696F PUSH15 0x206528297B72657475726E2077696E PUSH5 0x6F772E696E PUSH15 0x65724865696768743E3D77696E646F PUSH24 0x2E696E6E657257696474683F77696E646F772E696E6E6572 JUMPI PUSH10 0x6474683A77696E646F77 0x2E PUSH10 0x6E6E6572486569676874 PUSH30 0x636F6E737420743D646F63756D656E742E717565727953656C6563746F72 0x28 0x22 PUSH14 0x61696E22292C6E3D66756E637469 PUSH16 0x6E2865297B636F6E737420743D323134 CALLDATACOPY CALLVALUE CODESIZE CALLER CALLDATASIZE CALLVALUE CALLDATACOPY EXTCODESIZE PUSH13 0x6574206E3D6525743B72657475 PUSH19 0x6E28293D3E286E3D31363830372A6E25742C6E 0x2F PUSH21 0x297D287061727365496E7428742E64617461736574 0x2E PUSH20 0x6565642C313029293B6C6574206F3D66756E6374 PUSH10 0x6F6E28652C74297B7265 PUSH21 0x75726E204D6174682E666C6F6F72287428292A6529 PUSH30 0x28342C6E292C793D6528292C6C3D6528292C783D6C2F3732302C723D343D RETURNDATASIZE PUSH16 0x3F32303A333D3D6F3F34303A323D3D6F EXTCODEHASH CALLDATASIZE ADDRESS GASPRICE BALANCE RETURNDATASIZE RETURNDATASIZE PUSH16 0x3F38303A3132302C693D5B5D2C613D32 ADDRESS ADDRESS 0x2C PUSH20 0x3D3130303B76617220633D742E64617461736574 0x2E PUSH4 0x6F6C6F72 EXTCODESIZE PUSH4 0x6F6E7374 KECCAK256 PUSH22 0x3D646F63756D656E742E637265617465456C656D656E PUSH21 0x282263616E76617322292C683D646F63756D656E74 0x2E PUSH8 0x6574456C656D656E PUSH21 0x4279496428226322293B682E636C6173734C697374 0x2E PUSH19 0x656D6F766528227022292C682E617070656E64 NUMBER PUSH9 0x696C642875293B636F PUSH15 0x737420663D752E676574436F6E7465 PUSH25 0x742822326422293B66756E6374696F6E206428652C742C6E29 PUSH28 0x72657475726E28312D6E292A652B6E2A747D66756E6374696F6E2077 0x28 PUSH6 0x2C742C6E2C6F 0x2C PUSH26 0x2C6C2C78297B72657475726E7B783A64286428652C742C78292C PUSH5 0x28742C6E2C PUSH25 0x292C78292C793A642864286F2C792C78292C6428792C6C2C78 0x29 0x2C PUSH25 0x297D7D66756E6374696F6E207028652C742C6E2C6F2C79297B PUSH13 0x6574206C3D332A28742D65292C PUSH25 0x3D332A286E2D74292D6C2C723D332A28742D65292C693D332A 0x28 PUSH15 0x2D74292D722C613D6F2D652D722D69 EXTCODESIZE PUSH19 0x657475726E7B783A286F2D652D6C2D78292A4D PUSH2 0x7468 0x2E PUSH17 0x6F7728792C33292B782A4D6174682E706F PUSH24 0x28792C32292B6C2A792B652C793A612A4D6174682E706F77 0x28 PUSH26 0x2C33292B692A4D6174682E706F7728792C32292B722A792B657D PUSH30 0x636F6C733D792F28722A78292C726F77733D6C2F28722A78293B76617220 PUSH14 0x3D6E28292C763D6E28292C4D3D6E 0x28 0x29 0x2C PUSH8 0x3D6E28292C453D6E 0x28 0x29 0x2C 0x4C RETURNDATASIZE PUSH15 0x28292C433D6E28292C533D6E28292C PUSH18 0x3D6E28292C483D6E28292C493D6E28292C52 RETURNDATASIZE PUSH15 0x28293B6C657420573D7B783A333630 0x2A PUSH14 0x2A782C793A3336302A762A787D2C PUSH27 0x3D7B783A3165332A4D2A782C793A3165332A672A787D2C413D7B78 GASPRICE CALLDATALOAD ADDRESS ADDRESS 0x2A GASLIMIT 0x2A PUSH25 0x2C793A3165332A4C2A782B3530302A787D2C423D7B783A3131 CALLDATALOAD ADDRESS 0x2A NUMBER 0x2A PUSH25 0x2D3135302A782C793A3165332A532A787D2C443D7B783A3165 CALLER 0x2A PUSH18 0x2A782C793A3165332A482A787D2C463D7B78 GASPRICE BALANCE BALANCE CALLDATALOAD ADDRESS 0x2A 0x49 0x2A PUSH25 0x2D3135302A782C793A3165332A522A782B3530302A787D3B66 PUSH16 0x72286C657420653D303B653C3D732F33 EXTCODESIZE PUSH6 0x2B2B297B6C65 PUSH21 0x20743D7728572E782C7A2E782C412E782C572E792C PUSH27 0x2E792C412E792C652F28732F3329293B692E707573682874297D66 PUSH16 0x72286C657420653D303B653C3D732F33 EXTCODESIZE PUSH6 0x2B2B297B6C65 PUSH21 0x20743D652F28732F33292C6E3D7028412E782C422E PUSH25 0x2C442E782C462E782C74292C6F3D7028412E792C422E792C44 0x2E PUSH26 0x2C462E792C74293B692E70757368287B783A6E2C793A6F7D297D PUSH7 0x6F72286C657420 PUSH6 0x3D303B653C3D PUSH20 0x2F333B652B2B297B6C657420743D652F28732F33 0x29 0x2C PUSH15 0x3D6428462E782C572E782C74292C6F RETURNDATASIZE PUSH5 0x28462E792C JUMPI 0x2E PUSH26 0x2C74293B692E70757368287B783A6E2C793A6F7D297D666F7228 PUSH13 0x657420653D303B653C3D732F32 EXTCODESIZE PUSH6 0x2B2B297B6C65 PUSH21 0x20743D652F28732F32292C6E3D7028412E782C422E PUSH25 0x2C442E782C462E782C74292C6F3D7028412E792C422E792C44 0x2E PUSH26 0x2C462E792C74293B692E70757368287B783A6E2C793A6F7D297D PUSH13 0x6574204F3D303B77696E646F77 0x2E PUSH2 0x6464 GASLIMIT PUSH23 0x656E744C697374656E65722822726573697A65222C2866 PUSH22 0x6E6374696F6E28297B793D6528292C6C3D6528292C78 RETURNDATASIZE PUSH13 0x2F3732302C723D6F3D3D342A78 EXTCODEHASH ORIGIN ADDRESS 0x2A PUSH25 0x3A333D3D6F3F34302A783A323D3D6F3F36302A783A313D3D6F EXTCODEHASH CODESIZE ADDRESS 0x2A PUSH25 0x3A3132302A782C662E63616E7661732E77696474683D792C66 0x2E PUSH4 0x616E7661 PUSH20 0x2E6865696768743D6C3B6C657420743D7B783A33 CALLDATASIZE ADDRESS 0x2A PUSH14 0x2A782C793A3336302A762A787D2C PUSH15 0x3D7B783A3165332A4D2A782C793A31 PUSH6 0x332A672A787D 0x2C PUSH2 0x3D7B PUSH25 0x3A3530302A452A782C793A3165332A4C2A782B3530302A787D 0x2C PUSH4 0x3D7B783A BALANCE BALANCE CALLDATALOAD ADDRESS 0x2A NUMBER 0x2A PUSH25 0x2D3135302A782C793A3165332A532A787D2C753D7B783A3165 CALLER 0x2A PUSH18 0x2A782C793A3165332A482A787D2C683D7B78 GASPRICE BALANCE BALANCE CALLDATALOAD ADDRESS 0x2A 0x49 0x2A PUSH25 0x2D3135302A782C793A3165332A522A782B3530302A787D3B69 RETURNDATASIZE JUMPDEST 0x5D EXTCODESIZE PUSH7 0x6F72286C657420 PUSH6 0x3D303B653C3D PUSH20 0x2F333B652B2B297B6C6574206F3D7728742E782C PUSH15 0x2E782C612E782C742E792C6E2E792C PUSH2 0x2E79 0x2C PUSH6 0x2F28732F3329 0x29 EXTCODESIZE PUSH10 0x2E70757368286F297D66 PUSH16 0x72286C657420653D303B653C3D732F33 EXTCODESIZE PUSH6 0x2B2B297B6C65 PUSH21 0x20743D652F28732F33292C6E3D7028612E782C632E PUSH25 0x2C752E782C682E782C74292C6F3D7028612E792C632E792C75 0x2E PUSH26 0x2C682E792C74293B692E70757368287B783A6E2C793A6F7D297D PUSH7 0x6F72286C657420 PUSH6 0x3D303B653C3D PUSH20 0x2F333B652B2B297B6C6574206E3D652F28732F33 0x29 0x2C PUSH16 0x3D6428682E782C742E782C6E292C793D PUSH5 0x28682E792C PUSH21 0x2E792C6E293B692E70757368287B783A6F2C793A79 PUSH30 0x297D666F72286C657420653D303B653C3D732F323B652B2B297B6C657420 PUSH21 0x3D652F28732F32292C6E3D7028612E782C632E782C PUSH22 0x2E782C682E782C74292C6F3D7028612E792C632E792C PUSH22 0x2E792C682E792C74293B692E70757368287B783A6E2C PUSH26 0x3A6F7D297D7D29292C66756E6374696F6E207428297B4F2B2B2C PUSH7 0x756E6374696F6E 0x28 0x29 PUSH28 0x662E63616E7661732E77696474683D6528292C662E63616E7661732E PUSH9 0x65696768743D652829 0x2C PUSH7 0x2E66696C6C5374 PUSH26 0x6C653D632C662E66696C6C5265637428302C302C792C6C293B66 PUSH16 0x72286C657420653D303B653C613B652B 0x2B 0x29 PUSH28 0x6C657420743D284F2D312B652A732F612B692E6C656E677468292569 0x2E PUSH13 0x656E6774682C6E3D695B4D6174 PUSH9 0x2E666C6F6F72287429 0x5D 0x2C PUSH16 0x3D4D6174682E666C6F6F72286E2E782F PUSH19 0x292A722C793D4D6174682E666C6F6F72286E2E PUSH26 0x2F72292A722C6C3D322A65253336303B662E66696C6C5374796C PUSH6 0x3D6068736C28 0x24 PUSH28 0x6C7D2C20313030252C2035302529602C662E66696C6C52656374286F 0x2C PUSH26 0x2D31302C722C72297D7D28292C73657454696D656F7574282828 0x29 RETURNDATASIZE RETURNDATACOPY PUSH19 0x657175657374416E696D6174696F6E4672616D PUSH6 0x287429292C32 CALLDATALOAD 0x29 PUSH30 0x28297D29293B3C2F7363726970743E3C73637269707420747970653D2274 PUSH6 0x78742F6A6176 PUSH2 0x7363 PUSH19 0x6970742B706E6722207372633D22646174613A PUSH21 0x6578742F6A6176617363726970743B626173653634 0x2C 0x22 RETURNDATACOPY EXTCODECOPY PUSH5 0x6976206964 RETURNDATASIZE 0x22 PUSH24 0x223E3C6469762069643D2261223E3C64697620636C617373 RETURNDATASIZE 0x22 PUSH21 0x223E4E6F756E73205772617070656420323032333C 0x2F PUSH5 0x69763E3C64 PUSH10 0x7620636C6173733D2275 0x22 RETURNDATACOPY EXTCODECOPY 0x2F PUSH5 0x69763E3C64 PUSH10 0x7620636C6173733D226C 0x22 RETURNDATACOPY NUMBER PUSH2 0x6E64 PUSH10 0x646174652050726F7073 EXTCODECOPY 0x2F PUSH5 0x69763E3C64 PUSH10 0x7620636C6173733D2273 0x22 RETURNDATACOPY KECCAK256 PUSH7 0x6565646261636B PUSH20 0x3C2F6469763E3C64697620636C6173733D226C22 RETURNDATACOPY MSTORE8 PUSH17 0x6F6E736F7265643C2F6469763E3C646976 KECCAK256 PUSH4 0x6C617373 RETURNDATASIZE 0x22 PUSH20 0x223EA26469706673582212207C5CDB62E3F8E6A8 DUP13 POP 0xE8 GAS SWAP8 SUB 0xAF SUB 0xD2 0xA9 0xB8 0x5C PUSH10 0xEF12AF07669FDA31F9ED LOG2 PUSH5 0x736F6C6343 STOP ADDMOD ISZERO STOP CALLER "
		},
		"gasEstimates": {
			"creation": {
				"codeDepositCost": "4068600",
				"executionCost": "4655",
				"totalCost": "4073255"
			},
			"external": {
				"BODY_OPEN_RAW()": "infinite",
				"BODY_OPEN_URL_SAFE()": "infinite",
				"BODY_RAW_BYTES()": "371",
				"BODY_SAFE_BYTES()": "437",
				"DATA_HTML_BASE64_URI_RAW()": "infinite",
				"DATA_HTML_URL_SAFE()": "infinite",
				"HEAD_CLOSE_RAW()": "infinite",
				"HEAD_CLOSE_URL_SAFE()": "infinite",
				"HEAD_OPEN_RAW()": "infinite",
				"HEAD_OPEN_URL_SAFE()": "infinite",
				"HEAD_RAW_BYTES()": "392",
				"HEAD_URL_SAFE_BYTES()": "392",
				"HTML_BASE64_DATA_URI_BYTES()": "415",
				"HTML_BODY_CLOSED_RAW()": "infinite",
				"HTML_BODY_CLOSED_URL_SAFE()": "infinite",
				"HTML_OPEN_RAW()": "infinite",
				"HTML_OPEN_URL_SAFE()": "infinite",
				"HTML_RAW_BYTES()": "393",
				"HTML_URL_SAFE_BYTES()": "435",
				"RAW_BYTES()": "371",
				"URLS_RAW_BYTES()": "392",
				"URLS_SAFE_BYTES()": "370",
				"URL_SAFE_BYTES()": "393",
				"contractJSON()": "infinite",
				"fetchTagContent((string,address,bytes,uint8,bytes,bytes,bytes))": "infinite",
				"getEncodedHTML(((string,address,bytes,uint8,bytes,bytes,bytes)[],(string,address,bytes,uint8,bytes,bytes,bytes)[]))": "infinite",
				"getEncodedHTMLString(((string,address,bytes,uint8,bytes,bytes,bytes)[],(string,address,bytes,uint8,bytes,bytes,bytes)[]))": "infinite",
				"getHTML(((string,address,bytes,uint8,bytes,bytes,bytes)[],(string,address,bytes,uint8,bytes,bytes,bytes)[]))": "infinite",
				"getHTMLString(((string,address,bytes,uint8,bytes,bytes,bytes)[],(string,address,bytes,uint8,bytes,bytes,bytes)[]))": "infinite",
				"htmlRequest(uint32,uint16,uint16,uint24,uint24,uint16,uint24,string)": "infinite",
				"htmlURI(uint32,uint16,uint16,uint24,uint24,uint16,uint24,string)": "infinite",
				"sizeForBase64Encoding(uint256)": "infinite",
				"svgURI(uint32,uint16,uint16,uint24,uint24,uint16,uint24,string)": "infinite",
				"tagOpenCloseForHTMLTag((string,address,bytes,uint8,bytes,bytes,bytes))": "infinite",
				"tagOpenCloseForHTMLTagURLSafe((string,address,bytes,uint8,bytes,bytes,bytes))": "infinite",
				"tokenJSON(uint32,uint256,uint16,uint16,uint24,uint24,uint16,uint24,string)": "infinite"
			},
			"internal": {
				"_color(uint32)": "infinite"
			}
		},
		"methodIdentifiers": {
			"BODY_OPEN_RAW()": "ce5ad179",
			"BODY_OPEN_URL_SAFE()": "7f369319",
			"BODY_RAW_BYTES()": "33174f98",
			"BODY_SAFE_BYTES()": "be58b0a9",
			"DATA_HTML_BASE64_URI_RAW()": "f6130adc",
			"DATA_HTML_URL_SAFE()": "d61974f1",
			"HEAD_CLOSE_RAW()": "3d5be2c2",
			"HEAD_CLOSE_URL_SAFE()": "d9237f14",
			"HEAD_OPEN_RAW()": "c46b294d",
			"HEAD_OPEN_URL_SAFE()": "43f2614f",
			"HEAD_RAW_BYTES()": "d0c3efa8",
			"HEAD_URL_SAFE_BYTES()": "bf35dd0b",
			"HTML_BASE64_DATA_URI_BYTES()": "7510ac24",
			"HTML_BODY_CLOSED_RAW()": "f051dcf8",
			"HTML_BODY_CLOSED_URL_SAFE()": "053f1eb0",
			"HTML_OPEN_RAW()": "bc689620",
			"HTML_OPEN_URL_SAFE()": "640bab41",
			"HTML_RAW_BYTES()": "b55ccc62",
			"HTML_URL_SAFE_BYTES()": "f49717ee",
			"RAW_BYTES()": "afae76fa",
			"URLS_RAW_BYTES()": "87598e52",
			"URLS_SAFE_BYTES()": "bee84ae3",
			"URL_SAFE_BYTES()": "3708be65",
			"contractJSON()": "5f17cac3",
			"fetchTagContent((string,address,bytes,uint8,bytes,bytes,bytes))": "cdea0cef",
			"getEncodedHTML(((string,address,bytes,uint8,bytes,bytes,bytes)[],(string,address,bytes,uint8,bytes,bytes,bytes)[]))": "2bee6807",
			"getEncodedHTMLString(((string,address,bytes,uint8,bytes,bytes,bytes)[],(string,address,bytes,uint8,bytes,bytes,bytes)[]))": "a891b35e",
			"getHTML(((string,address,bytes,uint8,bytes,bytes,bytes)[],(string,address,bytes,uint8,bytes,bytes,bytes)[]))": "7dbb90a2",
			"getHTMLString(((string,address,bytes,uint8,bytes,bytes,bytes)[],(string,address,bytes,uint8,bytes,bytes,bytes)[]))": "d5ed88ce",
			"htmlRequest(uint32,uint16,uint16,uint24,uint24,uint16,uint24,string)": "32ab619c",
			"htmlURI(uint32,uint16,uint16,uint24,uint24,uint16,uint24,string)": "aabc9896",
			"sizeForBase64Encoding(uint256)": "72617f8a",
			"svgURI(uint32,uint16,uint16,uint24,uint24,uint16,uint24,string)": "06f58206",
			"tagOpenCloseForHTMLTag((string,address,bytes,uint8,bytes,bytes,bytes))": "8c8c3796",
			"tagOpenCloseForHTMLTagURLSafe((string,address,bytes,uint8,bytes,bytes,bytes))": "cd475f26",
			"tokenJSON(uint32,uint256,uint16,uint16,uint24,uint24,uint16,uint24,string)": "f283b512"
		}
	},
	"abi": [
		{
			"inputs": [],
			"name": "BODY_OPEN_RAW",
			"outputs": [
				{
					"internalType": "bytes",
					"name": "",
					"type": "bytes"
				}
			],
			"stateMutability": "view",
			"type": "function"
		},
		{
			"inputs": [],
			"name": "BODY_OPEN_URL_SAFE",
			"outputs": [
				{
					"internalType": "bytes",
					"name": "",
					"type": "bytes"
				}
			],
			"stateMutability": "view",
			"type": "function"
		},
		{
			"inputs": [],
			"name": "BODY_RAW_BYTES",
			"outputs": [
				{
					"internalType": "uint256",
					"name": "",
					"type": "uint256"
				}
			],
			"stateMutability": "view",
			"type": "function"
		},
		{
			"inputs": [],
			"name": "BODY_SAFE_BYTES",
			"outputs": [
				{
					"internalType": "uint256",
					"name": "",
					"type": "uint256"
				}
			],
			"stateMutability": "view",
			"type": "function"
		},
		{
			"inputs": [],
			"name": "DATA_HTML_BASE64_URI_RAW",
			"outputs": [
				{
					"internalType": "bytes",
					"name": "",
					"type": "bytes"
				}
			],
			"stateMutability": "view",
			"type": "function"
		},
		{
			"inputs": [],
			"name": "DATA_HTML_URL_SAFE",
			"outputs": [
				{
					"internalType": "bytes",
					"name": "",
					"type": "bytes"
				}
			],
			"stateMutability": "view",
			"type": "function"
		},
		{
			"inputs": [],
			"name": "HEAD_CLOSE_RAW",
			"outputs": [
				{
					"internalType": "bytes",
					"name": "",
					"type": "bytes"
				}
			],
			"stateMutability": "view",
			"type": "function"
		},
		{
			"inputs": [],
			"name": "HEAD_CLOSE_URL_SAFE",
			"outputs": [
				{
					"internalType": "bytes",
					"name": "",
					"type": "bytes"
				}
			],
			"stateMutability": "view",
			"type": "function"
		},
		{
			"inputs": [],
			"name": "HEAD_OPEN_RAW",
			"outputs": [
				{
					"internalType": "bytes",
					"name": "",
					"type": "bytes"
				}
			],
			"stateMutability": "view",
			"type": "function"
		},
		{
			"inputs": [],
			"name": "HEAD_OPEN_URL_SAFE",
			"outputs": [
				{
					"internalType": "bytes",
					"name": "",
					"type": "bytes"
				}
			],
			"stateMutability": "view",
			"type": "function"
		},
		{
			"inputs": [],
			"name": "HEAD_RAW_BYTES",
			"outputs": [
				{
					"internalType": "uint256",
					"name": "",
					"type": "uint256"
				}
			],
			"stateMutability": "view",
			"type": "function"
		},
		{
			"inputs": [],
			"name": "HEAD_URL_SAFE_BYTES",
			"outputs": [
				{
					"internalType": "uint256",
					"name": "",
					"type": "uint256"
				}
			],
			"stateMutability": "view",
			"type": "function"
		},
		{
			"inputs": [],
			"name": "HTML_BASE64_DATA_URI_BYTES",
			"outputs": [
				{
					"internalType": "uint256",
					"name": "",
					"type": "uint256"
				}
			],
			"stateMutability": "view",
			"type": "function"
		},
		{
			"inputs": [],
			"name": "HTML_BODY_CLOSED_RAW",
			"outputs": [
				{
					"internalType": "bytes",
					"name": "",
					"type": "bytes"
				}
			],
			"stateMutability": "view",
			"type": "function"
		},
		{
			"inputs": [],
			"name": "HTML_BODY_CLOSED_URL_SAFE",
			"outputs": [
				{
					"internalType": "bytes",
					"name": "",
					"type": "bytes"
				}
			],
			"stateMutability": "view",
			"type": "function"
		},
		{
			"inputs": [],
			"name": "HTML_OPEN_RAW",
			"outputs": [
				{
					"internalType": "bytes",
					"name": "",
					"type": "bytes"
				}
			],
			"stateMutability": "view",
			"type": "function"
		},
		{
			"inputs": [],
			"name": "HTML_OPEN_URL_SAFE",
			"outputs": [
				{
					"internalType": "bytes",
					"name": "",
					"type": "bytes"
				}
			],
			"stateMutability": "view",
			"type": "function"
		},
		{
			"inputs": [],
			"name": "HTML_RAW_BYTES",
			"outputs": [
				{
					"internalType": "uint256",
					"name": "",
					"type": "uint256"
				}
			],
			"stateMutability": "view",
			"type": "function"
		},
		{
			"inputs": [],
			"name": "HTML_URL_SAFE_BYTES",
			"outputs": [
				{
					"internalType": "uint256",
					"name": "",
					"type": "uint256"
				}
			],
			"stateMutability": "view",
			"type": "function"
		},
		{
			"inputs": [],
			"name": "RAW_BYTES",
			"outputs": [
				{
					"internalType": "uint256",
					"name": "",
					"type": "uint256"
				}
			],
			"stateMutability": "view",
			"type": "function"
		},
		{
			"inputs": [],
			"name": "URLS_RAW_BYTES",
			"outputs": [
				{
					"internalType": "uint256",
					"name": "",
					"type": "uint256"
				}
			],
			"stateMutability": "view",
			"type": "function"
		},
		{
			"inputs": [],
			"name": "URLS_SAFE_BYTES",
			"outputs": [
				{
					"internalType": "uint256",
					"name": "",
					"type": "uint256"
				}
			],
			"stateMutability": "view",
			"type": "function"
		},
		{
			"inputs": [],
			"name": "URL_SAFE_BYTES",
			"outputs": [
				{
					"internalType": "uint256",
					"name": "",
					"type": "uint256"
				}
			],
			"stateMutability": "view",
			"type": "function"
		},
		{
			"inputs": [],
			"name": "contractJSON",
			"outputs": [
				{
					"internalType": "string",
					"name": "",
					"type": "string"
				}
			],
			"stateMutability": "pure",
			"type": "function"
		},
		{
			"inputs": [
				{
					"components": [
						{
							"internalType": "string",
							"name": "name",
							"type": "string"
						},
						{
							"internalType": "address",
							"name": "contractAddress",
							"type": "address"
						},
						{
							"internalType": "bytes",
							"name": "contractData",
							"type": "bytes"
						},
						{
							"internalType": "enum HTMLTagType",
							"name": "tagType",
							"type": "uint8"
						},
						{
							"internalType": "bytes",
							"name": "tagOpen",
							"type": "bytes"
						},
						{
							"internalType": "bytes",
							"name": "tagClose",
							"type": "bytes"
						},
						{
							"internalType": "bytes",
							"name": "tagContent",
							"type": "bytes"
						}
					],
					"internalType": "struct HTMLTag",
					"name": "htmlTag",
					"type": "tuple"
				}
			],
			"name": "fetchTagContent",
			"outputs": [
				{
					"internalType": "bytes",
					"name": "",
					"type": "bytes"
				}
			],
			"stateMutability": "view",
			"type": "function"
		},
		{
			"inputs": [
				{
					"components": [
						{
							"components": [
								{
									"internalType": "string",
									"name": "name",
									"type": "string"
								},
								{
									"internalType": "address",
									"name": "contractAddress",
									"type": "address"
								},
								{
									"internalType": "bytes",
									"name": "contractData",
									"type": "bytes"
								},
								{
									"internalType": "enum HTMLTagType",
									"name": "tagType",
									"type": "uint8"
								},
								{
									"internalType": "bytes",
									"name": "tagOpen",
									"type": "bytes"
								},
								{
									"internalType": "bytes",
									"name": "tagClose",
									"type": "bytes"
								},
								{
									"internalType": "bytes",
									"name": "tagContent",
									"type": "bytes"
								}
							],
							"internalType": "struct HTMLTag[]",
							"name": "headTags",
							"type": "tuple[]"
						},
						{
							"components": [
								{
									"internalType": "string",
									"name": "name",
									"type": "string"
								},
								{
									"internalType": "address",
									"name": "contractAddress",
									"type": "address"
								},
								{
									"internalType": "bytes",
									"name": "contractData",
									"type": "bytes"
								},
								{
									"internalType": "enum HTMLTagType",
									"name": "tagType",
									"type": "uint8"
								},
								{
									"internalType": "bytes",
									"name": "tagOpen",
									"type": "bytes"
								},
								{
									"internalType": "bytes",
									"name": "tagClose",
									"type": "bytes"
								},
								{
									"internalType": "bytes",
									"name": "tagContent",
									"type": "bytes"
								}
							],
							"internalType": "struct HTMLTag[]",
							"name": "bodyTags",
							"type": "tuple[]"
						}
					],
					"internalType": "struct HTMLRequest",
					"name": "htmlRequest",
					"type": "tuple"
				}
			],
			"name": "getEncodedHTML",
			"outputs": [
				{
					"internalType": "bytes",
					"name": "",
					"type": "bytes"
				}
			],
			"stateMutability": "view",
			"type": "function"
		},
		{
			"inputs": [
				{
					"components": [
						{
							"components": [
								{
									"internalType": "string",
									"name": "name",
									"type": "string"
								},
								{
									"internalType": "address",
									"name": "contractAddress",
									"type": "address"
								},
								{
									"internalType": "bytes",
									"name": "contractData",
									"type": "bytes"
								},
								{
									"internalType": "enum HTMLTagType",
									"name": "tagType",
									"type": "uint8"
								},
								{
									"internalType": "bytes",
									"name": "tagOpen",
									"type": "bytes"
								},
								{
									"internalType": "bytes",
									"name": "tagClose",
									"type": "bytes"
								},
								{
									"internalType": "bytes",
									"name": "tagContent",
									"type": "bytes"
								}
							],
							"internalType": "struct HTMLTag[]",
							"name": "headTags",
							"type": "tuple[]"
						},
						{
							"components": [
								{
									"internalType": "string",
									"name": "name",
									"type": "string"
								},
								{
									"internalType": "address",
									"name": "contractAddress",
									"type": "address"
								},
								{
									"internalType": "bytes",
									"name": "contractData",
									"type": "bytes"
								},
								{
									"internalType": "enum HTMLTagType",
									"name": "tagType",
									"type": "uint8"
								},
								{
									"internalType": "bytes",
									"name": "tagOpen",
									"type": "bytes"
								},
								{
									"internalType": "bytes",
									"name": "tagClose",
									"type": "bytes"
								},
								{
									"internalType": "bytes",
									"name": "tagContent",
									"type": "bytes"
								}
							],
							"internalType": "struct HTMLTag[]",
							"name": "bodyTags",
							"type": "tuple[]"
						}
					],
					"internalType": "struct HTMLRequest",
					"name": "htmlRequest",
					"type": "tuple"
				}
			],
			"name": "getEncodedHTMLString",
			"outputs": [
				{
					"internalType": "string",
					"name": "",
					"type": "string"
				}
			],
			"stateMutability": "view",
			"type": "function"
		},
		{
			"inputs": [
				{
					"components": [
						{
							"components": [
								{
									"internalType": "string",
									"name": "name",
									"type": "string"
								},
								{
									"internalType": "address",
									"name": "contractAddress",
									"type": "address"
								},
								{
									"internalType": "bytes",
									"name": "contractData",
									"type": "bytes"
								},
								{
									"internalType": "enum HTMLTagType",
									"name": "tagType",
									"type": "uint8"
								},
								{
									"internalType": "bytes",
									"name": "tagOpen",
									"type": "bytes"
								},
								{
									"internalType": "bytes",
									"name": "tagClose",
									"type": "bytes"
								},
								{
									"internalType": "bytes",
									"name": "tagContent",
									"type": "bytes"
								}
							],
							"internalType": "struct HTMLTag[]",
							"name": "headTags",
							"type": "tuple[]"
						},
						{
							"components": [
								{
									"internalType": "string",
									"name": "name",
									"type": "string"
								},
								{
									"internalType": "address",
									"name": "contractAddress",
									"type": "address"
								},
								{
									"internalType": "bytes",
									"name": "contractData",
									"type": "bytes"
								},
								{
									"internalType": "enum HTMLTagType",
									"name": "tagType",
									"type": "uint8"
								},
								{
									"internalType": "bytes",
									"name": "tagOpen",
									"type": "bytes"
								},
								{
									"internalType": "bytes",
									"name": "tagClose",
									"type": "bytes"
								},
								{
									"internalType": "bytes",
									"name": "tagContent",
									"type": "bytes"
								}
							],
							"internalType": "struct HTMLTag[]",
							"name": "bodyTags",
							"type": "tuple[]"
						}
					],
					"internalType": "struct HTMLRequest",
					"name": "htmlRequest",
					"type": "tuple"
				}
			],
			"name": "getHTML",
			"outputs": [
				{
					"internalType": "bytes",
					"name": "",
					"type": "bytes"
				}
			],
			"stateMutability": "view",
			"type": "function"
		},
		{
			"inputs": [
				{
					"components": [
						{
							"components": [
								{
									"internalType": "string",
									"name": "name",
									"type": "string"
								},
								{
									"internalType": "address",
									"name": "contractAddress",
									"type": "address"
								},
								{
									"internalType": "bytes",
									"name": "contractData",
									"type": "bytes"
								},
								{
									"internalType": "enum HTMLTagType",
									"name": "tagType",
									"type": "uint8"
								},
								{
									"internalType": "bytes",
									"name": "tagOpen",
									"type": "bytes"
								},
								{
									"internalType": "bytes",
									"name": "tagClose",
									"type": "bytes"
								},
								{
									"internalType": "bytes",
									"name": "tagContent",
									"type": "bytes"
								}
							],
							"internalType": "struct HTMLTag[]",
							"name": "headTags",
							"type": "tuple[]"
						},
						{
							"components": [
								{
									"internalType": "string",
									"name": "name",
									"type": "string"
								},
								{
									"internalType": "address",
									"name": "contractAddress",
									"type": "address"
								},
								{
									"internalType": "bytes",
									"name": "contractData",
									"type": "bytes"
								},
								{
									"internalType": "enum HTMLTagType",
									"name": "tagType",
									"type": "uint8"
								},
								{
									"internalType": "bytes",
									"name": "tagOpen",
									"type": "bytes"
								},
								{
									"internalType": "bytes",
									"name": "tagClose",
									"type": "bytes"
								},
								{
									"internalType": "bytes",
									"name": "tagContent",
									"type": "bytes"
								}
							],
							"internalType": "struct HTMLTag[]",
							"name": "bodyTags",
							"type": "tuple[]"
						}
					],
					"internalType": "struct HTMLRequest",
					"name": "htmlRequest",
					"type": "tuple"
				}
			],
			"name": "getHTMLString",
			"outputs": [
				{
					"internalType": "string",
					"name": "",
					"type": "string"
				}
			],
			"stateMutability": "view",
			"type": "function"
		},
		{
			"inputs": [
				{
					"internalType": "uint32",
					"name": "seed",
					"type": "uint32"
				},
				{
					"internalType": "uint16",
					"name": "props",
					"type": "uint16"
				},
				{
					"internalType": "uint16",
					"name": "sponsoredProps",
					"type": "uint16"
				},
				{
					"internalType": "uint24",
					"name": "votes",
					"type": "uint24"
				},
				{
					"internalType": "uint24",
					"name": "propHouseVotes",
					"type": "uint24"
				},
				{
					"internalType": "uint16",
					"name": "candProps",
					"type": "uint16"
				},
				{
					"internalType": "uint24",
					"name": "propsFeedback",
					"type": "uint24"
				},
				{
					"internalType": "string",
					"name": "username",
					"type": "string"
				}
			],
			"name": "htmlRequest",
			"outputs": [
				{
					"components": [
						{
							"internalType": "string",
							"name": "name",
							"type": "string"
						},
						{
							"internalType": "address",
							"name": "contractAddress",
							"type": "address"
						},
						{
							"internalType": "bytes",
							"name": "contractData",
							"type": "bytes"
						},
						{
							"internalType": "enum HTMLTagType",
							"name": "tagType",
							"type": "uint8"
						},
						{
							"internalType": "bytes",
							"name": "tagOpen",
							"type": "bytes"
						},
						{
							"internalType": "bytes",
							"name": "tagClose",
							"type": "bytes"
						},
						{
							"internalType": "bytes",
							"name": "tagContent",
							"type": "bytes"
						}
					],
					"internalType": "struct HTMLTag[]",
					"name": "",
					"type": "tuple[]"
				},
				{
					"components": [
						{
							"internalType": "string",
							"name": "name",
							"type": "string"
						},
						{
							"internalType": "address",
							"name": "contractAddress",
							"type": "address"
						},
						{
							"internalType": "bytes",
							"name": "contractData",
							"type": "bytes"
						},
						{
							"internalType": "enum HTMLTagType",
							"name": "tagType",
							"type": "uint8"
						},
						{
							"internalType": "bytes",
							"name": "tagOpen",
							"type": "bytes"
						},
						{
							"internalType": "bytes",
							"name": "tagClose",
							"type": "bytes"
						},
						{
							"internalType": "bytes",
							"name": "tagContent",
							"type": "bytes"
						}
					],
					"internalType": "struct HTMLTag[]",
					"name": "",
					"type": "tuple[]"
				}
			],
			"stateMutability": "pure",
			"type": "function"
		},
		{
			"inputs": [
				{
					"internalType": "uint32",
					"name": "seed",
					"type": "uint32"
				},
				{
					"internalType": "uint16",
					"name": "props",
					"type": "uint16"
				},
				{
					"internalType": "uint16",
					"name": "sponsoredProps",
					"type": "uint16"
				},
				{
					"internalType": "uint24",
					"name": "votes",
					"type": "uint24"
				},
				{
					"internalType": "uint24",
					"name": "propHouseVotes",
					"type": "uint24"
				},
				{
					"internalType": "uint16",
					"name": "candProps",
					"type": "uint16"
				},
				{
					"internalType": "uint24",
					"name": "propsFeedback",
					"type": "uint24"
				},
				{
					"internalType": "string",
					"name": "username",
					"type": "string"
				}
			],
			"name": "htmlURI",
			"outputs": [
				{
					"internalType": "bytes",
					"name": "",
					"type": "bytes"
				}
			],
			"stateMutability": "view",
			"type": "function"
		},
		{
			"inputs": [
				{
					"internalType": "uint256",
					"name": "value",
					"type": "uint256"
				}
			],
			"name": "sizeForBase64Encoding",
			"outputs": [
				{
					"internalType": "uint256",
					"name": "",
					"type": "uint256"
				}
			],
			"stateMutability": "pure",
			"type": "function"
		},
		{
			"inputs": [
				{
					"internalType": "uint32",
					"name": "seed",
					"type": "uint32"
				},
				{
					"internalType": "uint16",
					"name": "props",
					"type": "uint16"
				},
				{
					"internalType": "uint16",
					"name": "sponsoredProps",
					"type": "uint16"
				},
				{
					"internalType": "uint24",
					"name": "votes",
					"type": "uint24"
				},
				{
					"internalType": "uint24",
					"name": "propHouseVotes",
					"type": "uint24"
				},
				{
					"internalType": "uint16",
					"name": "candProps",
					"type": "uint16"
				},
				{
					"internalType": "uint24",
					"name": "propsFeedback",
					"type": "uint24"
				},
				{
					"internalType": "string",
					"name": "username",
					"type": "string"
				}
			],
			"name": "svgURI",
			"outputs": [
				{
					"internalType": "bytes",
					"name": "",
					"type": "bytes"
				}
			],
			"stateMutability": "view",
			"type": "function"
		},
		{
			"inputs": [
				{
					"components": [
						{
							"internalType": "string",
							"name": "name",
							"type": "string"
						},
						{
							"internalType": "address",
							"name": "contractAddress",
							"type": "address"
						},
						{
							"internalType": "bytes",
							"name": "contractData",
							"type": "bytes"
						},
						{
							"internalType": "enum HTMLTagType",
							"name": "tagType",
							"type": "uint8"
						},
						{
							"internalType": "bytes",
							"name": "tagOpen",
							"type": "bytes"
						},
						{
							"internalType": "bytes",
							"name": "tagClose",
							"type": "bytes"
						},
						{
							"internalType": "bytes",
							"name": "tagContent",
							"type": "bytes"
						}
					],
					"internalType": "struct HTMLTag",
					"name": "htmlTag",
					"type": "tuple"
				}
			],
			"name": "tagOpenCloseForHTMLTag",
			"outputs": [
				{
					"internalType": "bytes",
					"name": "",
					"type": "bytes"
				},
				{
					"internalType": "bytes",
					"name": "",
					"type": "bytes"
				}
			],
			"stateMutability": "pure",
			"type": "function"
		},
		{
			"inputs": [
				{
					"components": [
						{
							"internalType": "string",
							"name": "name",
							"type": "string"
						},
						{
							"internalType": "address",
							"name": "contractAddress",
							"type": "address"
						},
						{
							"internalType": "bytes",
							"name": "contractData",
							"type": "bytes"
						},
						{
							"internalType": "enum HTMLTagType",
							"name": "tagType",
							"type": "uint8"
						},
						{
							"internalType": "bytes",
							"name": "tagOpen",
							"type": "bytes"
						},
						{
							"internalType": "bytes",
							"name": "tagClose",
							"type": "bytes"
						},
						{
							"internalType": "bytes",
							"name": "tagContent",
							"type": "bytes"
						}
					],
					"internalType": "struct HTMLTag",
					"name": "htmlTag",
					"type": "tuple"
				}
			],
			"name": "tagOpenCloseForHTMLTagURLSafe",
			"outputs": [
				{
					"internalType": "bytes",
					"name": "",
					"type": "bytes"
				},
				{
					"internalType": "bytes",
					"name": "",
					"type": "bytes"
				}
			],
			"stateMutability": "pure",
			"type": "function"
		},
		{
			"inputs": [
				{
					"internalType": "uint32",
					"name": "seed",
					"type": "uint32"
				},
				{
					"internalType": "uint256",
					"name": "tokenId",
					"type": "uint256"
				},
				{
					"internalType": "uint16",
					"name": "props",
					"type": "uint16"
				},
				{
					"internalType": "uint16",
					"name": "sponsoredProps",
					"type": "uint16"
				},
				{
					"internalType": "uint24",
					"name": "votes",
					"type": "uint24"
				},
				{
					"internalType": "uint24",
					"name": "propHouseVotes",
					"type": "uint24"
				},
				{
					"internalType": "uint16",
					"name": "candProps",
					"type": "uint16"
				},
				{
					"internalType": "uint24",
					"name": "propsFeedback",
					"type": "uint24"
				},
				{
					"internalType": "string",
					"name": "username",
					"type": "string"
				}
			],
			"name": "tokenJSON",
			"outputs": [
				{
					"internalType": "string",
					"name": "",
					"type": "string"
				}
			],
			"stateMutability": "view",
			"type": "function"
		}
	]
}