{
	"data": {
		"bytecode": {
			"linkReferences": {},
			"object": "608060405234801561000f575f80fd5b50614b268061001d5f395ff3fe608060405234801561000f575f80fd5b506004361061021a575f3560e01c8063b55ccc6211610123578063d0c3efa8116100ab578063d9237f141161007a578063d9237f1414610689578063e522a915146106a7578063f051dcf8146106d7578063f49717ee146106f5578063f6130adc146107135761021a565b8063d0c3efa8146105ed578063d2ae5ffd1461060b578063d5ed88ce1461063b578063d61974f11461066b5761021a565b8063bf35dd0b116100f2578063bf35dd0b14610532578063c46b294d14610550578063cd475f261461056e578063cdea0cef1461059f578063ce5ad179146105cf5761021a565b8063b55ccc62146104ba578063bc689620146104d8578063be58b0a9146104f6578063bee84ae3146105145761021a565b8063640bab41116101a65780637f369319116101755780637f369319146103ff57806387598e521461041d5780638c8c37961461043b578063a891b35e1461046c578063afae76fa1461049c5761021a565b8063640bab411461036357806372617f8a146103815780637510ac24146103b15780637dbb90a2146103cf5761021a565b80633708be65116101ed5780633708be65146102bb5780633d5be2c2146102d957806341ff467b146102f757806343f2614f146103275780635f17cac3146103455761021a565b8063053f1eb01461021e5780630c4ae1c91461023c5780632bee68071461026d57806333174f981461029d575b5f80fd5b610226610731565b60405161023391906122a2565b60405180910390f35b610256600480360381019061025191906124a7565b61076a565b6040516102649291906127f6565b60405180910390f35b61028760048036038101906102829190612bc2565b610c9f565b60405161029491906122a2565b60405180910390f35b6102a5610d36565b6040516102b29190612c21565b60405180910390f35b6102c3610d3b565b6040516102d09190612c21565b60405180910390f35b6102e1610d40565b6040516102ee91906122a2565b60405180910390f35b610311600480360381019061030c91906124a7565b610d79565b60405161031e91906122a2565b60405180910390f35b61032f610ff8565b60405161033c91906122a2565b60405180910390f35b61034d611031565b60405161035a9190612c82565b60405180910390f35b61036b611052565b60405161037891906122a2565b60405180910390f35b61039b60048036038101906103969190612ccc565b61108b565b6040516103a89190612c21565b60405180910390f35b6103b96110ab565b6040516103c69190612c21565b60405180910390f35b6103e960048036038101906103e49190612bc2565b6110b0565b6040516103f691906122a2565b60405180910390f35b6104076112ad565b60405161041491906122a2565b60405180910390f35b6104256112e6565b6040516104329190612c21565b60405180910390f35b61045560048036038101906104509190612cf7565b6112eb565b604051610463929190612d3e565b60405180910390f35b61048660048036038101906104819190612bc2565b61153e565b6040516104939190612c82565b60405180910390f35b6104a4611550565b6040516104b19190612c21565b60405180910390f35b6104c2611555565b6040516104cf9190612c21565b60405180910390f35b6104e061155a565b6040516104ed91906122a2565b60405180910390f35b6104fe611593565b60405161050b9190612c21565b60405180910390f35b61051c611598565b6040516105299190612c21565b60405180910390f35b61053a61159d565b6040516105479190612c21565b60405180910390f35b6105586115a2565b60405161056591906122a2565b60405180910390f35b61058860048036038101906105839190612cf7565b6115db565b604051610596929190612d3e565b60405180910390f35b6105b960048036038101906105b49190612cf7565b6117bd565b6040516105c691906122a2565b60405180910390f35b6105d7611868565b6040516105e491906122a2565b60405180910390f35b6105f56118a1565b6040516106029190612c21565b60405180910390f35b610625600480360381019061062091906124a7565b6118a6565b60405161063291906122a2565b60405180910390f35b61065560048036038101906106509190612bc2565b6118e5565b6040516106629190612c82565b60405180910390f35b6106736118f7565b60405161068091906122a2565b60405180910390f35b610691611930565b60405161069e91906122a2565b60405180910390f35b6106c160048036038101906106bc9190612d73565b611969565b6040516106ce9190612c82565b60405180910390f35b6106df6119e8565b6040516106ec91906122a2565b60405180910390f35b6106fd611a21565b60405161070a9190612c21565b60405180910390f35b61071b611a26565b60405161072891906122a2565b60405180910390f35b6040518060400160405280601a81526020017f253343253246626f647925334525334325324668746d6c25334500000000000081525081565b6060805f600567ffffffffffffffff81111561078957610788612383565b5b6040519080825280602002602001820160405280156107c257816020015b6107af6121b5565b8152602001906001900390816107a75790505b5090506040518061018001604052806101578152602001613cf46101579139815f815181106107f4576107f3612e18565b5b602002602001015160c00181905250604051806102a0016040528061026b815260200161356761026b91398160018151811061083357610832612e18565b5b602002602001015160c0018190525061084b88611a5f565b8160028151811061085f5761085e612e18565b5b602002602001015160c001819052506040518060400160405280600981526020017f7d3c2f7374796c653e0000000000000000000000000000000000000000000000815250816003815181106108b8576108b7612e18565b5b602002602001015160c00181905250604051806101c0016040528061018f8152602001613e4b61018f9139816004815181106108f7576108f6612e18565b5b602002602001015160c001819052505f600e67ffffffffffffffff81111561092257610921612383565b5b60405190808252806020026020018201604052801561095b57816020015b6109486121b5565b8152602001906001900390816109405790505b50905060405180606001604052806023815260200161381760239139815f8151811061098a57610989612e18565b5b602002602001015160c001819052506109a289611a5f565b816001815181106109b6576109b5612e18565b5b602002602001015160c001819052506040518060400160405280600d81526020017f2220646174612d736565643d220000000000000000000000000000000000000081525081600281518110610a0f57610a0e612e18565b5b602002602001015160c00181905250610a2d8963ffffffff16611ce5565b81600381518110610a4157610a40612e18565b5b602002602001015160c00181905250604051806080016040528060508152602001614a686050913981600481518110610a7d57610a7c612e18565b5b602002602001015160c001819052508481600581518110610aa157610aa0612e18565b5b602002602001015160c001819052506040518060a00160405280606281526020016134bc6062913981600681518110610add57610adc612e18565b5b602002602001015160c00181905250610afa8662ffffff16611ce5565b81600781518110610b0e57610b0d612e18565b5b602002602001015160c00181905250604051806060016040528060318152602001613fda6031913981600881518110610b4a57610b49612e18565b5b602002602001015160c00181905250610b668861ffff16611ce5565b81600981518110610b7a57610b79612e18565b5b602002602001015160c00181905250604051806060016040528060398152602001614ab86039913981600a81518110610bb657610bb5612e18565b5b602002602001015160c00181905250610bd28761ffff16611ce5565b81600b81518110610be657610be5612e18565b5b602002602001015160c001819052506040518060400160405280601f81526020017f2070726f70733c2f6469763e3c2f6469763e3c2f6469763e3c2f6d61696e3e0081525081600c81518110610c3f57610c3e612e18565b5b602002602001015160c0018190525060405180610a400160405280610a19815260200161400b610a19913981600d81518110610c7e57610c7d612e18565b5b602002602001015160c0018190525081819350935050509550959350505050565b60605f610cab836110b0565b90505f610cb8825161108b565b90506016810190505f610cca82611d34565b9050610d146040518060400160405280601681526020017f646174613a746578742f68746d6c3b6261736536342c0000000000000000000081525082611d5d90919063ffffffff16565b610d2b835f8084611d76909392919063ffffffff16565b809350505050919050565b600d81565b604581565b6040518060400160405280600781526020017f3c2f686561643e0000000000000000000000000000000000000000000000000081525081565b60605f80610d8a888888888861076a565b9150915060405180610280016040528061025d815260200161394a61025d913982600181518110610dbe57610dbd612e18565b5b602002602001015160c00181905250610dd688611a5f565b82600281518110610dea57610de9612e18565b5b602002602001015160c001819052506040518060400160405280600981526020017f7d3c2f7374796c653e000000000000000000000000000000000000000000000081525082600381518110610e4357610e42612e18565b5b602002602001015160c001819052506040518060400160405280600f81526020017f3c7374796c653e3c2f7374796c653e000000000000000000000000000000000081525082600481518110610e9c57610e9b612e18565b5b602002602001015160c00181905250600d81525f60405180604001604052808481526020018381525090505f610ed1826110b0565b90505f6040518060c001604052806093815260200161383a6093913990505f6040518060400160405280601d81526020017f3c2f626f64793e3c2f666f726569676e4f626a6563743e3c2f7376673e00000081525090505f610f4b825185518551610f3c9190612e72565b610f469190612e72565b611d34565b9050610f578184611d5d565b610f618185611d5d565b610f6b8183611d5d565b5f6040518060400160405280601a81526020017f646174613a696d6167652f7376672b786d6c3b6261736536342c00000000000081525090505f610faf835161108b565b9050815181610fbe9190612e72565b90505f610fca82611d34565b9050610fd68184611d5d565b610fe281855f80611d76565b809a505050505050505050505095945050505050565b6040518060400160405280600a81526020017f253343686561642533450000000000000000000000000000000000000000000081525081565b606060405180610100016040528060d18152602001613c2360d19139905090565b6040518060400160405280600a81526020017f25334368746d6c2533450000000000000000000000000000000000000000000081525081565b5f600360028301816110a05761109f612ea5565b5b046004029050919050565b601681565b60605f80835f01515111156110cf576110cc835f01515f611e9e565b90505b5f83602001515111156110ef576110ea83602001515f611e9e565b810190505b5f6111016110fc83612043565b611d34565b905061114b6040518060400160405280600681526020017f3c68746d6c3e000000000000000000000000000000000000000000000000000081525082611d5d90919063ffffffff16565b6111936040518060400160405280600681526020017f3c686561643e000000000000000000000000000000000000000000000000000081525082611d5d90919063ffffffff16565b5f845f01515111156111ae576111ad81855f01515f612052565b5b6111f66040518060400160405280600781526020017f3c2f686561643e0000000000000000000000000000000000000000000000000081525082611d5d90919063ffffffff16565b61123e6040518060400160405280600681526020017f3c626f64793e000000000000000000000000000000000000000000000000000081525082611d5d90919063ffffffff16565b5f846020015151111561125b5761125a8185602001515f612052565b5b6112a36040518060400160405280600e81526020017f3c2f626f64793e3c2f68746d6c3e00000000000000000000000000000000000081525082611d5d90919063ffffffff16565b8092505050919050565b6040518060400160405280600a81526020017f253343626f64792533450000000000000000000000000000000000000000000081525081565b602781565b606080600160048111156113025761130161263c565b5b836060015160048111156113195761131861263c565b5b03611393576040518060400160405280600881526020017f3c7363726970743e0000000000000000000000000000000000000000000000008152506040518060400160405280600981526020017f3c2f7363726970743e000000000000000000000000000000000000000000000081525091509150611539565b600260048111156113a7576113a661263c565b5b836060015160048111156113be576113bd61263c565b5b0361141b57604051806060016040528060298152602001613493602991396040518060400160405280600b81526020017f223e3c2f7363726970743e00000000000000000000000000000000000000000081525091509150611539565b6003600481111561142f5761142e61263c565b5b836060015160048111156114465761144561263c565b5b036114a3576040518060800160405280604581526020016137d2604591396040518060400160405280600b81526020017f223e3c2f7363726970743e00000000000000000000000000000000000000000081525091509150611539565b6004808111156114b6576114b561263c565b5b836060015160048111156114cd576114cc61263c565b5b0361152a57604051806080016040528060448152602001614a24604491396040518060400160405280600b81526020017f223e3c2f7363726970743e00000000000000000000000000000000000000000081525091509150611539565b82608001518360a00151915091505b915091565b606061154982610c9f565b9050919050565b602781565b600d81565b6040518060400160405280600681526020017f3c68746d6c3e000000000000000000000000000000000000000000000000000081525081565b601781565b605a81565b601781565b6040518060400160405280600681526020017f3c686561643e000000000000000000000000000000000000000000000000000081525081565b606080600160048111156115f2576115f161263c565b5b836060015160048111156116095761160861263c565b5b148061163d5750600260048111156116245761162361263c565b5b8360600151600481111561163b5761163a61263c565b5b145b1561169a5760405180608001604052806049815260200161351e604991396040518060400160405280601f81526020017f2532353232253235334525323533432532353246736372697074253235334500815250915091506117b8565b600360048111156116ae576116ad61263c565b5b836060015160048111156116c5576116c461263c565b5b03611722576040518060a00160405280607d81526020016138cd607d91396040518060400160405280601f81526020017f2532353232253235334525323533432532353246736372697074253235334500815250915091506117b8565b6004808111156117355761173461263c565b5b8360600151600481111561174c5761174b61263c565b5b036117a9576040518060a00160405280607c8152602001613ba7607c91396040518060400160405280601f81526020017f2532353232253235334525323533432532353246736372697074253235334500815250915091506117b8565b82608001518360a00151915091505b915091565b60605f8260c001515111156117d8578160c001519050611863565b816020015173ffffffffffffffffffffffffffffffffffffffff1663f9635594835f015184604001516040518363ffffffff1660e01b815260040161181e929190612ed2565b5f60405180830381865afa158015611838573d5f803e3d5ffd5b505050506040513d5f823e3d601f19601f820116820180604052508101906118609190612f75565b90505b919050565b6040518060400160405280600681526020017f3c626f64793e000000000000000000000000000000000000000000000000000081525081565b600d81565b60605f806118b7888888888861076a565b915091506118d8604051806040016040528084815260200183815250610c9f565b9250505095945050505050565b60606118f0826110b0565b9050919050565b6040518060400160405280601581526020017f646174612533417465787425324668746d6c253243000000000000000000000081525081565b6040518060400160405280600d81526020017f253343253246686561642533450000000000000000000000000000000000000081525081565b606061197887868686866118a6565b6119858887878787610d79565b61198e88611ce5565b61199b8861ffff16611ce5565b6119a88861ffff16611ce5565b866119b78962ffffff16611ce5565b6040516020016119cd9796959493929190613318565b60405160208183030381529060405290509695505050505050565b6040518060400160405280600e81526020017f3c2f626f64793e3c2f68746d6c3e00000000000000000000000000000000000081525081565b601781565b6040518060400160405280601681526020017f646174613a746578742f68746d6c3b6261736536342c0000000000000000000081525081565b60605f600667ffffffffffffffff811115611a7d57611a7c612383565b5b604051908082528060200260200182016040528015611ab057816020015b6060815260200190600190039081611a9b5790505b5090506040518060400160405280600781526020017f2344353343354500000000000000000000000000000000000000000000000000815250815f81518110611afc57611afb612e18565b5b60200260200101819052506040518060400160405280600781526020017f233539383746460000000000000000000000000000000000000000000000000081525081600181518110611b5157611b50612e18565b5b60200260200101819052506040518060400160405280600781526020017f234443354537410000000000000000000000000000000000000000000000000081525081600281518110611ba657611ba5612e18565b5b60200260200101819052506040518060400160405280600781526020017f233134323645310000000000000000000000000000000000000000000000000081525081600381518110611bfb57611bfa612e18565b5b60200260200101819052506040518060400160405280600781526020017f233142333846350000000000000000000000000000000000000000000000000081525081600481518110611c5057611c4f612e18565b5b60200260200101819052506040518060400160405280600781526020017f234533374639350000000000000000000000000000000000000000000000000081525081600581518110611ca557611ca4612e18565b5b602002602001018190525080600684611cbe91906133d4565b63ffffffff1681518110611cd557611cd4612e18565b5b6020026020010151915050919050565b60606080604051019050602081016040525f8152805f19835b600115611d1f578184019350600a81066030018453600a8104905080611cfe575b50828203602084039350808452505050919050565b60606040516060830180820180604052505060408301808252506020810191505f825250919050565b611d6882825161208d565b611d7282826120f2565b5050565b5f835190505f845103611d895750611e98565b5f806003600284010460021b91506003830690508315611db0576001811481151501820391505b611dba878361208d565b6040517f4142434445464748494a4b4c4d4e4f505152535455565758595a616263646566601f526102308615027f6768696a6b6c6d6e6f707172737475767778797a303132333435363738392d5f03603f52875160208901018488015b600115611e6d576003890198508851603f8160121c16518353603f81600c1c16516001840153603f8160061c16516002840153603f8116516003840153600483019250818a10611e675750611e6d565b50611e17565b86611e8757603d841515830353603d6001851460011b8303535b848a51018a52826040525050505050505b50505050565b5f80835103611eaf575f905061203d565b60608060605f80875190505f5b611edf898281518110611ed257611ed1612e18565b5b60200260200101516117bd565b935083898281518110611ef557611ef4612e18565b5b602002602001015160c00181905250878015611f53575060016004811115611f2057611f1f61263c565b5b898281518110611f3357611f32612e18565b5b6020026020010151606001516004811115611f5157611f5061263c565b5b145b15611f6b57611f62845161108b565b83019250611f72565b8351830192505b8715611fa857611f9b898281518110611f8e57611f8d612e18565b5b60200260200101516115db565b8096508197505050611fd4565b611fcb898281518110611fbe57611fbd612e18565b5b60200260200101516112eb565b80965081975050505b85898281518110611fe857611fe7612e18565b5b6020026020010151608001819052508489828151811061200b5761200a612e18565b5b602002602001015160a00181905250855183019250845183019250818160010191508110611ebc578296505050505050505b92915050565b5f602790508181019050919050565b5f5b6120798484838151811061206b5761206a612e18565b5b60200260200101518461212f565b825181600101915081106120545750505050565b5f612097836121a0565b90505f8284516120a79190612e72565b9050808210156120ec576040517f08c379a00000000000000000000000000000000000000000000000000000000081526004016120e390613474565b60405180910390fd5b50505050565b8051602082019150808201602084510184015b818410156121225783518152602084019350602081019050612105565b5050808351018352505050565b612146826080015184611d5d90919063ffffffff16565b801561216c576121678260c001515f8086611d76909392919063ffffffff16565b612184565b6121838260c0015184611d5d90919063ffffffff16565b5b61219b8260a0015184611d5d90919063ffffffff16565b505050565b5f806040602084035103905080915050919050565b6040518060e00160405280606081526020015f73ffffffffffffffffffffffffffffffffffffffff168152602001606081526020015f60048111156121fd576121fc61263c565b5b81526020016060815260200160608152602001606081525090565b5f81519050919050565b5f82825260208201905092915050565b5f5b8381101561224f578082015181840152602081019050612234565b5f8484015250505050565b5f601f19601f8301169050919050565b5f61227482612218565b61227e8185612222565b935061228e818560208601612232565b6122978161225a565b840191505092915050565b5f6020820190508181035f8301526122ba818461226a565b905092915050565b5f604051905090565b5f80fd5b5f80fd5b5f63ffffffff82169050919050565b6122eb816122d3565b81146122f5575f80fd5b50565b5f81359050612306816122e2565b92915050565b5f61ffff82169050919050565b6123228161230c565b811461232c575f80fd5b50565b5f8135905061233d81612319565b92915050565b5f62ffffff82169050919050565b61235a81612343565b8114612364575f80fd5b50565b5f8135905061237581612351565b92915050565b5f80fd5b5f80fd5b7f4e487b71000000000000000000000000000000000000000000000000000000005f52604160045260245ffd5b6123b98261225a565b810181811067ffffffffffffffff821117156123d8576123d7612383565b5b80604052505050565b5f6123ea6122c2565b90506123f682826123b0565b919050565b5f67ffffffffffffffff82111561241557612414612383565b5b61241e8261225a565b9050602081019050919050565b828183375f83830152505050565b5f61244b612446846123fb565b6123e1565b9050828152602081018484840111156124675761246661237f565b5b61247284828561242b565b509392505050565b5f82601f83011261248e5761248d61237b565b5b813561249e848260208601612439565b91505092915050565b5f805f805f60a086880312156124c0576124bf6122cb565b5b5f6124cd888289016122f8565b95505060206124de8882890161232f565b94505060406124ef8882890161232f565b935050606061250088828901612367565b925050608086013567ffffffffffffffff811115612521576125206122cf565b5b61252d8882890161247a565b9150509295509295909350565b5f81519050919050565b5f82825260208201905092915050565b5f819050602082019050919050565b5f81519050919050565b5f82825260208201905092915050565b5f61258782612563565b612591818561256d565b93506125a1818560208601612232565b6125aa8161225a565b840191505092915050565b5f73ffffffffffffffffffffffffffffffffffffffff82169050919050565b5f6125de826125b5565b9050919050565b6125ee816125d4565b82525050565b5f82825260208201905092915050565b5f61260e82612218565b61261881856125f4565b9350612628818560208601612232565b6126318161225a565b840191505092915050565b7f4e487b71000000000000000000000000000000000000000000000000000000005f52602160045260245ffd5b6005811061267a5761267961263c565b5b50565b5f81905061268a82612669565b919050565b5f6126998261267d565b9050919050565b6126a98161268f565b82525050565b5f60e083015f8301518482035f8601526126c9828261257d565b91505060208301516126de60208601826125e5565b50604083015184820360408601526126f68282612604565b915050606083015161270b60608601826126a0565b50608083015184820360808601526127238282612604565b91505060a083015184820360a086015261273d8282612604565b91505060c083015184820360c08601526127578282612604565b9150508091505092915050565b5f61276f83836126af565b905092915050565b5f602082019050919050565b5f61278d8261253a565b6127978185612544565b9350836020820285016127a985612554565b805f5b858110156127e457848403895281516127c58582612764565b94506127d083612777565b925060208a019950506001810190506127ac565b50829750879550505050505092915050565b5f6040820190508181035f83015261280e8185612783565b905081810360208301526128228184612783565b90509392505050565b5f80fd5b5f80fd5b5f67ffffffffffffffff82111561284d5761284c612383565b5b602082029050602081019050919050565b5f80fd5b61286b816125d4565b8114612875575f80fd5b50565b5f8135905061288681612862565b92915050565b5f67ffffffffffffffff8211156128a6576128a5612383565b5b6128af8261225a565b9050602081019050919050565b5f6128ce6128c98461288c565b6123e1565b9050828152602081018484840111156128ea576128e961237f565b5b6128f584828561242b565b509392505050565b5f82601f8301126129115761291061237b565b5b81356129218482602086016128bc565b91505092915050565b60058110612936575f80fd5b50565b5f813590506129478161292a565b92915050565b5f60e082840312156129625761296161282b565b5b61296c60e06123e1565b90505f82013567ffffffffffffffff81111561298b5761298a61282f565b5b6129978482850161247a565b5f8301525060206129aa84828501612878565b602083015250604082013567ffffffffffffffff8111156129ce576129cd61282f565b5b6129da848285016128fd565b60408301525060606129ee84828501612939565b606083015250608082013567ffffffffffffffff811115612a1257612a1161282f565b5b612a1e848285016128fd565b60808301525060a082013567ffffffffffffffff811115612a4257612a4161282f565b5b612a4e848285016128fd565b60a08301525060c082013567ffffffffffffffff811115612a7257612a7161282f565b5b612a7e848285016128fd565b60c08301525092915050565b5f612a9c612a9784612833565b6123e1565b90508083825260208201905060208402830185811115612abf57612abe61285e565b5b835b81811015612b0657803567ffffffffffffffff811115612ae457612ae361237b565b5b808601612af1898261294d565b85526020850194505050602081019050612ac1565b5050509392505050565b5f82601f830112612b2457612b2361237b565b5b8135612b34848260208601612a8a565b91505092915050565b5f60408284031215612b5257612b5161282b565b5b612b5c60406123e1565b90505f82013567ffffffffffffffff811115612b7b57612b7a61282f565b5b612b8784828501612b10565b5f83015250602082013567ffffffffffffffff811115612baa57612ba961282f565b5b612bb684828501612b10565b60208301525092915050565b5f60208284031215612bd757612bd66122cb565b5b5f82013567ffffffffffffffff811115612bf457612bf36122cf565b5b612c0084828501612b3d565b91505092915050565b5f819050919050565b612c1b81612c09565b82525050565b5f602082019050612c345f830184612c12565b92915050565b5f82825260208201905092915050565b5f612c5482612563565b612c5e8185612c3a565b9350612c6e818560208601612232565b612c778161225a565b840191505092915050565b5f6020820190508181035f830152612c9a8184612c4a565b905092915050565b612cab81612c09565b8114612cb5575f80fd5b50565b5f81359050612cc681612ca2565b92915050565b5f60208284031215612ce157612ce06122cb565b5b5f612cee84828501612cb8565b91505092915050565b5f60208284031215612d0c57612d0b6122cb565b5b5f82013567ffffffffffffffff811115612d2957612d286122cf565b5b612d358482850161294d565b91505092915050565b5f6040820190508181035f830152612d56818561226a565b90508181036020830152612d6a818461226a565b90509392505050565b5f805f805f8060c08789031215612d8d57612d8c6122cb565b5b5f612d9a89828a016122f8565b9650506020612dab89828a01612cb8565b9550506040612dbc89828a0161232f565b9450506060612dcd89828a0161232f565b9350506080612dde89828a01612367565b92505060a087013567ffffffffffffffff811115612dff57612dfe6122cf565b5b612e0b89828a0161247a565b9150509295509295509295565b7f4e487b71000000000000000000000000000000000000000000000000000000005f52603260045260245ffd5b7f4e487b71000000000000000000000000000000000000000000000000000000005f52601160045260245ffd5b5f612e7c82612c09565b9150612e8783612c09565b9250828201905080821115612e9f57612e9e612e45565b5b92915050565b7f4e487b71000000000000000000000000000000000000000000000000000000005f52601260045260245ffd5b5f6040820190508181035f830152612eea8185612c4a565b90508181036020830152612efe818461226a565b90509392505050565b5f612f19612f148461288c565b6123e1565b905082815260208101848484011115612f3557612f3461237f565b5b612f40848285612232565b509392505050565b5f82601f830112612f5c57612f5b61237b565b5b8151612f6c848260208601612f07565b91505092915050565b5f60208284031215612f8a57612f896122cb565b5b5f82015167ffffffffffffffff811115612fa757612fa66122cf565b5b612fb384828501612f48565b91505092915050565b5f81905092915050565b7f7b22616e696d6174696f6e5f75726c223a2200000000000000000000000000005f82015250565b5f612ffa601283612fbc565b915061300582612fc6565b601282019050919050565b5f81905092915050565b5f61302482612218565b61302e8185613010565b935061303e818560208601612232565b80840191505092915050565b7f222c22696d616765223a220000000000000000000000000000000000000000005f82015250565b5f61307e600b83612fbc565b91506130898261304a565b600b82019050919050565b7f222c226e616d65223a22494420230000000000000000000000000000000000005f82015250565b5f6130c8600e83612fbc565b91506130d382613094565b600e82019050919050565b5f6130e882612563565b6130f28185612fbc565b9350613102818560208601612232565b80840191505092915050565b7f222c2261747472696275746573223a5b7b2274726169745f74797065223a22505f8201527f726f70732043726561746564222c2276616c7565223a00000000000000000000602082015250565b5f613168603683612fbc565b91506131738261310e565b603682019050919050565b7f7d2c7b2274726169745f74797065223a2250726f70732053706f6e736f7265645f8201527f222c2276616c7565223a00000000000000000000000000000000000000000000602082015250565b5f6131d8602a83612fbc565b91506131e38261317e565b602a82019050919050565b7f7d2c7b2274726169745f74797065223a22557365726e616d65222c2276616c755f8201527f65223a0000000000000000000000000000000000000000000000000000000000602082015250565b5f613248602383612fbc565b9150613253826131ee565b602382019050919050565b7f7d2c7b2274726169745f74797065223a22566f7465732043617374222c2276615f8201527f6c7565223a220000000000000000000000000000000000000000000000000000602082015250565b5f6132b8602683612fbc565b91506132c38261325e565b602682019050919050565b7f227d5d7d000000000000000000000000000000000000000000000000000000005f82015250565b5f613302600483612fbc565b915061330d826132ce565b600482019050919050565b5f61332282612fee565b915061332e828a61301a565b915061333982613072565b9150613345828961301a565b9150613350826130bc565b915061335c82886130de565b91506133678261315c565b915061337382876130de565b915061337e826131cc565b915061338a82866130de565b91506133958261323c565b91506133a182856130de565b91506133ac826132ac565b91506133b882846130de565b91506133c3826132f6565b915081905098975050505050505050565b5f6133de826122d3565b91506133e9836122d3565b9250826133f9576133f8612ea5565b5b828206905092915050565b7f44796e616d69634275666665723a20417070656e64696e67206f7574206f66205f8201527f626f756e64732e00000000000000000000000000000000000000000000000000602082015250565b5f61345e602783612c3a565b915061346982613404565b604082019050919050565b5f6020820190508181035f83015261348b81613452565b905091905056fe3c736372697074207372633d22646174613a746578742f6a6176617363726970743b6261736536342c3c2f6469763e3c2f6469763e3c64697620636c6173733d2267223e3c2f6469763e3c6469762069643d227a223e3c64697620636c6173733d226c223e566f74657320436173743c2f6469763e3c64697620636c6173733d2273222069643d226d223e25323533437363726970742532353230737263253235334425323532326461746125323533417465787425323532466a617661736372697074253235334262617365363425323532433c7374796c653e626f64797b666f6e742d66616d696c793a506f7070696e732c73616e732d73657269663b6d617267696e3a303b70616464696e673a303b646973706c61793a666c65783b6a7573746966792d636f6e74656e743a63656e7465723b616c69676e2d6974656d733a63656e7465727d23637b706f736974696f6e3a72656c61746976657d23777b706f736974696f6e3a6162736f6c7574653b646973706c61793a666c65783b666c65782d646972656374696f6e3a636f6c756d6e3b6865696768743a313030253b636f6c6f723a236666663b666f6e742d7765696768743a3430307d2e747b666f6e742d73697a653a6d696e283476772c347668297d2e6c7b666f6e742d73697a653a6d696e283476772c347668297d2e732c2e757b666f6e742d73697a653a6d696e28313276772c31327668293b666f6e742d7765696768743a3830303b666f6e742d66616d696c793a4d6f6e747365727261742c73616e732d73657269667d2e757b666f6e742d73697a653a6d696e283876772c387668293b6f766572666c6f773a68696464656e3b666f6e742d66616d696c793a4d6f6e747365727261742c73616e732d73657269667d2e677b666c65782d67726f773a317d23617b6d617267696e2d746f703a312e3572656d3b6d617267696e2d6c6566743a312e3572656d7d237a7b6d617267696e2d626f74746f6d3a312e3572656d3b6d617267696e2d6c6566743a312e3572656d7d236d7b6d617267696e2d626f74746f6d3a63616c63283172656d202d20387078297d2e707b77696474683a31303076773b6865696768743a31303076683b6261636b67726f756e642d636f6c6f723a3c73637269707420747970653d22746578742f6a6176617363726970742b677a697022207372633d22646174613a746578742f6a6176617363726970743b6261736536342c3c6d61696e2069643d22632220636c6173733d22702220646174612d636f6c6f723d223c73766720786d6c6e733d22687474703a2f2f7777772e77332e6f72672f323030302f737667222076696577426f783d223020302037303020373030223e3c666f726569676e4f626a6563742077696474683d223130302522206865696768743d2231303025223e3c626f647920786d6c6e733d22687474703a2f2f7777772e77332e6f72672f313939392f7868746d6c223e2532353343736372697074253235323074797065253235334425323532327465787425323532466a6176617363726970742532353242677a697025323532322532353230737263253235334425323532326461746125323533417465787425323532466a617661736372697074253235334262617365363425323532433c7374796c653e626f64797b666f6e742d66616d696c793a506f7070696e732c73616e732d73657269663b6d617267696e3a303b70616464696e673a303b646973706c61793a666c65783b6a7573746966792d636f6e74656e743a63656e7465723b616c69676e2d6974656d733a63656e7465727d23637b706f736974696f6e3a72656c61746976657d23777b706f736974696f6e3a6162736f6c7574653b646973706c61793a666c65783b666c65782d646972656374696f6e3a636f6c756d6e3b6865696768743a313030253b636f6c6f723a236666663b666f6e742d7765696768743a3430307d2e747b666f6e742d73697a653a323870787d2e6c7b666f6e742d73697a653a323470783b6d617267696e2d746f703a313070787d2e732c2e757b666f6e742d73697a653a383070783b666f6e742d7765696768743a3830303b666f6e742d66616d696c793a4d6f6e747365727261742c73616e732d73657269667d2e757b666f6e742d73697a653a353670783b6f766572666c6f773a68696464656e3b666f6e742d66616d696c793a4d6f6e747365727261742c73616e732d73657269667d2e677b666c65782d67726f773a317d23617b6d617267696e2d746f703a312e3572656d3b6d617267696e2d6c6566743a312e3572656d7d237a7b6d617267696e2d626f74746f6d3a312e3572656d3b6d617267696e2d6c6566743a312e3572656d7d236d7b6d617267696e2d626f74746f6d3a63616c63283172656d202d20387078297d2e707b77696474683a2037303070783b206865696768743a2037303070783b206261636b67726f756e642d636f6c6f723a2532353343736372697074253235323074797065253235334425323532327465787425323532466a6176617363726970742532353242706e6725323532322532353230737263253235334425323532326461746125323533417465787425323532466a617661736372697074253235334262617365363425323532437b226e616d65223a224e6f756e7320577261707065642032303233222c22696d616765223a22697066733a2f2f626166796265696766666869773466786533626a6374627766706f6369707232626379356e76686a6a693572796775726d667069777676636b676d222c226465736372697074696f6e223a224120636f6d6d656d6f726174697665204e465420666f7220616c6c207468652070656f706c6520696e766f6c76656420696e2070726f6c696665726174696e6720746865204e6f756e732044414f20696e2032303233227d3c6c696e6b20687265663d2268747470733a2f2f666f6e74732e676f6f676c65617069732e636f6d222072656c3d22707265636f6e6e656374222f3e3c6c696e6b20687265663d2268747470733a2f2f666f6e74732e677374617469632e636f6d222072656c3d22707265636f6e6e656374222063726f73736f726967696e3d2274727565222f3e3c6c696e6b20687265663d2268747470733a2f2f666f6e74732e676f6f676c65617069732e636f6d2f637373323f66616d696c793d506f7070696e733a77676874403230303b3330303b3430303b3530303b3630303b3730303b3830303b393030222072656c3d227374796c657368656574222f3e3c6c696e6b20687265663d2268747470733a2f2f666f6e74732e676f6f676c65617069732e636f6d2f6373733f66616d696c793d4d6f6e747365727261743a3430302c383030222072656c3d227374796c657368656574222f3e3c7374796c652073636f7065643d2274727565223e406d656469612073637265656e20616e6420286d696e2d6865696768743a3732307078297b23617b6d617267696e2d746f703a322e3572656d3b6d617267696e2d6c6566743a322e3572656d7d237a7b6d617267696e2d626f74746f6d3a322e3572656d3b6d617267696e2d6c6566743a322e3572656d7d7d406d656469612073637265656e20616e6420286d61782d6865696768743a3435307078297b23617b6d617267696e2d746f703a3172656d3b6d617267696e2d6c6566743a3172656d7d237a7b6d617267696e2d626f74746f6d3a3172656d3b6d617267696e2d6c6566743a3172656d7d7d406d656469612073637265656e20616e6420286d61782d6865696768743a3330307078297b23617b6d617267696e2d746f703a2e3572656d3b6d617267696e2d6c6566743a2e3572656d7d237a7b6d617267696e2d626f74746f6d3a2e3572656d3b6d617267696e2d6c6566743a2e3572656d7d236d7b6d617267696e2d626f74746f6d3a307d7d3c2f7374796c653e3c2f6469763e3c64697620636c6173733d226c223e437265617465643c2f6469763e3c64697620636c6173733d2273223e3c7363726970743e646f63756d656e742e6164644576656e744c697374656e65722822444f4d436f6e74656e744c6f61646564222c2866756e6374696f6e28297b66756e6374696f6e206528297b72657475726e2077696e646f772e696e6e65724865696768743e3d77696e646f772e696e6e657257696474683f77696e646f772e696e6e657257696474683a77696e646f772e696e6e65724865696768747d636f6e737420743d646f63756d656e742e717565727953656c6563746f7228226d61696e22292c6e3d66756e6374696f6e2865297b636f6e737420743d323134373438333634373b6c6574206e3d6525743b72657475726e28293d3e286e3d31363830372a6e25742c6e2f74297d287061727365496e7428742e646174617365742e736565642c313029293b6c6574206f3d66756e6374696f6e28652c74297b72657475726e204d6174682e666c6f6f72287428292a65297d28342c6e292c793d6528292c6c3d6528292c783d6c2f3732302c723d343d3d6f3f32303a333d3d6f3f34303a323d3d6f3f36303a313d3d6f3f38303a3132302c693d5b5d2c613d3230302c733d3130303b76617220633d742e646174617365742e636f6c6f723b636f6e737420753d646f63756d656e742e637265617465456c656d656e74282263616e76617322292c683d646f63756d656e742e676574456c656d656e744279496428226322293b682e636c6173734c6973742e72656d6f766528227022292c682e617070656e644368696c642875293b636f6e737420663d752e676574436f6e746578742822326422293b66756e6374696f6e206428652c742c6e297b72657475726e28312d6e292a652b6e2a747d66756e6374696f6e207728652c742c6e2c6f2c792c6c2c78297b72657475726e7b783a64286428652c742c78292c6428742c6e2c78292c78292c793a642864286f2c792c78292c6428792c6c2c78292c78297d7d66756e6374696f6e207028652c742c6e2c6f2c79297b6c6574206c3d332a28742d65292c783d332a286e2d74292d6c2c723d332a28742d65292c693d332a286e2d74292d722c613d6f2d652d722d693b72657475726e7b783a286f2d652d6c2d78292a4d6174682e706f7728792c33292b782a4d6174682e706f7728792c32292b6c2a792b652c793a612a4d6174682e706f7728792c33292b692a4d6174682e706f7728792c32292b722a792b657d7d636f6c733d792f28722a78292c726f77733d6c2f28722a78293b766172206d3d6e28292c763d6e28292c4d3d6e28292c673d6e28292c453d6e28292c4c3d6e28292c433d6e28292c533d6e28292c713d6e28292c483d6e28292c493d6e28292c523d6e28293b6c657420573d7b783a3336302a6d2a782c793a3336302a762a787d2c7a3d7b783a3165332a4d2a782c793a3165332a672a787d2c413d7b783a3530302a452a782c793a3165332a4c2a782b3530302a787d2c423d7b783a313135302a432a782d3135302a782c793a3165332a532a787d2c443d7b783a3165332a712a782c793a3165332a482a787d2c463d7b783a313135302a492a782d3135302a782c793a3165332a522a782b3530302a787d3b666f72286c657420653d303b653c3d732f333b652b2b297b6c657420743d7728572e782c7a2e782c412e782c572e792c7a2e792c412e792c652f28732f3329293b692e707573682874297d666f72286c657420653d303b653c3d732f333b652b2b297b6c657420743d652f28732f33292c6e3d7028412e782c422e782c442e782c462e782c74292c6f3d7028412e792c422e792c442e792c462e792c74293b692e70757368287b783a6e2c793a6f7d297d666f72286c657420653d303b653c3d732f333b652b2b297b6c657420743d652f28732f33292c6e3d6428462e782c572e782c74292c6f3d6428462e792c572e792c74293b692e70757368287b783a6e2c793a6f7d297d666f72286c657420653d303b653c3d732f323b652b2b297b6c657420743d652f28732f32292c6e3d7028412e782c422e782c442e782c462e782c74292c6f3d7028412e792c422e792c442e792c462e792c74293b692e70757368287b783a6e2c793a6f7d297d6c6574204f3d303b77696e646f772e6164644576656e744c697374656e65722822726573697a65222c2866756e6374696f6e28297b793d6528292c6c3d6528292c783d6c2f3732302c723d6f3d3d342a783f32302a783a333d3d6f3f34302a783a323d3d6f3f36302a783a313d3d6f3f38302a783a3132302a782c662e63616e7661732e77696474683d792c662e63616e7661732e6865696768743d6c3b6c657420743d7b783a3336302a6d2a782c793a3336302a762a787d2c6e3d7b783a3165332a4d2a782c793a3165332a672a787d2c613d7b783a3530302a452a782c793a3165332a4c2a782b3530302a787d2c633d7b783a313135302a432a782d3135302a782c793a3165332a532a787d2c753d7b783a3165332a712a782c793a3165332a482a787d2c683d7b783a313135302a492a782d3135302a782c793a3165332a522a782b3530302a787d3b693d5b5d3b666f72286c657420653d303b653c3d732f333b652b2b297b6c6574206f3d7728742e782c6e2e782c612e782c742e792c6e2e792c612e792c652f28732f3329293b692e70757368286f297d666f72286c657420653d303b653c3d732f333b652b2b297b6c657420743d652f28732f33292c6e3d7028612e782c632e782c752e782c682e782c74292c6f3d7028612e792c632e792c752e792c682e792c74293b692e70757368287b783a6e2c793a6f7d297d666f72286c657420653d303b653c3d732f333b652b2b297b6c6574206e3d652f28732f33292c6f3d6428682e782c742e782c6e292c793d6428682e792c742e792c6e293b692e70757368287b783a6f2c793a797d297d666f72286c657420653d303b653c3d732f323b652b2b297b6c657420743d652f28732f32292c6e3d7028612e782c632e782c752e782c682e782c74292c6f3d7028612e792c632e792c752e792c682e792c74293b692e70757368287b783a6e2c793a6f7d297d7d29292c66756e6374696f6e207428297b4f2b2b2c66756e6374696f6e28297b662e63616e7661732e77696474683d6528292c662e63616e7661732e6865696768743d6528292c662e66696c6c5374796c653d632c662e66696c6c5265637428302c302c792c6c293b666f72286c657420653d303b653c613b652b2b297b6c657420743d284f2d312b652a732f612b692e6c656e6774682925692e6c656e6774682c6e3d695b4d6174682e666c6f6f722874295d2c6f3d4d6174682e666c6f6f72286e2e782f72292a722c793d4d6174682e666c6f6f72286e2e792f72292a722c6c3d322a65253336303b662e66696c6c5374796c653d6068736c28247b6c7d2c20313030252c2035302529602c662e66696c6c52656374286f2c792d31302c722c72297d7d28292c73657454696d656f7574282828293d3e72657175657374416e696d6174696f6e4672616d65287429292c3235297d28297d29293b3c2f7363726970743e3c73637269707420747970653d22746578742f6a6176617363726970742b706e6722207372633d22646174613a746578742f6a6176617363726970743b6261736536342c223e3c6469762069643d2277223e3c6469762069643d2261223e3c64697620636c6173733d2274223e4e6f756e73205772617070656420323032333c2f6469763e3c64697620636c6173733d2275223e2070726f70733c2f6469763e3c64697620636c6173733d226c223e53706f6e736f7265643c2f6469763e3c64697620636c6173733d2273223ea26469706673582212202485bd5045698dc398d6c45e83f0ee452f464d77308a3995c42d6198680174b664736f6c63430008150033",
			"opcodes": "PUSH1 0x80 PUSH1 0x40 MSTORE CALLVALUE DUP1 ISZERO PUSH2 0xF JUMPI PUSH0 DUP1 REVERT JUMPDEST POP PUSH2 0x4B26 DUP1 PUSH2 0x1D PUSH0 CODECOPY PUSH0 RETURN INVALID PUSH1 0x80 PUSH1 0x40 MSTORE CALLVALUE DUP1 ISZERO PUSH2 0xF JUMPI PUSH0 DUP1 REVERT JUMPDEST POP PUSH1 0x4 CALLDATASIZE LT PUSH2 0x21A JUMPI PUSH0 CALLDATALOAD PUSH1 0xE0 SHR DUP1 PUSH4 0xB55CCC62 GT PUSH2 0x123 JUMPI DUP1 PUSH4 0xD0C3EFA8 GT PUSH2 0xAB JUMPI DUP1 PUSH4 0xD9237F14 GT PUSH2 0x7A JUMPI DUP1 PUSH4 0xD9237F14 EQ PUSH2 0x689 JUMPI DUP1 PUSH4 0xE522A915 EQ PUSH2 0x6A7 JUMPI DUP1 PUSH4 0xF051DCF8 EQ PUSH2 0x6D7 JUMPI DUP1 PUSH4 0xF49717EE EQ PUSH2 0x6F5 JUMPI DUP1 PUSH4 0xF6130ADC EQ PUSH2 0x713 JUMPI PUSH2 0x21A JUMP JUMPDEST DUP1 PUSH4 0xD0C3EFA8 EQ PUSH2 0x5ED JUMPI DUP1 PUSH4 0xD2AE5FFD EQ PUSH2 0x60B JUMPI DUP1 PUSH4 0xD5ED88CE EQ PUSH2 0x63B JUMPI DUP1 PUSH4 0xD61974F1 EQ PUSH2 0x66B JUMPI PUSH2 0x21A JUMP JUMPDEST DUP1 PUSH4 0xBF35DD0B GT PUSH2 0xF2 JUMPI DUP1 PUSH4 0xBF35DD0B EQ PUSH2 0x532 JUMPI DUP1 PUSH4 0xC46B294D EQ PUSH2 0x550 JUMPI DUP1 PUSH4 0xCD475F26 EQ PUSH2 0x56E JUMPI DUP1 PUSH4 0xCDEA0CEF EQ PUSH2 0x59F JUMPI DUP1 PUSH4 0xCE5AD179 EQ PUSH2 0x5CF JUMPI PUSH2 0x21A JUMP JUMPDEST DUP1 PUSH4 0xB55CCC62 EQ PUSH2 0x4BA JUMPI DUP1 PUSH4 0xBC689620 EQ PUSH2 0x4D8 JUMPI DUP1 PUSH4 0xBE58B0A9 EQ PUSH2 0x4F6 JUMPI DUP1 PUSH4 0xBEE84AE3 EQ PUSH2 0x514 JUMPI PUSH2 0x21A JUMP JUMPDEST DUP1 PUSH4 0x640BAB41 GT PUSH2 0x1A6 JUMPI DUP1 PUSH4 0x7F369319 GT PUSH2 0x175 JUMPI DUP1 PUSH4 0x7F369319 EQ PUSH2 0x3FF JUMPI DUP1 PUSH4 0x87598E52 EQ PUSH2 0x41D JUMPI DUP1 PUSH4 0x8C8C3796 EQ PUSH2 0x43B JUMPI DUP1 PUSH4 0xA891B35E EQ PUSH2 0x46C JUMPI DUP1 PUSH4 0xAFAE76FA EQ PUSH2 0x49C JUMPI PUSH2 0x21A JUMP JUMPDEST DUP1 PUSH4 0x640BAB41 EQ PUSH2 0x363 JUMPI DUP1 PUSH4 0x72617F8A EQ PUSH2 0x381 JUMPI DUP1 PUSH4 0x7510AC24 EQ PUSH2 0x3B1 JUMPI DUP1 PUSH4 0x7DBB90A2 EQ PUSH2 0x3CF JUMPI PUSH2 0x21A JUMP JUMPDEST DUP1 PUSH4 0x3708BE65 GT PUSH2 0x1ED JUMPI DUP1 PUSH4 0x3708BE65 EQ PUSH2 0x2BB JUMPI DUP1 PUSH4 0x3D5BE2C2 EQ PUSH2 0x2D9 JUMPI DUP1 PUSH4 0x41FF467B EQ PUSH2 0x2F7 JUMPI DUP1 PUSH4 0x43F2614F EQ PUSH2 0x327 JUMPI DUP1 PUSH4 0x5F17CAC3 EQ PUSH2 0x345 JUMPI PUSH2 0x21A JUMP JUMPDEST DUP1 PUSH4 0x53F1EB0 EQ PUSH2 0x21E JUMPI DUP1 PUSH4 0xC4AE1C9 EQ PUSH2 0x23C JUMPI DUP1 PUSH4 0x2BEE6807 EQ PUSH2 0x26D JUMPI DUP1 PUSH4 0x33174F98 EQ PUSH2 0x29D JUMPI JUMPDEST PUSH0 DUP1 REVERT JUMPDEST PUSH2 0x226 PUSH2 0x731 JUMP JUMPDEST PUSH1 0x40 MLOAD PUSH2 0x233 SWAP2 SWAP1 PUSH2 0x22A2 JUMP JUMPDEST PUSH1 0x40 MLOAD DUP1 SWAP2 SUB SWAP1 RETURN JUMPDEST PUSH2 0x256 PUSH1 0x4 DUP1 CALLDATASIZE SUB DUP2 ADD SWAP1 PUSH2 0x251 SWAP2 SWAP1 PUSH2 0x24A7 JUMP JUMPDEST PUSH2 0x76A JUMP JUMPDEST PUSH1 0x40 MLOAD PUSH2 0x264 SWAP3 SWAP2 SWAP1 PUSH2 0x27F6 JUMP JUMPDEST PUSH1 0x40 MLOAD DUP1 SWAP2 SUB SWAP1 RETURN JUMPDEST PUSH2 0x287 PUSH1 0x4 DUP1 CALLDATASIZE SUB DUP2 ADD SWAP1 PUSH2 0x282 SWAP2 SWAP1 PUSH2 0x2BC2 JUMP JUMPDEST PUSH2 0xC9F JUMP JUMPDEST PUSH1 0x40 MLOAD PUSH2 0x294 SWAP2 SWAP1 PUSH2 0x22A2 JUMP JUMPDEST PUSH1 0x40 MLOAD DUP1 SWAP2 SUB SWAP1 RETURN JUMPDEST PUSH2 0x2A5 PUSH2 0xD36 JUMP JUMPDEST PUSH1 0x40 MLOAD PUSH2 0x2B2 SWAP2 SWAP1 PUSH2 0x2C21 JUMP JUMPDEST PUSH1 0x40 MLOAD DUP1 SWAP2 SUB SWAP1 RETURN JUMPDEST PUSH2 0x2C3 PUSH2 0xD3B JUMP JUMPDEST PUSH1 0x40 MLOAD PUSH2 0x2D0 SWAP2 SWAP1 PUSH2 0x2C21 JUMP JUMPDEST PUSH1 0x40 MLOAD DUP1 SWAP2 SUB SWAP1 RETURN JUMPDEST PUSH2 0x2E1 PUSH2 0xD40 JUMP JUMPDEST PUSH1 0x40 MLOAD PUSH2 0x2EE SWAP2 SWAP1 PUSH2 0x22A2 JUMP JUMPDEST PUSH1 0x40 MLOAD DUP1 SWAP2 SUB SWAP1 RETURN JUMPDEST PUSH2 0x311 PUSH1 0x4 DUP1 CALLDATASIZE SUB DUP2 ADD SWAP1 PUSH2 0x30C SWAP2 SWAP1 PUSH2 0x24A7 JUMP JUMPDEST PUSH2 0xD79 JUMP JUMPDEST PUSH1 0x40 MLOAD PUSH2 0x31E SWAP2 SWAP1 PUSH2 0x22A2 JUMP JUMPDEST PUSH1 0x40 MLOAD DUP1 SWAP2 SUB SWAP1 RETURN JUMPDEST PUSH2 0x32F PUSH2 0xFF8 JUMP JUMPDEST PUSH1 0x40 MLOAD PUSH2 0x33C SWAP2 SWAP1 PUSH2 0x22A2 JUMP JUMPDEST PUSH1 0x40 MLOAD DUP1 SWAP2 SUB SWAP1 RETURN JUMPDEST PUSH2 0x34D PUSH2 0x1031 JUMP JUMPDEST PUSH1 0x40 MLOAD PUSH2 0x35A SWAP2 SWAP1 PUSH2 0x2C82 JUMP JUMPDEST PUSH1 0x40 MLOAD DUP1 SWAP2 SUB SWAP1 RETURN JUMPDEST PUSH2 0x36B PUSH2 0x1052 JUMP JUMPDEST PUSH1 0x40 MLOAD PUSH2 0x378 SWAP2 SWAP1 PUSH2 0x22A2 JUMP JUMPDEST PUSH1 0x40 MLOAD DUP1 SWAP2 SUB SWAP1 RETURN JUMPDEST PUSH2 0x39B PUSH1 0x4 DUP1 CALLDATASIZE SUB DUP2 ADD SWAP1 PUSH2 0x396 SWAP2 SWAP1 PUSH2 0x2CCC JUMP JUMPDEST PUSH2 0x108B JUMP JUMPDEST PUSH1 0x40 MLOAD PUSH2 0x3A8 SWAP2 SWAP1 PUSH2 0x2C21 JUMP JUMPDEST PUSH1 0x40 MLOAD DUP1 SWAP2 SUB SWAP1 RETURN JUMPDEST PUSH2 0x3B9 PUSH2 0x10AB JUMP JUMPDEST PUSH1 0x40 MLOAD PUSH2 0x3C6 SWAP2 SWAP1 PUSH2 0x2C21 JUMP JUMPDEST PUSH1 0x40 MLOAD DUP1 SWAP2 SUB SWAP1 RETURN JUMPDEST PUSH2 0x3E9 PUSH1 0x4 DUP1 CALLDATASIZE SUB DUP2 ADD SWAP1 PUSH2 0x3E4 SWAP2 SWAP1 PUSH2 0x2BC2 JUMP JUMPDEST PUSH2 0x10B0 JUMP JUMPDEST PUSH1 0x40 MLOAD PUSH2 0x3F6 SWAP2 SWAP1 PUSH2 0x22A2 JUMP JUMPDEST PUSH1 0x40 MLOAD DUP1 SWAP2 SUB SWAP1 RETURN JUMPDEST PUSH2 0x407 PUSH2 0x12AD JUMP JUMPDEST PUSH1 0x40 MLOAD PUSH2 0x414 SWAP2 SWAP1 PUSH2 0x22A2 JUMP JUMPDEST PUSH1 0x40 MLOAD DUP1 SWAP2 SUB SWAP1 RETURN JUMPDEST PUSH2 0x425 PUSH2 0x12E6 JUMP JUMPDEST PUSH1 0x40 MLOAD PUSH2 0x432 SWAP2 SWAP1 PUSH2 0x2C21 JUMP JUMPDEST PUSH1 0x40 MLOAD DUP1 SWAP2 SUB SWAP1 RETURN JUMPDEST PUSH2 0x455 PUSH1 0x4 DUP1 CALLDATASIZE SUB DUP2 ADD SWAP1 PUSH2 0x450 SWAP2 SWAP1 PUSH2 0x2CF7 JUMP JUMPDEST PUSH2 0x12EB JUMP JUMPDEST PUSH1 0x40 MLOAD PUSH2 0x463 SWAP3 SWAP2 SWAP1 PUSH2 0x2D3E JUMP JUMPDEST PUSH1 0x40 MLOAD DUP1 SWAP2 SUB SWAP1 RETURN JUMPDEST PUSH2 0x486 PUSH1 0x4 DUP1 CALLDATASIZE SUB DUP2 ADD SWAP1 PUSH2 0x481 SWAP2 SWAP1 PUSH2 0x2BC2 JUMP JUMPDEST PUSH2 0x153E JUMP JUMPDEST PUSH1 0x40 MLOAD PUSH2 0x493 SWAP2 SWAP1 PUSH2 0x2C82 JUMP JUMPDEST PUSH1 0x40 MLOAD DUP1 SWAP2 SUB SWAP1 RETURN JUMPDEST PUSH2 0x4A4 PUSH2 0x1550 JUMP JUMPDEST PUSH1 0x40 MLOAD PUSH2 0x4B1 SWAP2 SWAP1 PUSH2 0x2C21 JUMP JUMPDEST PUSH1 0x40 MLOAD DUP1 SWAP2 SUB SWAP1 RETURN JUMPDEST PUSH2 0x4C2 PUSH2 0x1555 JUMP JUMPDEST PUSH1 0x40 MLOAD PUSH2 0x4CF SWAP2 SWAP1 PUSH2 0x2C21 JUMP JUMPDEST PUSH1 0x40 MLOAD DUP1 SWAP2 SUB SWAP1 RETURN JUMPDEST PUSH2 0x4E0 PUSH2 0x155A JUMP JUMPDEST PUSH1 0x40 MLOAD PUSH2 0x4ED SWAP2 SWAP1 PUSH2 0x22A2 JUMP JUMPDEST PUSH1 0x40 MLOAD DUP1 SWAP2 SUB SWAP1 RETURN JUMPDEST PUSH2 0x4FE PUSH2 0x1593 JUMP JUMPDEST PUSH1 0x40 MLOAD PUSH2 0x50B SWAP2 SWAP1 PUSH2 0x2C21 JUMP JUMPDEST PUSH1 0x40 MLOAD DUP1 SWAP2 SUB SWAP1 RETURN JUMPDEST PUSH2 0x51C PUSH2 0x1598 JUMP JUMPDEST PUSH1 0x40 MLOAD PUSH2 0x529 SWAP2 SWAP1 PUSH2 0x2C21 JUMP JUMPDEST PUSH1 0x40 MLOAD DUP1 SWAP2 SUB SWAP1 RETURN JUMPDEST PUSH2 0x53A PUSH2 0x159D JUMP JUMPDEST PUSH1 0x40 MLOAD PUSH2 0x547 SWAP2 SWAP1 PUSH2 0x2C21 JUMP JUMPDEST PUSH1 0x40 MLOAD DUP1 SWAP2 SUB SWAP1 RETURN JUMPDEST PUSH2 0x558 PUSH2 0x15A2 JUMP JUMPDEST PUSH1 0x40 MLOAD PUSH2 0x565 SWAP2 SWAP1 PUSH2 0x22A2 JUMP JUMPDEST PUSH1 0x40 MLOAD DUP1 SWAP2 SUB SWAP1 RETURN JUMPDEST PUSH2 0x588 PUSH1 0x4 DUP1 CALLDATASIZE SUB DUP2 ADD SWAP1 PUSH2 0x583 SWAP2 SWAP1 PUSH2 0x2CF7 JUMP JUMPDEST PUSH2 0x15DB JUMP JUMPDEST PUSH1 0x40 MLOAD PUSH2 0x596 SWAP3 SWAP2 SWAP1 PUSH2 0x2D3E JUMP JUMPDEST PUSH1 0x40 MLOAD DUP1 SWAP2 SUB SWAP1 RETURN JUMPDEST PUSH2 0x5B9 PUSH1 0x4 DUP1 CALLDATASIZE SUB DUP2 ADD SWAP1 PUSH2 0x5B4 SWAP2 SWAP1 PUSH2 0x2CF7 JUMP JUMPDEST PUSH2 0x17BD JUMP JUMPDEST PUSH1 0x40 MLOAD PUSH2 0x5C6 SWAP2 SWAP1 PUSH2 0x22A2 JUMP JUMPDEST PUSH1 0x40 MLOAD DUP1 SWAP2 SUB SWAP1 RETURN JUMPDEST PUSH2 0x5D7 PUSH2 0x1868 JUMP JUMPDEST PUSH1 0x40 MLOAD PUSH2 0x5E4 SWAP2 SWAP1 PUSH2 0x22A2 JUMP JUMPDEST PUSH1 0x40 MLOAD DUP1 SWAP2 SUB SWAP1 RETURN JUMPDEST PUSH2 0x5F5 PUSH2 0x18A1 JUMP JUMPDEST PUSH1 0x40 MLOAD PUSH2 0x602 SWAP2 SWAP1 PUSH2 0x2C21 JUMP JUMPDEST PUSH1 0x40 MLOAD DUP1 SWAP2 SUB SWAP1 RETURN JUMPDEST PUSH2 0x625 PUSH1 0x4 DUP1 CALLDATASIZE SUB DUP2 ADD SWAP1 PUSH2 0x620 SWAP2 SWAP1 PUSH2 0x24A7 JUMP JUMPDEST PUSH2 0x18A6 JUMP JUMPDEST PUSH1 0x40 MLOAD PUSH2 0x632 SWAP2 SWAP1 PUSH2 0x22A2 JUMP JUMPDEST PUSH1 0x40 MLOAD DUP1 SWAP2 SUB SWAP1 RETURN JUMPDEST PUSH2 0x655 PUSH1 0x4 DUP1 CALLDATASIZE SUB DUP2 ADD SWAP1 PUSH2 0x650 SWAP2 SWAP1 PUSH2 0x2BC2 JUMP JUMPDEST PUSH2 0x18E5 JUMP JUMPDEST PUSH1 0x40 MLOAD PUSH2 0x662 SWAP2 SWAP1 PUSH2 0x2C82 JUMP JUMPDEST PUSH1 0x40 MLOAD DUP1 SWAP2 SUB SWAP1 RETURN JUMPDEST PUSH2 0x673 PUSH2 0x18F7 JUMP JUMPDEST PUSH1 0x40 MLOAD PUSH2 0x680 SWAP2 SWAP1 PUSH2 0x22A2 JUMP JUMPDEST PUSH1 0x40 MLOAD DUP1 SWAP2 SUB SWAP1 RETURN JUMPDEST PUSH2 0x691 PUSH2 0x1930 JUMP JUMPDEST PUSH1 0x40 MLOAD PUSH2 0x69E SWAP2 SWAP1 PUSH2 0x22A2 JUMP JUMPDEST PUSH1 0x40 MLOAD DUP1 SWAP2 SUB SWAP1 RETURN JUMPDEST PUSH2 0x6C1 PUSH1 0x4 DUP1 CALLDATASIZE SUB DUP2 ADD SWAP1 PUSH2 0x6BC SWAP2 SWAP1 PUSH2 0x2D73 JUMP JUMPDEST PUSH2 0x1969 JUMP JUMPDEST PUSH1 0x40 MLOAD PUSH2 0x6CE SWAP2 SWAP1 PUSH2 0x2C82 JUMP JUMPDEST PUSH1 0x40 MLOAD DUP1 SWAP2 SUB SWAP1 RETURN JUMPDEST PUSH2 0x6DF PUSH2 0x19E8 JUMP JUMPDEST PUSH1 0x40 MLOAD PUSH2 0x6EC SWAP2 SWAP1 PUSH2 0x22A2 JUMP JUMPDEST PUSH1 0x40 MLOAD DUP1 SWAP2 SUB SWAP1 RETURN JUMPDEST PUSH2 0x6FD PUSH2 0x1A21 JUMP JUMPDEST PUSH1 0x40 MLOAD PUSH2 0x70A SWAP2 SWAP1 PUSH2 0x2C21 JUMP JUMPDEST PUSH1 0x40 MLOAD DUP1 SWAP2 SUB SWAP1 RETURN JUMPDEST PUSH2 0x71B PUSH2 0x1A26 JUMP JUMPDEST PUSH1 0x40 MLOAD PUSH2 0x728 SWAP2 SWAP1 PUSH2 0x22A2 JUMP JUMPDEST PUSH1 0x40 MLOAD DUP1 SWAP2 SUB SWAP1 RETURN JUMPDEST PUSH1 0x40 MLOAD DUP1 PUSH1 0x40 ADD PUSH1 0x40 MSTORE DUP1 PUSH1 0x1A DUP2 MSTORE PUSH1 0x20 ADD PUSH32 0x253343253246626F647925334525334325324668746D6C253345000000000000 DUP2 MSTORE POP DUP2 JUMP JUMPDEST PUSH1 0x60 DUP1 PUSH0 PUSH1 0x5 PUSH8 0xFFFFFFFFFFFFFFFF DUP2 GT ISZERO PUSH2 0x789 JUMPI PUSH2 0x788 PUSH2 0x2383 JUMP JUMPDEST JUMPDEST PUSH1 0x40 MLOAD SWAP1 DUP1 DUP3 MSTORE DUP1 PUSH1 0x20 MUL PUSH1 0x20 ADD DUP3 ADD PUSH1 0x40 MSTORE DUP1 ISZERO PUSH2 0x7C2 JUMPI DUP2 PUSH1 0x20 ADD JUMPDEST PUSH2 0x7AF PUSH2 0x21B5 JUMP JUMPDEST DUP2 MSTORE PUSH1 0x20 ADD SWAP1 PUSH1 0x1 SWAP1 SUB SWAP1 DUP2 PUSH2 0x7A7 JUMPI SWAP1 POP JUMPDEST POP SWAP1 POP PUSH1 0x40 MLOAD DUP1 PUSH2 0x180 ADD PUSH1 0x40 MSTORE DUP1 PUSH2 0x157 DUP2 MSTORE PUSH1 0x20 ADD PUSH2 0x3CF4 PUSH2 0x157 SWAP2 CODECOPY DUP2 PUSH0 DUP2 MLOAD DUP2 LT PUSH2 0x7F4 JUMPI PUSH2 0x7F3 PUSH2 0x2E18 JUMP JUMPDEST JUMPDEST PUSH1 0x20 MUL PUSH1 0x20 ADD ADD MLOAD PUSH1 0xC0 ADD DUP2 SWAP1 MSTORE POP PUSH1 0x40 MLOAD DUP1 PUSH2 0x2A0 ADD PUSH1 0x40 MSTORE DUP1 PUSH2 0x26B DUP2 MSTORE PUSH1 0x20 ADD PUSH2 0x3567 PUSH2 0x26B SWAP2 CODECOPY DUP2 PUSH1 0x1 DUP2 MLOAD DUP2 LT PUSH2 0x833 JUMPI PUSH2 0x832 PUSH2 0x2E18 JUMP JUMPDEST JUMPDEST PUSH1 0x20 MUL PUSH1 0x20 ADD ADD MLOAD PUSH1 0xC0 ADD DUP2 SWAP1 MSTORE POP PUSH2 0x84B DUP9 PUSH2 0x1A5F JUMP JUMPDEST DUP2 PUSH1 0x2 DUP2 MLOAD DUP2 LT PUSH2 0x85F JUMPI PUSH2 0x85E PUSH2 0x2E18 JUMP JUMPDEST JUMPDEST PUSH1 0x20 MUL PUSH1 0x20 ADD ADD MLOAD PUSH1 0xC0 ADD DUP2 SWAP1 MSTORE POP PUSH1 0x40 MLOAD DUP1 PUSH1 0x40 ADD PUSH1 0x40 MSTORE DUP1 PUSH1 0x9 DUP2 MSTORE PUSH1 0x20 ADD PUSH32 0x7D3C2F7374796C653E0000000000000000000000000000000000000000000000 DUP2 MSTORE POP DUP2 PUSH1 0x3 DUP2 MLOAD DUP2 LT PUSH2 0x8B8 JUMPI PUSH2 0x8B7 PUSH2 0x2E18 JUMP JUMPDEST JUMPDEST PUSH1 0x20 MUL PUSH1 0x20 ADD ADD MLOAD PUSH1 0xC0 ADD DUP2 SWAP1 MSTORE POP PUSH1 0x40 MLOAD DUP1 PUSH2 0x1C0 ADD PUSH1 0x40 MSTORE DUP1 PUSH2 0x18F DUP2 MSTORE PUSH1 0x20 ADD PUSH2 0x3E4B PUSH2 0x18F SWAP2 CODECOPY DUP2 PUSH1 0x4 DUP2 MLOAD DUP2 LT PUSH2 0x8F7 JUMPI PUSH2 0x8F6 PUSH2 0x2E18 JUMP JUMPDEST JUMPDEST PUSH1 0x20 MUL PUSH1 0x20 ADD ADD MLOAD PUSH1 0xC0 ADD DUP2 SWAP1 MSTORE POP PUSH0 PUSH1 0xE PUSH8 0xFFFFFFFFFFFFFFFF DUP2 GT ISZERO PUSH2 0x922 JUMPI PUSH2 0x921 PUSH2 0x2383 JUMP JUMPDEST JUMPDEST PUSH1 0x40 MLOAD SWAP1 DUP1 DUP3 MSTORE DUP1 PUSH1 0x20 MUL PUSH1 0x20 ADD DUP3 ADD PUSH1 0x40 MSTORE DUP1 ISZERO PUSH2 0x95B JUMPI DUP2 PUSH1 0x20 ADD JUMPDEST PUSH2 0x948 PUSH2 0x21B5 JUMP JUMPDEST DUP2 MSTORE PUSH1 0x20 ADD SWAP1 PUSH1 0x1 SWAP1 SUB SWAP1 DUP2 PUSH2 0x940 JUMPI SWAP1 POP JUMPDEST POP SWAP1 POP PUSH1 0x40 MLOAD DUP1 PUSH1 0x60 ADD PUSH1 0x40 MSTORE DUP1 PUSH1 0x23 DUP2 MSTORE PUSH1 0x20 ADD PUSH2 0x3817 PUSH1 0x23 SWAP2 CODECOPY DUP2 PUSH0 DUP2 MLOAD DUP2 LT PUSH2 0x98A JUMPI PUSH2 0x989 PUSH2 0x2E18 JUMP JUMPDEST JUMPDEST PUSH1 0x20 MUL PUSH1 0x20 ADD ADD MLOAD PUSH1 0xC0 ADD DUP2 SWAP1 MSTORE POP PUSH2 0x9A2 DUP10 PUSH2 0x1A5F JUMP JUMPDEST DUP2 PUSH1 0x1 DUP2 MLOAD DUP2 LT PUSH2 0x9B6 JUMPI PUSH2 0x9B5 PUSH2 0x2E18 JUMP JUMPDEST JUMPDEST PUSH1 0x20 MUL PUSH1 0x20 ADD ADD MLOAD PUSH1 0xC0 ADD DUP2 SWAP1 MSTORE POP PUSH1 0x40 MLOAD DUP1 PUSH1 0x40 ADD PUSH1 0x40 MSTORE DUP1 PUSH1 0xD DUP2 MSTORE PUSH1 0x20 ADD PUSH32 0x2220646174612D736565643D2200000000000000000000000000000000000000 DUP2 MSTORE POP DUP2 PUSH1 0x2 DUP2 MLOAD DUP2 LT PUSH2 0xA0F JUMPI PUSH2 0xA0E PUSH2 0x2E18 JUMP JUMPDEST JUMPDEST PUSH1 0x20 MUL PUSH1 0x20 ADD ADD MLOAD PUSH1 0xC0 ADD DUP2 SWAP1 MSTORE POP PUSH2 0xA2D DUP10 PUSH4 0xFFFFFFFF AND PUSH2 0x1CE5 JUMP JUMPDEST DUP2 PUSH1 0x3 DUP2 MLOAD DUP2 LT PUSH2 0xA41 JUMPI PUSH2 0xA40 PUSH2 0x2E18 JUMP JUMPDEST JUMPDEST PUSH1 0x20 MUL PUSH1 0x20 ADD ADD MLOAD PUSH1 0xC0 ADD DUP2 SWAP1 MSTORE POP PUSH1 0x40 MLOAD DUP1 PUSH1 0x80 ADD PUSH1 0x40 MSTORE DUP1 PUSH1 0x50 DUP2 MSTORE PUSH1 0x20 ADD PUSH2 0x4A68 PUSH1 0x50 SWAP2 CODECOPY DUP2 PUSH1 0x4 DUP2 MLOAD DUP2 LT PUSH2 0xA7D JUMPI PUSH2 0xA7C PUSH2 0x2E18 JUMP JUMPDEST JUMPDEST PUSH1 0x20 MUL PUSH1 0x20 ADD ADD MLOAD PUSH1 0xC0 ADD DUP2 SWAP1 MSTORE POP DUP5 DUP2 PUSH1 0x5 DUP2 MLOAD DUP2 LT PUSH2 0xAA1 JUMPI PUSH2 0xAA0 PUSH2 0x2E18 JUMP JUMPDEST JUMPDEST PUSH1 0x20 MUL PUSH1 0x20 ADD ADD MLOAD PUSH1 0xC0 ADD DUP2 SWAP1 MSTORE POP PUSH1 0x40 MLOAD DUP1 PUSH1 0xA0 ADD PUSH1 0x40 MSTORE DUP1 PUSH1 0x62 DUP2 MSTORE PUSH1 0x20 ADD PUSH2 0x34BC PUSH1 0x62 SWAP2 CODECOPY DUP2 PUSH1 0x6 DUP2 MLOAD DUP2 LT PUSH2 0xADD JUMPI PUSH2 0xADC PUSH2 0x2E18 JUMP JUMPDEST JUMPDEST PUSH1 0x20 MUL PUSH1 0x20 ADD ADD MLOAD PUSH1 0xC0 ADD DUP2 SWAP1 MSTORE POP PUSH2 0xAFA DUP7 PUSH3 0xFFFFFF AND PUSH2 0x1CE5 JUMP JUMPDEST DUP2 PUSH1 0x7 DUP2 MLOAD DUP2 LT PUSH2 0xB0E JUMPI PUSH2 0xB0D PUSH2 0x2E18 JUMP JUMPDEST JUMPDEST PUSH1 0x20 MUL PUSH1 0x20 ADD ADD MLOAD PUSH1 0xC0 ADD DUP2 SWAP1 MSTORE POP PUSH1 0x40 MLOAD DUP1 PUSH1 0x60 ADD PUSH1 0x40 MSTORE DUP1 PUSH1 0x31 DUP2 MSTORE PUSH1 0x20 ADD PUSH2 0x3FDA PUSH1 0x31 SWAP2 CODECOPY DUP2 PUSH1 0x8 DUP2 MLOAD DUP2 LT PUSH2 0xB4A JUMPI PUSH2 0xB49 PUSH2 0x2E18 JUMP JUMPDEST JUMPDEST PUSH1 0x20 MUL PUSH1 0x20 ADD ADD MLOAD PUSH1 0xC0 ADD DUP2 SWAP1 MSTORE POP PUSH2 0xB66 DUP9 PUSH2 0xFFFF AND PUSH2 0x1CE5 JUMP JUMPDEST DUP2 PUSH1 0x9 DUP2 MLOAD DUP2 LT PUSH2 0xB7A JUMPI PUSH2 0xB79 PUSH2 0x2E18 JUMP JUMPDEST JUMPDEST PUSH1 0x20 MUL PUSH1 0x20 ADD ADD MLOAD PUSH1 0xC0 ADD DUP2 SWAP1 MSTORE POP PUSH1 0x40 MLOAD DUP1 PUSH1 0x60 ADD PUSH1 0x40 MSTORE DUP1 PUSH1 0x39 DUP2 MSTORE PUSH1 0x20 ADD PUSH2 0x4AB8 PUSH1 0x39 SWAP2 CODECOPY DUP2 PUSH1 0xA DUP2 MLOAD DUP2 LT PUSH2 0xBB6 JUMPI PUSH2 0xBB5 PUSH2 0x2E18 JUMP JUMPDEST JUMPDEST PUSH1 0x20 MUL PUSH1 0x20 ADD ADD MLOAD PUSH1 0xC0 ADD DUP2 SWAP1 MSTORE POP PUSH2 0xBD2 DUP8 PUSH2 0xFFFF AND PUSH2 0x1CE5 JUMP JUMPDEST DUP2 PUSH1 0xB DUP2 MLOAD DUP2 LT PUSH2 0xBE6 JUMPI PUSH2 0xBE5 PUSH2 0x2E18 JUMP JUMPDEST JUMPDEST PUSH1 0x20 MUL PUSH1 0x20 ADD ADD MLOAD PUSH1 0xC0 ADD DUP2 SWAP1 MSTORE POP PUSH1 0x40 MLOAD DUP1 PUSH1 0x40 ADD PUSH1 0x40 MSTORE DUP1 PUSH1 0x1F DUP2 MSTORE PUSH1 0x20 ADD PUSH32 0x2070726F70733C2F6469763E3C2F6469763E3C2F6469763E3C2F6D61696E3E00 DUP2 MSTORE POP DUP2 PUSH1 0xC DUP2 MLOAD DUP2 LT PUSH2 0xC3F JUMPI PUSH2 0xC3E PUSH2 0x2E18 JUMP JUMPDEST JUMPDEST PUSH1 0x20 MUL PUSH1 0x20 ADD ADD MLOAD PUSH1 0xC0 ADD DUP2 SWAP1 MSTORE POP PUSH1 0x40 MLOAD DUP1 PUSH2 0xA40 ADD PUSH1 0x40 MSTORE DUP1 PUSH2 0xA19 DUP2 MSTORE PUSH1 0x20 ADD PUSH2 0x400B PUSH2 0xA19 SWAP2 CODECOPY DUP2 PUSH1 0xD DUP2 MLOAD DUP2 LT PUSH2 0xC7E JUMPI PUSH2 0xC7D PUSH2 0x2E18 JUMP JUMPDEST JUMPDEST PUSH1 0x20 MUL PUSH1 0x20 ADD ADD MLOAD PUSH1 0xC0 ADD DUP2 SWAP1 MSTORE POP DUP2 DUP2 SWAP4 POP SWAP4 POP POP POP SWAP6 POP SWAP6 SWAP4 POP POP POP POP JUMP JUMPDEST PUSH1 0x60 PUSH0 PUSH2 0xCAB DUP4 PUSH2 0x10B0 JUMP JUMPDEST SWAP1 POP PUSH0 PUSH2 0xCB8 DUP3 MLOAD PUSH2 0x108B JUMP JUMPDEST SWAP1 POP PUSH1 0x16 DUP2 ADD SWAP1 POP PUSH0 PUSH2 0xCCA DUP3 PUSH2 0x1D34 JUMP JUMPDEST SWAP1 POP PUSH2 0xD14 PUSH1 0x40 MLOAD DUP1 PUSH1 0x40 ADD PUSH1 0x40 MSTORE DUP1 PUSH1 0x16 DUP2 MSTORE PUSH1 0x20 ADD PUSH32 0x646174613A746578742F68746D6C3B6261736536342C00000000000000000000 DUP2 MSTORE POP DUP3 PUSH2 0x1D5D SWAP1 SWAP2 SWAP1 PUSH4 0xFFFFFFFF AND JUMP JUMPDEST PUSH2 0xD2B DUP4 PUSH0 DUP1 DUP5 PUSH2 0x1D76 SWAP1 SWAP4 SWAP3 SWAP2 SWAP1 PUSH4 0xFFFFFFFF AND JUMP JUMPDEST DUP1 SWAP4 POP POP POP POP SWAP2 SWAP1 POP JUMP JUMPDEST PUSH1 0xD DUP2 JUMP JUMPDEST PUSH1 0x45 DUP2 JUMP JUMPDEST PUSH1 0x40 MLOAD DUP1 PUSH1 0x40 ADD PUSH1 0x40 MSTORE DUP1 PUSH1 0x7 DUP2 MSTORE PUSH1 0x20 ADD PUSH32 0x3C2F686561643E00000000000000000000000000000000000000000000000000 DUP2 MSTORE POP DUP2 JUMP JUMPDEST PUSH1 0x60 PUSH0 DUP1 PUSH2 0xD8A DUP9 DUP9 DUP9 DUP9 DUP9 PUSH2 0x76A JUMP JUMPDEST SWAP2 POP SWAP2 POP PUSH1 0x40 MLOAD DUP1 PUSH2 0x280 ADD PUSH1 0x40 MSTORE DUP1 PUSH2 0x25D DUP2 MSTORE PUSH1 0x20 ADD PUSH2 0x394A PUSH2 0x25D SWAP2 CODECOPY DUP3 PUSH1 0x1 DUP2 MLOAD DUP2 LT PUSH2 0xDBE JUMPI PUSH2 0xDBD PUSH2 0x2E18 JUMP JUMPDEST JUMPDEST PUSH1 0x20 MUL PUSH1 0x20 ADD ADD MLOAD PUSH1 0xC0 ADD DUP2 SWAP1 MSTORE POP PUSH2 0xDD6 DUP9 PUSH2 0x1A5F JUMP JUMPDEST DUP3 PUSH1 0x2 DUP2 MLOAD DUP2 LT PUSH2 0xDEA JUMPI PUSH2 0xDE9 PUSH2 0x2E18 JUMP JUMPDEST JUMPDEST PUSH1 0x20 MUL PUSH1 0x20 ADD ADD MLOAD PUSH1 0xC0 ADD DUP2 SWAP1 MSTORE POP PUSH1 0x40 MLOAD DUP1 PUSH1 0x40 ADD PUSH1 0x40 MSTORE DUP1 PUSH1 0x9 DUP2 MSTORE PUSH1 0x20 ADD PUSH32 0x7D3C2F7374796C653E0000000000000000000000000000000000000000000000 DUP2 MSTORE POP DUP3 PUSH1 0x3 DUP2 MLOAD DUP2 LT PUSH2 0xE43 JUMPI PUSH2 0xE42 PUSH2 0x2E18 JUMP JUMPDEST JUMPDEST PUSH1 0x20 MUL PUSH1 0x20 ADD ADD MLOAD PUSH1 0xC0 ADD DUP2 SWAP1 MSTORE POP PUSH1 0x40 MLOAD DUP1 PUSH1 0x40 ADD PUSH1 0x40 MSTORE DUP1 PUSH1 0xF DUP2 MSTORE PUSH1 0x20 ADD PUSH32 0x3C7374796C653E3C2F7374796C653E0000000000000000000000000000000000 DUP2 MSTORE POP DUP3 PUSH1 0x4 DUP2 MLOAD DUP2 LT PUSH2 0xE9C JUMPI PUSH2 0xE9B PUSH2 0x2E18 JUMP JUMPDEST JUMPDEST PUSH1 0x20 MUL PUSH1 0x20 ADD ADD MLOAD PUSH1 0xC0 ADD DUP2 SWAP1 MSTORE POP PUSH1 0xD DUP2 MSTORE PUSH0 PUSH1 0x40 MLOAD DUP1 PUSH1 0x40 ADD PUSH1 0x40 MSTORE DUP1 DUP5 DUP2 MSTORE PUSH1 0x20 ADD DUP4 DUP2 MSTORE POP SWAP1 POP PUSH0 PUSH2 0xED1 DUP3 PUSH2 0x10B0 JUMP JUMPDEST SWAP1 POP PUSH0 PUSH1 0x40 MLOAD DUP1 PUSH1 0xC0 ADD PUSH1 0x40 MSTORE DUP1 PUSH1 0x93 DUP2 MSTORE PUSH1 0x20 ADD PUSH2 0x383A PUSH1 0x93 SWAP2 CODECOPY SWAP1 POP PUSH0 PUSH1 0x40 MLOAD DUP1 PUSH1 0x40 ADD PUSH1 0x40 MSTORE DUP1 PUSH1 0x1D DUP2 MSTORE PUSH1 0x20 ADD PUSH32 0x3C2F626F64793E3C2F666F726569676E4F626A6563743E3C2F7376673E000000 DUP2 MSTORE POP SWAP1 POP PUSH0 PUSH2 0xF4B DUP3 MLOAD DUP6 MLOAD DUP6 MLOAD PUSH2 0xF3C SWAP2 SWAP1 PUSH2 0x2E72 JUMP JUMPDEST PUSH2 0xF46 SWAP2 SWAP1 PUSH2 0x2E72 JUMP JUMPDEST PUSH2 0x1D34 JUMP JUMPDEST SWAP1 POP PUSH2 0xF57 DUP2 DUP5 PUSH2 0x1D5D JUMP JUMPDEST PUSH2 0xF61 DUP2 DUP6 PUSH2 0x1D5D JUMP JUMPDEST PUSH2 0xF6B DUP2 DUP4 PUSH2 0x1D5D JUMP JUMPDEST PUSH0 PUSH1 0x40 MLOAD DUP1 PUSH1 0x40 ADD PUSH1 0x40 MSTORE DUP1 PUSH1 0x1A DUP2 MSTORE PUSH1 0x20 ADD PUSH32 0x646174613A696D6167652F7376672B786D6C3B6261736536342C000000000000 DUP2 MSTORE POP SWAP1 POP PUSH0 PUSH2 0xFAF DUP4 MLOAD PUSH2 0x108B JUMP JUMPDEST SWAP1 POP DUP2 MLOAD DUP2 PUSH2 0xFBE SWAP2 SWAP1 PUSH2 0x2E72 JUMP JUMPDEST SWAP1 POP PUSH0 PUSH2 0xFCA DUP3 PUSH2 0x1D34 JUMP JUMPDEST SWAP1 POP PUSH2 0xFD6 DUP2 DUP5 PUSH2 0x1D5D JUMP JUMPDEST PUSH2 0xFE2 DUP2 DUP6 PUSH0 DUP1 PUSH2 0x1D76 JUMP JUMPDEST DUP1 SWAP11 POP POP POP POP POP POP POP POP POP POP POP SWAP6 SWAP5 POP POP POP POP POP JUMP JUMPDEST PUSH1 0x40 MLOAD DUP1 PUSH1 0x40 ADD PUSH1 0x40 MSTORE DUP1 PUSH1 0xA DUP2 MSTORE PUSH1 0x20 ADD PUSH32 0x2533436865616425334500000000000000000000000000000000000000000000 DUP2 MSTORE POP DUP2 JUMP JUMPDEST PUSH1 0x60 PUSH1 0x40 MLOAD DUP1 PUSH2 0x100 ADD PUSH1 0x40 MSTORE DUP1 PUSH1 0xD1 DUP2 MSTORE PUSH1 0x20 ADD PUSH2 0x3C23 PUSH1 0xD1 SWAP2 CODECOPY SWAP1 POP SWAP1 JUMP JUMPDEST PUSH1 0x40 MLOAD DUP1 PUSH1 0x40 ADD PUSH1 0x40 MSTORE DUP1 PUSH1 0xA DUP2 MSTORE PUSH1 0x20 ADD PUSH32 0x25334368746D6C25334500000000000000000000000000000000000000000000 DUP2 MSTORE POP DUP2 JUMP JUMPDEST PUSH0 PUSH1 0x3 PUSH1 0x2 DUP4 ADD DUP2 PUSH2 0x10A0 JUMPI PUSH2 0x109F PUSH2 0x2EA5 JUMP JUMPDEST JUMPDEST DIV PUSH1 0x4 MUL SWAP1 POP SWAP2 SWAP1 POP JUMP JUMPDEST PUSH1 0x16 DUP2 JUMP JUMPDEST PUSH1 0x60 PUSH0 DUP1 DUP4 PUSH0 ADD MLOAD MLOAD GT ISZERO PUSH2 0x10CF JUMPI PUSH2 0x10CC DUP4 PUSH0 ADD MLOAD PUSH0 PUSH2 0x1E9E JUMP JUMPDEST SWAP1 POP JUMPDEST PUSH0 DUP4 PUSH1 0x20 ADD MLOAD MLOAD GT ISZERO PUSH2 0x10EF JUMPI PUSH2 0x10EA DUP4 PUSH1 0x20 ADD MLOAD PUSH0 PUSH2 0x1E9E JUMP JUMPDEST DUP2 ADD SWAP1 POP JUMPDEST PUSH0 PUSH2 0x1101 PUSH2 0x10FC DUP4 PUSH2 0x2043 JUMP JUMPDEST PUSH2 0x1D34 JUMP JUMPDEST SWAP1 POP PUSH2 0x114B PUSH1 0x40 MLOAD DUP1 PUSH1 0x40 ADD PUSH1 0x40 MSTORE DUP1 PUSH1 0x6 DUP2 MSTORE PUSH1 0x20 ADD PUSH32 0x3C68746D6C3E0000000000000000000000000000000000000000000000000000 DUP2 MSTORE POP DUP3 PUSH2 0x1D5D SWAP1 SWAP2 SWAP1 PUSH4 0xFFFFFFFF AND JUMP JUMPDEST PUSH2 0x1193 PUSH1 0x40 MLOAD DUP1 PUSH1 0x40 ADD PUSH1 0x40 MSTORE DUP1 PUSH1 0x6 DUP2 MSTORE PUSH1 0x20 ADD PUSH32 0x3C686561643E0000000000000000000000000000000000000000000000000000 DUP2 MSTORE POP DUP3 PUSH2 0x1D5D SWAP1 SWAP2 SWAP1 PUSH4 0xFFFFFFFF AND JUMP JUMPDEST PUSH0 DUP5 PUSH0 ADD MLOAD MLOAD GT ISZERO PUSH2 0x11AE JUMPI PUSH2 0x11AD DUP2 DUP6 PUSH0 ADD MLOAD PUSH0 PUSH2 0x2052 JUMP JUMPDEST JUMPDEST PUSH2 0x11F6 PUSH1 0x40 MLOAD DUP1 PUSH1 0x40 ADD PUSH1 0x40 MSTORE DUP1 PUSH1 0x7 DUP2 MSTORE PUSH1 0x20 ADD PUSH32 0x3C2F686561643E00000000000000000000000000000000000000000000000000 DUP2 MSTORE POP DUP3 PUSH2 0x1D5D SWAP1 SWAP2 SWAP1 PUSH4 0xFFFFFFFF AND JUMP JUMPDEST PUSH2 0x123E PUSH1 0x40 MLOAD DUP1 PUSH1 0x40 ADD PUSH1 0x40 MSTORE DUP1 PUSH1 0x6 DUP2 MSTORE PUSH1 0x20 ADD PUSH32 0x3C626F64793E0000000000000000000000000000000000000000000000000000 DUP2 MSTORE POP DUP3 PUSH2 0x1D5D SWAP1 SWAP2 SWAP1 PUSH4 0xFFFFFFFF AND JUMP JUMPDEST PUSH0 DUP5 PUSH1 0x20 ADD MLOAD MLOAD GT ISZERO PUSH2 0x125B JUMPI PUSH2 0x125A DUP2 DUP6 PUSH1 0x20 ADD MLOAD PUSH0 PUSH2 0x2052 JUMP JUMPDEST JUMPDEST PUSH2 0x12A3 PUSH1 0x40 MLOAD DUP1 PUSH1 0x40 ADD PUSH1 0x40 MSTORE DUP1 PUSH1 0xE DUP2 MSTORE PUSH1 0x20 ADD PUSH32 0x3C2F626F64793E3C2F68746D6C3E000000000000000000000000000000000000 DUP2 MSTORE POP DUP3 PUSH2 0x1D5D SWAP1 SWAP2 SWAP1 PUSH4 0xFFFFFFFF AND JUMP JUMPDEST DUP1 SWAP3 POP POP POP SWAP2 SWAP1 POP JUMP JUMPDEST PUSH1 0x40 MLOAD DUP1 PUSH1 0x40 ADD PUSH1 0x40 MSTORE DUP1 PUSH1 0xA DUP2 MSTORE PUSH1 0x20 ADD PUSH32 0x253343626F647925334500000000000000000000000000000000000000000000 DUP2 MSTORE POP DUP2 JUMP JUMPDEST PUSH1 0x27 DUP2 JUMP JUMPDEST PUSH1 0x60 DUP1 PUSH1 0x1 PUSH1 0x4 DUP2 GT ISZERO PUSH2 0x1302 JUMPI PUSH2 0x1301 PUSH2 0x263C JUMP JUMPDEST JUMPDEST DUP4 PUSH1 0x60 ADD MLOAD PUSH1 0x4 DUP2 GT ISZERO PUSH2 0x1319 JUMPI PUSH2 0x1318 PUSH2 0x263C JUMP JUMPDEST JUMPDEST SUB PUSH2 0x1393 JUMPI PUSH1 0x40 MLOAD DUP1 PUSH1 0x40 ADD PUSH1 0x40 MSTORE DUP1 PUSH1 0x8 DUP2 MSTORE PUSH1 0x20 ADD PUSH32 0x3C7363726970743E000000000000000000000000000000000000000000000000 DUP2 MSTORE POP PUSH1 0x40 MLOAD DUP1 PUSH1 0x40 ADD PUSH1 0x40 MSTORE DUP1 PUSH1 0x9 DUP2 MSTORE PUSH1 0x20 ADD PUSH32 0x3C2F7363726970743E0000000000000000000000000000000000000000000000 DUP2 MSTORE POP SWAP2 POP SWAP2 POP PUSH2 0x1539 JUMP JUMPDEST PUSH1 0x2 PUSH1 0x4 DUP2 GT ISZERO PUSH2 0x13A7 JUMPI PUSH2 0x13A6 PUSH2 0x263C JUMP JUMPDEST JUMPDEST DUP4 PUSH1 0x60 ADD MLOAD PUSH1 0x4 DUP2 GT ISZERO PUSH2 0x13BE JUMPI PUSH2 0x13BD PUSH2 0x263C JUMP JUMPDEST JUMPDEST SUB PUSH2 0x141B JUMPI PUSH1 0x40 MLOAD DUP1 PUSH1 0x60 ADD PUSH1 0x40 MSTORE DUP1 PUSH1 0x29 DUP2 MSTORE PUSH1 0x20 ADD PUSH2 0x3493 PUSH1 0x29 SWAP2 CODECOPY PUSH1 0x40 MLOAD DUP1 PUSH1 0x40 ADD PUSH1 0x40 MSTORE DUP1 PUSH1 0xB DUP2 MSTORE PUSH1 0x20 ADD PUSH32 0x223E3C2F7363726970743E000000000000000000000000000000000000000000 DUP2 MSTORE POP SWAP2 POP SWAP2 POP PUSH2 0x1539 JUMP JUMPDEST PUSH1 0x3 PUSH1 0x4 DUP2 GT ISZERO PUSH2 0x142F JUMPI PUSH2 0x142E PUSH2 0x263C JUMP JUMPDEST JUMPDEST DUP4 PUSH1 0x60 ADD MLOAD PUSH1 0x4 DUP2 GT ISZERO PUSH2 0x1446 JUMPI PUSH2 0x1445 PUSH2 0x263C JUMP JUMPDEST JUMPDEST SUB PUSH2 0x14A3 JUMPI PUSH1 0x40 MLOAD DUP1 PUSH1 0x80 ADD PUSH1 0x40 MSTORE DUP1 PUSH1 0x45 DUP2 MSTORE PUSH1 0x20 ADD PUSH2 0x37D2 PUSH1 0x45 SWAP2 CODECOPY PUSH1 0x40 MLOAD DUP1 PUSH1 0x40 ADD PUSH1 0x40 MSTORE DUP1 PUSH1 0xB DUP2 MSTORE PUSH1 0x20 ADD PUSH32 0x223E3C2F7363726970743E000000000000000000000000000000000000000000 DUP2 MSTORE POP SWAP2 POP SWAP2 POP PUSH2 0x1539 JUMP JUMPDEST PUSH1 0x4 DUP1 DUP2 GT ISZERO PUSH2 0x14B6 JUMPI PUSH2 0x14B5 PUSH2 0x263C JUMP JUMPDEST JUMPDEST DUP4 PUSH1 0x60 ADD MLOAD PUSH1 0x4 DUP2 GT ISZERO PUSH2 0x14CD JUMPI PUSH2 0x14CC PUSH2 0x263C JUMP JUMPDEST JUMPDEST SUB PUSH2 0x152A JUMPI PUSH1 0x40 MLOAD DUP1 PUSH1 0x80 ADD PUSH1 0x40 MSTORE DUP1 PUSH1 0x44 DUP2 MSTORE PUSH1 0x20 ADD PUSH2 0x4A24 PUSH1 0x44 SWAP2 CODECOPY PUSH1 0x40 MLOAD DUP1 PUSH1 0x40 ADD PUSH1 0x40 MSTORE DUP1 PUSH1 0xB DUP2 MSTORE PUSH1 0x20 ADD PUSH32 0x223E3C2F7363726970743E000000000000000000000000000000000000000000 DUP2 MSTORE POP SWAP2 POP SWAP2 POP PUSH2 0x1539 JUMP JUMPDEST DUP3 PUSH1 0x80 ADD MLOAD DUP4 PUSH1 0xA0 ADD MLOAD SWAP2 POP SWAP2 POP JUMPDEST SWAP2 POP SWAP2 JUMP JUMPDEST PUSH1 0x60 PUSH2 0x1549 DUP3 PUSH2 0xC9F JUMP JUMPDEST SWAP1 POP SWAP2 SWAP1 POP JUMP JUMPDEST PUSH1 0x27 DUP2 JUMP JUMPDEST PUSH1 0xD DUP2 JUMP JUMPDEST PUSH1 0x40 MLOAD DUP1 PUSH1 0x40 ADD PUSH1 0x40 MSTORE DUP1 PUSH1 0x6 DUP2 MSTORE PUSH1 0x20 ADD PUSH32 0x3C68746D6C3E0000000000000000000000000000000000000000000000000000 DUP2 MSTORE POP DUP2 JUMP JUMPDEST PUSH1 0x17 DUP2 JUMP JUMPDEST PUSH1 0x5A DUP2 JUMP JUMPDEST PUSH1 0x17 DUP2 JUMP JUMPDEST PUSH1 0x40 MLOAD DUP1 PUSH1 0x40 ADD PUSH1 0x40 MSTORE DUP1 PUSH1 0x6 DUP2 MSTORE PUSH1 0x20 ADD PUSH32 0x3C686561643E0000000000000000000000000000000000000000000000000000 DUP2 MSTORE POP DUP2 JUMP JUMPDEST PUSH1 0x60 DUP1 PUSH1 0x1 PUSH1 0x4 DUP2 GT ISZERO PUSH2 0x15F2 JUMPI PUSH2 0x15F1 PUSH2 0x263C JUMP JUMPDEST JUMPDEST DUP4 PUSH1 0x60 ADD MLOAD PUSH1 0x4 DUP2 GT ISZERO PUSH2 0x1609 JUMPI PUSH2 0x1608 PUSH2 0x263C JUMP JUMPDEST JUMPDEST EQ DUP1 PUSH2 0x163D JUMPI POP PUSH1 0x2 PUSH1 0x4 DUP2 GT ISZERO PUSH2 0x1624 JUMPI PUSH2 0x1623 PUSH2 0x263C JUMP JUMPDEST JUMPDEST DUP4 PUSH1 0x60 ADD MLOAD PUSH1 0x4 DUP2 GT ISZERO PUSH2 0x163B JUMPI PUSH2 0x163A PUSH2 0x263C JUMP JUMPDEST JUMPDEST EQ JUMPDEST ISZERO PUSH2 0x169A JUMPI PUSH1 0x40 MLOAD DUP1 PUSH1 0x80 ADD PUSH1 0x40 MSTORE DUP1 PUSH1 0x49 DUP2 MSTORE PUSH1 0x20 ADD PUSH2 0x351E PUSH1 0x49 SWAP2 CODECOPY PUSH1 0x40 MLOAD DUP1 PUSH1 0x40 ADD PUSH1 0x40 MSTORE DUP1 PUSH1 0x1F DUP2 MSTORE PUSH1 0x20 ADD PUSH32 0x2532353232253235334525323533432532353246736372697074253235334500 DUP2 MSTORE POP SWAP2 POP SWAP2 POP PUSH2 0x17B8 JUMP JUMPDEST PUSH1 0x3 PUSH1 0x4 DUP2 GT ISZERO PUSH2 0x16AE JUMPI PUSH2 0x16AD PUSH2 0x263C JUMP JUMPDEST JUMPDEST DUP4 PUSH1 0x60 ADD MLOAD PUSH1 0x4 DUP2 GT ISZERO PUSH2 0x16C5 JUMPI PUSH2 0x16C4 PUSH2 0x263C JUMP JUMPDEST JUMPDEST SUB PUSH2 0x1722 JUMPI PUSH1 0x40 MLOAD DUP1 PUSH1 0xA0 ADD PUSH1 0x40 MSTORE DUP1 PUSH1 0x7D DUP2 MSTORE PUSH1 0x20 ADD PUSH2 0x38CD PUSH1 0x7D SWAP2 CODECOPY PUSH1 0x40 MLOAD DUP1 PUSH1 0x40 ADD PUSH1 0x40 MSTORE DUP1 PUSH1 0x1F DUP2 MSTORE PUSH1 0x20 ADD PUSH32 0x2532353232253235334525323533432532353246736372697074253235334500 DUP2 MSTORE POP SWAP2 POP SWAP2 POP PUSH2 0x17B8 JUMP JUMPDEST PUSH1 0x4 DUP1 DUP2 GT ISZERO PUSH2 0x1735 JUMPI PUSH2 0x1734 PUSH2 0x263C JUMP JUMPDEST JUMPDEST DUP4 PUSH1 0x60 ADD MLOAD PUSH1 0x4 DUP2 GT ISZERO PUSH2 0x174C JUMPI PUSH2 0x174B PUSH2 0x263C JUMP JUMPDEST JUMPDEST SUB PUSH2 0x17A9 JUMPI PUSH1 0x40 MLOAD DUP1 PUSH1 0xA0 ADD PUSH1 0x40 MSTORE DUP1 PUSH1 0x7C DUP2 MSTORE PUSH1 0x20 ADD PUSH2 0x3BA7 PUSH1 0x7C SWAP2 CODECOPY PUSH1 0x40 MLOAD DUP1 PUSH1 0x40 ADD PUSH1 0x40 MSTORE DUP1 PUSH1 0x1F DUP2 MSTORE PUSH1 0x20 ADD PUSH32 0x2532353232253235334525323533432532353246736372697074253235334500 DUP2 MSTORE POP SWAP2 POP SWAP2 POP PUSH2 0x17B8 JUMP JUMPDEST DUP3 PUSH1 0x80 ADD MLOAD DUP4 PUSH1 0xA0 ADD MLOAD SWAP2 POP SWAP2 POP JUMPDEST SWAP2 POP SWAP2 JUMP JUMPDEST PUSH1 0x60 PUSH0 DUP3 PUSH1 0xC0 ADD MLOAD MLOAD GT ISZERO PUSH2 0x17D8 JUMPI DUP2 PUSH1 0xC0 ADD MLOAD SWAP1 POP PUSH2 0x1863 JUMP JUMPDEST DUP2 PUSH1 0x20 ADD MLOAD PUSH20 0xFFFFFFFFFFFFFFFFFFFFFFFFFFFFFFFFFFFFFFFF AND PUSH4 0xF9635594 DUP4 PUSH0 ADD MLOAD DUP5 PUSH1 0x40 ADD MLOAD PUSH1 0x40 MLOAD DUP4 PUSH4 0xFFFFFFFF AND PUSH1 0xE0 SHL DUP2 MSTORE PUSH1 0x4 ADD PUSH2 0x181E SWAP3 SWAP2 SWAP1 PUSH2 0x2ED2 JUMP JUMPDEST PUSH0 PUSH1 0x40 MLOAD DUP1 DUP4 SUB DUP2 DUP7 GAS STATICCALL ISZERO DUP1 ISZERO PUSH2 0x1838 JUMPI RETURNDATASIZE PUSH0 DUP1 RETURNDATACOPY RETURNDATASIZE PUSH0 REVERT JUMPDEST POP POP POP POP PUSH1 0x40 MLOAD RETURNDATASIZE PUSH0 DUP3 RETURNDATACOPY RETURNDATASIZE PUSH1 0x1F NOT PUSH1 0x1F DUP3 ADD AND DUP3 ADD DUP1 PUSH1 0x40 MSTORE POP DUP2 ADD SWAP1 PUSH2 0x1860 SWAP2 SWAP1 PUSH2 0x2F75 JUMP JUMPDEST SWAP1 POP JUMPDEST SWAP2 SWAP1 POP JUMP JUMPDEST PUSH1 0x40 MLOAD DUP1 PUSH1 0x40 ADD PUSH1 0x40 MSTORE DUP1 PUSH1 0x6 DUP2 MSTORE PUSH1 0x20 ADD PUSH32 0x3C626F64793E0000000000000000000000000000000000000000000000000000 DUP2 MSTORE POP DUP2 JUMP JUMPDEST PUSH1 0xD DUP2 JUMP JUMPDEST PUSH1 0x60 PUSH0 DUP1 PUSH2 0x18B7 DUP9 DUP9 DUP9 DUP9 DUP9 PUSH2 0x76A JUMP JUMPDEST SWAP2 POP SWAP2 POP PUSH2 0x18D8 PUSH1 0x40 MLOAD DUP1 PUSH1 0x40 ADD PUSH1 0x40 MSTORE DUP1 DUP5 DUP2 MSTORE PUSH1 0x20 ADD DUP4 DUP2 MSTORE POP PUSH2 0xC9F JUMP JUMPDEST SWAP3 POP POP POP SWAP6 SWAP5 POP POP POP POP POP JUMP JUMPDEST PUSH1 0x60 PUSH2 0x18F0 DUP3 PUSH2 0x10B0 JUMP JUMPDEST SWAP1 POP SWAP2 SWAP1 POP JUMP JUMPDEST PUSH1 0x40 MLOAD DUP1 PUSH1 0x40 ADD PUSH1 0x40 MSTORE DUP1 PUSH1 0x15 DUP2 MSTORE PUSH1 0x20 ADD PUSH32 0x646174612533417465787425324668746D6C2532430000000000000000000000 DUP2 MSTORE POP DUP2 JUMP JUMPDEST PUSH1 0x40 MLOAD DUP1 PUSH1 0x40 ADD PUSH1 0x40 MSTORE DUP1 PUSH1 0xD DUP2 MSTORE PUSH1 0x20 ADD PUSH32 0x2533432532466865616425334500000000000000000000000000000000000000 DUP2 MSTORE POP DUP2 JUMP JUMPDEST PUSH1 0x60 PUSH2 0x1978 DUP8 DUP7 DUP7 DUP7 DUP7 PUSH2 0x18A6 JUMP JUMPDEST PUSH2 0x1985 DUP9 DUP8 DUP8 DUP8 DUP8 PUSH2 0xD79 JUMP JUMPDEST PUSH2 0x198E DUP9 PUSH2 0x1CE5 JUMP JUMPDEST PUSH2 0x199B DUP9 PUSH2 0xFFFF AND PUSH2 0x1CE5 JUMP JUMPDEST PUSH2 0x19A8 DUP9 PUSH2 0xFFFF AND PUSH2 0x1CE5 JUMP JUMPDEST DUP7 PUSH2 0x19B7 DUP10 PUSH3 0xFFFFFF AND PUSH2 0x1CE5 JUMP JUMPDEST PUSH1 0x40 MLOAD PUSH1 0x20 ADD PUSH2 0x19CD SWAP8 SWAP7 SWAP6 SWAP5 SWAP4 SWAP3 SWAP2 SWAP1 PUSH2 0x3318 JUMP JUMPDEST PUSH1 0x40 MLOAD PUSH1 0x20 DUP2 DUP4 SUB SUB DUP2 MSTORE SWAP1 PUSH1 0x40 MSTORE SWAP1 POP SWAP7 SWAP6 POP POP POP POP POP POP JUMP JUMPDEST PUSH1 0x40 MLOAD DUP1 PUSH1 0x40 ADD PUSH1 0x40 MSTORE DUP1 PUSH1 0xE DUP2 MSTORE PUSH1 0x20 ADD PUSH32 0x3C2F626F64793E3C2F68746D6C3E000000000000000000000000000000000000 DUP2 MSTORE POP DUP2 JUMP JUMPDEST PUSH1 0x17 DUP2 JUMP JUMPDEST PUSH1 0x40 MLOAD DUP1 PUSH1 0x40 ADD PUSH1 0x40 MSTORE DUP1 PUSH1 0x16 DUP2 MSTORE PUSH1 0x20 ADD PUSH32 0x646174613A746578742F68746D6C3B6261736536342C00000000000000000000 DUP2 MSTORE POP DUP2 JUMP JUMPDEST PUSH1 0x60 PUSH0 PUSH1 0x6 PUSH8 0xFFFFFFFFFFFFFFFF DUP2 GT ISZERO PUSH2 0x1A7D JUMPI PUSH2 0x1A7C PUSH2 0x2383 JUMP JUMPDEST JUMPDEST PUSH1 0x40 MLOAD SWAP1 DUP1 DUP3 MSTORE DUP1 PUSH1 0x20 MUL PUSH1 0x20 ADD DUP3 ADD PUSH1 0x40 MSTORE DUP1 ISZERO PUSH2 0x1AB0 JUMPI DUP2 PUSH1 0x20 ADD JUMPDEST PUSH1 0x60 DUP2 MSTORE PUSH1 0x20 ADD SWAP1 PUSH1 0x1 SWAP1 SUB SWAP1 DUP2 PUSH2 0x1A9B JUMPI SWAP1 POP JUMPDEST POP SWAP1 POP PUSH1 0x40 MLOAD DUP1 PUSH1 0x40 ADD PUSH1 0x40 MSTORE DUP1 PUSH1 0x7 DUP2 MSTORE PUSH1 0x20 ADD PUSH32 0x2344353343354500000000000000000000000000000000000000000000000000 DUP2 MSTORE POP DUP2 PUSH0 DUP2 MLOAD DUP2 LT PUSH2 0x1AFC JUMPI PUSH2 0x1AFB PUSH2 0x2E18 JUMP JUMPDEST JUMPDEST PUSH1 0x20 MUL PUSH1 0x20 ADD ADD DUP2 SWAP1 MSTORE POP PUSH1 0x40 MLOAD DUP1 PUSH1 0x40 ADD PUSH1 0x40 MSTORE DUP1 PUSH1 0x7 DUP2 MSTORE PUSH1 0x20 ADD PUSH32 0x2335393837464600000000000000000000000000000000000000000000000000 DUP2 MSTORE POP DUP2 PUSH1 0x1 DUP2 MLOAD DUP2 LT PUSH2 0x1B51 JUMPI PUSH2 0x1B50 PUSH2 0x2E18 JUMP JUMPDEST JUMPDEST PUSH1 0x20 MUL PUSH1 0x20 ADD ADD DUP2 SWAP1 MSTORE POP PUSH1 0x40 MLOAD DUP1 PUSH1 0x40 ADD PUSH1 0x40 MSTORE DUP1 PUSH1 0x7 DUP2 MSTORE PUSH1 0x20 ADD PUSH32 0x2344433545374100000000000000000000000000000000000000000000000000 DUP2 MSTORE POP DUP2 PUSH1 0x2 DUP2 MLOAD DUP2 LT PUSH2 0x1BA6 JUMPI PUSH2 0x1BA5 PUSH2 0x2E18 JUMP JUMPDEST JUMPDEST PUSH1 0x20 MUL PUSH1 0x20 ADD ADD DUP2 SWAP1 MSTORE POP PUSH1 0x40 MLOAD DUP1 PUSH1 0x40 ADD PUSH1 0x40 MSTORE DUP1 PUSH1 0x7 DUP2 MSTORE PUSH1 0x20 ADD PUSH32 0x2331343236453100000000000000000000000000000000000000000000000000 DUP2 MSTORE POP DUP2 PUSH1 0x3 DUP2 MLOAD DUP2 LT PUSH2 0x1BFB JUMPI PUSH2 0x1BFA PUSH2 0x2E18 JUMP JUMPDEST JUMPDEST PUSH1 0x20 MUL PUSH1 0x20 ADD ADD DUP2 SWAP1 MSTORE POP PUSH1 0x40 MLOAD DUP1 PUSH1 0x40 ADD PUSH1 0x40 MSTORE DUP1 PUSH1 0x7 DUP2 MSTORE PUSH1 0x20 ADD PUSH32 0x2331423338463500000000000000000000000000000000000000000000000000 DUP2 MSTORE POP DUP2 PUSH1 0x4 DUP2 MLOAD DUP2 LT PUSH2 0x1C50 JUMPI PUSH2 0x1C4F PUSH2 0x2E18 JUMP JUMPDEST JUMPDEST PUSH1 0x20 MUL PUSH1 0x20 ADD ADD DUP2 SWAP1 MSTORE POP PUSH1 0x40 MLOAD DUP1 PUSH1 0x40 ADD PUSH1 0x40 MSTORE DUP1 PUSH1 0x7 DUP2 MSTORE PUSH1 0x20 ADD PUSH32 0x2345333746393500000000000000000000000000000000000000000000000000 DUP2 MSTORE POP DUP2 PUSH1 0x5 DUP2 MLOAD DUP2 LT PUSH2 0x1CA5 JUMPI PUSH2 0x1CA4 PUSH2 0x2E18 JUMP JUMPDEST JUMPDEST PUSH1 0x20 MUL PUSH1 0x20 ADD ADD DUP2 SWAP1 MSTORE POP DUP1 PUSH1 0x6 DUP5 PUSH2 0x1CBE SWAP2 SWAP1 PUSH2 0x33D4 JUMP JUMPDEST PUSH4 0xFFFFFFFF AND DUP2 MLOAD DUP2 LT PUSH2 0x1CD5 JUMPI PUSH2 0x1CD4 PUSH2 0x2E18 JUMP JUMPDEST JUMPDEST PUSH1 0x20 MUL PUSH1 0x20 ADD ADD MLOAD SWAP2 POP POP SWAP2 SWAP1 POP JUMP JUMPDEST PUSH1 0x60 PUSH1 0x80 PUSH1 0x40 MLOAD ADD SWAP1 POP PUSH1 0x20 DUP2 ADD PUSH1 0x40 MSTORE PUSH0 DUP2 MSTORE DUP1 PUSH0 NOT DUP4 JUMPDEST PUSH1 0x1 ISZERO PUSH2 0x1D1F JUMPI DUP2 DUP5 ADD SWAP4 POP PUSH1 0xA DUP2 MOD PUSH1 0x30 ADD DUP5 MSTORE8 PUSH1 0xA DUP2 DIV SWAP1 POP DUP1 PUSH2 0x1CFE JUMPI JUMPDEST POP DUP3 DUP3 SUB PUSH1 0x20 DUP5 SUB SWAP4 POP DUP1 DUP5 MSTORE POP POP POP SWAP2 SWAP1 POP JUMP JUMPDEST PUSH1 0x60 PUSH1 0x40 MLOAD PUSH1 0x60 DUP4 ADD DUP1 DUP3 ADD DUP1 PUSH1 0x40 MSTORE POP POP PUSH1 0x40 DUP4 ADD DUP1 DUP3 MSTORE POP PUSH1 0x20 DUP2 ADD SWAP2 POP PUSH0 DUP3 MSTORE POP SWAP2 SWAP1 POP JUMP JUMPDEST PUSH2 0x1D68 DUP3 DUP3 MLOAD PUSH2 0x208D JUMP JUMPDEST PUSH2 0x1D72 DUP3 DUP3 PUSH2 0x20F2 JUMP JUMPDEST POP POP JUMP JUMPDEST PUSH0 DUP4 MLOAD SWAP1 POP PUSH0 DUP5 MLOAD SUB PUSH2 0x1D89 JUMPI POP PUSH2 0x1E98 JUMP JUMPDEST PUSH0 DUP1 PUSH1 0x3 PUSH1 0x2 DUP5 ADD DIV PUSH1 0x2 SHL SWAP2 POP PUSH1 0x3 DUP4 MOD SWAP1 POP DUP4 ISZERO PUSH2 0x1DB0 JUMPI PUSH1 0x1 DUP2 EQ DUP2 ISZERO ISZERO ADD DUP3 SUB SWAP2 POP JUMPDEST PUSH2 0x1DBA DUP8 DUP4 PUSH2 0x208D JUMP JUMPDEST PUSH1 0x40 MLOAD PUSH32 0x4142434445464748494A4B4C4D4E4F505152535455565758595A616263646566 PUSH1 0x1F MSTORE PUSH2 0x230 DUP7 ISZERO MUL PUSH32 0x6768696A6B6C6D6E6F707172737475767778797A303132333435363738392D5F SUB PUSH1 0x3F MSTORE DUP8 MLOAD PUSH1 0x20 DUP10 ADD ADD DUP5 DUP9 ADD JUMPDEST PUSH1 0x1 ISZERO PUSH2 0x1E6D JUMPI PUSH1 0x3 DUP10 ADD SWAP9 POP DUP9 MLOAD PUSH1 0x3F DUP2 PUSH1 0x12 SHR AND MLOAD DUP4 MSTORE8 PUSH1 0x3F DUP2 PUSH1 0xC SHR AND MLOAD PUSH1 0x1 DUP5 ADD MSTORE8 PUSH1 0x3F DUP2 PUSH1 0x6 SHR AND MLOAD PUSH1 0x2 DUP5 ADD MSTORE8 PUSH1 0x3F DUP2 AND MLOAD PUSH1 0x3 DUP5 ADD MSTORE8 PUSH1 0x4 DUP4 ADD SWAP3 POP DUP2 DUP11 LT PUSH2 0x1E67 JUMPI POP PUSH2 0x1E6D JUMP JUMPDEST POP PUSH2 0x1E17 JUMP JUMPDEST DUP7 PUSH2 0x1E87 JUMPI PUSH1 0x3D DUP5 ISZERO ISZERO DUP4 SUB MSTORE8 PUSH1 0x3D PUSH1 0x1 DUP6 EQ PUSH1 0x1 SHL DUP4 SUB MSTORE8 JUMPDEST DUP5 DUP11 MLOAD ADD DUP11 MSTORE DUP3 PUSH1 0x40 MSTORE POP POP POP POP POP POP JUMPDEST POP POP POP POP JUMP JUMPDEST PUSH0 DUP1 DUP4 MLOAD SUB PUSH2 0x1EAF JUMPI PUSH0 SWAP1 POP PUSH2 0x203D JUMP JUMPDEST PUSH1 0x60 DUP1 PUSH1 0x60 PUSH0 DUP1 DUP8 MLOAD SWAP1 POP PUSH0 JUMPDEST PUSH2 0x1EDF DUP10 DUP3 DUP2 MLOAD DUP2 LT PUSH2 0x1ED2 JUMPI PUSH2 0x1ED1 PUSH2 0x2E18 JUMP JUMPDEST JUMPDEST PUSH1 0x20 MUL PUSH1 0x20 ADD ADD MLOAD PUSH2 0x17BD JUMP JUMPDEST SWAP4 POP DUP4 DUP10 DUP3 DUP2 MLOAD DUP2 LT PUSH2 0x1EF5 JUMPI PUSH2 0x1EF4 PUSH2 0x2E18 JUMP JUMPDEST JUMPDEST PUSH1 0x20 MUL PUSH1 0x20 ADD ADD MLOAD PUSH1 0xC0 ADD DUP2 SWAP1 MSTORE POP DUP8 DUP1 ISZERO PUSH2 0x1F53 JUMPI POP PUSH1 0x1 PUSH1 0x4 DUP2 GT ISZERO PUSH2 0x1F20 JUMPI PUSH2 0x1F1F PUSH2 0x263C JUMP JUMPDEST JUMPDEST DUP10 DUP3 DUP2 MLOAD DUP2 LT PUSH2 0x1F33 JUMPI PUSH2 0x1F32 PUSH2 0x2E18 JUMP JUMPDEST JUMPDEST PUSH1 0x20 MUL PUSH1 0x20 ADD ADD MLOAD PUSH1 0x60 ADD MLOAD PUSH1 0x4 DUP2 GT ISZERO PUSH2 0x1F51 JUMPI PUSH2 0x1F50 PUSH2 0x263C JUMP JUMPDEST JUMPDEST EQ JUMPDEST ISZERO PUSH2 0x1F6B JUMPI PUSH2 0x1F62 DUP5 MLOAD PUSH2 0x108B JUMP JUMPDEST DUP4 ADD SWAP3 POP PUSH2 0x1F72 JUMP JUMPDEST DUP4 MLOAD DUP4 ADD SWAP3 POP JUMPDEST DUP8 ISZERO PUSH2 0x1FA8 JUMPI PUSH2 0x1F9B DUP10 DUP3 DUP2 MLOAD DUP2 LT PUSH2 0x1F8E JUMPI PUSH2 0x1F8D PUSH2 0x2E18 JUMP JUMPDEST JUMPDEST PUSH1 0x20 MUL PUSH1 0x20 ADD ADD MLOAD PUSH2 0x15DB JUMP JUMPDEST DUP1 SWAP7 POP DUP2 SWAP8 POP POP POP PUSH2 0x1FD4 JUMP JUMPDEST PUSH2 0x1FCB DUP10 DUP3 DUP2 MLOAD DUP2 LT PUSH2 0x1FBE JUMPI PUSH2 0x1FBD PUSH2 0x2E18 JUMP JUMPDEST JUMPDEST PUSH1 0x20 MUL PUSH1 0x20 ADD ADD MLOAD PUSH2 0x12EB JUMP JUMPDEST DUP1 SWAP7 POP DUP2 SWAP8 POP POP POP JUMPDEST DUP6 DUP10 DUP3 DUP2 MLOAD DUP2 LT PUSH2 0x1FE8 JUMPI PUSH2 0x1FE7 PUSH2 0x2E18 JUMP JUMPDEST JUMPDEST PUSH1 0x20 MUL PUSH1 0x20 ADD ADD MLOAD PUSH1 0x80 ADD DUP2 SWAP1 MSTORE POP DUP5 DUP10 DUP3 DUP2 MLOAD DUP2 LT PUSH2 0x200B JUMPI PUSH2 0x200A PUSH2 0x2E18 JUMP JUMPDEST JUMPDEST PUSH1 0x20 MUL PUSH1 0x20 ADD ADD MLOAD PUSH1 0xA0 ADD DUP2 SWAP1 MSTORE POP DUP6 MLOAD DUP4 ADD SWAP3 POP DUP5 MLOAD DUP4 ADD SWAP3 POP DUP2 DUP2 PUSH1 0x1 ADD SWAP2 POP DUP2 LT PUSH2 0x1EBC JUMPI DUP3 SWAP7 POP POP POP POP POP POP POP JUMPDEST SWAP3 SWAP2 POP POP JUMP JUMPDEST PUSH0 PUSH1 0x27 SWAP1 POP DUP2 DUP2 ADD SWAP1 POP SWAP2 SWAP1 POP JUMP JUMPDEST PUSH0 JUMPDEST PUSH2 0x2079 DUP5 DUP5 DUP4 DUP2 MLOAD DUP2 LT PUSH2 0x206B JUMPI PUSH2 0x206A PUSH2 0x2E18 JUMP JUMPDEST JUMPDEST PUSH1 0x20 MUL PUSH1 0x20 ADD ADD MLOAD DUP5 PUSH2 0x212F JUMP JUMPDEST DUP3 MLOAD DUP2 PUSH1 0x1 ADD SWAP2 POP DUP2 LT PUSH2 0x2054 JUMPI POP POP POP POP JUMP JUMPDEST PUSH0 PUSH2 0x2097 DUP4 PUSH2 0x21A0 JUMP JUMPDEST SWAP1 POP PUSH0 DUP3 DUP5 MLOAD PUSH2 0x20A7 SWAP2 SWAP1 PUSH2 0x2E72 JUMP JUMPDEST SWAP1 POP DUP1 DUP3 LT ISZERO PUSH2 0x20EC JUMPI PUSH1 0x40 MLOAD PUSH32 0x8C379A000000000000000000000000000000000000000000000000000000000 DUP2 MSTORE PUSH1 0x4 ADD PUSH2 0x20E3 SWAP1 PUSH2 0x3474 JUMP JUMPDEST PUSH1 0x40 MLOAD DUP1 SWAP2 SUB SWAP1 REVERT JUMPDEST POP POP POP POP JUMP JUMPDEST DUP1 MLOAD PUSH1 0x20 DUP3 ADD SWAP2 POP DUP1 DUP3 ADD PUSH1 0x20 DUP5 MLOAD ADD DUP5 ADD JUMPDEST DUP2 DUP5 LT ISZERO PUSH2 0x2122 JUMPI DUP4 MLOAD DUP2 MSTORE PUSH1 0x20 DUP5 ADD SWAP4 POP PUSH1 0x20 DUP2 ADD SWAP1 POP PUSH2 0x2105 JUMP JUMPDEST POP POP DUP1 DUP4 MLOAD ADD DUP4 MSTORE POP POP POP JUMP JUMPDEST PUSH2 0x2146 DUP3 PUSH1 0x80 ADD MLOAD DUP5 PUSH2 0x1D5D SWAP1 SWAP2 SWAP1 PUSH4 0xFFFFFFFF AND JUMP JUMPDEST DUP1 ISZERO PUSH2 0x216C JUMPI PUSH2 0x2167 DUP3 PUSH1 0xC0 ADD MLOAD PUSH0 DUP1 DUP7 PUSH2 0x1D76 SWAP1 SWAP4 SWAP3 SWAP2 SWAP1 PUSH4 0xFFFFFFFF AND JUMP JUMPDEST PUSH2 0x2184 JUMP JUMPDEST PUSH2 0x2183 DUP3 PUSH1 0xC0 ADD MLOAD DUP5 PUSH2 0x1D5D SWAP1 SWAP2 SWAP1 PUSH4 0xFFFFFFFF AND JUMP JUMPDEST JUMPDEST PUSH2 0x219B DUP3 PUSH1 0xA0 ADD MLOAD DUP5 PUSH2 0x1D5D SWAP1 SWAP2 SWAP1 PUSH4 0xFFFFFFFF AND JUMP JUMPDEST POP POP POP JUMP JUMPDEST PUSH0 DUP1 PUSH1 0x40 PUSH1 0x20 DUP5 SUB MLOAD SUB SWAP1 POP DUP1 SWAP2 POP POP SWAP2 SWAP1 POP JUMP JUMPDEST PUSH1 0x40 MLOAD DUP1 PUSH1 0xE0 ADD PUSH1 0x40 MSTORE DUP1 PUSH1 0x60 DUP2 MSTORE PUSH1 0x20 ADD PUSH0 PUSH20 0xFFFFFFFFFFFFFFFFFFFFFFFFFFFFFFFFFFFFFFFF AND DUP2 MSTORE PUSH1 0x20 ADD PUSH1 0x60 DUP2 MSTORE PUSH1 0x20 ADD PUSH0 PUSH1 0x4 DUP2 GT ISZERO PUSH2 0x21FD JUMPI PUSH2 0x21FC PUSH2 0x263C JUMP JUMPDEST JUMPDEST DUP2 MSTORE PUSH1 0x20 ADD PUSH1 0x60 DUP2 MSTORE PUSH1 0x20 ADD PUSH1 0x60 DUP2 MSTORE PUSH1 0x20 ADD PUSH1 0x60 DUP2 MSTORE POP SWAP1 JUMP JUMPDEST PUSH0 DUP2 MLOAD SWAP1 POP SWAP2 SWAP1 POP JUMP JUMPDEST PUSH0 DUP3 DUP3 MSTORE PUSH1 0x20 DUP3 ADD SWAP1 POP SWAP3 SWAP2 POP POP JUMP JUMPDEST PUSH0 JUMPDEST DUP4 DUP2 LT ISZERO PUSH2 0x224F JUMPI DUP1 DUP3 ADD MLOAD DUP2 DUP5 ADD MSTORE PUSH1 0x20 DUP2 ADD SWAP1 POP PUSH2 0x2234 JUMP JUMPDEST PUSH0 DUP5 DUP5 ADD MSTORE POP POP POP POP JUMP JUMPDEST PUSH0 PUSH1 0x1F NOT PUSH1 0x1F DUP4 ADD AND SWAP1 POP SWAP2 SWAP1 POP JUMP JUMPDEST PUSH0 PUSH2 0x2274 DUP3 PUSH2 0x2218 JUMP JUMPDEST PUSH2 0x227E DUP2 DUP6 PUSH2 0x2222 JUMP JUMPDEST SWAP4 POP PUSH2 0x228E DUP2 DUP6 PUSH1 0x20 DUP7 ADD PUSH2 0x2232 JUMP JUMPDEST PUSH2 0x2297 DUP2 PUSH2 0x225A JUMP JUMPDEST DUP5 ADD SWAP2 POP POP SWAP3 SWAP2 POP POP JUMP JUMPDEST PUSH0 PUSH1 0x20 DUP3 ADD SWAP1 POP DUP2 DUP2 SUB PUSH0 DUP4 ADD MSTORE PUSH2 0x22BA DUP2 DUP5 PUSH2 0x226A JUMP JUMPDEST SWAP1 POP SWAP3 SWAP2 POP POP JUMP JUMPDEST PUSH0 PUSH1 0x40 MLOAD SWAP1 POP SWAP1 JUMP JUMPDEST PUSH0 DUP1 REVERT JUMPDEST PUSH0 DUP1 REVERT JUMPDEST PUSH0 PUSH4 0xFFFFFFFF DUP3 AND SWAP1 POP SWAP2 SWAP1 POP JUMP JUMPDEST PUSH2 0x22EB DUP2 PUSH2 0x22D3 JUMP JUMPDEST DUP2 EQ PUSH2 0x22F5 JUMPI PUSH0 DUP1 REVERT JUMPDEST POP JUMP JUMPDEST PUSH0 DUP2 CALLDATALOAD SWAP1 POP PUSH2 0x2306 DUP2 PUSH2 0x22E2 JUMP JUMPDEST SWAP3 SWAP2 POP POP JUMP JUMPDEST PUSH0 PUSH2 0xFFFF DUP3 AND SWAP1 POP SWAP2 SWAP1 POP JUMP JUMPDEST PUSH2 0x2322 DUP2 PUSH2 0x230C JUMP JUMPDEST DUP2 EQ PUSH2 0x232C JUMPI PUSH0 DUP1 REVERT JUMPDEST POP JUMP JUMPDEST PUSH0 DUP2 CALLDATALOAD SWAP1 POP PUSH2 0x233D DUP2 PUSH2 0x2319 JUMP JUMPDEST SWAP3 SWAP2 POP POP JUMP JUMPDEST PUSH0 PUSH3 0xFFFFFF DUP3 AND SWAP1 POP SWAP2 SWAP1 POP JUMP JUMPDEST PUSH2 0x235A DUP2 PUSH2 0x2343 JUMP JUMPDEST DUP2 EQ PUSH2 0x2364 JUMPI PUSH0 DUP1 REVERT JUMPDEST POP JUMP JUMPDEST PUSH0 DUP2 CALLDATALOAD SWAP1 POP PUSH2 0x2375 DUP2 PUSH2 0x2351 JUMP JUMPDEST SWAP3 SWAP2 POP POP JUMP JUMPDEST PUSH0 DUP1 REVERT JUMPDEST PUSH0 DUP1 REVERT JUMPDEST PUSH32 0x4E487B7100000000000000000000000000000000000000000000000000000000 PUSH0 MSTORE PUSH1 0x41 PUSH1 0x4 MSTORE PUSH1 0x24 PUSH0 REVERT JUMPDEST PUSH2 0x23B9 DUP3 PUSH2 0x225A JUMP JUMPDEST DUP2 ADD DUP2 DUP2 LT PUSH8 0xFFFFFFFFFFFFFFFF DUP3 GT OR ISZERO PUSH2 0x23D8 JUMPI PUSH2 0x23D7 PUSH2 0x2383 JUMP JUMPDEST JUMPDEST DUP1 PUSH1 0x40 MSTORE POP POP POP JUMP JUMPDEST PUSH0 PUSH2 0x23EA PUSH2 0x22C2 JUMP JUMPDEST SWAP1 POP PUSH2 0x23F6 DUP3 DUP3 PUSH2 0x23B0 JUMP JUMPDEST SWAP2 SWAP1 POP JUMP JUMPDEST PUSH0 PUSH8 0xFFFFFFFFFFFFFFFF DUP3 GT ISZERO PUSH2 0x2415 JUMPI PUSH2 0x2414 PUSH2 0x2383 JUMP JUMPDEST JUMPDEST PUSH2 0x241E DUP3 PUSH2 0x225A JUMP JUMPDEST SWAP1 POP PUSH1 0x20 DUP2 ADD SWAP1 POP SWAP2 SWAP1 POP JUMP JUMPDEST DUP3 DUP2 DUP4 CALLDATACOPY PUSH0 DUP4 DUP4 ADD MSTORE POP POP POP JUMP JUMPDEST PUSH0 PUSH2 0x244B PUSH2 0x2446 DUP5 PUSH2 0x23FB JUMP JUMPDEST PUSH2 0x23E1 JUMP JUMPDEST SWAP1 POP DUP3 DUP2 MSTORE PUSH1 0x20 DUP2 ADD DUP5 DUP5 DUP5 ADD GT ISZERO PUSH2 0x2467 JUMPI PUSH2 0x2466 PUSH2 0x237F JUMP JUMPDEST JUMPDEST PUSH2 0x2472 DUP5 DUP3 DUP6 PUSH2 0x242B JUMP JUMPDEST POP SWAP4 SWAP3 POP POP POP JUMP JUMPDEST PUSH0 DUP3 PUSH1 0x1F DUP4 ADD SLT PUSH2 0x248E JUMPI PUSH2 0x248D PUSH2 0x237B JUMP JUMPDEST JUMPDEST DUP2 CALLDATALOAD PUSH2 0x249E DUP5 DUP3 PUSH1 0x20 DUP7 ADD PUSH2 0x2439 JUMP JUMPDEST SWAP2 POP POP SWAP3 SWAP2 POP POP JUMP JUMPDEST PUSH0 DUP1 PUSH0 DUP1 PUSH0 PUSH1 0xA0 DUP7 DUP9 SUB SLT ISZERO PUSH2 0x24C0 JUMPI PUSH2 0x24BF PUSH2 0x22CB JUMP JUMPDEST JUMPDEST PUSH0 PUSH2 0x24CD DUP9 DUP3 DUP10 ADD PUSH2 0x22F8 JUMP JUMPDEST SWAP6 POP POP PUSH1 0x20 PUSH2 0x24DE DUP9 DUP3 DUP10 ADD PUSH2 0x232F JUMP JUMPDEST SWAP5 POP POP PUSH1 0x40 PUSH2 0x24EF DUP9 DUP3 DUP10 ADD PUSH2 0x232F JUMP JUMPDEST SWAP4 POP POP PUSH1 0x60 PUSH2 0x2500 DUP9 DUP3 DUP10 ADD PUSH2 0x2367 JUMP JUMPDEST SWAP3 POP POP PUSH1 0x80 DUP7 ADD CALLDATALOAD PUSH8 0xFFFFFFFFFFFFFFFF DUP2 GT ISZERO PUSH2 0x2521 JUMPI PUSH2 0x2520 PUSH2 0x22CF JUMP JUMPDEST JUMPDEST PUSH2 0x252D DUP9 DUP3 DUP10 ADD PUSH2 0x247A JUMP JUMPDEST SWAP2 POP POP SWAP3 SWAP6 POP SWAP3 SWAP6 SWAP1 SWAP4 POP JUMP JUMPDEST PUSH0 DUP2 MLOAD SWAP1 POP SWAP2 SWAP1 POP JUMP JUMPDEST PUSH0 DUP3 DUP3 MSTORE PUSH1 0x20 DUP3 ADD SWAP1 POP SWAP3 SWAP2 POP POP JUMP JUMPDEST PUSH0 DUP2 SWAP1 POP PUSH1 0x20 DUP3 ADD SWAP1 POP SWAP2 SWAP1 POP JUMP JUMPDEST PUSH0 DUP2 MLOAD SWAP1 POP SWAP2 SWAP1 POP JUMP JUMPDEST PUSH0 DUP3 DUP3 MSTORE PUSH1 0x20 DUP3 ADD SWAP1 POP SWAP3 SWAP2 POP POP JUMP JUMPDEST PUSH0 PUSH2 0x2587 DUP3 PUSH2 0x2563 JUMP JUMPDEST PUSH2 0x2591 DUP2 DUP6 PUSH2 0x256D JUMP JUMPDEST SWAP4 POP PUSH2 0x25A1 DUP2 DUP6 PUSH1 0x20 DUP7 ADD PUSH2 0x2232 JUMP JUMPDEST PUSH2 0x25AA DUP2 PUSH2 0x225A JUMP JUMPDEST DUP5 ADD SWAP2 POP POP SWAP3 SWAP2 POP POP JUMP JUMPDEST PUSH0 PUSH20 0xFFFFFFFFFFFFFFFFFFFFFFFFFFFFFFFFFFFFFFFF DUP3 AND SWAP1 POP SWAP2 SWAP1 POP JUMP JUMPDEST PUSH0 PUSH2 0x25DE DUP3 PUSH2 0x25B5 JUMP JUMPDEST SWAP1 POP SWAP2 SWAP1 POP JUMP JUMPDEST PUSH2 0x25EE DUP2 PUSH2 0x25D4 JUMP JUMPDEST DUP3 MSTORE POP POP JUMP JUMPDEST PUSH0 DUP3 DUP3 MSTORE PUSH1 0x20 DUP3 ADD SWAP1 POP SWAP3 SWAP2 POP POP JUMP JUMPDEST PUSH0 PUSH2 0x260E DUP3 PUSH2 0x2218 JUMP JUMPDEST PUSH2 0x2618 DUP2 DUP6 PUSH2 0x25F4 JUMP JUMPDEST SWAP4 POP PUSH2 0x2628 DUP2 DUP6 PUSH1 0x20 DUP7 ADD PUSH2 0x2232 JUMP JUMPDEST PUSH2 0x2631 DUP2 PUSH2 0x225A JUMP JUMPDEST DUP5 ADD SWAP2 POP POP SWAP3 SWAP2 POP POP JUMP JUMPDEST PUSH32 0x4E487B7100000000000000000000000000000000000000000000000000000000 PUSH0 MSTORE PUSH1 0x21 PUSH1 0x4 MSTORE PUSH1 0x24 PUSH0 REVERT JUMPDEST PUSH1 0x5 DUP2 LT PUSH2 0x267A JUMPI PUSH2 0x2679 PUSH2 0x263C JUMP JUMPDEST JUMPDEST POP JUMP JUMPDEST PUSH0 DUP2 SWAP1 POP PUSH2 0x268A DUP3 PUSH2 0x2669 JUMP JUMPDEST SWAP2 SWAP1 POP JUMP JUMPDEST PUSH0 PUSH2 0x2699 DUP3 PUSH2 0x267D JUMP JUMPDEST SWAP1 POP SWAP2 SWAP1 POP JUMP JUMPDEST PUSH2 0x26A9 DUP2 PUSH2 0x268F JUMP JUMPDEST DUP3 MSTORE POP POP JUMP JUMPDEST PUSH0 PUSH1 0xE0 DUP4 ADD PUSH0 DUP4 ADD MLOAD DUP5 DUP3 SUB PUSH0 DUP7 ADD MSTORE PUSH2 0x26C9 DUP3 DUP3 PUSH2 0x257D JUMP JUMPDEST SWAP2 POP POP PUSH1 0x20 DUP4 ADD MLOAD PUSH2 0x26DE PUSH1 0x20 DUP7 ADD DUP3 PUSH2 0x25E5 JUMP JUMPDEST POP PUSH1 0x40 DUP4 ADD MLOAD DUP5 DUP3 SUB PUSH1 0x40 DUP7 ADD MSTORE PUSH2 0x26F6 DUP3 DUP3 PUSH2 0x2604 JUMP JUMPDEST SWAP2 POP POP PUSH1 0x60 DUP4 ADD MLOAD PUSH2 0x270B PUSH1 0x60 DUP7 ADD DUP3 PUSH2 0x26A0 JUMP JUMPDEST POP PUSH1 0x80 DUP4 ADD MLOAD DUP5 DUP3 SUB PUSH1 0x80 DUP7 ADD MSTORE PUSH2 0x2723 DUP3 DUP3 PUSH2 0x2604 JUMP JUMPDEST SWAP2 POP POP PUSH1 0xA0 DUP4 ADD MLOAD DUP5 DUP3 SUB PUSH1 0xA0 DUP7 ADD MSTORE PUSH2 0x273D DUP3 DUP3 PUSH2 0x2604 JUMP JUMPDEST SWAP2 POP POP PUSH1 0xC0 DUP4 ADD MLOAD DUP5 DUP3 SUB PUSH1 0xC0 DUP7 ADD MSTORE PUSH2 0x2757 DUP3 DUP3 PUSH2 0x2604 JUMP JUMPDEST SWAP2 POP POP DUP1 SWAP2 POP POP SWAP3 SWAP2 POP POP JUMP JUMPDEST PUSH0 PUSH2 0x276F DUP4 DUP4 PUSH2 0x26AF JUMP JUMPDEST SWAP1 POP SWAP3 SWAP2 POP POP JUMP JUMPDEST PUSH0 PUSH1 0x20 DUP3 ADD SWAP1 POP SWAP2 SWAP1 POP JUMP JUMPDEST PUSH0 PUSH2 0x278D DUP3 PUSH2 0x253A JUMP JUMPDEST PUSH2 0x2797 DUP2 DUP6 PUSH2 0x2544 JUMP JUMPDEST SWAP4 POP DUP4 PUSH1 0x20 DUP3 MUL DUP6 ADD PUSH2 0x27A9 DUP6 PUSH2 0x2554 JUMP JUMPDEST DUP1 PUSH0 JUMPDEST DUP6 DUP2 LT ISZERO PUSH2 0x27E4 JUMPI DUP5 DUP5 SUB DUP10 MSTORE DUP2 MLOAD PUSH2 0x27C5 DUP6 DUP3 PUSH2 0x2764 JUMP JUMPDEST SWAP5 POP PUSH2 0x27D0 DUP4 PUSH2 0x2777 JUMP JUMPDEST SWAP3 POP PUSH1 0x20 DUP11 ADD SWAP10 POP POP PUSH1 0x1 DUP2 ADD SWAP1 POP PUSH2 0x27AC JUMP JUMPDEST POP DUP3 SWAP8 POP DUP8 SWAP6 POP POP POP POP POP POP SWAP3 SWAP2 POP POP JUMP JUMPDEST PUSH0 PUSH1 0x40 DUP3 ADD SWAP1 POP DUP2 DUP2 SUB PUSH0 DUP4 ADD MSTORE PUSH2 0x280E DUP2 DUP6 PUSH2 0x2783 JUMP JUMPDEST SWAP1 POP DUP2 DUP2 SUB PUSH1 0x20 DUP4 ADD MSTORE PUSH2 0x2822 DUP2 DUP5 PUSH2 0x2783 JUMP JUMPDEST SWAP1 POP SWAP4 SWAP3 POP POP POP JUMP JUMPDEST PUSH0 DUP1 REVERT JUMPDEST PUSH0 DUP1 REVERT JUMPDEST PUSH0 PUSH8 0xFFFFFFFFFFFFFFFF DUP3 GT ISZERO PUSH2 0x284D JUMPI PUSH2 0x284C PUSH2 0x2383 JUMP JUMPDEST JUMPDEST PUSH1 0x20 DUP3 MUL SWAP1 POP PUSH1 0x20 DUP2 ADD SWAP1 POP SWAP2 SWAP1 POP JUMP JUMPDEST PUSH0 DUP1 REVERT JUMPDEST PUSH2 0x286B DUP2 PUSH2 0x25D4 JUMP JUMPDEST DUP2 EQ PUSH2 0x2875 JUMPI PUSH0 DUP1 REVERT JUMPDEST POP JUMP JUMPDEST PUSH0 DUP2 CALLDATALOAD SWAP1 POP PUSH2 0x2886 DUP2 PUSH2 0x2862 JUMP JUMPDEST SWAP3 SWAP2 POP POP JUMP JUMPDEST PUSH0 PUSH8 0xFFFFFFFFFFFFFFFF DUP3 GT ISZERO PUSH2 0x28A6 JUMPI PUSH2 0x28A5 PUSH2 0x2383 JUMP JUMPDEST JUMPDEST PUSH2 0x28AF DUP3 PUSH2 0x225A JUMP JUMPDEST SWAP1 POP PUSH1 0x20 DUP2 ADD SWAP1 POP SWAP2 SWAP1 POP JUMP JUMPDEST PUSH0 PUSH2 0x28CE PUSH2 0x28C9 DUP5 PUSH2 0x288C JUMP JUMPDEST PUSH2 0x23E1 JUMP JUMPDEST SWAP1 POP DUP3 DUP2 MSTORE PUSH1 0x20 DUP2 ADD DUP5 DUP5 DUP5 ADD GT ISZERO PUSH2 0x28EA JUMPI PUSH2 0x28E9 PUSH2 0x237F JUMP JUMPDEST JUMPDEST PUSH2 0x28F5 DUP5 DUP3 DUP6 PUSH2 0x242B JUMP JUMPDEST POP SWAP4 SWAP3 POP POP POP JUMP JUMPDEST PUSH0 DUP3 PUSH1 0x1F DUP4 ADD SLT PUSH2 0x2911 JUMPI PUSH2 0x2910 PUSH2 0x237B JUMP JUMPDEST JUMPDEST DUP2 CALLDATALOAD PUSH2 0x2921 DUP5 DUP3 PUSH1 0x20 DUP7 ADD PUSH2 0x28BC JUMP JUMPDEST SWAP2 POP POP SWAP3 SWAP2 POP POP JUMP JUMPDEST PUSH1 0x5 DUP2 LT PUSH2 0x2936 JUMPI PUSH0 DUP1 REVERT JUMPDEST POP JUMP JUMPDEST PUSH0 DUP2 CALLDATALOAD SWAP1 POP PUSH2 0x2947 DUP2 PUSH2 0x292A JUMP JUMPDEST SWAP3 SWAP2 POP POP JUMP JUMPDEST PUSH0 PUSH1 0xE0 DUP3 DUP5 SUB SLT ISZERO PUSH2 0x2962 JUMPI PUSH2 0x2961 PUSH2 0x282B JUMP JUMPDEST JUMPDEST PUSH2 0x296C PUSH1 0xE0 PUSH2 0x23E1 JUMP JUMPDEST SWAP1 POP PUSH0 DUP3 ADD CALLDATALOAD PUSH8 0xFFFFFFFFFFFFFFFF DUP2 GT ISZERO PUSH2 0x298B JUMPI PUSH2 0x298A PUSH2 0x282F JUMP JUMPDEST JUMPDEST PUSH2 0x2997 DUP5 DUP3 DUP6 ADD PUSH2 0x247A JUMP JUMPDEST PUSH0 DUP4 ADD MSTORE POP PUSH1 0x20 PUSH2 0x29AA DUP5 DUP3 DUP6 ADD PUSH2 0x2878 JUMP JUMPDEST PUSH1 0x20 DUP4 ADD MSTORE POP PUSH1 0x40 DUP3 ADD CALLDATALOAD PUSH8 0xFFFFFFFFFFFFFFFF DUP2 GT ISZERO PUSH2 0x29CE JUMPI PUSH2 0x29CD PUSH2 0x282F JUMP JUMPDEST JUMPDEST PUSH2 0x29DA DUP5 DUP3 DUP6 ADD PUSH2 0x28FD JUMP JUMPDEST PUSH1 0x40 DUP4 ADD MSTORE POP PUSH1 0x60 PUSH2 0x29EE DUP5 DUP3 DUP6 ADD PUSH2 0x2939 JUMP JUMPDEST PUSH1 0x60 DUP4 ADD MSTORE POP PUSH1 0x80 DUP3 ADD CALLDATALOAD PUSH8 0xFFFFFFFFFFFFFFFF DUP2 GT ISZERO PUSH2 0x2A12 JUMPI PUSH2 0x2A11 PUSH2 0x282F JUMP JUMPDEST JUMPDEST PUSH2 0x2A1E DUP5 DUP3 DUP6 ADD PUSH2 0x28FD JUMP JUMPDEST PUSH1 0x80 DUP4 ADD MSTORE POP PUSH1 0xA0 DUP3 ADD CALLDATALOAD PUSH8 0xFFFFFFFFFFFFFFFF DUP2 GT ISZERO PUSH2 0x2A42 JUMPI PUSH2 0x2A41 PUSH2 0x282F JUMP JUMPDEST JUMPDEST PUSH2 0x2A4E DUP5 DUP3 DUP6 ADD PUSH2 0x28FD JUMP JUMPDEST PUSH1 0xA0 DUP4 ADD MSTORE POP PUSH1 0xC0 DUP3 ADD CALLDATALOAD PUSH8 0xFFFFFFFFFFFFFFFF DUP2 GT ISZERO PUSH2 0x2A72 JUMPI PUSH2 0x2A71 PUSH2 0x282F JUMP JUMPDEST JUMPDEST PUSH2 0x2A7E DUP5 DUP3 DUP6 ADD PUSH2 0x28FD JUMP JUMPDEST PUSH1 0xC0 DUP4 ADD MSTORE POP SWAP3 SWAP2 POP POP JUMP JUMPDEST PUSH0 PUSH2 0x2A9C PUSH2 0x2A97 DUP5 PUSH2 0x2833 JUMP JUMPDEST PUSH2 0x23E1 JUMP JUMPDEST SWAP1 POP DUP1 DUP4 DUP3 MSTORE PUSH1 0x20 DUP3 ADD SWAP1 POP PUSH1 0x20 DUP5 MUL DUP4 ADD DUP6 DUP2 GT ISZERO PUSH2 0x2ABF JUMPI PUSH2 0x2ABE PUSH2 0x285E JUMP JUMPDEST JUMPDEST DUP4 JUMPDEST DUP2 DUP2 LT ISZERO PUSH2 0x2B06 JUMPI DUP1 CALLDATALOAD PUSH8 0xFFFFFFFFFFFFFFFF DUP2 GT ISZERO PUSH2 0x2AE4 JUMPI PUSH2 0x2AE3 PUSH2 0x237B JUMP JUMPDEST JUMPDEST DUP1 DUP7 ADD PUSH2 0x2AF1 DUP10 DUP3 PUSH2 0x294D JUMP JUMPDEST DUP6 MSTORE PUSH1 0x20 DUP6 ADD SWAP5 POP POP POP PUSH1 0x20 DUP2 ADD SWAP1 POP PUSH2 0x2AC1 JUMP JUMPDEST POP POP POP SWAP4 SWAP3 POP POP POP JUMP JUMPDEST PUSH0 DUP3 PUSH1 0x1F DUP4 ADD SLT PUSH2 0x2B24 JUMPI PUSH2 0x2B23 PUSH2 0x237B JUMP JUMPDEST JUMPDEST DUP2 CALLDATALOAD PUSH2 0x2B34 DUP5 DUP3 PUSH1 0x20 DUP7 ADD PUSH2 0x2A8A JUMP JUMPDEST SWAP2 POP POP SWAP3 SWAP2 POP POP JUMP JUMPDEST PUSH0 PUSH1 0x40 DUP3 DUP5 SUB SLT ISZERO PUSH2 0x2B52 JUMPI PUSH2 0x2B51 PUSH2 0x282B JUMP JUMPDEST JUMPDEST PUSH2 0x2B5C PUSH1 0x40 PUSH2 0x23E1 JUMP JUMPDEST SWAP1 POP PUSH0 DUP3 ADD CALLDATALOAD PUSH8 0xFFFFFFFFFFFFFFFF DUP2 GT ISZERO PUSH2 0x2B7B JUMPI PUSH2 0x2B7A PUSH2 0x282F JUMP JUMPDEST JUMPDEST PUSH2 0x2B87 DUP5 DUP3 DUP6 ADD PUSH2 0x2B10 JUMP JUMPDEST PUSH0 DUP4 ADD MSTORE POP PUSH1 0x20 DUP3 ADD CALLDATALOAD PUSH8 0xFFFFFFFFFFFFFFFF DUP2 GT ISZERO PUSH2 0x2BAA JUMPI PUSH2 0x2BA9 PUSH2 0x282F JUMP JUMPDEST JUMPDEST PUSH2 0x2BB6 DUP5 DUP3 DUP6 ADD PUSH2 0x2B10 JUMP JUMPDEST PUSH1 0x20 DUP4 ADD MSTORE POP SWAP3 SWAP2 POP POP JUMP JUMPDEST PUSH0 PUSH1 0x20 DUP3 DUP5 SUB SLT ISZERO PUSH2 0x2BD7 JUMPI PUSH2 0x2BD6 PUSH2 0x22CB JUMP JUMPDEST JUMPDEST PUSH0 DUP3 ADD CALLDATALOAD PUSH8 0xFFFFFFFFFFFFFFFF DUP2 GT ISZERO PUSH2 0x2BF4 JUMPI PUSH2 0x2BF3 PUSH2 0x22CF JUMP JUMPDEST JUMPDEST PUSH2 0x2C00 DUP5 DUP3 DUP6 ADD PUSH2 0x2B3D JUMP JUMPDEST SWAP2 POP POP SWAP3 SWAP2 POP POP JUMP JUMPDEST PUSH0 DUP2 SWAP1 POP SWAP2 SWAP1 POP JUMP JUMPDEST PUSH2 0x2C1B DUP2 PUSH2 0x2C09 JUMP JUMPDEST DUP3 MSTORE POP POP JUMP JUMPDEST PUSH0 PUSH1 0x20 DUP3 ADD SWAP1 POP PUSH2 0x2C34 PUSH0 DUP4 ADD DUP5 PUSH2 0x2C12 JUMP JUMPDEST SWAP3 SWAP2 POP POP JUMP JUMPDEST PUSH0 DUP3 DUP3 MSTORE PUSH1 0x20 DUP3 ADD SWAP1 POP SWAP3 SWAP2 POP POP JUMP JUMPDEST PUSH0 PUSH2 0x2C54 DUP3 PUSH2 0x2563 JUMP JUMPDEST PUSH2 0x2C5E DUP2 DUP6 PUSH2 0x2C3A JUMP JUMPDEST SWAP4 POP PUSH2 0x2C6E DUP2 DUP6 PUSH1 0x20 DUP7 ADD PUSH2 0x2232 JUMP JUMPDEST PUSH2 0x2C77 DUP2 PUSH2 0x225A JUMP JUMPDEST DUP5 ADD SWAP2 POP POP SWAP3 SWAP2 POP POP JUMP JUMPDEST PUSH0 PUSH1 0x20 DUP3 ADD SWAP1 POP DUP2 DUP2 SUB PUSH0 DUP4 ADD MSTORE PUSH2 0x2C9A DUP2 DUP5 PUSH2 0x2C4A JUMP JUMPDEST SWAP1 POP SWAP3 SWAP2 POP POP JUMP JUMPDEST PUSH2 0x2CAB DUP2 PUSH2 0x2C09 JUMP JUMPDEST DUP2 EQ PUSH2 0x2CB5 JUMPI PUSH0 DUP1 REVERT JUMPDEST POP JUMP JUMPDEST PUSH0 DUP2 CALLDATALOAD SWAP1 POP PUSH2 0x2CC6 DUP2 PUSH2 0x2CA2 JUMP JUMPDEST SWAP3 SWAP2 POP POP JUMP JUMPDEST PUSH0 PUSH1 0x20 DUP3 DUP5 SUB SLT ISZERO PUSH2 0x2CE1 JUMPI PUSH2 0x2CE0 PUSH2 0x22CB JUMP JUMPDEST JUMPDEST PUSH0 PUSH2 0x2CEE DUP5 DUP3 DUP6 ADD PUSH2 0x2CB8 JUMP JUMPDEST SWAP2 POP POP SWAP3 SWAP2 POP POP JUMP JUMPDEST PUSH0 PUSH1 0x20 DUP3 DUP5 SUB SLT ISZERO PUSH2 0x2D0C JUMPI PUSH2 0x2D0B PUSH2 0x22CB JUMP JUMPDEST JUMPDEST PUSH0 DUP3 ADD CALLDATALOAD PUSH8 0xFFFFFFFFFFFFFFFF DUP2 GT ISZERO PUSH2 0x2D29 JUMPI PUSH2 0x2D28 PUSH2 0x22CF JUMP JUMPDEST JUMPDEST PUSH2 0x2D35 DUP5 DUP3 DUP6 ADD PUSH2 0x294D JUMP JUMPDEST SWAP2 POP POP SWAP3 SWAP2 POP POP JUMP JUMPDEST PUSH0 PUSH1 0x40 DUP3 ADD SWAP1 POP DUP2 DUP2 SUB PUSH0 DUP4 ADD MSTORE PUSH2 0x2D56 DUP2 DUP6 PUSH2 0x226A JUMP JUMPDEST SWAP1 POP DUP2 DUP2 SUB PUSH1 0x20 DUP4 ADD MSTORE PUSH2 0x2D6A DUP2 DUP5 PUSH2 0x226A JUMP JUMPDEST SWAP1 POP SWAP4 SWAP3 POP POP POP JUMP JUMPDEST PUSH0 DUP1 PUSH0 DUP1 PUSH0 DUP1 PUSH1 0xC0 DUP8 DUP10 SUB SLT ISZERO PUSH2 0x2D8D JUMPI PUSH2 0x2D8C PUSH2 0x22CB JUMP JUMPDEST JUMPDEST PUSH0 PUSH2 0x2D9A DUP10 DUP3 DUP11 ADD PUSH2 0x22F8 JUMP JUMPDEST SWAP7 POP POP PUSH1 0x20 PUSH2 0x2DAB DUP10 DUP3 DUP11 ADD PUSH2 0x2CB8 JUMP JUMPDEST SWAP6 POP POP PUSH1 0x40 PUSH2 0x2DBC DUP10 DUP3 DUP11 ADD PUSH2 0x232F JUMP JUMPDEST SWAP5 POP POP PUSH1 0x60 PUSH2 0x2DCD DUP10 DUP3 DUP11 ADD PUSH2 0x232F JUMP JUMPDEST SWAP4 POP POP PUSH1 0x80 PUSH2 0x2DDE DUP10 DUP3 DUP11 ADD PUSH2 0x2367 JUMP JUMPDEST SWAP3 POP POP PUSH1 0xA0 DUP8 ADD CALLDATALOAD PUSH8 0xFFFFFFFFFFFFFFFF DUP2 GT ISZERO PUSH2 0x2DFF JUMPI PUSH2 0x2DFE PUSH2 0x22CF JUMP JUMPDEST JUMPDEST PUSH2 0x2E0B DUP10 DUP3 DUP11 ADD PUSH2 0x247A JUMP JUMPDEST SWAP2 POP POP SWAP3 SWAP6 POP SWAP3 SWAP6 POP SWAP3 SWAP6 JUMP JUMPDEST PUSH32 0x4E487B7100000000000000000000000000000000000000000000000000000000 PUSH0 MSTORE PUSH1 0x32 PUSH1 0x4 MSTORE PUSH1 0x24 PUSH0 REVERT JUMPDEST PUSH32 0x4E487B7100000000000000000000000000000000000000000000000000000000 PUSH0 MSTORE PUSH1 0x11 PUSH1 0x4 MSTORE PUSH1 0x24 PUSH0 REVERT JUMPDEST PUSH0 PUSH2 0x2E7C DUP3 PUSH2 0x2C09 JUMP JUMPDEST SWAP2 POP PUSH2 0x2E87 DUP4 PUSH2 0x2C09 JUMP JUMPDEST SWAP3 POP DUP3 DUP3 ADD SWAP1 POP DUP1 DUP3 GT ISZERO PUSH2 0x2E9F JUMPI PUSH2 0x2E9E PUSH2 0x2E45 JUMP JUMPDEST JUMPDEST SWAP3 SWAP2 POP POP JUMP JUMPDEST PUSH32 0x4E487B7100000000000000000000000000000000000000000000000000000000 PUSH0 MSTORE PUSH1 0x12 PUSH1 0x4 MSTORE PUSH1 0x24 PUSH0 REVERT JUMPDEST PUSH0 PUSH1 0x40 DUP3 ADD SWAP1 POP DUP2 DUP2 SUB PUSH0 DUP4 ADD MSTORE PUSH2 0x2EEA DUP2 DUP6 PUSH2 0x2C4A JUMP JUMPDEST SWAP1 POP DUP2 DUP2 SUB PUSH1 0x20 DUP4 ADD MSTORE PUSH2 0x2EFE DUP2 DUP5 PUSH2 0x226A JUMP JUMPDEST SWAP1 POP SWAP4 SWAP3 POP POP POP JUMP JUMPDEST PUSH0 PUSH2 0x2F19 PUSH2 0x2F14 DUP5 PUSH2 0x288C JUMP JUMPDEST PUSH2 0x23E1 JUMP JUMPDEST SWAP1 POP DUP3 DUP2 MSTORE PUSH1 0x20 DUP2 ADD DUP5 DUP5 DUP5 ADD GT ISZERO PUSH2 0x2F35 JUMPI PUSH2 0x2F34 PUSH2 0x237F JUMP JUMPDEST JUMPDEST PUSH2 0x2F40 DUP5 DUP3 DUP6 PUSH2 0x2232 JUMP JUMPDEST POP SWAP4 SWAP3 POP POP POP JUMP JUMPDEST PUSH0 DUP3 PUSH1 0x1F DUP4 ADD SLT PUSH2 0x2F5C JUMPI PUSH2 0x2F5B PUSH2 0x237B JUMP JUMPDEST JUMPDEST DUP2 MLOAD PUSH2 0x2F6C DUP5 DUP3 PUSH1 0x20 DUP7 ADD PUSH2 0x2F07 JUMP JUMPDEST SWAP2 POP POP SWAP3 SWAP2 POP POP JUMP JUMPDEST PUSH0 PUSH1 0x20 DUP3 DUP5 SUB SLT ISZERO PUSH2 0x2F8A JUMPI PUSH2 0x2F89 PUSH2 0x22CB JUMP JUMPDEST JUMPDEST PUSH0 DUP3 ADD MLOAD PUSH8 0xFFFFFFFFFFFFFFFF DUP2 GT ISZERO PUSH2 0x2FA7 JUMPI PUSH2 0x2FA6 PUSH2 0x22CF JUMP JUMPDEST JUMPDEST PUSH2 0x2FB3 DUP5 DUP3 DUP6 ADD PUSH2 0x2F48 JUMP JUMPDEST SWAP2 POP POP SWAP3 SWAP2 POP POP JUMP JUMPDEST PUSH0 DUP2 SWAP1 POP SWAP3 SWAP2 POP POP JUMP JUMPDEST PUSH32 0x7B22616E696D6174696F6E5F75726C223A220000000000000000000000000000 PUSH0 DUP3 ADD MSTORE POP JUMP JUMPDEST PUSH0 PUSH2 0x2FFA PUSH1 0x12 DUP4 PUSH2 0x2FBC JUMP JUMPDEST SWAP2 POP PUSH2 0x3005 DUP3 PUSH2 0x2FC6 JUMP JUMPDEST PUSH1 0x12 DUP3 ADD SWAP1 POP SWAP2 SWAP1 POP JUMP JUMPDEST PUSH0 DUP2 SWAP1 POP SWAP3 SWAP2 POP POP JUMP JUMPDEST PUSH0 PUSH2 0x3024 DUP3 PUSH2 0x2218 JUMP JUMPDEST PUSH2 0x302E DUP2 DUP6 PUSH2 0x3010 JUMP JUMPDEST SWAP4 POP PUSH2 0x303E DUP2 DUP6 PUSH1 0x20 DUP7 ADD PUSH2 0x2232 JUMP JUMPDEST DUP1 DUP5 ADD SWAP2 POP POP SWAP3 SWAP2 POP POP JUMP JUMPDEST PUSH32 0x222C22696D616765223A22000000000000000000000000000000000000000000 PUSH0 DUP3 ADD MSTORE POP JUMP JUMPDEST PUSH0 PUSH2 0x307E PUSH1 0xB DUP4 PUSH2 0x2FBC JUMP JUMPDEST SWAP2 POP PUSH2 0x3089 DUP3 PUSH2 0x304A JUMP JUMPDEST PUSH1 0xB DUP3 ADD SWAP1 POP SWAP2 SWAP1 POP JUMP JUMPDEST PUSH32 0x222C226E616D65223A2249442023000000000000000000000000000000000000 PUSH0 DUP3 ADD MSTORE POP JUMP JUMPDEST PUSH0 PUSH2 0x30C8 PUSH1 0xE DUP4 PUSH2 0x2FBC JUMP JUMPDEST SWAP2 POP PUSH2 0x30D3 DUP3 PUSH2 0x3094 JUMP JUMPDEST PUSH1 0xE DUP3 ADD SWAP1 POP SWAP2 SWAP1 POP JUMP JUMPDEST PUSH0 PUSH2 0x30E8 DUP3 PUSH2 0x2563 JUMP JUMPDEST PUSH2 0x30F2 DUP2 DUP6 PUSH2 0x2FBC JUMP JUMPDEST SWAP4 POP PUSH2 0x3102 DUP2 DUP6 PUSH1 0x20 DUP7 ADD PUSH2 0x2232 JUMP JUMPDEST DUP1 DUP5 ADD SWAP2 POP POP SWAP3 SWAP2 POP POP JUMP JUMPDEST PUSH32 0x222C2261747472696275746573223A5B7B2274726169745F74797065223A2250 PUSH0 DUP3 ADD MSTORE PUSH32 0x726F70732043726561746564222C2276616C7565223A00000000000000000000 PUSH1 0x20 DUP3 ADD MSTORE POP JUMP JUMPDEST PUSH0 PUSH2 0x3168 PUSH1 0x36 DUP4 PUSH2 0x2FBC JUMP JUMPDEST SWAP2 POP PUSH2 0x3173 DUP3 PUSH2 0x310E JUMP JUMPDEST PUSH1 0x36 DUP3 ADD SWAP1 POP SWAP2 SWAP1 POP JUMP JUMPDEST PUSH32 0x7D2C7B2274726169745F74797065223A2250726F70732053706F6E736F726564 PUSH0 DUP3 ADD MSTORE PUSH32 0x222C2276616C7565223A00000000000000000000000000000000000000000000 PUSH1 0x20 DUP3 ADD MSTORE POP JUMP JUMPDEST PUSH0 PUSH2 0x31D8 PUSH1 0x2A DUP4 PUSH2 0x2FBC JUMP JUMPDEST SWAP2 POP PUSH2 0x31E3 DUP3 PUSH2 0x317E JUMP JUMPDEST PUSH1 0x2A DUP3 ADD SWAP1 POP SWAP2 SWAP1 POP JUMP JUMPDEST PUSH32 0x7D2C7B2274726169745F74797065223A22557365726E616D65222C2276616C75 PUSH0 DUP3 ADD MSTORE PUSH32 0x65223A0000000000000000000000000000000000000000000000000000000000 PUSH1 0x20 DUP3 ADD MSTORE POP JUMP JUMPDEST PUSH0 PUSH2 0x3248 PUSH1 0x23 DUP4 PUSH2 0x2FBC JUMP JUMPDEST SWAP2 POP PUSH2 0x3253 DUP3 PUSH2 0x31EE JUMP JUMPDEST PUSH1 0x23 DUP3 ADD SWAP1 POP SWAP2 SWAP1 POP JUMP JUMPDEST PUSH32 0x7D2C7B2274726169745F74797065223A22566F7465732043617374222C227661 PUSH0 DUP3 ADD MSTORE PUSH32 0x6C7565223A220000000000000000000000000000000000000000000000000000 PUSH1 0x20 DUP3 ADD MSTORE POP JUMP JUMPDEST PUSH0 PUSH2 0x32B8 PUSH1 0x26 DUP4 PUSH2 0x2FBC JUMP JUMPDEST SWAP2 POP PUSH2 0x32C3 DUP3 PUSH2 0x325E JUMP JUMPDEST PUSH1 0x26 DUP3 ADD SWAP1 POP SWAP2 SWAP1 POP JUMP JUMPDEST PUSH32 0x227D5D7D00000000000000000000000000000000000000000000000000000000 PUSH0 DUP3 ADD MSTORE POP JUMP JUMPDEST PUSH0 PUSH2 0x3302 PUSH1 0x4 DUP4 PUSH2 0x2FBC JUMP JUMPDEST SWAP2 POP PUSH2 0x330D DUP3 PUSH2 0x32CE JUMP JUMPDEST PUSH1 0x4 DUP3 ADD SWAP1 POP SWAP2 SWAP1 POP JUMP JUMPDEST PUSH0 PUSH2 0x3322 DUP3 PUSH2 0x2FEE JUMP JUMPDEST SWAP2 POP PUSH2 0x332E DUP3 DUP11 PUSH2 0x301A JUMP JUMPDEST SWAP2 POP PUSH2 0x3339 DUP3 PUSH2 0x3072 JUMP JUMPDEST SWAP2 POP PUSH2 0x3345 DUP3 DUP10 PUSH2 0x301A JUMP JUMPDEST SWAP2 POP PUSH2 0x3350 DUP3 PUSH2 0x30BC JUMP JUMPDEST SWAP2 POP PUSH2 0x335C DUP3 DUP9 PUSH2 0x30DE JUMP JUMPDEST SWAP2 POP PUSH2 0x3367 DUP3 PUSH2 0x315C JUMP JUMPDEST SWAP2 POP PUSH2 0x3373 DUP3 DUP8 PUSH2 0x30DE JUMP JUMPDEST SWAP2 POP PUSH2 0x337E DUP3 PUSH2 0x31CC JUMP JUMPDEST SWAP2 POP PUSH2 0x338A DUP3 DUP7 PUSH2 0x30DE JUMP JUMPDEST SWAP2 POP PUSH2 0x3395 DUP3 PUSH2 0x323C JUMP JUMPDEST SWAP2 POP PUSH2 0x33A1 DUP3 DUP6 PUSH2 0x30DE JUMP JUMPDEST SWAP2 POP PUSH2 0x33AC DUP3 PUSH2 0x32AC JUMP JUMPDEST SWAP2 POP PUSH2 0x33B8 DUP3 DUP5 PUSH2 0x30DE JUMP JUMPDEST SWAP2 POP PUSH2 0x33C3 DUP3 PUSH2 0x32F6 JUMP JUMPDEST SWAP2 POP DUP2 SWAP1 POP SWAP9 SWAP8 POP POP POP POP POP POP POP POP JUMP JUMPDEST PUSH0 PUSH2 0x33DE DUP3 PUSH2 0x22D3 JUMP JUMPDEST SWAP2 POP PUSH2 0x33E9 DUP4 PUSH2 0x22D3 JUMP JUMPDEST SWAP3 POP DUP3 PUSH2 0x33F9 JUMPI PUSH2 0x33F8 PUSH2 0x2EA5 JUMP JUMPDEST JUMPDEST DUP3 DUP3 MOD SWAP1 POP SWAP3 SWAP2 POP POP JUMP JUMPDEST PUSH32 0x44796E616D69634275666665723A20417070656E64696E67206F7574206F6620 PUSH0 DUP3 ADD MSTORE PUSH32 0x626F756E64732E00000000000000000000000000000000000000000000000000 PUSH1 0x20 DUP3 ADD MSTORE POP JUMP JUMPDEST PUSH0 PUSH2 0x345E PUSH1 0x27 DUP4 PUSH2 0x2C3A JUMP JUMPDEST SWAP2 POP PUSH2 0x3469 DUP3 PUSH2 0x3404 JUMP JUMPDEST PUSH1 0x40 DUP3 ADD SWAP1 POP SWAP2 SWAP1 POP JUMP JUMPDEST PUSH0 PUSH1 0x20 DUP3 ADD SWAP1 POP DUP2 DUP2 SUB PUSH0 DUP4 ADD MSTORE PUSH2 0x348B DUP2 PUSH2 0x3452 JUMP JUMPDEST SWAP1 POP SWAP2 SWAP1 POP JUMP INVALID EXTCODECOPY PUSH20 0x6372697074207372633D22646174613A74657874 0x2F PUSH11 0x6176617363726970743B62 PUSH2 0x7365 CALLDATASIZE CALLVALUE 0x2C EXTCODECOPY 0x2F PUSH5 0x69763E3C2F PUSH5 0x69763E3C64 PUSH10 0x7620636C6173733D2267 0x22 RETURNDATACOPY EXTCODECOPY 0x2F PUSH5 0x69763E3C64 PUSH10 0x762069643D227A223E3C PUSH5 0x697620636C PUSH2 0x7373 RETURNDATASIZE 0x22 PUSH13 0x223E566F74657320436173743C 0x2F PUSH5 0x69763E3C64 PUSH10 0x7620636C6173733D2273 0x22 KECCAK256 PUSH10 0x643D226D223E25323533 NUMBER PUSH20 0x6372697074253235323073726325323533442532 CALLDATALOAD ORIGIN ORIGIN PUSH5 0x6174612532 CALLDATALOAD CALLER COINBASE PUSH21 0x65787425323532466A617661736372697074253235 CALLER TIMESTAMP PUSH3 0x617365 CALLDATASIZE CALLVALUE 0x25 ORIGIN CALLDATALOAD ORIGIN NUMBER EXTCODECOPY PUSH20 0x74796C653E626F64797B666F6E742D66616D696C PUSH26 0x3A506F7070696E732C73616E732D73657269663B6D617267696E GASPRICE ADDRESS EXTCODESIZE PUSH17 0x616464696E673A303B646973706C61793A PUSH7 0x6C65783B6A7573 PUSH21 0x6966792D636F6E74656E743A63656E7465723B616C PUSH10 0x676E2D6974656D733A63 PUSH6 0x6E7465727D23 PUSH4 0x7B706F73 PUSH10 0x74696F6E3A72656C6174 PUSH10 0x76657D23777B706F7369 PUSH21 0x696F6E3A6162736F6C7574653B646973706C61793A PUSH7 0x6C65783B666C65 PUSH25 0x2D646972656374696F6E3A636F6C756D6E3B6865696768743A BALANCE ADDRESS ADDRESS 0x25 EXTCODESIZE PUSH4 0x6F6C6F72 GASPRICE 0x23 PUSH7 0x66663B666F6E74 0x2D PUSH24 0x65696768743A3430307D2E747B666F6E742D73697A653A6D PUSH10 0x6E283476772C34766829 PUSH30 0x2E6C7B666F6E742D73697A653A6D696E283476772C347668297D2E732C2E PUSH22 0x7B666F6E742D73697A653A6D696E28313276772C3132 PUSH23 0x68293B666F6E742D7765696768743A3830303B666F6E74 0x2D PUSH7 0x616D696C793A4D PUSH16 0x6E747365727261742C73616E732D7365 PUSH19 0x69667D2E757B666F6E742D73697A653A6D696E 0x28 CODESIZE PUSH23 0x772C387668293B6F766572666C6F773A68696464656E3B PUSH7 0x6F6E742D66616D PUSH10 0x6C793A4D6F6E74736572 PUSH19 0x61742C73616E732D73657269667D2E677B666C PUSH6 0x782D67726F77 GASPRICE BALANCE PUSH30 0x23617B6D617267696E2D746F703A312E3572656D3B6D617267696E2D6C65 PUSH7 0x743A312E357265 PUSH14 0x7D237A7B6D617267696E2D626F74 PUSH21 0x6F6D3A312E3572656D3B6D617267696E2D6C656674 GASPRICE BALANCE 0x2E CALLDATALOAD PUSH19 0x656D7D236D7B6D617267696E2D626F74746F6D GASPRICE PUSH4 0x616C6328 BALANCE PUSH19 0x656D202D20387078297D2E707B77696474683A BALANCE ADDRESS ADDRESS PUSH23 0x773B6865696768743A31303076683B6261636B67726F75 PUSH15 0x642D636F6C6F723A3C736372697074 KECCAK256 PUSH21 0x7970653D22746578742F6A6176617363726970742B PUSH8 0x7A69702220737263 RETURNDATASIZE 0x22 PUSH5 0x6174613A74 PUSH6 0x78742F6A6176 PUSH2 0x7363 PUSH19 0x6970743B6261736536342C3C6D61696E206964 RETURNDATASIZE 0x22 PUSH4 0x2220636C PUSH2 0x7373 RETURNDATASIZE 0x22 PUSH17 0x2220646174612D636F6C6F723D223C7376 PUSH8 0x20786D6C6E733D22 PUSH9 0x7474703A2F2F777777 0x2E PUSH24 0x332E6F72672F323030302F737667222076696577426F783D 0x22 ADDRESS KECCAK256 ADDRESS KECCAK256 CALLDATACOPY ADDRESS ADDRESS KECCAK256 CALLDATACOPY ADDRESS ADDRESS 0x22 RETURNDATACOPY EXTCODECOPY PUSH7 0x6F726569676E4F PUSH3 0x6A6563 PUSH21 0x2077696474683D223130302522206865696768743D 0x22 BALANCE ADDRESS ADDRESS 0x25 0x22 RETURNDATACOPY EXTCODECOPY PUSH3 0x6F6479 KECCAK256 PUSH25 0x6D6C6E733D22687474703A2F2F7777772E77332E6F72672F31 CODECOPY CODECOPY CODECOPY 0x2F PUSH25 0x68746D6C223E25323533437363726970742532353230747970 PUSH6 0x253235334425 ORIGIN CALLDATALOAD ORIGIN ORIGIN PUSH21 0x65787425323532466A617661736372697074253235 ORIGIN TIMESTAMP PUSH8 0x7A69702532353232 0x25 ORIGIN CALLDATALOAD ORIGIN ADDRESS PUSH20 0x7263253235334425323532326461746125323533 COINBASE PUSH21 0x65787425323532466A617661736372697074253235 CALLER TIMESTAMP PUSH3 0x617365 CALLDATASIZE CALLVALUE 0x25 ORIGIN CALLDATALOAD ORIGIN NUMBER EXTCODECOPY PUSH20 0x74796C653E626F64797B666F6E742D66616D696C PUSH26 0x3A506F7070696E732C73616E732D73657269663B6D617267696E GASPRICE ADDRESS EXTCODESIZE PUSH17 0x616464696E673A303B646973706C61793A PUSH7 0x6C65783B6A7573 PUSH21 0x6966792D636F6E74656E743A63656E7465723B616C PUSH10 0x676E2D6974656D733A63 PUSH6 0x6E7465727D23 PUSH4 0x7B706F73 PUSH10 0x74696F6E3A72656C6174 PUSH10 0x76657D23777B706F7369 PUSH21 0x696F6E3A6162736F6C7574653B646973706C61793A PUSH7 0x6C65783B666C65 PUSH25 0x2D646972656374696F6E3A636F6C756D6E3B6865696768743A BALANCE ADDRESS ADDRESS 0x25 EXTCODESIZE PUSH4 0x6F6C6F72 GASPRICE 0x23 PUSH7 0x66663B666F6E74 0x2D PUSH24 0x65696768743A3430307D2E747B666F6E742D73697A653A32 CODESIZE PUSH17 0x787D2E6C7B666F6E742D73697A653A3234 PUSH17 0x783B6D617267696E2D746F703A31307078 PUSH30 0x2E732C2E757B666F6E742D73697A653A383070783B666F6E742D77656967 PUSH9 0x743A3830303B666F6E PUSH21 0x2D66616D696C793A4D6F6E747365727261742C7361 PUSH15 0x732D73657269667D2E757B666F6E74 0x2D PUSH20 0x697A653A353670783B6F766572666C6F773A6869 PUSH5 0x64656E3B66 PUSH16 0x6E742D66616D696C793A4D6F6E747365 PUSH19 0x7261742C73616E732D73657269667D2E677B66 PUSH13 0x65782D67726F773A317D23617B PUSH14 0x617267696E2D746F703A312E3572 PUSH6 0x6D3B6D617267 PUSH10 0x6E2D6C6566743A312E35 PUSH19 0x656D7D237A7B6D617267696E2D626F74746F6D GASPRICE BALANCE 0x2E CALLDATALOAD PUSH19 0x656D3B6D617267696E2D6C6566743A312E3572 PUSH6 0x6D7D236D7B6D PUSH2 0x7267 PUSH10 0x6E2D626F74746F6D3A63 PUSH2 0x6C63 0x28 BALANCE PUSH19 0x656D202D20387078297D2E707B77696474683A KECCAK256 CALLDATACOPY ADDRESS ADDRESS PUSH17 0x783B206865696768743A2037303070783B KECCAK256 PUSH3 0x61636B PUSH8 0x726F756E642D636F PUSH13 0x6F723A25323533437363726970 PUSH21 0x253235323074797065253235334425323532327465 PUSH25 0x7425323532466A6176617363726970742532353242706E6725 ORIGIN CALLDATALOAD ORIGIN ORIGIN 0x25 ORIGIN CALLDATALOAD ORIGIN ADDRESS PUSH20 0x7263253235334425323532326461746125323533 COINBASE PUSH21 0x65787425323532466A617661736372697074253235 CALLER TIMESTAMP PUSH3 0x617365 CALLDATASIZE CALLVALUE 0x25 ORIGIN CALLDATALOAD ORIGIN NUMBER PUSH28 0x226E616D65223A224E6F756E7320577261707065642032303233222C 0x22 PUSH10 0x6D616765223A22697066 PUSH20 0x3A2F2F6261667962656967666668697734667865 CALLER PUSH3 0x6A6374 PUSH3 0x776670 PUSH16 0x6369707232626379356E76686A6A6935 PUSH19 0x796775726D667069777676636B676D222C2264 PUSH6 0x736372697074 PUSH10 0x6F6E223A224120636F6D PUSH14 0x656D6F726174697665204E465420 PUSH7 0x6F7220616C6C20 PUSH21 0x68652070656F706C6520696E766F6C76656420696E KECCAK256 PUSH17 0x726F6C696665726174696E672074686520 0x4E PUSH16 0x756E732044414F20696E203230323322 PUSH30 0x3C6C696E6B20687265663D2268747470733A2F2F666F6E74732E676F6F67 PUSH13 0x65617069732E636F6D22207265 PUSH13 0x3D22707265636F6E6E65637422 0x2F RETURNDATACOPY EXTCODECOPY PUSH13 0x696E6B20687265663D22687474 PUSH17 0x733A2F2F666F6E74732E67737461746963 0x2E PUSH4 0x6F6D2220 PUSH19 0x656C3D22707265636F6E6E656374222063726F PUSH20 0x736F726967696E3D2274727565222F3E3C6C696E PUSH12 0x20687265663D226874747073 GASPRICE 0x2F 0x2F PUSH7 0x6F6E74732E676F PUSH16 0x676C65617069732E636F6D2F63737332 EXTCODEHASH PUSH7 0x616D696C793D50 PUSH16 0x7070696E733A77676874403230303B33 ADDRESS ADDRESS EXTCODESIZE CALLVALUE ADDRESS ADDRESS EXTCODESIZE CALLDATALOAD ADDRESS ADDRESS EXTCODESIZE CALLDATASIZE ADDRESS ADDRESS EXTCODESIZE CALLDATACOPY ADDRESS ADDRESS EXTCODESIZE CODESIZE ADDRESS ADDRESS EXTCODESIZE CODECOPY ADDRESS ADDRESS 0x22 KECCAK256 PUSH19 0x656C3D227374796C657368656574222F3E3C6C PUSH10 0x6E6B20687265663D2268 PUSH21 0x7470733A2F2F666F6E74732E676F6F676C65617069 PUSH20 0x2E636F6D2F6373733F66616D696C793D4D6F6E74 PUSH20 0x65727261743A3430302C383030222072656C3D22 PUSH20 0x74796C657368656574222F3E3C7374796C652073 PUSH4 0x6F706564 RETURNDATASIZE 0x22 PUSH21 0x727565223E406D656469612073637265656E20616E PUSH5 0x20286D696E 0x2D PUSH9 0x65696768743A373230 PUSH17 0x78297B23617B6D617267696E2D746F703A ORIGIN 0x2E CALLDATALOAD PUSH19 0x656D3B6D617267696E2D6C6566743A322E3572 PUSH6 0x6D7D237A7B6D PUSH2 0x7267 PUSH10 0x6E2D626F74746F6D3A32 0x2E CALLDATALOAD PUSH19 0x656D3B6D617267696E2D6C6566743A322E3572 PUSH6 0x6D7D7D406D65 PUSH5 0x6961207363 PUSH19 0x65656E20616E6420286D61782D686569676874 GASPRICE CALLVALUE CALLDATALOAD ADDRESS PUSH17 0x78297B23617B6D617267696E2D746F703A BALANCE PUSH19 0x656D3B6D617267696E2D6C6566743A3172656D PUSH30 0x237A7B6D617267696E2D626F74746F6D3A3172656D3B6D617267696E2D6C PUSH6 0x66743A317265 PUSH14 0x7D7D406D65646961207363726565 PUSH15 0x20616E6420286D61782D6865696768 PUSH21 0x3A3330307078297B23617B6D617267696E2D746F70 GASPRICE 0x2E CALLDATALOAD PUSH19 0x656D3B6D617267696E2D6C6566743A2E357265 PUSH14 0x7D237A7B6D617267696E2D626F74 PUSH21 0x6F6D3A2E3572656D3B6D617267696E2D6C6566743A 0x2E CALLDATALOAD PUSH19 0x656D7D236D7B6D617267696E2D626F74746F6D GASPRICE ADDRESS PUSH30 0x7D3C2F7374796C653E3C2F6469763E3C64697620636C6173733D226C223E NUMBER PUSH19 0x65617465643C2F6469763E3C64697620636C61 PUSH20 0x733D2273223E3C7363726970743E646F63756D65 PUSH15 0x742E6164644576656E744C69737465 PUSH15 0x65722822444F4D436F6E74656E744C PUSH16 0x61646564222C2866756E6374696F6E28 0x29 PUSH28 0x66756E6374696F6E206528297B72657475726E2077696E646F772E69 PUSH15 0x6E65724865696768743E3D77696E64 PUSH16 0x772E696E6E657257696474683F77696E PUSH5 0x6F772E696E PUSH15 0x657257696474683A77696E646F772E PUSH10 0x6E6E6572486569676874 PUSH30 0x636F6E737420743D646F63756D656E742E717565727953656C6563746F72 0x28 0x22 PUSH14 0x61696E22292C6E3D66756E637469 PUSH16 0x6E2865297B636F6E737420743D323134 CALLDATACOPY CALLVALUE CODESIZE CALLER CALLDATASIZE CALLVALUE CALLDATACOPY EXTCODESIZE PUSH13 0x6574206E3D6525743B72657475 PUSH19 0x6E28293D3E286E3D31363830372A6E25742C6E 0x2F PUSH21 0x297D287061727365496E7428742E64617461736574 0x2E PUSH20 0x6565642C313029293B6C6574206F3D66756E6374 PUSH10 0x6F6E28652C74297B7265 PUSH21 0x75726E204D6174682E666C6F6F72287428292A6529 PUSH30 0x28342C6E292C793D6528292C6C3D6528292C783D6C2F3732302C723D343D RETURNDATASIZE PUSH16 0x3F32303A333D3D6F3F34303A323D3D6F EXTCODEHASH CALLDATASIZE ADDRESS GASPRICE BALANCE RETURNDATASIZE RETURNDATASIZE PUSH16 0x3F38303A3132302C693D5B5D2C613D32 ADDRESS ADDRESS 0x2C PUSH20 0x3D3130303B76617220633D742E64617461736574 0x2E PUSH4 0x6F6C6F72 EXTCODESIZE PUSH4 0x6F6E7374 KECCAK256 PUSH22 0x3D646F63756D656E742E637265617465456C656D656E PUSH21 0x282263616E76617322292C683D646F63756D656E74 0x2E PUSH8 0x6574456C656D656E PUSH21 0x4279496428226322293B682E636C6173734C697374 0x2E PUSH19 0x656D6F766528227022292C682E617070656E64 NUMBER PUSH9 0x696C642875293B636F PUSH15 0x737420663D752E676574436F6E7465 PUSH25 0x742822326422293B66756E6374696F6E206428652C742C6E29 PUSH28 0x72657475726E28312D6E292A652B6E2A747D66756E6374696F6E2077 0x28 PUSH6 0x2C742C6E2C6F 0x2C PUSH26 0x2C6C2C78297B72657475726E7B783A64286428652C742C78292C PUSH5 0x28742C6E2C PUSH25 0x292C78292C793A642864286F2C792C78292C6428792C6C2C78 0x29 0x2C PUSH25 0x297D7D66756E6374696F6E207028652C742C6E2C6F2C79297B PUSH13 0x6574206C3D332A28742D65292C PUSH25 0x3D332A286E2D74292D6C2C723D332A28742D65292C693D332A 0x28 PUSH15 0x2D74292D722C613D6F2D652D722D69 EXTCODESIZE PUSH19 0x657475726E7B783A286F2D652D6C2D78292A4D PUSH2 0x7468 0x2E PUSH17 0x6F7728792C33292B782A4D6174682E706F PUSH24 0x28792C32292B6C2A792B652C793A612A4D6174682E706F77 0x28 PUSH26 0x2C33292B692A4D6174682E706F7728792C32292B722A792B657D PUSH30 0x636F6C733D792F28722A78292C726F77733D6C2F28722A78293B76617220 PUSH14 0x3D6E28292C763D6E28292C4D3D6E 0x28 0x29 0x2C PUSH8 0x3D6E28292C453D6E 0x28 0x29 0x2C 0x4C RETURNDATASIZE PUSH15 0x28292C433D6E28292C533D6E28292C PUSH18 0x3D6E28292C483D6E28292C493D6E28292C52 RETURNDATASIZE PUSH15 0x28293B6C657420573D7B783A333630 0x2A PUSH14 0x2A782C793A3336302A762A787D2C PUSH27 0x3D7B783A3165332A4D2A782C793A3165332A672A787D2C413D7B78 GASPRICE CALLDATALOAD ADDRESS ADDRESS 0x2A GASLIMIT 0x2A PUSH25 0x2C793A3165332A4C2A782B3530302A787D2C423D7B783A3131 CALLDATALOAD ADDRESS 0x2A NUMBER 0x2A PUSH25 0x2D3135302A782C793A3165332A532A787D2C443D7B783A3165 CALLER 0x2A PUSH18 0x2A782C793A3165332A482A787D2C463D7B78 GASPRICE BALANCE BALANCE CALLDATALOAD ADDRESS 0x2A 0x49 0x2A PUSH25 0x2D3135302A782C793A3165332A522A782B3530302A787D3B66 PUSH16 0x72286C657420653D303B653C3D732F33 EXTCODESIZE PUSH6 0x2B2B297B6C65 PUSH21 0x20743D7728572E782C7A2E782C412E782C572E792C PUSH27 0x2E792C412E792C652F28732F3329293B692E707573682874297D66 PUSH16 0x72286C657420653D303B653C3D732F33 EXTCODESIZE PUSH6 0x2B2B297B6C65 PUSH21 0x20743D652F28732F33292C6E3D7028412E782C422E PUSH25 0x2C442E782C462E782C74292C6F3D7028412E792C422E792C44 0x2E PUSH26 0x2C462E792C74293B692E70757368287B783A6E2C793A6F7D297D PUSH7 0x6F72286C657420 PUSH6 0x3D303B653C3D PUSH20 0x2F333B652B2B297B6C657420743D652F28732F33 0x29 0x2C PUSH15 0x3D6428462E782C572E782C74292C6F RETURNDATASIZE PUSH5 0x28462E792C JUMPI 0x2E PUSH26 0x2C74293B692E70757368287B783A6E2C793A6F7D297D666F7228 PUSH13 0x657420653D303B653C3D732F32 EXTCODESIZE PUSH6 0x2B2B297B6C65 PUSH21 0x20743D652F28732F32292C6E3D7028412E782C422E PUSH25 0x2C442E782C462E782C74292C6F3D7028412E792C422E792C44 0x2E PUSH26 0x2C462E792C74293B692E70757368287B783A6E2C793A6F7D297D PUSH13 0x6574204F3D303B77696E646F77 0x2E PUSH2 0x6464 GASLIMIT PUSH23 0x656E744C697374656E65722822726573697A65222C2866 PUSH22 0x6E6374696F6E28297B793D6528292C6C3D6528292C78 RETURNDATASIZE PUSH13 0x2F3732302C723D6F3D3D342A78 EXTCODEHASH ORIGIN ADDRESS 0x2A PUSH25 0x3A333D3D6F3F34302A783A323D3D6F3F36302A783A313D3D6F EXTCODEHASH CODESIZE ADDRESS 0x2A PUSH25 0x3A3132302A782C662E63616E7661732E77696474683D792C66 0x2E PUSH4 0x616E7661 PUSH20 0x2E6865696768743D6C3B6C657420743D7B783A33 CALLDATASIZE ADDRESS 0x2A PUSH14 0x2A782C793A3336302A762A787D2C PUSH15 0x3D7B783A3165332A4D2A782C793A31 PUSH6 0x332A672A787D 0x2C PUSH2 0x3D7B PUSH25 0x3A3530302A452A782C793A3165332A4C2A782B3530302A787D 0x2C PUSH4 0x3D7B783A BALANCE BALANCE CALLDATALOAD ADDRESS 0x2A NUMBER 0x2A PUSH25 0x2D3135302A782C793A3165332A532A787D2C753D7B783A3165 CALLER 0x2A PUSH18 0x2A782C793A3165332A482A787D2C683D7B78 GASPRICE BALANCE BALANCE CALLDATALOAD ADDRESS 0x2A 0x49 0x2A PUSH25 0x2D3135302A782C793A3165332A522A782B3530302A787D3B69 RETURNDATASIZE JUMPDEST 0x5D EXTCODESIZE PUSH7 0x6F72286C657420 PUSH6 0x3D303B653C3D PUSH20 0x2F333B652B2B297B6C6574206F3D7728742E782C PUSH15 0x2E782C612E782C742E792C6E2E792C PUSH2 0x2E79 0x2C PUSH6 0x2F28732F3329 0x29 EXTCODESIZE PUSH10 0x2E70757368286F297D66 PUSH16 0x72286C657420653D303B653C3D732F33 EXTCODESIZE PUSH6 0x2B2B297B6C65 PUSH21 0x20743D652F28732F33292C6E3D7028612E782C632E PUSH25 0x2C752E782C682E782C74292C6F3D7028612E792C632E792C75 0x2E PUSH26 0x2C682E792C74293B692E70757368287B783A6E2C793A6F7D297D PUSH7 0x6F72286C657420 PUSH6 0x3D303B653C3D PUSH20 0x2F333B652B2B297B6C6574206E3D652F28732F33 0x29 0x2C PUSH16 0x3D6428682E782C742E782C6E292C793D PUSH5 0x28682E792C PUSH21 0x2E792C6E293B692E70757368287B783A6F2C793A79 PUSH30 0x297D666F72286C657420653D303B653C3D732F323B652B2B297B6C657420 PUSH21 0x3D652F28732F32292C6E3D7028612E782C632E782C PUSH22 0x2E782C682E782C74292C6F3D7028612E792C632E792C PUSH22 0x2E792C682E792C74293B692E70757368287B783A6E2C PUSH26 0x3A6F7D297D7D29292C66756E6374696F6E207428297B4F2B2B2C PUSH7 0x756E6374696F6E 0x28 0x29 PUSH28 0x662E63616E7661732E77696474683D6528292C662E63616E7661732E PUSH9 0x65696768743D652829 0x2C PUSH7 0x2E66696C6C5374 PUSH26 0x6C653D632C662E66696C6C5265637428302C302C792C6C293B66 PUSH16 0x72286C657420653D303B653C613B652B 0x2B 0x29 PUSH28 0x6C657420743D284F2D312B652A732F612B692E6C656E677468292569 0x2E PUSH13 0x656E6774682C6E3D695B4D6174 PUSH9 0x2E666C6F6F72287429 0x5D 0x2C PUSH16 0x3D4D6174682E666C6F6F72286E2E782F PUSH19 0x292A722C793D4D6174682E666C6F6F72286E2E PUSH26 0x2F72292A722C6C3D322A65253336303B662E66696C6C5374796C PUSH6 0x3D6068736C28 0x24 PUSH28 0x6C7D2C20313030252C2035302529602C662E66696C6C52656374286F 0x2C PUSH26 0x2D31302C722C72297D7D28292C73657454696D656F7574282828 0x29 RETURNDATASIZE RETURNDATACOPY PUSH19 0x657175657374416E696D6174696F6E4672616D PUSH6 0x287429292C32 CALLDATALOAD 0x29 PUSH30 0x28297D29293B3C2F7363726970743E3C73637269707420747970653D2274 PUSH6 0x78742F6A6176 PUSH2 0x7363 PUSH19 0x6970742B706E6722207372633D22646174613A PUSH21 0x6578742F6A6176617363726970743B626173653634 0x2C 0x22 RETURNDATACOPY EXTCODECOPY PUSH5 0x6976206964 RETURNDATASIZE 0x22 PUSH24 0x223E3C6469762069643D2261223E3C64697620636C617373 RETURNDATASIZE 0x22 PUSH21 0x223E4E6F756E73205772617070656420323032333C 0x2F PUSH5 0x69763E3C64 PUSH10 0x7620636C6173733D2275 0x22 RETURNDATACOPY KECCAK256 PUSH17 0x726F70733C2F6469763E3C64697620636C PUSH2 0x7373 RETURNDATASIZE 0x22 PUSH13 0x223E53706F6E736F7265643C2F PUSH5 0x69763E3C64 PUSH10 0x7620636C6173733D2273 0x22 RETURNDATACOPY LOG2 PUSH5 0x6970667358 0x22 SLT KECCAK256 0x24 DUP6 0xBD POP GASLIMIT PUSH10 0x8DC398D6C45E83F0EE45 0x2F CHAINID 0x4D PUSH24 0x308A3995C42D6198680174B664736F6C6343000815003300 "
		},
		"gasEstimates": {
			"creation": {
				"codeDepositCost": "3847600",
				"executionCost": "4368",
				"totalCost": "3851968"
			},
			"external": {
				"BODY_OPEN_RAW()": "infinite",
				"BODY_OPEN_URL_SAFE()": "infinite",
				"BODY_RAW_BYTES()": "438",
				"BODY_SAFE_BYTES()": "415",
				"DATA_HTML_BASE64_URI_RAW()": "infinite",
				"DATA_HTML_URL_SAFE()": "infinite",
				"HEAD_CLOSE_RAW()": "infinite",
				"HEAD_CLOSE_URL_SAFE()": "infinite",
				"HEAD_OPEN_RAW()": "infinite",
				"HEAD_OPEN_URL_SAFE()": "infinite",
				"HEAD_RAW_BYTES()": "370",
				"HEAD_URL_SAFE_BYTES()": "370",
				"HTML_BASE64_DATA_URI_BYTES()": "415",
				"HTML_BODY_CLOSED_RAW()": "infinite",
				"HTML_BODY_CLOSED_URL_SAFE()": "infinite",
				"HTML_OPEN_RAW()": "infinite",
				"HTML_OPEN_URL_SAFE()": "infinite",
				"HTML_RAW_BYTES()": "371",
				"HTML_URL_SAFE_BYTES()": "435",
				"RAW_BYTES()": "458",
				"URLS_RAW_BYTES()": "392",
				"URLS_SAFE_BYTES()": "437",
				"URL_SAFE_BYTES()": "371",
				"contractJSON()": "infinite",
				"fetchTagContent((string,address,bytes,uint8,bytes,bytes,bytes))": "infinite",
				"getEncodedHTML(((string,address,bytes,uint8,bytes,bytes,bytes)[],(string,address,bytes,uint8,bytes,bytes,bytes)[]))": "infinite",
				"getEncodedHTMLString(((string,address,bytes,uint8,bytes,bytes,bytes)[],(string,address,bytes,uint8,bytes,bytes,bytes)[]))": "infinite",
				"getHTML(((string,address,bytes,uint8,bytes,bytes,bytes)[],(string,address,bytes,uint8,bytes,bytes,bytes)[]))": "infinite",
				"getHTMLString(((string,address,bytes,uint8,bytes,bytes,bytes)[],(string,address,bytes,uint8,bytes,bytes,bytes)[]))": "infinite",
				"htmlRequest(uint32,uint16,uint16,uint24,string)": "infinite",
				"htmlURI(uint32,uint16,uint16,uint24,string)": "infinite",
				"sizeForBase64Encoding(uint256)": "infinite",
				"svgURI(uint32,uint16,uint16,uint24,string)": "infinite",
				"tagOpenCloseForHTMLTag((string,address,bytes,uint8,bytes,bytes,bytes))": "infinite",
				"tagOpenCloseForHTMLTagURLSafe((string,address,bytes,uint8,bytes,bytes,bytes))": "infinite",
				"tokenJSON(uint32,uint256,uint16,uint16,uint24,string)": "infinite"
			},
			"internal": {
				"_color(uint32)": "infinite"
			}
		},
		"methodIdentifiers": {
			"BODY_OPEN_RAW()": "ce5ad179",
			"BODY_OPEN_URL_SAFE()": "7f369319",
			"BODY_RAW_BYTES()": "33174f98",
			"BODY_SAFE_BYTES()": "be58b0a9",
			"DATA_HTML_BASE64_URI_RAW()": "f6130adc",
			"DATA_HTML_URL_SAFE()": "d61974f1",
			"HEAD_CLOSE_RAW()": "3d5be2c2",
			"HEAD_CLOSE_URL_SAFE()": "d9237f14",
			"HEAD_OPEN_RAW()": "c46b294d",
			"HEAD_OPEN_URL_SAFE()": "43f2614f",
			"HEAD_RAW_BYTES()": "d0c3efa8",
			"HEAD_URL_SAFE_BYTES()": "bf35dd0b",
			"HTML_BASE64_DATA_URI_BYTES()": "7510ac24",
			"HTML_BODY_CLOSED_RAW()": "f051dcf8",
			"HTML_BODY_CLOSED_URL_SAFE()": "053f1eb0",
			"HTML_OPEN_RAW()": "bc689620",
			"HTML_OPEN_URL_SAFE()": "640bab41",
			"HTML_RAW_BYTES()": "b55ccc62",
			"HTML_URL_SAFE_BYTES()": "f49717ee",
			"RAW_BYTES()": "afae76fa",
			"URLS_RAW_BYTES()": "87598e52",
			"URLS_SAFE_BYTES()": "bee84ae3",
			"URL_SAFE_BYTES()": "3708be65",
			"contractJSON()": "5f17cac3",
			"fetchTagContent((string,address,bytes,uint8,bytes,bytes,bytes))": "cdea0cef",
			"getEncodedHTML(((string,address,bytes,uint8,bytes,bytes,bytes)[],(string,address,bytes,uint8,bytes,bytes,bytes)[]))": "2bee6807",
			"getEncodedHTMLString(((string,address,bytes,uint8,bytes,bytes,bytes)[],(string,address,bytes,uint8,bytes,bytes,bytes)[]))": "a891b35e",
			"getHTML(((string,address,bytes,uint8,bytes,bytes,bytes)[],(string,address,bytes,uint8,bytes,bytes,bytes)[]))": "7dbb90a2",
			"getHTMLString(((string,address,bytes,uint8,bytes,bytes,bytes)[],(string,address,bytes,uint8,bytes,bytes,bytes)[]))": "d5ed88ce",
			"htmlRequest(uint32,uint16,uint16,uint24,string)": "0c4ae1c9",
			"htmlURI(uint32,uint16,uint16,uint24,string)": "d2ae5ffd",
			"sizeForBase64Encoding(uint256)": "72617f8a",
			"svgURI(uint32,uint16,uint16,uint24,string)": "41ff467b",
			"tagOpenCloseForHTMLTag((string,address,bytes,uint8,bytes,bytes,bytes))": "8c8c3796",
			"tagOpenCloseForHTMLTagURLSafe((string,address,bytes,uint8,bytes,bytes,bytes))": "cd475f26",
			"tokenJSON(uint32,uint256,uint16,uint16,uint24,string)": "e522a915"
		}
	},
	"abi": [
		{
			"inputs": [],
			"name": "BODY_OPEN_RAW",
			"outputs": [
				{
					"internalType": "bytes",
					"name": "",
					"type": "bytes"
				}
			],
			"stateMutability": "view",
			"type": "function"
		},
		{
			"inputs": [],
			"name": "BODY_OPEN_URL_SAFE",
			"outputs": [
				{
					"internalType": "bytes",
					"name": "",
					"type": "bytes"
				}
			],
			"stateMutability": "view",
			"type": "function"
		},
		{
			"inputs": [],
			"name": "BODY_RAW_BYTES",
			"outputs": [
				{
					"internalType": "uint256",
					"name": "",
					"type": "uint256"
				}
			],
			"stateMutability": "view",
			"type": "function"
		},
		{
			"inputs": [],
			"name": "BODY_SAFE_BYTES",
			"outputs": [
				{
					"internalType": "uint256",
					"name": "",
					"type": "uint256"
				}
			],
			"stateMutability": "view",
			"type": "function"
		},
		{
			"inputs": [],
			"name": "DATA_HTML_BASE64_URI_RAW",
			"outputs": [
				{
					"internalType": "bytes",
					"name": "",
					"type": "bytes"
				}
			],
			"stateMutability": "view",
			"type": "function"
		},
		{
			"inputs": [],
			"name": "DATA_HTML_URL_SAFE",
			"outputs": [
				{
					"internalType": "bytes",
					"name": "",
					"type": "bytes"
				}
			],
			"stateMutability": "view",
			"type": "function"
		},
		{
			"inputs": [],
			"name": "HEAD_CLOSE_RAW",
			"outputs": [
				{
					"internalType": "bytes",
					"name": "",
					"type": "bytes"
				}
			],
			"stateMutability": "view",
			"type": "function"
		},
		{
			"inputs": [],
			"name": "HEAD_CLOSE_URL_SAFE",
			"outputs": [
				{
					"internalType": "bytes",
					"name": "",
					"type": "bytes"
				}
			],
			"stateMutability": "view",
			"type": "function"
		},
		{
			"inputs": [],
			"name": "HEAD_OPEN_RAW",
			"outputs": [
				{
					"internalType": "bytes",
					"name": "",
					"type": "bytes"
				}
			],
			"stateMutability": "view",
			"type": "function"
		},
		{
			"inputs": [],
			"name": "HEAD_OPEN_URL_SAFE",
			"outputs": [
				{
					"internalType": "bytes",
					"name": "",
					"type": "bytes"
				}
			],
			"stateMutability": "view",
			"type": "function"
		},
		{
			"inputs": [],
			"name": "HEAD_RAW_BYTES",
			"outputs": [
				{
					"internalType": "uint256",
					"name": "",
					"type": "uint256"
				}
			],
			"stateMutability": "view",
			"type": "function"
		},
		{
			"inputs": [],
			"name": "HEAD_URL_SAFE_BYTES",
			"outputs": [
				{
					"internalType": "uint256",
					"name": "",
					"type": "uint256"
				}
			],
			"stateMutability": "view",
			"type": "function"
		},
		{
			"inputs": [],
			"name": "HTML_BASE64_DATA_URI_BYTES",
			"outputs": [
				{
					"internalType": "uint256",
					"name": "",
					"type": "uint256"
				}
			],
			"stateMutability": "view",
			"type": "function"
		},
		{
			"inputs": [],
			"name": "HTML_BODY_CLOSED_RAW",
			"outputs": [
				{
					"internalType": "bytes",
					"name": "",
					"type": "bytes"
				}
			],
			"stateMutability": "view",
			"type": "function"
		},
		{
			"inputs": [],
			"name": "HTML_BODY_CLOSED_URL_SAFE",
			"outputs": [
				{
					"internalType": "bytes",
					"name": "",
					"type": "bytes"
				}
			],
			"stateMutability": "view",
			"type": "function"
		},
		{
			"inputs": [],
			"name": "HTML_OPEN_RAW",
			"outputs": [
				{
					"internalType": "bytes",
					"name": "",
					"type": "bytes"
				}
			],
			"stateMutability": "view",
			"type": "function"
		},
		{
			"inputs": [],
			"name": "HTML_OPEN_URL_SAFE",
			"outputs": [
				{
					"internalType": "bytes",
					"name": "",
					"type": "bytes"
				}
			],
			"stateMutability": "view",
			"type": "function"
		},
		{
			"inputs": [],
			"name": "HTML_RAW_BYTES",
			"outputs": [
				{
					"internalType": "uint256",
					"name": "",
					"type": "uint256"
				}
			],
			"stateMutability": "view",
			"type": "function"
		},
		{
			"inputs": [],
			"name": "HTML_URL_SAFE_BYTES",
			"outputs": [
				{
					"internalType": "uint256",
					"name": "",
					"type": "uint256"
				}
			],
			"stateMutability": "view",
			"type": "function"
		},
		{
			"inputs": [],
			"name": "RAW_BYTES",
			"outputs": [
				{
					"internalType": "uint256",
					"name": "",
					"type": "uint256"
				}
			],
			"stateMutability": "view",
			"type": "function"
		},
		{
			"inputs": [],
			"name": "URLS_RAW_BYTES",
			"outputs": [
				{
					"internalType": "uint256",
					"name": "",
					"type": "uint256"
				}
			],
			"stateMutability": "view",
			"type": "function"
		},
		{
			"inputs": [],
			"name": "URLS_SAFE_BYTES",
			"outputs": [
				{
					"internalType": "uint256",
					"name": "",
					"type": "uint256"
				}
			],
			"stateMutability": "view",
			"type": "function"
		},
		{
			"inputs": [],
			"name": "URL_SAFE_BYTES",
			"outputs": [
				{
					"internalType": "uint256",
					"name": "",
					"type": "uint256"
				}
			],
			"stateMutability": "view",
			"type": "function"
		},
		{
			"inputs": [],
			"name": "contractJSON",
			"outputs": [
				{
					"internalType": "string",
					"name": "",
					"type": "string"
				}
			],
			"stateMutability": "pure",
			"type": "function"
		},
		{
			"inputs": [
				{
					"components": [
						{
							"internalType": "string",
							"name": "name",
							"type": "string"
						},
						{
							"internalType": "address",
							"name": "contractAddress",
							"type": "address"
						},
						{
							"internalType": "bytes",
							"name": "contractData",
							"type": "bytes"
						},
						{
							"internalType": "enum HTMLTagType",
							"name": "tagType",
							"type": "uint8"
						},
						{
							"internalType": "bytes",
							"name": "tagOpen",
							"type": "bytes"
						},
						{
							"internalType": "bytes",
							"name": "tagClose",
							"type": "bytes"
						},
						{
							"internalType": "bytes",
							"name": "tagContent",
							"type": "bytes"
						}
					],
					"internalType": "struct HTMLTag",
					"name": "htmlTag",
					"type": "tuple"
				}
			],
			"name": "fetchTagContent",
			"outputs": [
				{
					"internalType": "bytes",
					"name": "",
					"type": "bytes"
				}
			],
			"stateMutability": "view",
			"type": "function"
		},
		{
			"inputs": [
				{
					"components": [
						{
							"components": [
								{
									"internalType": "string",
									"name": "name",
									"type": "string"
								},
								{
									"internalType": "address",
									"name": "contractAddress",
									"type": "address"
								},
								{
									"internalType": "bytes",
									"name": "contractData",
									"type": "bytes"
								},
								{
									"internalType": "enum HTMLTagType",
									"name": "tagType",
									"type": "uint8"
								},
								{
									"internalType": "bytes",
									"name": "tagOpen",
									"type": "bytes"
								},
								{
									"internalType": "bytes",
									"name": "tagClose",
									"type": "bytes"
								},
								{
									"internalType": "bytes",
									"name": "tagContent",
									"type": "bytes"
								}
							],
							"internalType": "struct HTMLTag[]",
							"name": "headTags",
							"type": "tuple[]"
						},
						{
							"components": [
								{
									"internalType": "string",
									"name": "name",
									"type": "string"
								},
								{
									"internalType": "address",
									"name": "contractAddress",
									"type": "address"
								},
								{
									"internalType": "bytes",
									"name": "contractData",
									"type": "bytes"
								},
								{
									"internalType": "enum HTMLTagType",
									"name": "tagType",
									"type": "uint8"
								},
								{
									"internalType": "bytes",
									"name": "tagOpen",
									"type": "bytes"
								},
								{
									"internalType": "bytes",
									"name": "tagClose",
									"type": "bytes"
								},
								{
									"internalType": "bytes",
									"name": "tagContent",
									"type": "bytes"
								}
							],
							"internalType": "struct HTMLTag[]",
							"name": "bodyTags",
							"type": "tuple[]"
						}
					],
					"internalType": "struct HTMLRequest",
					"name": "htmlRequest",
					"type": "tuple"
				}
			],
			"name": "getEncodedHTML",
			"outputs": [
				{
					"internalType": "bytes",
					"name": "",
					"type": "bytes"
				}
			],
			"stateMutability": "view",
			"type": "function"
		},
		{
			"inputs": [
				{
					"components": [
						{
							"components": [
								{
									"internalType": "string",
									"name": "name",
									"type": "string"
								},
								{
									"internalType": "address",
									"name": "contractAddress",
									"type": "address"
								},
								{
									"internalType": "bytes",
									"name": "contractData",
									"type": "bytes"
								},
								{
									"internalType": "enum HTMLTagType",
									"name": "tagType",
									"type": "uint8"
								},
								{
									"internalType": "bytes",
									"name": "tagOpen",
									"type": "bytes"
								},
								{
									"internalType": "bytes",
									"name": "tagClose",
									"type": "bytes"
								},
								{
									"internalType": "bytes",
									"name": "tagContent",
									"type": "bytes"
								}
							],
							"internalType": "struct HTMLTag[]",
							"name": "headTags",
							"type": "tuple[]"
						},
						{
							"components": [
								{
									"internalType": "string",
									"name": "name",
									"type": "string"
								},
								{
									"internalType": "address",
									"name": "contractAddress",
									"type": "address"
								},
								{
									"internalType": "bytes",
									"name": "contractData",
									"type": "bytes"
								},
								{
									"internalType": "enum HTMLTagType",
									"name": "tagType",
									"type": "uint8"
								},
								{
									"internalType": "bytes",
									"name": "tagOpen",
									"type": "bytes"
								},
								{
									"internalType": "bytes",
									"name": "tagClose",
									"type": "bytes"
								},
								{
									"internalType": "bytes",
									"name": "tagContent",
									"type": "bytes"
								}
							],
							"internalType": "struct HTMLTag[]",
							"name": "bodyTags",
							"type": "tuple[]"
						}
					],
					"internalType": "struct HTMLRequest",
					"name": "htmlRequest",
					"type": "tuple"
				}
			],
			"name": "getEncodedHTMLString",
			"outputs": [
				{
					"internalType": "string",
					"name": "",
					"type": "string"
				}
			],
			"stateMutability": "view",
			"type": "function"
		},
		{
			"inputs": [
				{
					"components": [
						{
							"components": [
								{
									"internalType": "string",
									"name": "name",
									"type": "string"
								},
								{
									"internalType": "address",
									"name": "contractAddress",
									"type": "address"
								},
								{
									"internalType": "bytes",
									"name": "contractData",
									"type": "bytes"
								},
								{
									"internalType": "enum HTMLTagType",
									"name": "tagType",
									"type": "uint8"
								},
								{
									"internalType": "bytes",
									"name": "tagOpen",
									"type": "bytes"
								},
								{
									"internalType": "bytes",
									"name": "tagClose",
									"type": "bytes"
								},
								{
									"internalType": "bytes",
									"name": "tagContent",
									"type": "bytes"
								}
							],
							"internalType": "struct HTMLTag[]",
							"name": "headTags",
							"type": "tuple[]"
						},
						{
							"components": [
								{
									"internalType": "string",
									"name": "name",
									"type": "string"
								},
								{
									"internalType": "address",
									"name": "contractAddress",
									"type": "address"
								},
								{
									"internalType": "bytes",
									"name": "contractData",
									"type": "bytes"
								},
								{
									"internalType": "enum HTMLTagType",
									"name": "tagType",
									"type": "uint8"
								},
								{
									"internalType": "bytes",
									"name": "tagOpen",
									"type": "bytes"
								},
								{
									"internalType": "bytes",
									"name": "tagClose",
									"type": "bytes"
								},
								{
									"internalType": "bytes",
									"name": "tagContent",
									"type": "bytes"
								}
							],
							"internalType": "struct HTMLTag[]",
							"name": "bodyTags",
							"type": "tuple[]"
						}
					],
					"internalType": "struct HTMLRequest",
					"name": "htmlRequest",
					"type": "tuple"
				}
			],
			"name": "getHTML",
			"outputs": [
				{
					"internalType": "bytes",
					"name": "",
					"type": "bytes"
				}
			],
			"stateMutability": "view",
			"type": "function"
		},
		{
			"inputs": [
				{
					"components": [
						{
							"components": [
								{
									"internalType": "string",
									"name": "name",
									"type": "string"
								},
								{
									"internalType": "address",
									"name": "contractAddress",
									"type": "address"
								},
								{
									"internalType": "bytes",
									"name": "contractData",
									"type": "bytes"
								},
								{
									"internalType": "enum HTMLTagType",
									"name": "tagType",
									"type": "uint8"
								},
								{
									"internalType": "bytes",
									"name": "tagOpen",
									"type": "bytes"
								},
								{
									"internalType": "bytes",
									"name": "tagClose",
									"type": "bytes"
								},
								{
									"internalType": "bytes",
									"name": "tagContent",
									"type": "bytes"
								}
							],
							"internalType": "struct HTMLTag[]",
							"name": "headTags",
							"type": "tuple[]"
						},
						{
							"components": [
								{
									"internalType": "string",
									"name": "name",
									"type": "string"
								},
								{
									"internalType": "address",
									"name": "contractAddress",
									"type": "address"
								},
								{
									"internalType": "bytes",
									"name": "contractData",
									"type": "bytes"
								},
								{
									"internalType": "enum HTMLTagType",
									"name": "tagType",
									"type": "uint8"
								},
								{
									"internalType": "bytes",
									"name": "tagOpen",
									"type": "bytes"
								},
								{
									"internalType": "bytes",
									"name": "tagClose",
									"type": "bytes"
								},
								{
									"internalType": "bytes",
									"name": "tagContent",
									"type": "bytes"
								}
							],
							"internalType": "struct HTMLTag[]",
							"name": "bodyTags",
							"type": "tuple[]"
						}
					],
					"internalType": "struct HTMLRequest",
					"name": "htmlRequest",
					"type": "tuple"
				}
			],
			"name": "getHTMLString",
			"outputs": [
				{
					"internalType": "string",
					"name": "",
					"type": "string"
				}
			],
			"stateMutability": "view",
			"type": "function"
		},
		{
			"inputs": [
				{
					"internalType": "uint32",
					"name": "seed",
					"type": "uint32"
				},
				{
					"internalType": "uint16",
					"name": "props",
					"type": "uint16"
				},
				{
					"internalType": "uint16",
					"name": "sponsoredProps",
					"type": "uint16"
				},
				{
					"internalType": "uint24",
					"name": "votes",
					"type": "uint24"
				},
				{
					"internalType": "string",
					"name": "username",
					"type": "string"
				}
			],
			"name": "htmlRequest",
			"outputs": [
				{
					"components": [
						{
							"internalType": "string",
							"name": "name",
							"type": "string"
						},
						{
							"internalType": "address",
							"name": "contractAddress",
							"type": "address"
						},
						{
							"internalType": "bytes",
							"name": "contractData",
							"type": "bytes"
						},
						{
							"internalType": "enum HTMLTagType",
							"name": "tagType",
							"type": "uint8"
						},
						{
							"internalType": "bytes",
							"name": "tagOpen",
							"type": "bytes"
						},
						{
							"internalType": "bytes",
							"name": "tagClose",
							"type": "bytes"
						},
						{
							"internalType": "bytes",
							"name": "tagContent",
							"type": "bytes"
						}
					],
					"internalType": "struct HTMLTag[]",
					"name": "",
					"type": "tuple[]"
				},
				{
					"components": [
						{
							"internalType": "string",
							"name": "name",
							"type": "string"
						},
						{
							"internalType": "address",
							"name": "contractAddress",
							"type": "address"
						},
						{
							"internalType": "bytes",
							"name": "contractData",
							"type": "bytes"
						},
						{
							"internalType": "enum HTMLTagType",
							"name": "tagType",
							"type": "uint8"
						},
						{
							"internalType": "bytes",
							"name": "tagOpen",
							"type": "bytes"
						},
						{
							"internalType": "bytes",
							"name": "tagClose",
							"type": "bytes"
						},
						{
							"internalType": "bytes",
							"name": "tagContent",
							"type": "bytes"
						}
					],
					"internalType": "struct HTMLTag[]",
					"name": "",
					"type": "tuple[]"
				}
			],
			"stateMutability": "pure",
			"type": "function"
		},
		{
			"inputs": [
				{
					"internalType": "uint32",
					"name": "seed",
					"type": "uint32"
				},
				{
					"internalType": "uint16",
					"name": "props",
					"type": "uint16"
				},
				{
					"internalType": "uint16",
					"name": "sponsoredProps",
					"type": "uint16"
				},
				{
					"internalType": "uint24",
					"name": "votes",
					"type": "uint24"
				},
				{
					"internalType": "string",
					"name": "username",
					"type": "string"
				}
			],
			"name": "htmlURI",
			"outputs": [
				{
					"internalType": "bytes",
					"name": "",
					"type": "bytes"
				}
			],
			"stateMutability": "view",
			"type": "function"
		},
		{
			"inputs": [
				{
					"internalType": "uint256",
					"name": "value",
					"type": "uint256"
				}
			],
			"name": "sizeForBase64Encoding",
			"outputs": [
				{
					"internalType": "uint256",
					"name": "",
					"type": "uint256"
				}
			],
			"stateMutability": "pure",
			"type": "function"
		},
		{
			"inputs": [
				{
					"internalType": "uint32",
					"name": "seed",
					"type": "uint32"
				},
				{
					"internalType": "uint16",
					"name": "props",
					"type": "uint16"
				},
				{
					"internalType": "uint16",
					"name": "sponsoredProps",
					"type": "uint16"
				},
				{
					"internalType": "uint24",
					"name": "votes",
					"type": "uint24"
				},
				{
					"internalType": "string",
					"name": "username",
					"type": "string"
				}
			],
			"name": "svgURI",
			"outputs": [
				{
					"internalType": "bytes",
					"name": "",
					"type": "bytes"
				}
			],
			"stateMutability": "view",
			"type": "function"
		},
		{
			"inputs": [
				{
					"components": [
						{
							"internalType": "string",
							"name": "name",
							"type": "string"
						},
						{
							"internalType": "address",
							"name": "contractAddress",
							"type": "address"
						},
						{
							"internalType": "bytes",
							"name": "contractData",
							"type": "bytes"
						},
						{
							"internalType": "enum HTMLTagType",
							"name": "tagType",
							"type": "uint8"
						},
						{
							"internalType": "bytes",
							"name": "tagOpen",
							"type": "bytes"
						},
						{
							"internalType": "bytes",
							"name": "tagClose",
							"type": "bytes"
						},
						{
							"internalType": "bytes",
							"name": "tagContent",
							"type": "bytes"
						}
					],
					"internalType": "struct HTMLTag",
					"name": "htmlTag",
					"type": "tuple"
				}
			],
			"name": "tagOpenCloseForHTMLTag",
			"outputs": [
				{
					"internalType": "bytes",
					"name": "",
					"type": "bytes"
				},
				{
					"internalType": "bytes",
					"name": "",
					"type": "bytes"
				}
			],
			"stateMutability": "pure",
			"type": "function"
		},
		{
			"inputs": [
				{
					"components": [
						{
							"internalType": "string",
							"name": "name",
							"type": "string"
						},
						{
							"internalType": "address",
							"name": "contractAddress",
							"type": "address"
						},
						{
							"internalType": "bytes",
							"name": "contractData",
							"type": "bytes"
						},
						{
							"internalType": "enum HTMLTagType",
							"name": "tagType",
							"type": "uint8"
						},
						{
							"internalType": "bytes",
							"name": "tagOpen",
							"type": "bytes"
						},
						{
							"internalType": "bytes",
							"name": "tagClose",
							"type": "bytes"
						},
						{
							"internalType": "bytes",
							"name": "tagContent",
							"type": "bytes"
						}
					],
					"internalType": "struct HTMLTag",
					"name": "htmlTag",
					"type": "tuple"
				}
			],
			"name": "tagOpenCloseForHTMLTagURLSafe",
			"outputs": [
				{
					"internalType": "bytes",
					"name": "",
					"type": "bytes"
				},
				{
					"internalType": "bytes",
					"name": "",
					"type": "bytes"
				}
			],
			"stateMutability": "pure",
			"type": "function"
		},
		{
			"inputs": [
				{
					"internalType": "uint32",
					"name": "seed",
					"type": "uint32"
				},
				{
					"internalType": "uint256",
					"name": "uid",
					"type": "uint256"
				},
				{
					"internalType": "uint16",
					"name": "props",
					"type": "uint16"
				},
				{
					"internalType": "uint16",
					"name": "sponsoredProps",
					"type": "uint16"
				},
				{
					"internalType": "uint24",
					"name": "votes",
					"type": "uint24"
				},
				{
					"internalType": "string",
					"name": "username",
					"type": "string"
				}
			],
			"name": "tokenJSON",
			"outputs": [
				{
					"internalType": "string",
					"name": "",
					"type": "string"
				}
			],
			"stateMutability": "view",
			"type": "function"
		}
	]
}