{
  "_format": "hh-sol-artifact-1",
  "contractName": "ScriptyHTML",
  "sourceName": "scripty.sol/contracts/scripty/htmlBuilders/ScriptyHTML.sol",
  "abi": [
    {
      "inputs": [],
      "name": "BODY_OPEN_RAW",
      "outputs": [
        {
          "internalType": "bytes",
          "name": "",
          "type": "bytes"
        }
      ],
      "stateMutability": "view",
      "type": "function"
    },
    {
      "inputs": [],
      "name": "BODY_OPEN_URL_SAFE",
      "outputs": [
        {
          "internalType": "bytes",
          "name": "",
          "type": "bytes"
        }
      ],
      "stateMutability": "view",
      "type": "function"
    },
    {
      "inputs": [],
      "name": "BODY_RAW_BYTES",
      "outputs": [
        {
          "internalType": "uint256",
          "name": "",
          "type": "uint256"
        }
      ],
      "stateMutability": "view",
      "type": "function"
    },
    {
      "inputs": [],
      "name": "BODY_SAFE_BYTES",
      "outputs": [
        {
          "internalType": "uint256",
          "name": "",
          "type": "uint256"
        }
      ],
      "stateMutability": "view",
      "type": "function"
    },
    {
      "inputs": [],
      "name": "DATA_HTML_BASE64_URI_RAW",
      "outputs": [
        {
          "internalType": "bytes",
          "name": "",
          "type": "bytes"
        }
      ],
      "stateMutability": "view",
      "type": "function"
    },
    {
      "inputs": [],
      "name": "DATA_HTML_URL_SAFE",
      "outputs": [
        {
          "internalType": "bytes",
          "name": "",
          "type": "bytes"
        }
      ],
      "stateMutability": "view",
      "type": "function"
    },
    {
      "inputs": [],
      "name": "HEAD_CLOSE_RAW",
      "outputs": [
        {
          "internalType": "bytes",
          "name": "",
          "type": "bytes"
        }
      ],
      "stateMutability": "view",
      "type": "function"
    },
    {
      "inputs": [],
      "name": "HEAD_CLOSE_URL_SAFE",
      "outputs": [
        {
          "internalType": "bytes",
          "name": "",
          "type": "bytes"
        }
      ],
      "stateMutability": "view",
      "type": "function"
    },
    {
      "inputs": [],
      "name": "HEAD_OPEN_RAW",
      "outputs": [
        {
          "internalType": "bytes",
          "name": "",
          "type": "bytes"
        }
      ],
      "stateMutability": "view",
      "type": "function"
    },
    {
      "inputs": [],
      "name": "HEAD_OPEN_URL_SAFE",
      "outputs": [
        {
          "internalType": "bytes",
          "name": "",
          "type": "bytes"
        }
      ],
      "stateMutability": "view",
      "type": "function"
    },
    {
      "inputs": [],
      "name": "HEAD_RAW_BYTES",
      "outputs": [
        {
          "internalType": "uint256",
          "name": "",
          "type": "uint256"
        }
      ],
      "stateMutability": "view",
      "type": "function"
    },
    {
      "inputs": [],
      "name": "HEAD_URL_SAFE_BYTES",
      "outputs": [
        {
          "internalType": "uint256",
          "name": "",
          "type": "uint256"
        }
      ],
      "stateMutability": "view",
      "type": "function"
    },
    {
      "inputs": [],
      "name": "HTML_BASE64_DATA_URI_BYTES",
      "outputs": [
        {
          "internalType": "uint256",
          "name": "",
          "type": "uint256"
        }
      ],
      "stateMutability": "view",
      "type": "function"
    },
    {
      "inputs": [],
      "name": "HTML_BODY_CLOSED_RAW",
      "outputs": [
        {
          "internalType": "bytes",
          "name": "",
          "type": "bytes"
        }
      ],
      "stateMutability": "view",
      "type": "function"
    },
    {
      "inputs": [],
      "name": "HTML_BODY_CLOSED_URL_SAFE",
      "outputs": [
        {
          "internalType": "bytes",
          "name": "",
          "type": "bytes"
        }
      ],
      "stateMutability": "view",
      "type": "function"
    },
    {
      "inputs": [],
      "name": "HTML_OPEN_RAW",
      "outputs": [
        {
          "internalType": "bytes",
          "name": "",
          "type": "bytes"
        }
      ],
      "stateMutability": "view",
      "type": "function"
    },
    {
      "inputs": [],
      "name": "HTML_OPEN_URL_SAFE",
      "outputs": [
        {
          "internalType": "bytes",
          "name": "",
          "type": "bytes"
        }
      ],
      "stateMutability": "view",
      "type": "function"
    },
    {
      "inputs": [],
      "name": "HTML_RAW_BYTES",
      "outputs": [
        {
          "internalType": "uint256",
          "name": "",
          "type": "uint256"
        }
      ],
      "stateMutability": "view",
      "type": "function"
    },
    {
      "inputs": [],
      "name": "HTML_URL_SAFE_BYTES",
      "outputs": [
        {
          "internalType": "uint256",
          "name": "",
          "type": "uint256"
        }
      ],
      "stateMutability": "view",
      "type": "function"
    },
    {
      "inputs": [],
      "name": "RAW_BYTES",
      "outputs": [
        {
          "internalType": "uint256",
          "name": "",
          "type": "uint256"
        }
      ],
      "stateMutability": "view",
      "type": "function"
    },
    {
      "inputs": [],
      "name": "URLS_RAW_BYTES",
      "outputs": [
        {
          "internalType": "uint256",
          "name": "",
          "type": "uint256"
        }
      ],
      "stateMutability": "view",
      "type": "function"
    },
    {
      "inputs": [],
      "name": "URLS_SAFE_BYTES",
      "outputs": [
        {
          "internalType": "uint256",
          "name": "",
          "type": "uint256"
        }
      ],
      "stateMutability": "view",
      "type": "function"
    },
    {
      "inputs": [],
      "name": "URL_SAFE_BYTES",
      "outputs": [
        {
          "internalType": "uint256",
          "name": "",
          "type": "uint256"
        }
      ],
      "stateMutability": "view",
      "type": "function"
    },
    {
      "inputs": [
        {
          "components": [
            {
              "internalType": "string",
              "name": "name",
              "type": "string"
            },
            {
              "internalType": "address",
              "name": "contractAddress",
              "type": "address"
            },
            {
              "internalType": "bytes",
              "name": "contractData",
              "type": "bytes"
            },
            {
              "internalType": "enum HTMLTagType",
              "name": "tagType",
              "type": "uint8"
            },
            {
              "internalType": "bytes",
              "name": "tagOpen",
              "type": "bytes"
            },
            {
              "internalType": "bytes",
              "name": "tagClose",
              "type": "bytes"
            },
            {
              "internalType": "bytes",
              "name": "tagContent",
              "type": "bytes"
            }
          ],
          "internalType": "struct HTMLTag",
          "name": "htmlTag",
          "type": "tuple"
        }
      ],
      "name": "fetchTagContent",
      "outputs": [
        {
          "internalType": "bytes",
          "name": "",
          "type": "bytes"
        }
      ],
      "stateMutability": "view",
      "type": "function"
    },
    {
      "inputs": [
        {
          "components": [
            {
              "components": [
                {
                  "internalType": "string",
                  "name": "name",
                  "type": "string"
                },
                {
                  "internalType": "address",
                  "name": "contractAddress",
                  "type": "address"
                },
                {
                  "internalType": "bytes",
                  "name": "contractData",
                  "type": "bytes"
                },
                {
                  "internalType": "enum HTMLTagType",
                  "name": "tagType",
                  "type": "uint8"
                },
                {
                  "internalType": "bytes",
                  "name": "tagOpen",
                  "type": "bytes"
                },
                {
                  "internalType": "bytes",
                  "name": "tagClose",
                  "type": "bytes"
                },
                {
                  "internalType": "bytes",
                  "name": "tagContent",
                  "type": "bytes"
                }
              ],
              "internalType": "struct HTMLTag[]",
              "name": "headTags",
              "type": "tuple[]"
            },
            {
              "components": [
                {
                  "internalType": "string",
                  "name": "name",
                  "type": "string"
                },
                {
                  "internalType": "address",
                  "name": "contractAddress",
                  "type": "address"
                },
                {
                  "internalType": "bytes",
                  "name": "contractData",
                  "type": "bytes"
                },
                {
                  "internalType": "enum HTMLTagType",
                  "name": "tagType",
                  "type": "uint8"
                },
                {
                  "internalType": "bytes",
                  "name": "tagOpen",
                  "type": "bytes"
                },
                {
                  "internalType": "bytes",
                  "name": "tagClose",
                  "type": "bytes"
                },
                {
                  "internalType": "bytes",
                  "name": "tagContent",
                  "type": "bytes"
                }
              ],
              "internalType": "struct HTMLTag[]",
              "name": "bodyTags",
              "type": "tuple[]"
            }
          ],
          "internalType": "struct HTMLRequest",
          "name": "htmlRequest",
          "type": "tuple"
        }
      ],
      "name": "getEncodedHTML",
      "outputs": [
        {
          "internalType": "bytes",
          "name": "",
          "type": "bytes"
        }
      ],
      "stateMutability": "view",
      "type": "function"
    },
    {
      "inputs": [
        {
          "components": [
            {
              "components": [
                {
                  "internalType": "string",
                  "name": "name",
                  "type": "string"
                },
                {
                  "internalType": "address",
                  "name": "contractAddress",
                  "type": "address"
                },
                {
                  "internalType": "bytes",
                  "name": "contractData",
                  "type": "bytes"
                },
                {
                  "internalType": "enum HTMLTagType",
                  "name": "tagType",
                  "type": "uint8"
                },
                {
                  "internalType": "bytes",
                  "name": "tagOpen",
                  "type": "bytes"
                },
                {
                  "internalType": "bytes",
                  "name": "tagClose",
                  "type": "bytes"
                },
                {
                  "internalType": "bytes",
                  "name": "tagContent",
                  "type": "bytes"
                }
              ],
              "internalType": "struct HTMLTag[]",
              "name": "headTags",
              "type": "tuple[]"
            },
            {
              "components": [
                {
                  "internalType": "string",
                  "name": "name",
                  "type": "string"
                },
                {
                  "internalType": "address",
                  "name": "contractAddress",
                  "type": "address"
                },
                {
                  "internalType": "bytes",
                  "name": "contractData",
                  "type": "bytes"
                },
                {
                  "internalType": "enum HTMLTagType",
                  "name": "tagType",
                  "type": "uint8"
                },
                {
                  "internalType": "bytes",
                  "name": "tagOpen",
                  "type": "bytes"
                },
                {
                  "internalType": "bytes",
                  "name": "tagClose",
                  "type": "bytes"
                },
                {
                  "internalType": "bytes",
                  "name": "tagContent",
                  "type": "bytes"
                }
              ],
              "internalType": "struct HTMLTag[]",
              "name": "bodyTags",
              "type": "tuple[]"
            }
          ],
          "internalType": "struct HTMLRequest",
          "name": "htmlRequest",
          "type": "tuple"
        }
      ],
      "name": "getEncodedHTMLString",
      "outputs": [
        {
          "internalType": "string",
          "name": "",
          "type": "string"
        }
      ],
      "stateMutability": "view",
      "type": "function"
    },
    {
      "inputs": [
        {
          "components": [
            {
              "components": [
                {
                  "internalType": "string",
                  "name": "name",
                  "type": "string"
                },
                {
                  "internalType": "address",
                  "name": "contractAddress",
                  "type": "address"
                },
                {
                  "internalType": "bytes",
                  "name": "contractData",
                  "type": "bytes"
                },
                {
                  "internalType": "enum HTMLTagType",
                  "name": "tagType",
                  "type": "uint8"
                },
                {
                  "internalType": "bytes",
                  "name": "tagOpen",
                  "type": "bytes"
                },
                {
                  "internalType": "bytes",
                  "name": "tagClose",
                  "type": "bytes"
                },
                {
                  "internalType": "bytes",
                  "name": "tagContent",
                  "type": "bytes"
                }
              ],
              "internalType": "struct HTMLTag[]",
              "name": "headTags",
              "type": "tuple[]"
            },
            {
              "components": [
                {
                  "internalType": "string",
                  "name": "name",
                  "type": "string"
                },
                {
                  "internalType": "address",
                  "name": "contractAddress",
                  "type": "address"
                },
                {
                  "internalType": "bytes",
                  "name": "contractData",
                  "type": "bytes"
                },
                {
                  "internalType": "enum HTMLTagType",
                  "name": "tagType",
                  "type": "uint8"
                },
                {
                  "internalType": "bytes",
                  "name": "tagOpen",
                  "type": "bytes"
                },
                {
                  "internalType": "bytes",
                  "name": "tagClose",
                  "type": "bytes"
                },
                {
                  "internalType": "bytes",
                  "name": "tagContent",
                  "type": "bytes"
                }
              ],
              "internalType": "struct HTMLTag[]",
              "name": "bodyTags",
              "type": "tuple[]"
            }
          ],
          "internalType": "struct HTMLRequest",
          "name": "htmlRequest",
          "type": "tuple"
        }
      ],
      "name": "getHTML",
      "outputs": [
        {
          "internalType": "bytes",
          "name": "",
          "type": "bytes"
        }
      ],
      "stateMutability": "view",
      "type": "function"
    },
    {
      "inputs": [
        {
          "components": [
            {
              "components": [
                {
                  "internalType": "string",
                  "name": "name",
                  "type": "string"
                },
                {
                  "internalType": "address",
                  "name": "contractAddress",
                  "type": "address"
                },
                {
                  "internalType": "bytes",
                  "name": "contractData",
                  "type": "bytes"
                },
                {
                  "internalType": "enum HTMLTagType",
                  "name": "tagType",
                  "type": "uint8"
                },
                {
                  "internalType": "bytes",
                  "name": "tagOpen",
                  "type": "bytes"
                },
                {
                  "internalType": "bytes",
                  "name": "tagClose",
                  "type": "bytes"
                },
                {
                  "internalType": "bytes",
                  "name": "tagContent",
                  "type": "bytes"
                }
              ],
              "internalType": "struct HTMLTag[]",
              "name": "headTags",
              "type": "tuple[]"
            },
            {
              "components": [
                {
                  "internalType": "string",
                  "name": "name",
                  "type": "string"
                },
                {
                  "internalType": "address",
                  "name": "contractAddress",
                  "type": "address"
                },
                {
                  "internalType": "bytes",
                  "name": "contractData",
                  "type": "bytes"
                },
                {
                  "internalType": "enum HTMLTagType",
                  "name": "tagType",
                  "type": "uint8"
                },
                {
                  "internalType": "bytes",
                  "name": "tagOpen",
                  "type": "bytes"
                },
                {
                  "internalType": "bytes",
                  "name": "tagClose",
                  "type": "bytes"
                },
                {
                  "internalType": "bytes",
                  "name": "tagContent",
                  "type": "bytes"
                }
              ],
              "internalType": "struct HTMLTag[]",
              "name": "bodyTags",
              "type": "tuple[]"
            }
          ],
          "internalType": "struct HTMLRequest",
          "name": "htmlRequest",
          "type": "tuple"
        }
      ],
      "name": "getHTMLString",
      "outputs": [
        {
          "internalType": "string",
          "name": "",
          "type": "string"
        }
      ],
      "stateMutability": "view",
      "type": "function"
    },
    {
      "inputs": [
        {
          "internalType": "uint256",
          "name": "value",
          "type": "uint256"
        }
      ],
      "name": "sizeForBase64Encoding",
      "outputs": [
        {
          "internalType": "uint256",
          "name": "",
          "type": "uint256"
        }
      ],
      "stateMutability": "pure",
      "type": "function"
    },
    {
      "inputs": [
        {
          "components": [
            {
              "internalType": "string",
              "name": "name",
              "type": "string"
            },
            {
              "internalType": "address",
              "name": "contractAddress",
              "type": "address"
            },
            {
              "internalType": "bytes",
              "name": "contractData",
              "type": "bytes"
            },
            {
              "internalType": "enum HTMLTagType",
              "name": "tagType",
              "type": "uint8"
            },
            {
              "internalType": "bytes",
              "name": "tagOpen",
              "type": "bytes"
            },
            {
              "internalType": "bytes",
              "name": "tagClose",
              "type": "bytes"
            },
            {
              "internalType": "bytes",
              "name": "tagContent",
              "type": "bytes"
            }
          ],
          "internalType": "struct HTMLTag",
          "name": "htmlTag",
          "type": "tuple"
        }
      ],
      "name": "tagOpenCloseForHTMLTag",
      "outputs": [
        {
          "internalType": "bytes",
          "name": "",
          "type": "bytes"
        },
        {
          "internalType": "bytes",
          "name": "",
          "type": "bytes"
        }
      ],
      "stateMutability": "pure",
      "type": "function"
    },
    {
      "inputs": [
        {
          "components": [
            {
              "internalType": "string",
              "name": "name",
              "type": "string"
            },
            {
              "internalType": "address",
              "name": "contractAddress",
              "type": "address"
            },
            {
              "internalType": "bytes",
              "name": "contractData",
              "type": "bytes"
            },
            {
              "internalType": "enum HTMLTagType",
              "name": "tagType",
              "type": "uint8"
            },
            {
              "internalType": "bytes",
              "name": "tagOpen",
              "type": "bytes"
            },
            {
              "internalType": "bytes",
              "name": "tagClose",
              "type": "bytes"
            },
            {
              "internalType": "bytes",
              "name": "tagContent",
              "type": "bytes"
            }
          ],
          "internalType": "struct HTMLTag",
          "name": "htmlTag",
          "type": "tuple"
        }
      ],
      "name": "tagOpenCloseForHTMLTagURLSafe",
      "outputs": [
        {
          "internalType": "bytes",
          "name": "",
          "type": "bytes"
        },
        {
          "internalType": "bytes",
          "name": "",
          "type": "bytes"
        }
      ],
      "stateMutability": "pure",
      "type": "function"
    }
  ],
  "bytecode": "0x60808060405234610016576114a5908161001b8239f35b5f80fdfe60806040526004361015610011575f80fd5b5f3560e01c8063053f1eb0146101e15780632bee6807146101b457806333174f981461018c5780633708be65146101dc5780633d5be2c2146101d757806343f2614f146101d2578063640bab41146101cd57806372617f8a146101c85780637510ac24146101c35780637dbb90a2146101875780637f369319146101be57806387598e52146101af5780638c8c3796146101b9578063a891b35e146101b4578063afae76fa146101af578063b55ccc621461018c578063bc689620146101aa578063be58b0a914610173578063bee84ae3146101a5578063bf35dd0b14610173578063c46b294d146101a0578063cd475f261461019b578063cdea0cef14610196578063ce5ad17914610191578063d0c3efa81461018c578063d5ed88ce14610187578063d61974f114610182578063d9237f141461017d578063f051dcf814610178578063f49717ee146101735763f6130adc1461016e575f80fd5b610a6e565b610876565b610a21565b6109aa565b610955565b610747565b6105fe565b61093a565b6108ff565b6108e9565b6108ce565b610891565b61085b565b6107a5565b61058b565b610813565b61075b565b61072c565b610706565b6106bc565b610672565b610657565b610619565b6102f7565b634e487b7160e01b5f52604160045260245ffd5b6040810190811067ffffffffffffffff82111761021657604052565b6101e6565b6080810190811067ffffffffffffffff82111761021657604052565b60a0810190811067ffffffffffffffff82111761021657604052565b90601f8019910116810190811067ffffffffffffffff82111761021657604052565b6040519060e0820182811067ffffffffffffffff82111761021657604052565b67ffffffffffffffff811161021657601f01601f191660200190565b5f5b8381106102c25750505f910152565b81810151838201526020016102b3565b906020916102eb815180928185528580860191016102b1565b601f01601f1916010190565b34610358575f36600319011261035857610354604051610316816101fa565b601a81527f253343253246626f647925334525334325324668746d6c25334500000000000060208201526040519182916020835260208301906102d2565b0390f35b5f80fd5b81601f820112156103585780359061037382610295565b926103816040519485610253565b8284526020838301011161035857815f926020809301838601378301015290565b35906001600160a01b038216820361035857565b3590600582101561035857565b91909160e081840312610358576103d8610275565b9267ffffffffffffffff823581811161035857826103f791850161035c565b8552610405602084016103a2565b60208601526040830135818111610358578261042291850161035c565b6040860152610433606084016103b6565b60608601526080830135818111610358578261045091850161035c565b608086015260a0830135818111610358578261046d91850161035c565b60a086015260c083013590811161035857610488920161035c565b60c0830152565b81601f820112156103585780359160209167ffffffffffffffff808511610216578460051b90604051956104c586840188610253565b865284808701928401019380851161035857858401925b8584106104ed575050505050505090565b8335838111610358578791610507848480948a01016103c3565b8152019301926104dc565b600319602082820112610358576004359167ffffffffffffffff91828411610358576040908483030112610358576040519261054d846101fa565b8060040135838111610358578260046105689284010161048f565b8452602481013592831161035857610583920160040161048f565b602082015290565b34610358576103546105a461059f36610512565b6110a3565b6105ea6105d26016600360028551010460021b0160209060408051916060818401018252018152015f815290565b916105e46105de610a3c565b846112b9565b826112fd565b6040519182916020835260208301906102d2565b34610358575f366003190112610358576020604051600d8152f35b34610358575f36600319011261035857602060405160458152f35b60405190610641826101fa565b60078252661e17b432b0b21f60c91b6020830152565b34610358575f366003190112610358576103546105ea610634565b34610358575f36600319011261035857610354604051610691816101fa565b600a8152692533436865616425334560b01b60208201526040519182916020835260208301906102d2565b34610358575f366003190112610358576103546040516106db816101fa565b600a81526925334368746d6c25334560b01b60208201526040519182916020835260208301906102d2565b3461035857602036600319011261035857602060405160036002600435010460021b8152f35b34610358575f36600319011261035857602060405160168152f35b34610358576103546105ea61059f36610512565b34610358575f3660031901126103585761035460405161077a816101fa565b600a815269253343626f647925334560b01b60208201526040519182916020835260208301906102d2565b34610358575f36600319011261035857602060405160278152f35b6020600319820112610358576004359067ffffffffffffffff8211610358576107eb916004016103c3565b90565b90916108056107eb936040845260408401906102d2565b9160208184039101526102d2565b3461035857610829610824366107c0565b610c4c565b90610354604051928392836107ee565b60405190610846826101fa565b60068252651e343a36b61f60d11b6020830152565b34610358575f366003190112610358576103546105ea610839565b34610358575f36600319011261035857602060405160178152f35b34610358575f366003190112610358576020604051605a8152f35b604051906108b9826101fa565b60068252651e3432b0b21f60d11b6020830152565b34610358575f366003190112610358576103546105ea6108ac565b34610358576108296108fa366107c0565b610f07565b34610358576103546105ea610913366107c0565b610fb8565b60405190610925826101fa565b60068252651e3137b23c9f60d11b6020830152565b34610358575f366003190112610358576103546105ea610918565b34610358575f36600319011261035857610354604051610974816101fa565b6015815274646174612533417465787425324668746d6c25324360581b60208201526040519182916020835260208301906102d2565b34610358575f366003190112610358576103546040516109c9816101fa565b600d81526c2533432532466865616425334560981b60208201526040519182916020835260208301906102d2565b60405190610a04826101fa565b600e82526d1e17b137b23c9f1e17b43a36b61f60911b6020830152565b34610358575f366003190112610358576103546105ea6109f7565b60405190610a49826101fa565b601682527519185d184e9d195e1d0bda1d1b5b0ed8985cd94d8d0b60521b6020830152565b34610358575f366003190112610358576103546105ea610a3c565b60051115610a9357565b634e487b7160e01b5f52602160045260245ffd5b60405190610ab48261021b565b6044825263194d8d0b60e21b6060837f3c73637269707420747970653d22746578742f6a6176617363726970742b706e60208201527f6722207372633d22646174613a746578742f6a6176617363726970743b62617360408201520152565b60405190610b20826101fa565b600b82526a111f1e17b9b1b934b83a1f60a91b6020830152565b60405190610b478261021b565b60458252641cd94d8d0b60da1b6060837f3c73637269707420747970653d22746578742f6a6176617363726970742b677a60208201527f697022207372633d22646174613a746578742f6a6176617363726970743b626160408201520152565b604051906060820182811067ffffffffffffffff8211176102165760405260298252681d0ed8985cd94d8d0b60ba1b6040837f3c736372697074207372633d22646174613a746578742f6a617661736372697060208201520152565b60405190610c10826101fa565b60088252671e39b1b934b83a1f60c11b6020830152565b60405190610c34826101fa565b60098252681e17b9b1b934b83a1f60b91b6020830152565b906060820160018151610c5e81610a89565b610c6781610a89565b03610c8057509050610c77610c03565b906107eb610c27565b60028151610c8d81610a89565b610c9681610a89565b03610caf57509050610ca6610ba7565b906107eb610b13565b60038151610cbc81610a89565b610cc581610a89565b03610cd557509050610ca6610b3a565b60049051610ce281610a89565b610ceb81610a89565b14610cfd5760a0608083015192015190565b9050610ca6610aa7565b60405190610d1482610237565b607c82527f32466a61766173637269707425323533426261736536342532353243000000006080837f253235334373637269707425323532307479706525323533442532353232746560208201527f787425323532466a6176617363726970742532353242706e672532353232253260408201527f353230737263253235334425323532326461746125323533417465787425323560608201520152565b60405190610dbf826101fa565b601f82527f25323532322532353345253235334325323532467363726970742532353345006020830152565b60405190610df882610237565b607d82527f3532466a617661736372697074253235334262617365363425323532430000006080837f253235334373637269707425323532307479706525323533442532353232746560208201527f787425323532466a6176617363726970742532353242677a697025323532322560408201527f323532307372632532353344253235323264617461253235334174657874253260608201520152565b60405190610ea38261021b565b604982526873653634253235324360b81b6060837f253235334373637269707425323532307372632532353344253235323264617460208201527f6125323533417465787425323532466a6176617363726970742532353342626160408201520152565b906060820160018151610f1981610a89565b610f2281610a89565b148015610f9b575b15610f4357509050610f3a610e96565b906107eb610db2565b60038151610f5081610a89565b610f5981610a89565b03610f6957509050610f3a610deb565b60049051610f7681610a89565b610f7f81610a89565b14610f915760a0608083015192015190565b9050610f3a610d07565b5060028151610fa981610a89565b610fb281610a89565b14610f2a565b60c0810151805161109e575060018060a01b0360208201511660408251920151916040518092633e58d56560e21b82528180610ffa5f978896600484016107ee565b03915afa91821561109257809261101057505090565b9091503d8082843e6110228184610253565b82019160208184031261108a5780519067ffffffffffffffff821161108e570182601f8201121561108a5780519161105983610295565b936110676040519586610253565b838552602084840101116110875750906107eb91602080850191016102b1565b80fd5b5080fd5b8280fd5b604051903d90823e3d90fd5b905090565b5f81518051611163575b506110dd602083019182518051611153575b5060270160209060408051916060818401018252018152015f815290565b916110e96105de610839565b6110f46105de6108ac565b518051611143575b5061110e611108610634565b836112b9565b611119611108610918565b518051611133575b506107eb61112d6109f7565b826112b9565b61113d9082611251565b5f611121565b61114d9083611251565b5f6110fc565b61115c9061119b565b015f6110bf565b61116d915061119b565b5f6110ad565b80518210156111875760209160051b010190565b634e487b7160e01b5f52603260045260245ffd5b8051801561124b57905f90819060019384805b6111bc575b50505050905090565b93859192939415611232575b5f906111dd6111d78787611173565b51610fb8565b8060c06111ea8989611173565b51015251016112026111fc8787611173565b51610c4c565b91908060806112118a8a611173565b5101528260a06112218a8a611173565b5101525101905101949392916111ae565b930192818410156112445784906111c8565b92806111b3565b50505f90565b5f9182600180805b611266575b505050505050565b156112a7575b81816112a260a061127d8988611173565b5161128c60808201518a6112b9565b61129a60c08201518a6112b9565b0151876112b9565b611259565b809401938251851061126c578061125e565b906112c58151836113e9565b805190602090818381830192010190828551860101905b8281106112ee57505050508151019052565b805182529083019083016112dc565b81519182156113e45760039260028481830104811b928583069261132185876113e9565b604051967f4142434445464748494a4b4c4d4e4f505152535455565758595a616263646566601f52603f61022f197f6768696a6b6c6d6e6f707172737475767778797a303132333435363738392d5f01815260048260208a518b0101948601955b0193828551818160121c165183538181600c1c16516001840153818160061c1651898401531651848201530192848110156113c1576004908390611382565b5050509150506001603d92838115158403531460011b9003538151019052604052565b505050565b603f19601f1982015101905191820180921161145b571061140657565b60405162461bcd60e51b815260206004820152602760248201527f44796e616d69634275666665723a20417070656e64696e67206f7574206f66206044820152663137bab732399760c91b6064820152608490fd5b634e487b7160e01b5f52601160045260245ffdfea2646970667358221220f6ac019ca843cbcc59a2a766fad315176c284cdfe630015c5cf213f578adba4664736f6c63430008150033",
  "linkReferences": {},
  "deployedLinkReferences": {}
}