{
  "_format": "hh-sol-artifact-1",
  "contractName": "ScriptyHTML",
  "sourceName": "scripty.sol/contracts/scripty/htmlBuilders/ScriptyHTML.sol",
  "abi": [
    {
      "inputs": [],
      "name": "BODY_OPEN_RAW",
      "outputs": [
        {
          "internalType": "bytes",
          "name": "",
          "type": "bytes"
        }
      ],
      "stateMutability": "view",
      "type": "function"
    },
    {
      "inputs": [],
      "name": "BODY_OPEN_URL_SAFE",
      "outputs": [
        {
          "internalType": "bytes",
          "name": "",
          "type": "bytes"
        }
      ],
      "stateMutability": "view",
      "type": "function"
    },
    {
      "inputs": [],
      "name": "BODY_RAW_BYTES",
      "outputs": [
        {
          "internalType": "uint256",
          "name": "",
          "type": "uint256"
        }
      ],
      "stateMutability": "view",
      "type": "function"
    },
    {
      "inputs": [],
      "name": "BODY_SAFE_BYTES",
      "outputs": [
        {
          "internalType": "uint256",
          "name": "",
          "type": "uint256"
        }
      ],
      "stateMutability": "view",
      "type": "function"
    },
    {
      "inputs": [],
      "name": "DATA_HTML_BASE64_URI_RAW",
      "outputs": [
        {
          "internalType": "bytes",
          "name": "",
          "type": "bytes"
        }
      ],
      "stateMutability": "view",
      "type": "function"
    },
    {
      "inputs": [],
      "name": "DATA_HTML_URL_SAFE",
      "outputs": [
        {
          "internalType": "bytes",
          "name": "",
          "type": "bytes"
        }
      ],
      "stateMutability": "view",
      "type": "function"
    },
    {
      "inputs": [],
      "name": "HEAD_CLOSE_RAW",
      "outputs": [
        {
          "internalType": "bytes",
          "name": "",
          "type": "bytes"
        }
      ],
      "stateMutability": "view",
      "type": "function"
    },
    {
      "inputs": [],
      "name": "HEAD_CLOSE_URL_SAFE",
      "outputs": [
        {
          "internalType": "bytes",
          "name": "",
          "type": "bytes"
        }
      ],
      "stateMutability": "view",
      "type": "function"
    },
    {
      "inputs": [],
      "name": "HEAD_OPEN_RAW",
      "outputs": [
        {
          "internalType": "bytes",
          "name": "",
          "type": "bytes"
        }
      ],
      "stateMutability": "view",
      "type": "function"
    },
    {
      "inputs": [],
      "name": "HEAD_OPEN_URL_SAFE",
      "outputs": [
        {
          "internalType": "bytes",
          "name": "",
          "type": "bytes"
        }
      ],
      "stateMutability": "view",
      "type": "function"
    },
    {
      "inputs": [],
      "name": "HEAD_RAW_BYTES",
      "outputs": [
        {
          "internalType": "uint256",
          "name": "",
          "type": "uint256"
        }
      ],
      "stateMutability": "view",
      "type": "function"
    },
    {
      "inputs": [],
      "name": "HEAD_URL_SAFE_BYTES",
      "outputs": [
        {
          "internalType": "uint256",
          "name": "",
          "type": "uint256"
        }
      ],
      "stateMutability": "view",
      "type": "function"
    },
    {
      "inputs": [],
      "name": "HTML_BASE64_DATA_URI_BYTES",
      "outputs": [
        {
          "internalType": "uint256",
          "name": "",
          "type": "uint256"
        }
      ],
      "stateMutability": "view",
      "type": "function"
    },
    {
      "inputs": [],
      "name": "HTML_BODY_CLOSED_RAW",
      "outputs": [
        {
          "internalType": "bytes",
          "name": "",
          "type": "bytes"
        }
      ],
      "stateMutability": "view",
      "type": "function"
    },
    {
      "inputs": [],
      "name": "HTML_BODY_CLOSED_URL_SAFE",
      "outputs": [
        {
          "internalType": "bytes",
          "name": "",
          "type": "bytes"
        }
      ],
      "stateMutability": "view",
      "type": "function"
    },
    {
      "inputs": [],
      "name": "HTML_OPEN_RAW",
      "outputs": [
        {
          "internalType": "bytes",
          "name": "",
          "type": "bytes"
        }
      ],
      "stateMutability": "view",
      "type": "function"
    },
    {
      "inputs": [],
      "name": "HTML_OPEN_URL_SAFE",
      "outputs": [
        {
          "internalType": "bytes",
          "name": "",
          "type": "bytes"
        }
      ],
      "stateMutability": "view",
      "type": "function"
    },
    {
      "inputs": [],
      "name": "HTML_RAW_BYTES",
      "outputs": [
        {
          "internalType": "uint256",
          "name": "",
          "type": "uint256"
        }
      ],
      "stateMutability": "view",
      "type": "function"
    },
    {
      "inputs": [],
      "name": "HTML_URL_SAFE_BYTES",
      "outputs": [
        {
          "internalType": "uint256",
          "name": "",
          "type": "uint256"
        }
      ],
      "stateMutability": "view",
      "type": "function"
    },
    {
      "inputs": [],
      "name": "RAW_BYTES",
      "outputs": [
        {
          "internalType": "uint256",
          "name": "",
          "type": "uint256"
        }
      ],
      "stateMutability": "view",
      "type": "function"
    },
    {
      "inputs": [],
      "name": "URLS_RAW_BYTES",
      "outputs": [
        {
          "internalType": "uint256",
          "name": "",
          "type": "uint256"
        }
      ],
      "stateMutability": "view",
      "type": "function"
    },
    {
      "inputs": [],
      "name": "URLS_SAFE_BYTES",
      "outputs": [
        {
          "internalType": "uint256",
          "name": "",
          "type": "uint256"
        }
      ],
      "stateMutability": "view",
      "type": "function"
    },
    {
      "inputs": [],
      "name": "URL_SAFE_BYTES",
      "outputs": [
        {
          "internalType": "uint256",
          "name": "",
          "type": "uint256"
        }
      ],
      "stateMutability": "view",
      "type": "function"
    },
    {
      "inputs": [
        {
          "components": [
            {
              "internalType": "string",
              "name": "name",
              "type": "string"
            },
            {
              "internalType": "address",
              "name": "contractAddress",
              "type": "address"
            },
            {
              "internalType": "bytes",
              "name": "contractData",
              "type": "bytes"
            },
            {
              "internalType": "enum HTMLTagType",
              "name": "tagType",
              "type": "uint8"
            },
            {
              "internalType": "bytes",
              "name": "tagOpen",
              "type": "bytes"
            },
            {
              "internalType": "bytes",
              "name": "tagClose",
              "type": "bytes"
            },
            {
              "internalType": "bytes",
              "name": "tagContent",
              "type": "bytes"
            }
          ],
          "internalType": "struct HTMLTag",
          "name": "htmlTag",
          "type": "tuple"
        }
      ],
      "name": "fetchTagContent",
      "outputs": [
        {
          "internalType": "bytes",
          "name": "",
          "type": "bytes"
        }
      ],
      "stateMutability": "view",
      "type": "function"
    },
    {
      "inputs": [
        {
          "components": [
            {
              "components": [
                {
                  "internalType": "string",
                  "name": "name",
                  "type": "string"
                },
                {
                  "internalType": "address",
                  "name": "contractAddress",
                  "type": "address"
                },
                {
                  "internalType": "bytes",
                  "name": "contractData",
                  "type": "bytes"
                },
                {
                  "internalType": "enum HTMLTagType",
                  "name": "tagType",
                  "type": "uint8"
                },
                {
                  "internalType": "bytes",
                  "name": "tagOpen",
                  "type": "bytes"
                },
                {
                  "internalType": "bytes",
                  "name": "tagClose",
                  "type": "bytes"
                },
                {
                  "internalType": "bytes",
                  "name": "tagContent",
                  "type": "bytes"
                }
              ],
              "internalType": "struct HTMLTag[]",
              "name": "headTags",
              "type": "tuple[]"
            },
            {
              "components": [
                {
                  "internalType": "string",
                  "name": "name",
                  "type": "string"
                },
                {
                  "internalType": "address",
                  "name": "contractAddress",
                  "type": "address"
                },
                {
                  "internalType": "bytes",
                  "name": "contractData",
                  "type": "bytes"
                },
                {
                  "internalType": "enum HTMLTagType",
                  "name": "tagType",
                  "type": "uint8"
                },
                {
                  "internalType": "bytes",
                  "name": "tagOpen",
                  "type": "bytes"
                },
                {
                  "internalType": "bytes",
                  "name": "tagClose",
                  "type": "bytes"
                },
                {
                  "internalType": "bytes",
                  "name": "tagContent",
                  "type": "bytes"
                }
              ],
              "internalType": "struct HTMLTag[]",
              "name": "bodyTags",
              "type": "tuple[]"
            }
          ],
          "internalType": "struct HTMLRequest",
          "name": "htmlRequest",
          "type": "tuple"
        }
      ],
      "name": "getEncodedHTML",
      "outputs": [
        {
          "internalType": "bytes",
          "name": "",
          "type": "bytes"
        }
      ],
      "stateMutability": "view",
      "type": "function"
    },
    {
      "inputs": [
        {
          "components": [
            {
              "components": [
                {
                  "internalType": "string",
                  "name": "name",
                  "type": "string"
                },
                {
                  "internalType": "address",
                  "name": "contractAddress",
                  "type": "address"
                },
                {
                  "internalType": "bytes",
                  "name": "contractData",
                  "type": "bytes"
                },
                {
                  "internalType": "enum HTMLTagType",
                  "name": "tagType",
                  "type": "uint8"
                },
                {
                  "internalType": "bytes",
                  "name": "tagOpen",
                  "type": "bytes"
                },
                {
                  "internalType": "bytes",
                  "name": "tagClose",
                  "type": "bytes"
                },
                {
                  "internalType": "bytes",
                  "name": "tagContent",
                  "type": "bytes"
                }
              ],
              "internalType": "struct HTMLTag[]",
              "name": "headTags",
              "type": "tuple[]"
            },
            {
              "components": [
                {
                  "internalType": "string",
                  "name": "name",
                  "type": "string"
                },
                {
                  "internalType": "address",
                  "name": "contractAddress",
                  "type": "address"
                },
                {
                  "internalType": "bytes",
                  "name": "contractData",
                  "type": "bytes"
                },
                {
                  "internalType": "enum HTMLTagType",
                  "name": "tagType",
                  "type": "uint8"
                },
                {
                  "internalType": "bytes",
                  "name": "tagOpen",
                  "type": "bytes"
                },
                {
                  "internalType": "bytes",
                  "name": "tagClose",
                  "type": "bytes"
                },
                {
                  "internalType": "bytes",
                  "name": "tagContent",
                  "type": "bytes"
                }
              ],
              "internalType": "struct HTMLTag[]",
              "name": "bodyTags",
              "type": "tuple[]"
            }
          ],
          "internalType": "struct HTMLRequest",
          "name": "htmlRequest",
          "type": "tuple"
        }
      ],
      "name": "getEncodedHTMLString",
      "outputs": [
        {
          "internalType": "string",
          "name": "",
          "type": "string"
        }
      ],
      "stateMutability": "view",
      "type": "function"
    },
    {
      "inputs": [
        {
          "components": [
            {
              "components": [
                {
                  "internalType": "string",
                  "name": "name",
                  "type": "string"
                },
                {
                  "internalType": "address",
                  "name": "contractAddress",
                  "type": "address"
                },
                {
                  "internalType": "bytes",
                  "name": "contractData",
                  "type": "bytes"
                },
                {
                  "internalType": "enum HTMLTagType",
                  "name": "tagType",
                  "type": "uint8"
                },
                {
                  "internalType": "bytes",
                  "name": "tagOpen",
                  "type": "bytes"
                },
                {
                  "internalType": "bytes",
                  "name": "tagClose",
                  "type": "bytes"
                },
                {
                  "internalType": "bytes",
                  "name": "tagContent",
                  "type": "bytes"
                }
              ],
              "internalType": "struct HTMLTag[]",
              "name": "headTags",
              "type": "tuple[]"
            },
            {
              "components": [
                {
                  "internalType": "string",
                  "name": "name",
                  "type": "string"
                },
                {
                  "internalType": "address",
                  "name": "contractAddress",
                  "type": "address"
                },
                {
                  "internalType": "bytes",
                  "name": "contractData",
                  "type": "bytes"
                },
                {
                  "internalType": "enum HTMLTagType",
                  "name": "tagType",
                  "type": "uint8"
                },
                {
                  "internalType": "bytes",
                  "name": "tagOpen",
                  "type": "bytes"
                },
                {
                  "internalType": "bytes",
                  "name": "tagClose",
                  "type": "bytes"
                },
                {
                  "internalType": "bytes",
                  "name": "tagContent",
                  "type": "bytes"
                }
              ],
              "internalType": "struct HTMLTag[]",
              "name": "bodyTags",
              "type": "tuple[]"
            }
          ],
          "internalType": "struct HTMLRequest",
          "name": "htmlRequest",
          "type": "tuple"
        }
      ],
      "name": "getHTML",
      "outputs": [
        {
          "internalType": "bytes",
          "name": "",
          "type": "bytes"
        }
      ],
      "stateMutability": "view",
      "type": "function"
    },
    {
      "inputs": [
        {
          "components": [
            {
              "components": [
                {
                  "internalType": "string",
                  "name": "name",
                  "type": "string"
                },
                {
                  "internalType": "address",
                  "name": "contractAddress",
                  "type": "address"
                },
                {
                  "internalType": "bytes",
                  "name": "contractData",
                  "type": "bytes"
                },
                {
                  "internalType": "enum HTMLTagType",
                  "name": "tagType",
                  "type": "uint8"
                },
                {
                  "internalType": "bytes",
                  "name": "tagOpen",
                  "type": "bytes"
                },
                {
                  "internalType": "bytes",
                  "name": "tagClose",
                  "type": "bytes"
                },
                {
                  "internalType": "bytes",
                  "name": "tagContent",
                  "type": "bytes"
                }
              ],
              "internalType": "struct HTMLTag[]",
              "name": "headTags",
              "type": "tuple[]"
            },
            {
              "components": [
                {
                  "internalType": "string",
                  "name": "name",
                  "type": "string"
                },
                {
                  "internalType": "address",
                  "name": "contractAddress",
                  "type": "address"
                },
                {
                  "internalType": "bytes",
                  "name": "contractData",
                  "type": "bytes"
                },
                {
                  "internalType": "enum HTMLTagType",
                  "name": "tagType",
                  "type": "uint8"
                },
                {
                  "internalType": "bytes",
                  "name": "tagOpen",
                  "type": "bytes"
                },
                {
                  "internalType": "bytes",
                  "name": "tagClose",
                  "type": "bytes"
                },
                {
                  "internalType": "bytes",
                  "name": "tagContent",
                  "type": "bytes"
                }
              ],
              "internalType": "struct HTMLTag[]",
              "name": "bodyTags",
              "type": "tuple[]"
            }
          ],
          "internalType": "struct HTMLRequest",
          "name": "htmlRequest",
          "type": "tuple"
        }
      ],
      "name": "getHTMLString",
      "outputs": [
        {
          "internalType": "string",
          "name": "",
          "type": "string"
        }
      ],
      "stateMutability": "view",
      "type": "function"
    },
    {
      "inputs": [
        {
          "internalType": "uint256",
          "name": "value",
          "type": "uint256"
        }
      ],
      "name": "sizeForBase64Encoding",
      "outputs": [
        {
          "internalType": "uint256",
          "name": "",
          "type": "uint256"
        }
      ],
      "stateMutability": "pure",
      "type": "function"
    },
    {
      "inputs": [
        {
          "components": [
            {
              "internalType": "string",
              "name": "name",
              "type": "string"
            },
            {
              "internalType": "address",
              "name": "contractAddress",
              "type": "address"
            },
            {
              "internalType": "bytes",
              "name": "contractData",
              "type": "bytes"
            },
            {
              "internalType": "enum HTMLTagType",
              "name": "tagType",
              "type": "uint8"
            },
            {
              "internalType": "bytes",
              "name": "tagOpen",
              "type": "bytes"
            },
            {
              "internalType": "bytes",
              "name": "tagClose",
              "type": "bytes"
            },
            {
              "internalType": "bytes",
              "name": "tagContent",
              "type": "bytes"
            }
          ],
          "internalType": "struct HTMLTag",
          "name": "htmlTag",
          "type": "tuple"
        }
      ],
      "name": "tagOpenCloseForHTMLTag",
      "outputs": [
        {
          "internalType": "bytes",
          "name": "",
          "type": "bytes"
        },
        {
          "internalType": "bytes",
          "name": "",
          "type": "bytes"
        }
      ],
      "stateMutability": "pure",
      "type": "function"
    },
    {
      "inputs": [
        {
          "components": [
            {
              "internalType": "string",
              "name": "name",
              "type": "string"
            },
            {
              "internalType": "address",
              "name": "contractAddress",
              "type": "address"
            },
            {
              "internalType": "bytes",
              "name": "contractData",
              "type": "bytes"
            },
            {
              "internalType": "enum HTMLTagType",
              "name": "tagType",
              "type": "uint8"
            },
            {
              "internalType": "bytes",
              "name": "tagOpen",
              "type": "bytes"
            },
            {
              "internalType": "bytes",
              "name": "tagClose",
              "type": "bytes"
            },
            {
              "internalType": "bytes",
              "name": "tagContent",
              "type": "bytes"
            }
          ],
          "internalType": "struct HTMLTag",
          "name": "htmlTag",
          "type": "tuple"
        }
      ],
      "name": "tagOpenCloseForHTMLTagURLSafe",
      "outputs": [
        {
          "internalType": "bytes",
          "name": "",
          "type": "bytes"
        },
        {
          "internalType": "bytes",
          "name": "",
          "type": "bytes"
        }
      ],
      "stateMutability": "pure",
      "type": "function"
    }
  ],
  "bytecode": "0x60808060405234610016576114d5908161001c8239f35b600080fdfe6080604052600436101561001257600080fd5b60003560e01c8063053f1eb0146101e45780632bee6807146101b757806333174f981461018f5780633708be65146101df5780633d5be2c2146101da57806343f2614f146101d5578063640bab41146101d057806372617f8a146101cb5780637510ac24146101c65780637dbb90a21461018a5780637f369319146101c157806387598e52146101b25780638c8c3796146101bc578063a891b35e146101b7578063afae76fa146101b2578063b55ccc621461018f578063bc689620146101ad578063be58b0a914610176578063bee84ae3146101a8578063bf35dd0b14610176578063c46b294d146101a3578063cd475f261461019e578063cdea0cef14610199578063ce5ad17914610194578063d0c3efa81461018f578063d5ed88ce1461018a578063d61974f114610185578063d9237f1414610180578063f051dcf81461017b578063f49717ee146101765763f6130adc1461017157600080fd5b610a89565b61088a565b610a3b565b6109c3565b61096d565b610758565b610609565b610951565b610916565b610900565b6108e4565b6108a6565b61086e565b6107b7565b610595565b610826565b61076c565b61073c565b610716565b6106cb565b610680565b610664565b610625565b6102fe565b634e487b7160e01b600052604160045260246000fd5b6040810190811067ffffffffffffffff82111761021b57604052565b6101e9565b6080810190811067ffffffffffffffff82111761021b57604052565b60a0810190811067ffffffffffffffff82111761021b57604052565b90601f8019910116810190811067ffffffffffffffff82111761021b57604052565b6040519060e0820182811067ffffffffffffffff82111761021b57604052565b67ffffffffffffffff811161021b57601f01601f191660200190565b60005b8381106102c95750506000910152565b81810151838201526020016102b9565b906020916102f2815180928185528580860191016102b6565b601f01601f1916010190565b346103605760003660031901126103605761035c60405161031e816101ff565b601a81527f253343253246626f647925334525334325324668746d6c25334500000000000060208201526040519182916020835260208301906102d9565b0390f35b600080fd5b81601f820112156103605780359061037c8261029a565b9261038a6040519485610258565b8284526020838301011161036057816000926020809301838601378301015290565b35906001600160a01b038216820361036057565b3590600582101561036057565b91909160e081840312610360576103e261027a565b9267ffffffffffffffff82358181116103605782610401918501610365565b855261040f602084016103ac565b60208601526040830135818111610360578261042c918501610365565b604086015261043d606084016103c0565b60608601526080830135818111610360578261045a918501610365565b608086015260a08301358181116103605782610477918501610365565b60a086015260c0830135908111610360576104929201610365565b60c0830152565b81601f820112156103605780359160209167ffffffffffffffff80851161021b578460051b90604051956104cf86840188610258565b865284808701928401019380851161036057858401925b8584106104f7575050505050505090565b8335838111610360578791610511848480948a01016103cd565b8152019301926104e6565b600319602082820112610360576004359167ffffffffffffffff918284116103605760409084830301126103605760405192610557846101ff565b80600401358381116103605782600461057292840101610499565b845260248101359283116103605761058d9201600401610499565b602082015290565b346103605761035c6105ae6105a93661051c565b610aa5565b6105f56105dd6016600360028551010460021b0160209060408051916060818401018252018152016000815290565b916105ef6105e9610a57565b84611194565b826111da565b6040519182916020835260208301906102d9565b34610360576000366003190112610360576020604051600d8152f35b3461036057600036600319011261036057602060405160458152f35b6040519061064e826101ff565b60078252661e17b432b0b21f60c91b6020830152565b346103605760003660031901126103605761035c6105f5610641565b346103605760003660031901126103605761035c6040516106a0816101ff565b600a8152692533436865616425334560b01b60208201526040519182916020835260208301906102d9565b346103605760003660031901126103605761035c6040516106eb816101ff565b600a81526925334368746d6c25334560b01b60208201526040519182916020835260208301906102d9565b3461036057602036600319011261036057602060405160036002600435010460021b8152f35b3461036057600036600319011261036057602060405160168152f35b346103605761035c6105f56105a93661051c565b346103605760003660031901126103605761035c60405161078c816101ff565b600a815269253343626f647925334560b01b60208201526040519182916020835260208301906102d9565b3461036057600036600319011261036057602060405160278152f35b6020600319820112610360576004359067ffffffffffffffff8211610360576107fe916004016103cd565b90565b90916108186107fe936040845260408401906102d9565b9160208184039101526102d9565b346103605761083c610837366107d3565b610d3c565b9061035c60405192839283610801565b60405190610859826101ff565b60068252651e343a36b61f60d11b6020830152565b346103605760003660031901126103605761035c6105f561084c565b3461036057600036600319011261036057602060405160178152f35b34610360576000366003190112610360576020604051605a8152f35b604051906108cf826101ff565b60068252651e3432b0b21f60d11b6020830152565b346103605760003660031901126103605761035c6105f56108c2565b346103605761083c610911366107d3565b610ff7565b346103605761035c6105f561092a366107d3565b6110a8565b6040519061093c826101ff565b60068252651e3137b23c9f60d11b6020830152565b346103605760003660031901126103605761035c6105f561092f565b346103605760003660031901126103605761035c60405161098d816101ff565b6015815274646174612533417465787425324668746d6c25324360581b60208201526040519182916020835260208301906102d9565b346103605760003660031901126103605761035c6040516109e3816101ff565b600d81526c2533432532466865616425334560981b60208201526040519182916020835260208301906102d9565b60405190610a1e826101ff565b600e82526d1e17b137b23c9f1e17b43a36b61f60911b6020830152565b346103605760003660031901126103605761035c6105f5610a11565b60405190610a64826101ff565b601682527519185d184e9d195e1d0bda1d1b5b0ed8985cd94d8d0b60521b6020830152565b346103605760003660031901126103605761035c6105f5610a57565b600081518051610b67575b50610ae1602083019182518051610b57575b5060270160209060408051916060818401018252018152016000815290565b91610aed6105e961084c565b610af86105e96108c2565b518051610b47575b50610b12610b0c610641565b83611194565b610b1d610b0c61092f565b518051610b37575b506107fe610b31610a11565b82611194565b610b4190826113ae565b38610b25565b610b5190836113ae565b38610b00565b610b60906112f5565b0138610ac2565b610b7191506112f5565b38610ab0565b60051115610b8157565b634e487b7160e01b600052602160045260246000fd5b60405190610ba482610220565b6044825263194d8d0b60e21b6060837f3c73637269707420747970653d22746578742f6a6176617363726970742b706e60208201527f6722207372633d22646174613a746578742f6a6176617363726970743b62617360408201520152565b60405190610c10826101ff565b600b82526a111f1e17b9b1b934b83a1f60a91b6020830152565b60405190610c3782610220565b60458252641cd94d8d0b60da1b6060837f3c73637269707420747970653d22746578742f6a6176617363726970742b677a60208201527f697022207372633d22646174613a746578742f6a6176617363726970743b626160408201520152565b604051906060820182811067ffffffffffffffff82111761021b5760405260298252681d0ed8985cd94d8d0b60ba1b6040837f3c736372697074207372633d22646174613a746578742f6a617661736372697060208201520152565b60405190610d00826101ff565b60088252671e39b1b934b83a1f60c11b6020830152565b60405190610d24826101ff565b60098252681e17b9b1b934b83a1f60b91b6020830152565b906060820160018151610d4e81610b77565b610d5781610b77565b03610d7057509050610d67610cf3565b906107fe610d17565b60028151610d7d81610b77565b610d8681610b77565b03610d9f57509050610d96610c97565b906107fe610c03565b60038151610dac81610b77565b610db581610b77565b03610dc557509050610d96610c2a565b60049051610dd281610b77565b610ddb81610b77565b14610ded5760a0608083015192015190565b9050610d96610b97565b60405190610e048261023c565b607c82527f32466a61766173637269707425323533426261736536342532353243000000006080837f253235334373637269707425323532307479706525323533442532353232746560208201527f787425323532466a6176617363726970742532353242706e672532353232253260408201527f353230737263253235334425323532326461746125323533417465787425323560608201520152565b60405190610eaf826101ff565b601f82527f25323532322532353345253235334325323532467363726970742532353345006020830152565b60405190610ee88261023c565b607d82527f3532466a617661736372697074253235334262617365363425323532430000006080837f253235334373637269707425323532307479706525323533442532353232746560208201527f787425323532466a6176617363726970742532353242677a697025323532322560408201527f323532307372632532353344253235323264617461253235334174657874253260608201520152565b60405190610f9382610220565b604982526873653634253235324360b81b6060837f253235334373637269707425323532307372632532353344253235323264617460208201527f6125323533417465787425323532466a6176617363726970742532353342626160408201520152565b90606082016001815161100981610b77565b61101281610b77565b14801561108b575b156110335750905061102a610f86565b906107fe610ea2565b6003815161104081610b77565b61104981610b77565b036110595750905061102a610edb565b6004905161106681610b77565b61106f81610b77565b146110815760a0608083015192015190565b905061102a610df7565b506002815161109981610b77565b6110a281610b77565b1461101a565b60c0810151805161118f575060018060a01b0360208201511660408251920151916040518092633e58d56560e21b825281806110eb600097889660048401610801565b03915afa91821561118357809261110157505090565b9091503d8082843e6111138184610258565b82019160208184031261117b5780519067ffffffffffffffff821161117f570182601f8201121561117b5780519161114a8361029a565b936111586040519586610258565b838552602084840101116111785750906107fe91602080850191016102b6565b80fd5b5080fd5b8280fd5b604051903d90823e3d90fd5b905090565b906111a0815183611417565b8051906020906020838183019201019060208551860101905b8281106111cb57505050508151019052565b805182529083019083016111b9565b81519182156112c65760039260026003600283010460021b9260038306926112028587611417565b604051967f4142434445464748494a4b4c4d4e4f505152535455565758595a616263646566601f52603f61022f197f6768696a6b6c6d6e6f707172737475767778797a303132333435363738392d5f01603f5260048260208a518b0101948601955b0193828551818160121c165183538181600c1c16516001840153818160061c1651898401531651848201530192848110156112a3576004908390611264565b5050509150506001603d92838115158403531460011b9003538151019052604052565b505050565b80518210156112df5760209160051b010190565b634e487b7160e01b600052603260045260246000fd5b805180156113a75760019160009182919084805b611317575b50505050905090565b9385919293941561138e575b60009061133961133387876112cb565b516110a8565b8060c061134689896112cb565b510152510161135e61135887876112cb565b51610d3c565b919080608061136d8a8a6112cb565b5101528260a061137d8a8a6112cb565b510152510190510194939291611309565b930192818410156113a0578490611323565b928061130e565b5050600090565b60009182600180805b6113c4575b505050505050565b15611405575b818161140060a06113db89886112cb565b516113ea60808201518a611194565b6113f860c08201518a611194565b015187611194565b6113b7565b80940193825185106113ca57806113bc565b603f19601f19820151019051918201809211611489571061143457565b60405162461bcd60e51b815260206004820152602760248201527f44796e616d69634275666665723a20417070656e64696e67206f7574206f66206044820152663137bab732399760c91b6064820152608490fd5b634e487b7160e01b600052601160045260246000fdfea2646970667358221220cbb6b51452066c04c28a01d7fef42598c165d0e0e44962a91de9ff2a4136356864736f6c63430008170033",
  "linkReferences": {},
  "deployedLinkReferences": {}
}