{
  "address": "0x247eE1968AF7375E55FAb1a7E5F597a55850079d",
  "abi": [
    {
      "inputs": [
        {
          "internalType": "address",
          "name": "_owner",
          "type": "address"
        },
        {
          "internalType": "uint256",
          "name": "_mintFee",
          "type": "uint256"
        }
      ],
      "stateMutability": "nonpayable",
      "type": "constructor"
    },
    {
      "inputs": [],
      "name": "AccountBalanceOverflow",
      "type": "error"
    },
    {
      "inputs": [],
      "name": "AlreadyInitialized",
      "type": "error"
    },
    {
      "inputs": [],
      "name": "BalanceQueryForZeroAddress",
      "type": "error"
    },
    {
      "inputs": [],
      "name": "InvalidPayment",
      "type": "error"
    },
    {
      "inputs": [],
      "name": "NewOwnerIsZeroAddress",
      "type": "error"
    },
    {
      "inputs": [],
      "name": "NoHandoverRequest",
      "type": "error"
    },
    {
      "inputs": [],
      "name": "NotOwnerNorApproved",
      "type": "error"
    },
    {
      "inputs": [],
      "name": "TokenAlreadyExists",
      "type": "error"
    },
    {
      "inputs": [],
      "name": "TokenDoesNotExist",
      "type": "error"
    },
    {
      "inputs": [],
      "name": "TransferFromIncorrectOwner",
      "type": "error"
    },
    {
      "inputs": [],
      "name": "TransferToNonERC721ReceiverImplementer",
      "type": "error"
    },
    {
      "inputs": [],
      "name": "TransferToZeroAddress",
      "type": "error"
    },
    {
      "inputs": [],
      "name": "Unauthorized",
      "type": "error"
    },
    {
      "anonymous": false,
      "inputs": [
        {
          "indexed": true,
          "internalType": "address",
          "name": "owner",
          "type": "address"
        },
        {
          "indexed": true,
          "internalType": "address",
          "name": "account",
          "type": "address"
        },
        {
          "indexed": true,
          "internalType": "uint256",
          "name": "id",
          "type": "uint256"
        }
      ],
      "name": "Approval",
      "type": "event"
    },
    {
      "anonymous": false,
      "inputs": [
        {
          "indexed": true,
          "internalType": "address",
          "name": "owner",
          "type": "address"
        },
        {
          "indexed": true,
          "internalType": "address",
          "name": "operator",
          "type": "address"
        },
        {
          "indexed": false,
          "internalType": "bool",
          "name": "isApproved",
          "type": "bool"
        }
      ],
      "name": "ApprovalForAll",
      "type": "event"
    },
    {
      "anonymous": false,
      "inputs": [
        {
          "indexed": true,
          "internalType": "address",
          "name": "pendingOwner",
          "type": "address"
        }
      ],
      "name": "OwnershipHandoverCanceled",
      "type": "event"
    },
    {
      "anonymous": false,
      "inputs": [
        {
          "indexed": true,
          "internalType": "address",
          "name": "pendingOwner",
          "type": "address"
        }
      ],
      "name": "OwnershipHandoverRequested",
      "type": "event"
    },
    {
      "anonymous": false,
      "inputs": [
        {
          "indexed": true,
          "internalType": "address",
          "name": "oldOwner",
          "type": "address"
        },
        {
          "indexed": true,
          "internalType": "address",
          "name": "newOwner",
          "type": "address"
        }
      ],
      "name": "OwnershipTransferred",
      "type": "event"
    },
    {
      "anonymous": false,
      "inputs": [
        {
          "indexed": true,
          "internalType": "address",
          "name": "from",
          "type": "address"
        },
        {
          "indexed": true,
          "internalType": "address",
          "name": "to",
          "type": "address"
        },
        {
          "indexed": true,
          "internalType": "uint256",
          "name": "id",
          "type": "uint256"
        }
      ],
      "name": "Transfer",
      "type": "event"
    },
    {
      "inputs": [
        {
          "internalType": "address",
          "name": "account",
          "type": "address"
        },
        {
          "internalType": "uint256",
          "name": "id",
          "type": "uint256"
        }
      ],
      "name": "approve",
      "outputs": [],
      "stateMutability": "payable",
      "type": "function"
    },
    {
      "inputs": [
        {
          "internalType": "address",
          "name": "owner",
          "type": "address"
        }
      ],
      "name": "balanceOf",
      "outputs": [
        {
          "internalType": "uint256",
          "name": "result",
          "type": "uint256"
        }
      ],
      "stateMutability": "view",
      "type": "function"
    },
    {
      "inputs": [
        {
          "internalType": "uint256",
          "name": "tokenId",
          "type": "uint256"
        }
      ],
      "name": "burn",
      "outputs": [],
      "stateMutability": "nonpayable",
      "type": "function"
    },
    {
      "inputs": [],
      "name": "cancelOwnershipHandover",
      "outputs": [],
      "stateMutability": "payable",
      "type": "function"
    },
    {
      "inputs": [
        {
          "internalType": "address",
          "name": "pendingOwner",
          "type": "address"
        }
      ],
      "name": "completeOwnershipHandover",
      "outputs": [],
      "stateMutability": "payable",
      "type": "function"
    },
    {
      "inputs": [],
      "name": "contractURI",
      "outputs": [
        {
          "internalType": "string",
          "name": "",
          "type": "string"
        }
      ],
      "stateMutability": "view",
      "type": "function"
    },
    {
      "inputs": [],
      "name": "eip712Domain",
      "outputs": [
        {
          "internalType": "bytes1",
          "name": "fields",
          "type": "bytes1"
        },
        {
          "internalType": "string",
          "name": "name",
          "type": "string"
        },
        {
          "internalType": "string",
          "name": "version",
          "type": "string"
        },
        {
          "internalType": "uint256",
          "name": "chainId",
          "type": "uint256"
        },
        {
          "internalType": "address",
          "name": "verifyingContract",
          "type": "address"
        },
        {
          "internalType": "bytes32",
          "name": "salt",
          "type": "bytes32"
        },
        {
          "internalType": "uint256[]",
          "name": "extensions",
          "type": "uint256[]"
        }
      ],
      "stateMutability": "view",
      "type": "function"
    },
    {
      "inputs": [
        {
          "internalType": "uint256",
          "name": "id",
          "type": "uint256"
        }
      ],
      "name": "getApproved",
      "outputs": [
        {
          "internalType": "address",
          "name": "result",
          "type": "address"
        }
      ],
      "stateMutability": "view",
      "type": "function"
    },
    {
      "inputs": [
        {
          "internalType": "address",
          "name": "owner",
          "type": "address"
        },
        {
          "internalType": "address",
          "name": "operator",
          "type": "address"
        }
      ],
      "name": "isApprovedForAll",
      "outputs": [
        {
          "internalType": "bool",
          "name": "result",
          "type": "bool"
        }
      ],
      "stateMutability": "view",
      "type": "function"
    },
    {
      "inputs": [
        {
          "internalType": "address",
          "name": "to",
          "type": "address"
        },
        {
          "components": [
            {
              "internalType": "uint16",
              "name": "props",
              "type": "uint16"
            },
            {
              "internalType": "uint16",
              "name": "sponsoredProps",
              "type": "uint16"
            },
            {
              "internalType": "uint24",
              "name": "votes",
              "type": "uint24"
            },
            {
              "internalType": "string",
              "name": "username",
              "type": "string"
            }
          ],
          "internalType": "struct NounsWrapped.WrappedStats",
          "name": "stats",
          "type": "tuple"
        }
      ],
      "name": "mint",
      "outputs": [],
      "stateMutability": "payable",
      "type": "function"
    },
    {
      "inputs": [],
      "name": "mintFee",
      "outputs": [
        {
          "internalType": "uint256",
          "name": "",
          "type": "uint256"
        }
      ],
      "stateMutability": "view",
      "type": "function"
    },
    {
      "inputs": [],
      "name": "name",
      "outputs": [
        {
          "internalType": "string",
          "name": "",
          "type": "string"
        }
      ],
      "stateMutability": "pure",
      "type": "function"
    },
    {
      "inputs": [],
      "name": "owner",
      "outputs": [
        {
          "internalType": "address",
          "name": "result",
          "type": "address"
        }
      ],
      "stateMutability": "view",
      "type": "function"
    },
    {
      "inputs": [
        {
          "internalType": "uint256",
          "name": "id",
          "type": "uint256"
        }
      ],
      "name": "ownerOf",
      "outputs": [
        {
          "internalType": "address",
          "name": "result",
          "type": "address"
        }
      ],
      "stateMutability": "view",
      "type": "function"
    },
    {
      "inputs": [
        {
          "internalType": "address",
          "name": "pendingOwner",
          "type": "address"
        }
      ],
      "name": "ownershipHandoverExpiresAt",
      "outputs": [
        {
          "internalType": "uint256",
          "name": "result",
          "type": "uint256"
        }
      ],
      "stateMutability": "view",
      "type": "function"
    },
    {
      "inputs": [],
      "name": "renderer",
      "outputs": [
        {
          "internalType": "contract Renderer",
          "name": "",
          "type": "address"
        }
      ],
      "stateMutability": "view",
      "type": "function"
    },
    {
      "inputs": [],
      "name": "renounceOwnership",
      "outputs": [],
      "stateMutability": "payable",
      "type": "function"
    },
    {
      "inputs": [],
      "name": "requestOwnershipHandover",
      "outputs": [],
      "stateMutability": "payable",
      "type": "function"
    },
    {
      "inputs": [
        {
          "internalType": "address",
          "name": "from",
          "type": "address"
        },
        {
          "internalType": "address",
          "name": "to",
          "type": "address"
        },
        {
          "internalType": "uint256",
          "name": "id",
          "type": "uint256"
        }
      ],
      "name": "safeTransferFrom",
      "outputs": [],
      "stateMutability": "payable",
      "type": "function"
    },
    {
      "inputs": [
        {
          "internalType": "address",
          "name": "from",
          "type": "address"
        },
        {
          "internalType": "address",
          "name": "to",
          "type": "address"
        },
        {
          "internalType": "uint256",
          "name": "id",
          "type": "uint256"
        },
        {
          "internalType": "bytes",
          "name": "data",
          "type": "bytes"
        }
      ],
      "name": "safeTransferFrom",
      "outputs": [],
      "stateMutability": "payable",
      "type": "function"
    },
    {
      "inputs": [
        {
          "internalType": "uint256",
          "name": "tokenId",
          "type": "uint256"
        }
      ],
      "name": "seeds",
      "outputs": [
        {
          "internalType": "uint32",
          "name": "seed",
          "type": "uint32"
        }
      ],
      "stateMutability": "view",
      "type": "function"
    },
    {
      "inputs": [
        {
          "internalType": "address",
          "name": "operator",
          "type": "address"
        },
        {
          "internalType": "bool",
          "name": "isApproved",
          "type": "bool"
        }
      ],
      "name": "setApprovalForAll",
      "outputs": [],
      "stateMutability": "nonpayable",
      "type": "function"
    },
    {
      "inputs": [
        {
          "internalType": "uint256",
          "name": "tokenId",
          "type": "uint256"
        }
      ],
      "name": "statsOf",
      "outputs": [
        {
          "internalType": "uint16",
          "name": "props",
          "type": "uint16"
        },
        {
          "internalType": "uint16",
          "name": "sponsoredProps",
          "type": "uint16"
        },
        {
          "internalType": "uint24",
          "name": "votes",
          "type": "uint24"
        },
        {
          "internalType": "string",
          "name": "username",
          "type": "string"
        }
      ],
      "stateMutability": "view",
      "type": "function"
    },
    {
      "inputs": [
        {
          "internalType": "bytes4",
          "name": "interfaceId",
          "type": "bytes4"
        }
      ],
      "name": "supportsInterface",
      "outputs": [
        {
          "internalType": "bool",
          "name": "result",
          "type": "bool"
        }
      ],
      "stateMutability": "view",
      "type": "function"
    },
    {
      "inputs": [],
      "name": "symbol",
      "outputs": [
        {
          "internalType": "string",
          "name": "",
          "type": "string"
        }
      ],
      "stateMutability": "pure",
      "type": "function"
    },
    {
      "inputs": [],
      "name": "tokenIdCounter",
      "outputs": [
        {
          "internalType": "uint256",
          "name": "",
          "type": "uint256"
        }
      ],
      "stateMutability": "view",
      "type": "function"
    },
    {
      "inputs": [
        {
          "internalType": "address",
          "name": "",
          "type": "address"
        }
      ],
      "name": "tokenIdOf",
      "outputs": [
        {
          "internalType": "uint256",
          "name": "",
          "type": "uint256"
        }
      ],
      "stateMutability": "view",
      "type": "function"
    },
    {
      "inputs": [
        {
          "internalType": "uint256",
          "name": "tokenId",
          "type": "uint256"
        }
      ],
      "name": "tokenURI",
      "outputs": [
        {
          "internalType": "string",
          "name": "",
          "type": "string"
        }
      ],
      "stateMutability": "view",
      "type": "function"
    },
    {
      "inputs": [
        {
          "internalType": "address",
          "name": "from",
          "type": "address"
        },
        {
          "internalType": "address",
          "name": "to",
          "type": "address"
        },
        {
          "internalType": "uint256",
          "name": "id",
          "type": "uint256"
        }
      ],
      "name": "transferFrom",
      "outputs": [],
      "stateMutability": "payable",
      "type": "function"
    },
    {
      "inputs": [
        {
          "internalType": "address",
          "name": "newOwner",
          "type": "address"
        }
      ],
      "name": "transferOwnership",
      "outputs": [],
      "stateMutability": "payable",
      "type": "function"
    },
    {
      "inputs": [
        {
          "internalType": "address",
          "name": "to",
          "type": "address"
        }
      ],
      "name": "withdrawBalance",
      "outputs": [],
      "stateMutability": "nonpayable",
      "type": "function"
    }
  ],
  "transactionHash": "0xa1d2cc940d1970603dcc729e372e13889181d9dfdee16b45685f251662195153",
  "args": [
    "0x0cfecb5D359E6C59ABd1d2Aa794F52C15055f451",
    1000000000000000
  ],
  "numDeployments": 5,
  "solcInputHash": "dad0dc32f4b3643a2fb379a5cb3af771",
  "bytecode": "0x61014060405260405162000013906200018a565b604051809103905ff0801580156200002d573d5f803e3d5ffd5b505f80546001600160a01b0319166001600160a01b039290921691909117905534801562000059575f80fd5b5060405162005731380380620057318339810160408190526200007c9162000198565b306080524660a052606080620000cf60408051808201825260128152714e6f756e732057726170706564203230323360701b602080830191909152825180840190935260018352603160f81b9083015291565b815160209283012081519183019190912060c082905260e0819052604080517f8b73c3c69bb8fe3d512ecc4cf759cc79239f7b179b0ffacaa9a75d522b39400f8152938401929092529082015246606082015230608082015260a090206101005250506101208190525f60015562000147826200014f565b5050620001d1565b6001600160a01b0316638b78c6d819819055805f7f8be0079c531659141344cd1fd0a4f28419497f9722a3daafe3b4186f6b6457e08180a350565b6139c98062001d6883390190565b5f8060408385031215620001aa575f80fd5b82516001600160a01b0381168114620001c1575f80fd5b6020939093015192949293505050565b60805160a05160c05160e0516101005161012051611b57620002115f395f81816102c5015261079c01525f50505f50505f50505f50505f5050611b575ff3fe6080604052600436106101d0575f3560e01c8063773c02d4116100fd578063b88d4fde11610092578063f04e283e11610062578063f04e283e1461055a578063f0503e801461056d578063f2fde38b146105b3578063fee81cf4146105c6575f80fd5b8063b88d4fde146104e0578063c87b56dd146104f3578063e8a3d48514610512578063e985e9c514610526575f80fd5b80638da5cb5b116100cd5780638da5cb5b1461046157806395d89b411461047957806398bdf6f5146104ac578063a22cb465146104c1575f80fd5b8063773c02d4146103c25780637bc5d64d146103ed57806384b0196e1461041c5780638ada6b0f14610443575f80fd5b80633d27f18a116101735780636352211e116101435780636352211e1461035d57806370a082311461037c578063715018a61461039b578063756af45f146103a3575f80fd5b80633d27f18a1461031057806342842e0e1461032357806342966c681461033657806354d1f13d14610355575f80fd5b8063095ea7b3116101ae578063095ea7b31461029f57806313966db5146102b457806323b872dd146102f55780632569296214610308575f80fd5b806301ffc9a7146101d457806306fdde0314610225578063081812fc14610268575b5f80fd5b3480156101df575f80fd5b506102106101ee366004611416565b6301ffc9a760e09190911c9081146380ac58cd821417635b5e139f9091141790565b60405190151581526020015b60405180910390f35b348015610230575f80fd5b506040805180820190915260128152714e6f756e732057726170706564203230323360701b60208201525b60405161021c919061148a565b348015610273575f80fd5b5061028761028236600461149c565b6105f7565b6040516001600160a01b03909116815260200161021c565b6102b26102ad3660046114c9565b610632565b005b3480156102bf575f80fd5b506102e77f000000000000000000000000000000000000000000000000000000000000000081565b60405190815260200161021c565b6102b26103033660046114f1565b610641565b6102b261074d565b6102b261031e36600461152a565b61079a565b6102b26103313660046114f1565b6108dd565b348015610341575f80fd5b506102b261035036600461149c565b610909565b6102b2610a0a565b348015610368575f80fd5b5061028761037736600461149c565b610a43565b348015610387575f80fd5b506102e761039636600461157b565b610a7f565b6102b2610ab7565b3480156103ae575f80fd5b506102b26103bd36600461157b565b610aca565b3480156103cd575f80fd5b506102e76103dc36600461157b565b60046020525f908152604090205481565b3480156103f8575f80fd5b5061040c61040736600461149c565b610ade565b60405161021c9493929190611594565b348015610427575f80fd5b50610430610b9e565b60405161021c97969594939291906115cf565b34801561044e575f80fd5b505f54610287906001600160a01b031681565b34801561046c575f80fd5b50638b78c6d81954610287565b348015610484575f80fd5b5060408051808201909152600b81526a4e5720f09f8e813230323360a81b602082015261025b565b3480156104b7575f80fd5b506102e760015481565b3480156104cc575f80fd5b506102b26104db366004611663565b610c03565b6102b26104ee366004611691565b610c56565b3480156104fe575f80fd5b5061025b61050d36600461149c565b610cb0565b34801561051d575f80fd5b5061025b610e67565b348015610531575f80fd5b50610210610540366004611724565b601c52670a5a2e7a000000006008525f526030600c205490565b6102b261056836600461157b565b610eda565b348015610578575f80fd5b5061059e61058736600461149c565b60036020525f908152604090205463ffffffff1681565b60405163ffffffff909116815260200161021c565b6102b26105c136600461157b565b610f14565b3480156105d1575f80fd5b506102e76105e036600461157b565b63389a75e1600c9081525f91909152602090205490565b5f815f52673ec412a9852d173d60c11b601c5260205f2082018201805460601b6106285763ceea21b65f526004601cfd5b6001015492915050565b61063d338383610f3a565b5050565b5f818152673ec412a9852d173d60c11b3317601c52602090208101810180546001600160a01b03948516949384169381169190828614830261069c578261068f5763ceea21b65f526004601cfd5b63a11481005f526004601cfd5b846106ae5763ea553b345f526004601cfd5b855f5281600101549250823314863314176106da576030600c20546106da57634b6e7f185f526004601cfd5b82156106e7575f82600101555b85851818905550601c600c81812080545f190190555f84905220805460010163ffffffff811661071e576301336cea5f526004601cfd5b90558082847fddf252ad1be2c89b69c2b068fc378daa952ba7f163c4a11628f55a4df523b3ef5f38a45b505050565b5f6202a30067ffffffffffffffff164201905063389a75e1600c52335f52806020600c2055337fdbf36a107da19e49527a7176a1babf963b4b0ff8cde35ee35d6cd8f1f9ac7e1d5f80a250565b7f000000000000000000000000000000000000000000000000000000000000000034146107da5760405163078d696560e31b815260040160405180910390fd5b6001600160a01b0382165f90815260046020526040902054156108535760405162461bcd60e51b815260206004820152602660248201527f4e6f756e73577261707065643a207573657220616c7265616479206861732061604482015265103a37b5b2b760d11b60648201526084015b60405180910390fd5b60018054905f61086283611769565b90915550506001545f818152600260205260409020829061088382826118df565b90505061088f81610fd4565b5f828152600360205260409020805463ffffffff191663ffffffff929092169190911790556108be838261101b565b6001600160a01b039092165f9081526004602052604090209190915550565b6108e8838383610641565b813b156107485761074883838360405180602001604052805f8152506110c2565b638b78c6d819546001600160a01b0316336001600160a01b0316148061093c5750335f9081526004602052604090205481145b6109ae5760405162461bcd60e51b815260206004820152603860248201527f4e6f756e73577261707065643a2075736572206973206e6f74206f776e65722060448201527f6f6620636f6e7472616374206f722074686520746f6b656e0000000000000000606482015260840161084a565b6109b78161114b565b5f818152600260205260408120805466ffffffffffffff19168155906109e060018301826113cc565b50505f908152600360209081526040808320805463ffffffff191690553383526004909152812055565b63389a75e1600c52335f525f6020600c2055337ffa7b8eab7da67f412cc9575ed43464468f9bfbae89d1675917346ca6d8fe3c925f80a2565b5f818152673ec412a9852d173d60c11b601c526020902081018101546001600160a01b031680610a7a5763ceea21b65f526004601cfd5b919050565b5f81610a9257638f4eb6045f526004601cfd5b673ec412a9852d173d60c11b601c52815f5263ffffffff601c600c2054169050919050565b610abf611155565b610ac85f61116f565b565b610ad2611155565b610adb816111ac565b50565b60026020525f90815260409020805460018201805461ffff8084169462010000850490911693640100000000900462ffffff16929091610b1d906117a7565b80601f0160208091040260200160405190810160405280929190818152602001828054610b49906117a7565b8015610b945780601f10610b6b57610100808354040283529160200191610b94565b820191905f5260205f20905b815481529060010190602001808311610b7757829003601f168201915b5050505050905084565b600f60f81b6060805f808083610bf160408051808201825260128152714e6f756e732057726170706564203230323360701b602080830191909152825180840190935260018352603160f81b9083015291565b97989097965046955030945091925090565b801515905081601c52670a5a2e7a00000000600852335f52806030600c2055805f528160601b60601c337f17307eab39ab6107e8899845ad3d59bd9653f200f220920489ca2b5937696c3160205fa35050565b610c61858585610641565b833b15610ca957610ca985858585858080601f0160208091040260200160405190810160405280939291908181526020018383808284375f920191909152506110c292505050565b5050505050565b5f8181526002602090815260408083208151608081018352815461ffff8082168352620100008204169482019490945264010000000090930462ffffff169183019190915260018101805460609493929185840191610d0e906117a7565b80601f0160208091040260200160405190810160405280929190818152602001828054610d3a906117a7565b8015610d855780601f10610d5c57610100808354040283529160200191610d85565b820191905f5260205f20905b815481529060010190602001808311610d6857829003601f168201915b505050919092525050604080518082018252601081526f30b8383634b1b0ba34b7b717b539b7b760811b6020808301919091525f8054898252600383529084902054865192870151858801516060890151965163e522a91560e01b8152989950610e60989597506001600160a01b039093169563e522a91595610e199563ffffffff909416948d94939290916004016119a9565b5f60405180830381865afa158015610e33573d5f803e3d5ffd5b505050506040513d5f823e601f3d908101601f19168201604052610e5a91908101906119f8565b906111c5565b9392505050565b604080518082018252601081526f30b8383634b1b0ba34b7b717b539b7b760811b60208201525f80548351635f17cac360e01b81529351606094610ed594936001600160a01b0390931692635f17cac3926004808401938290030181865afa158015610e33573d5f803e3d5ffd5b905090565b610ee2611155565b63389a75e1600c52805f526020600c208054421115610f0857636f5e88185f526004601cfd5b5f9055610adb8161116f565b610f1c611155565b8060601b610f3157637448fbae5f526004601cfd5b610adb8161116f565b5f1960601c82811692508381169350815f5283673ec412a9852d173d60c11b17601c5260205f208201820180548216915081610f7d5763ceea21b65f526004601cfd5b818514851517610fa157815f526030600c2054610fa157634b6e7f185f526004601cfd5b6001018390558183827f8c5be1e5ebec7d5bd14f71427d1e84f3dd0314c0f7b2291e5b200ac8c7c3b9255f38a450505050565b5f42610fe1600143611aa0565b6040805160208101939093529040908201526060810183905260800160408051601f19818403018152919052805160209091012092915050565b6001600160a01b0390911690816110395763ea553b345f526004601cfd5b805f52673ec412a9852d173d60c11b601c5260205f208101810180548060601b1561106b5763c991cbb15f526004601cfd5b831790555f829052601c600c20805460010163ffffffff8116611095576301336cea5f526004601cfd5b905580825f7fddf252ad1be2c89b69c2b068fc378daa952ba7f163c4a11628f55a4df523b3ef8138a45050565b60405163150b7a028082523360208301528560601b60601c604083015283606083015260808083015282518060a08401528015611109578060c08401826020870160045afa505b60208360a48301601c86015f8a5af161112a573d1561112a573d5f843e3d83fd5b508060e01b8251146111435763d1a57ed65f526004601cfd5b505050505050565b610adb5f82611219565b638b78c6d819543314610ac8576382b429005f526004601cfd5b638b78c6d81980546001600160a01b039092169182907f8be0079c531659141344cd1fd0a4f28419497f9722a3daafe3b4186f6b6457e05f80a355565b5f385f3847855af1610adb5763b12d13eb5f526004601cfd5b6060816111f0846040516020016111dc9190611ab3565b6040516020818303038152906040526112df565b604051602001611201929190611ace565b60405160208183030381529060405290505b92915050565b5f61122382610a43565b9050505f8181526001600160a01b03928316673ec412a9852d173d60c11b8117601c5260209091208201820180549193821691826112685763ceea21b65f526004601cfd5b825f52816001015480861484871417861517611295576030600c205461129557634b6e7f185f526004601cfd5b80156112a2575f83600101555b5082189055601c600c2080545f19019055815f827fddf252ad1be2c89b69c2b068fc378daa952ba7f163c4a11628f55a4df523b3ef8238a4505050565b6060611213825f806060835180156113c4576003600282010460021b60405192507f4142434445464748494a4b4c4d4e4f505152535455565758595a616263646566601f526106708515027f6768696a6b6c6d6e6f707172737475767778797a303132333435363738392d5f18603f52602083018181015b6003880197508751603f8160121c16515f53603f81600c1c1651600153603f8160061c1651600253603f811651600353505f51825260048201915080821061135757602001604052613d3d60f01b60038406600204808303919091525f8615159091029182900352900382525b509392505050565b5080546113d8906117a7565b5f825580601f106113e7575050565b601f0160209004905f5260205f2090810190610adb91905b80821115611412575f81556001016113ff565b5090565b5f60208284031215611426575f80fd5b81356001600160e01b031981168114610e60575f80fd5b5f5b8381101561145757818101518382015260200161143f565b50505f910152565b5f815180845261147681602086016020860161143d565b601f01601f19169290920160200192915050565b602081525f610e60602083018461145f565b5f602082840312156114ac575f80fd5b5035919050565b80356001600160a01b0381168114610a7a575f80fd5b5f80604083850312156114da575f80fd5b6114e3836114b3565b946020939093013593505050565b5f805f60608486031215611503575f80fd5b61150c846114b3565b925061151a602085016114b3565b9150604084013590509250925092565b5f806040838503121561153b575f80fd5b611544836114b3565b9150602083013567ffffffffffffffff81111561155f575f80fd5b830160808186031215611570575f80fd5b809150509250929050565b5f6020828403121561158b575f80fd5b610e60826114b3565b5f61ffff808716835280861660208401525062ffffff84166040830152608060608301526115c5608083018461145f565b9695505050505050565b60ff60f81b881681525f602060e0818401526115ee60e084018a61145f565b8381036040850152611600818a61145f565b606085018990526001600160a01b038816608086015260a0850187905284810360c086015285518082528387019250908301905f5b8181101561165157835183529284019291840191600101611635565b50909c9b505050505050505050505050565b5f8060408385031215611674575f80fd5b61167d836114b3565b915060208301358015158114611570575f80fd5b5f805f805f608086880312156116a5575f80fd5b6116ae866114b3565b94506116bc602087016114b3565b935060408601359250606086013567ffffffffffffffff808211156116df575f80fd5b818801915088601f8301126116f2575f80fd5b813581811115611700575f80fd5b896020828501011115611711575f80fd5b9699959850939650602001949392505050565b5f8060408385031215611735575f80fd5b61173e836114b3565b915061174c602084016114b3565b90509250929050565b634e487b7160e01b5f52601160045260245ffd5b5f6001820161177a5761177a611755565b5060010190565b5f813561ffff81168114611213575f80fd5b634e487b7160e01b5f52604160045260245ffd5b600181811c908216806117bb57607f821691505b6020821081036117d957634e487b7160e01b5f52602260045260245ffd5b50919050565b601f821115610748575f81815260208120601f850160051c810160208610156118055750805b601f850160051c820191505b8181101561114357828155600101611811565b67ffffffffffffffff83111561183c5761183c611793565b6118508361184a83546117a7565b836117df565b5f601f841160018114611881575f851561186a5750838201355b5f19600387901b1c1916600186901b178355610ca9565b5f83815260209020601f19861690835b828110156118b15786850135825560209485019460019092019101611891565b50868210156118cd575f1960f88860031b161c19848701351681555b505060018560011b0183555050505050565b61ffff6118eb83611781565b1681548161ffff19821617835563ffff000061190960208601611781565b60101b16808363ffffffff19841617178455604085013562ffffff81168114611930575f80fd5b66ffffff000000008160201b168466ffffffffffffff198516178317178555505050506060820135601e19833603018112611969575f80fd5b8201803567ffffffffffffffff811115611981575f80fd5b602082019150803603821315611995575f80fd5b6119a3818360018601611824565b50505050565b63ffffffff871681528560208201525f61ffff808716604084015280861660608401525062ffffff8416608083015260c060a08301526119ec60c083018461145f565b98975050505050505050565b5f60208284031215611a08575f80fd5b815167ffffffffffffffff80821115611a1f575f80fd5b818401915084601f830112611a32575f80fd5b815181811115611a4457611a44611793565b604051601f8201601f19908116603f01168101908382118183101715611a6c57611a6c611793565b81604052828152876020848701011115611a84575f80fd5b611a9583602083016020880161143d565b979650505050505050565b8181038181111561121357611213611755565b5f8251611ac481846020870161143d565b9190910192915050565b643230ba309d60d91b81525f8351611aed81600585016020880161143d565b670ed8985cd94d8d0b60c21b6005918401918201528351611b1581600d84016020880161143d565b01600d0194935050505056fea2646970667358221220d94a52afb3b68c75f72b3e2a1684b36cb74b69c2085292fc5289087c4ffa692664736f6c63430008150033608060405234801561000f575f80fd5b506139ac8061001d5f395ff3fe608060405234801561000f575f80fd5b5060043610610213575f3560e01c8063b55ccc621161011f578063d0c3efa8116100a9578063d9237f1411610079578063d9237f14146104ed578063e522a91514610519578063f051dcf81461052c578063f49717ee14610413578063f6130adc14610559575f80fd5b8063d0c3efa81461029d578063d2ae5ffd14610493578063d5ed88ce146104a6578063d61974f1146104b9575f80fd5b8063bf35dd0b116100ef578063bf35dd0b14610413578063c46b294d14610423578063cd475f2614610448578063cdea0cef1461045b578063ce5ad1791461046e575f80fd5b8063b55ccc621461029d578063bc689620146103ee578063be58b0a914610413578063bee84ae31461041b575f80fd5b8063640bab41116101a05780637f369319116101705780637f3693191461038957806387598e52146103b25780638c8c3796146103ba578063a891b35e146103db578063afae76fa146103b2575f80fd5b8063640bab411461032557806372617f8a1461034e5780637510ac241461036e5780637dbb90a214610376575f80fd5b80633708be65116101e65780633708be65146102b35780633d5be2c2146102bb57806341ff467b146102e157806343f2614f146102f45780635f17cac31461031d575f80fd5b8063053f1eb0146102175780630c4ae1c9146102695780632bee68071461028a57806333174f981461029d575b5f80fd5b6102536040518060400160405280601a81526020017f253343253246626f647925334525334325324668746d6c25334500000000000081525081565b6040516102609190611a16565b60405180910390f35b61027c610277366004611b4a565b61058e565b604051610260929190611cf0565b610253610298366004611ec9565b610a43565b6102a5600d81565b604051908152602001610260565b6102a5604581565b610253604051806040016040528060078152602001661e17b432b0b21f60c91b81525081565b6102536102ef366004611b4a565b610ae6565b6102536040518060400160405280600a8152602001692533436865616425334560b01b81525081565b610253610d64565b6102536040518060400160405280600a81526020016925334368746d6c25334560b01b81525081565b6102a561035c366004611f6a565b5f600360028301046004029050919050565b6102a5601681565b610253610384366004611ec9565b610d85565b6102536040518060400160405280600a815260200169253343626f647925334560b01b81525081565b6102a5602781565b6103cd6103c8366004611f81565b610edc565b604051610260929190611fb3565b6102536103e9366004611ec9565b611082565b610253604051806040016040528060068152602001651e343a36b61f60d11b81525081565b6102a5601781565b6102a5605a81565b610253604051806040016040528060068152602001651e3432b0b21f60d11b81525081565b6103cd610456366004611f81565b611093565b610253610469366004611f81565b611216565b610253604051806040016040528060068152602001651e3137b23c9f60d11b81525081565b6102536104a1366004611b4a565b6112a6565b6102536104b4366004611ec9565b6112e4565b61025360405180604001604052806015815260200174646174612533417465787425324668746d6c25324360581b81525081565b6102536040518060400160405280600d81526020016c2533432532466865616425334560981b81525081565b610253610527366004611fd7565b6112ef565b6102536040518060400160405280600e81526020016d1e17b137b23c9f1e17b43a36b61f60911b81525081565b6102536040518060400160405280601681526020017519185d184e9d195e1d0bda1d1b5b0ed8985cd94d8d0b60521b81525081565b60408051600580825260c0820190925260609182915f91816020015b6105b2611974565b8152602001906001900390816105aa5790505090506040518061018001604052806101578152602001612b7a6101579139815f815181106105f5576105f561205a565b602002602001015160c00181905250604051806102a0016040528061026b81526020016123ed61026b9139816001815181106106335761063361205a565b602002602001015160c0018190525061064b8861136e565b8160028151811061065e5761065e61205a565b602002602001015160c00181905250604051806040016040528060098152602001683e9e17b9ba3cb6329f60b91b815250816003815181106106a2576106a261205a565b602002602001015160c00181905250604051806101c0016040528061018f8152602001612cd161018f9139816004815181106106e0576106e061205a565b602090810291909101015160c0015260408051600e8082526101e082019092525f91816020015b61070f611974565b81526020019060019003908161070757905050905060405180606001604052806023815260200161269d60239139815f8151811061074f5761074f61205a565b602002602001015160c001819052506107678961136e565b8160018151811061077a5761077a61205a565b602002602001015160c001819052506040518060400160405280600d81526020016c11103230ba3096b9b2b2b21e9160991b815250816002815181106107c2576107c261205a565b602002602001015160c001819052506107e08963ffffffff16611545565b816003815181106107f3576107f361205a565b602002602001015160c001819052506040518060800160405280605081526020016138ee605091398160048151811061082e5761082e61205a565b602002602001015160c0018190525084816005815181106108515761085161205a565b602002602001015160c001819052506040518060a0016040528060628152602001612342606291398160068151811061088c5761088c61205a565b602002602001015160c001819052506108a98662ffffff16611545565b816007815181106108bc576108bc61205a565b602002602001015160c00181905250604051806060016040528060318152602001612e6060319139816008815181106108f7576108f761205a565b602002602001015160c001819052506109138861ffff16611545565b816009815181106109265761092661205a565b602002602001015160c0018190525060405180606001604052806039815260200161393e6039913981600a815181106109615761096161205a565b602002602001015160c0018190525061097d8761ffff16611545565b81600b815181106109905761099061205a565b602002602001015160c001819052506040518060400160405280601f81526020017f2070726f70733c2f6469763e3c2f6469763e3c2f6469763e3c2f6d61696e3e0081525081600c815181106109e8576109e861205a565b602002602001015160c0018190525060405180610a400160405280610a198152602001612e91610a19913981600d81518110610a2657610a2661205a565b602090810291909101015160c00152909890975095505050505050565b60605f610a4f83610d85565b90505f610a6982515f600360028301046004029050919050565b60160190505f610a8f82604080518281016060018252910181525f602090910190815290565b9050610ad26040518060400160405280601681526020017519185d184e9d195e1d0bda1d1b5b0ed8985cd94d8d0b60521b8152508261158790919063ffffffff16565b610ade81845f806115a0565b949350505050565b60605f80610af7888888888861058e565b9150915060405180610280016040528061025d81526020016127d061025d913982600181518110610b2a57610b2a61205a565b602002602001015160c00181905250610b428861136e565b82600281518110610b5557610b5561205a565b602002602001015160c00181905250604051806040016040528060098152602001683e9e17b9ba3cb6329f60b91b81525082600381518110610b9957610b9961205a565b602002602001015160c001819052506040518060400160405280600f81526020016e1e39ba3cb6329f1e17b9ba3cb6329f60891b81525082600481518110610be357610be361205a565b602002602001015160c00181905250600d81525f60405180604001604052808481526020018381525090505f610c1882610d85565b90505f6040518060c00160405280609381526020016126c06093913990505f6040518060400160405280601d81526020017f3c2f626f64793e3c2f666f726569676e4f626a6563743e3c2f7376673e00000081525090505f610ca9825185518551610c83919061206e565b610c8d919061206e565b604080518281016060018252910181525f602090910190815290565b9050610cb58184611587565b610cbf8185611587565b610cc98183611587565b60408051808201909152601a8082527f646174613a696d6167652f7376672b786d6c3b6261736536342c00000000000060208301528251600360029091010460040290610d16908261206e565b90505f610d3982604080518281016060018252910181525f602090910190815290565b9050610d458184611587565b610d5181855f806115a0565b9f9e505050505050505050505050505050565b606060405180610100016040528060d18152602001612aa960d19139905090565b8051516060905f9015610da1578251610d9e905f6116ac565b90505b60208301515115610dbc57610dba83602001515f6116ac565b015b5f610dc960278301610c8d565b9050610dfc604051806040016040528060068152602001651e343a36b61f60d11b8152508261158790919063ffffffff16565b6040805180820190915260068152651e3432b0b21f60d11b6020820152610e24908290611587565b83515115610e3a57610e3a81855f01515f61182b565b6040805180820190915260078152661e17b432b0b21f60c91b6020820152610e63908290611587565b6040805180820190915260068152651e3137b23c9f60d11b6020820152610e8b908290611587565b60208401515115610ea557610ea58185602001515f61182b565b60408051808201909152600e81526d1e17b137b23c9f1e17b43a36b61f60911b6020820152610ed5908290611587565b9392505050565b606080600183606001516004811115610ef757610ef7611bc5565b03610f4857604051806040016040528060088152602001671e39b1b934b83a1f60c11b815250604051806040016040528060098152602001681e17b9b1b934b83a1f60b91b81525091509150915091565b600283606001516004811115610f6057610f60611bc5565b03610fab57604051806060016040528060298152602001612319602991396040518060400160405280600b81526020016a111f1e17b9b1b934b83a1f60a91b81525091509150915091565b600383606001516004811115610fc357610fc3611bc5565b0361100e57604051806080016040528060458152602001612658604591396040518060400160405280600b81526020016a111f1e17b9b1b934b83a1f60a91b81525091509150915091565b60048360600151600481111561102657611026611bc5565b03611071576040518060800160405280604481526020016138aa604491396040518060400160405280600b81526020016a111f1e17b9b1b934b83a1f60a91b81525091509150915091565b5050608081015160a0909101519091565b606061108d82610a43565b92915050565b6060806001836060015160048111156110ae576110ae611bc5565b14806110cf57506002836060015160048111156110cd576110cd611bc5565b145b1561112c576040518060800160405280604981526020016123a4604991396040518060400160405280601f81526020017f253235323225323533452532353343253235324673637269707425323533450081525091509150915091565b60038360600151600481111561114457611144611bc5565b036111a1576040518060a00160405280607d8152602001612753607d91396040518060400160405280601f81526020017f253235323225323533452532353343253235324673637269707425323533450081525091509150915091565b6004836060015160048111156111b9576111b9611bc5565b03611071576040518060a00160405280607c8152602001612a2d607c91396040518060400160405280601f81526020017f253235323225323533452532353343253235324673637269707425323533450081525091509150915091565b60c0810151516060901561122c575060c0015190565b602082015182516040808501519051633e58d56560e21b81526001600160a01b039093169263f963559492611265929091600401611fb3565b5f60405180830381865afa15801561127f573d5f803e3d5ffd5b505050506040513d5f823e601f3d908101601f1916820160405261108d919081019061208d565b60605f806112b7888888888861058e565b915091506112d8604051806040016040528084815260200183815250610a43565b98975050505050505050565b606061108d82610d85565b60606112fe87868686866112a6565b61130b8887878787610ae6565b61131488611545565b6113218861ffff16611545565b61132e8861ffff16611545565b8661133d8962ffffff16611545565b6040516020016113539796959493929190612111565b60405160208183030381529060405290509695505050505050565b60408051600680825260e082019092526060915f9190816020015b6060815260200190600190039081611389579050509050604051806040016040528060078152602001662344353343354560c81b815250815f815181106113d2576113d261205a565b602002602001018190525060405180604001604052806007815260200166119a9c9c1ba32360c91b815250816001815181106114105761141061205a565b6020026020010181905250604051806040016040528060078152602001662344433545374160c81b8152508160028151811061144e5761144e61205a565b6020026020010181905250604051806040016040528060078152602001662331343236453160c81b8152508160038151811061148c5761148c61205a565b6020026020010181905250604051806040016040528060078152602001662331423338463560c81b815250816004815181106114ca576114ca61205a565b6020026020010181905250604051806040016040528060078152602001662345333746393560c81b815250816005815181106115085761150861205a565b60209081029190910101528061151f6006856122ea565b63ffffffff16815181106115355761153561205a565b6020026020010151915050919050565b60606080604051019050602081016040525f8152805f19835b928101926030600a8206018453600a90048061155e575050819003601f19909101908152919050565b611592828251611865565b61159c82826118ec565b5050565b82515f8190036115b057506116a6565b60036002828101829004901b90820683156115d2576001811481151501820391505b6115dc8783611865565b6040517f4142434445464748494a4b4c4d4e4f505152535455565758595a616263646566601f526102308615027f6768696a6b6c6d6e6f707172737475767778797a303132333435363738392d5f03603f52875160208901018488015b6003890198508851603f8160121c16518353603f81600c1c16516001840153603f8160061c16516002840153603f81165160038401535060048201915080891061163957508561169857603d831515820353603d6001841460011b8203535b508751909201875250604052505b50505050565b5f82515f036116bc57505f61108d565b60608060605f80875190505f5b6116eb8982815181106116de576116de61205a565b6020026020010151611216565b9350838982815181106117005761170061205a565b602002602001015160c0018190525087801561174a5750600189828151811061172b5761172b61205a565b602002602001015160600151600481111561174857611748611bc5565b145b1561176557835160036002909101046004028301925061176c565b8351830192505b871561179e576117948982815181106117875761178761205a565b6020026020010151611093565b90965094506117c6565b6117c08982815181106117b3576117b361205a565b6020026020010151610edc565b90965094505b858982815181106117d9576117d961205a565b602002602001015160800181905250848982815181106117fb576117fb61205a565b602090810291909101015160a00152855185519301909201916001018181106116c9575090979650505050505050565b5f5b611851848483815181106118435761184361205a565b602002602001015184611922565b8251816001019150811061182d5750505050565b5f61187683601f190151603f190190565b90505f828451611886919061206e565b9050808210156116a65760405162461bcd60e51b815260206004820152602760248201527f44796e616d69634275666665723a20417070656e64696e67206f7574206f66206044820152663137bab732399760c91b606482015260840160405180910390fd5b8051602082019150808201602084510184015b818410156119175783518152602093840193016118ff565b505082510190915250565b6080820151611932908490611587565b801561194f5760c082015161194a9084905f806115a0565b61195f565b60c082015161195f908490611587565b60a082015161196f908490611587565b505050565b6040518060e00160405280606081526020015f6001600160a01b03168152602001606081526020015f60048111156119ae576119ae611bc5565b81526020016060815260200160608152602001606081525090565b5f5b838110156119e35781810151838201526020016119cb565b50505f910152565b5f8151808452611a028160208601602086016119c9565b601f01601f19169290920160200192915050565b602081525f610ed560208301846119eb565b803563ffffffff81168114611a3b575f80fd5b919050565b803561ffff81168114611a3b575f80fd5b803562ffffff81168114611a3b575f80fd5b634e487b7160e01b5f52604160045260245ffd5b60405160e0810167ffffffffffffffff81118282101715611a9a57611a9a611a63565b60405290565b604051601f8201601f1916810167ffffffffffffffff81118282101715611ac957611ac9611a63565b604052919050565b5f67ffffffffffffffff821115611aea57611aea611a63565b50601f01601f191660200190565b5f82601f830112611b07575f80fd5b8135611b1a611b1582611ad1565b611aa0565b818152846020838601011115611b2e575f80fd5b816020850160208301375f918101602001919091529392505050565b5f805f805f60a08688031215611b5e575f80fd5b611b6786611a28565b9450611b7560208701611a40565b9350611b8360408701611a40565b9250611b9160608701611a51565b9150608086013567ffffffffffffffff811115611bac575f80fd5b611bb888828901611af8565b9150509295509295909350565b634e487b7160e01b5f52602160045260245ffd5b60058110611bf557634e487b7160e01b5f52602160045260245ffd5b9052565b5f82825180855260208086019550808260051b8401018186015f5b84811015611ce357601f19868403018952815160e08151818652611c3a828701826119eb565b838801516001600160a01b031687890152604080850151888303828a01529193509150611c6783826119eb565b92505050606080830151611c7d82880182611bd9565b505060808083015186830382880152611c9683826119eb565b9250505060a08083015186830382880152611cb183826119eb565b9250505060c08083015192508582038187015250611ccf81836119eb565b9a86019a9450505090830190600101611c14565b5090979650505050505050565b604081525f611d026040830185611bf9565b8281036020840152611d148185611bf9565b95945050505050565b80356001600160a01b0381168114611a3b575f80fd5b803560058110611a3b575f80fd5b5f60e08284031215611d51575f80fd5b611d59611a77565b9050813567ffffffffffffffff80821115611d72575f80fd5b611d7e85838601611af8565b8352611d8c60208501611d1d565b60208401526040840135915080821115611da4575f80fd5b611db085838601611af8565b6040840152611dc160608501611d33565b60608401526080840135915080821115611dd9575f80fd5b611de585838601611af8565b608084015260a0840135915080821115611dfd575f80fd5b611e0985838601611af8565b60a084015260c0840135915080821115611e21575f80fd5b50611e2e84828501611af8565b60c08301525092915050565b5f82601f830112611e49575f80fd5b8135602067ffffffffffffffff80831115611e6657611e66611a63565b8260051b611e75838201611aa0565b9384528581018301938381019088861115611e8e575f80fd5b84880192505b858310156112d857823584811115611eab575f8081fd5b611eb98a87838c0101611d41565b8352509184019190840190611e94565b5f60208284031215611ed9575f80fd5b813567ffffffffffffffff80821115611ef0575f80fd5b9083019060408286031215611f03575f80fd5b604051604081018181108382111715611f1e57611f1e611a63565b604052823582811115611f2f575f80fd5b611f3b87828601611e3a565b825250602083013582811115611f4f575f80fd5b611f5b87828601611e3a565b60208301525095945050505050565b5f60208284031215611f7a575f80fd5b5035919050565b5f60208284031215611f91575f80fd5b813567ffffffffffffffff811115611fa7575f80fd5b610ade84828501611d41565b604081525f611fc560408301856119eb565b8281036020840152611d1481856119eb565b5f805f805f8060c08789031215611fec575f80fd5b611ff587611a28565b95506020870135945061200a60408801611a40565b935061201860608801611a40565b925061202660808801611a51565b915060a087013567ffffffffffffffff811115612041575f80fd5b61204d89828a01611af8565b9150509295509295509295565b634e487b7160e01b5f52603260045260245ffd5b8082018082111561108d57634e487b7160e01b5f52601160045260245ffd5b5f6020828403121561209d575f80fd5b815167ffffffffffffffff8111156120b3575f80fd5b8201601f810184136120c3575f80fd5b80516120d1611b1582611ad1565b8181528560208385010111156120e5575f80fd5b611d148260208301602086016119c9565b5f81516121078185602086016119c9565b9290920192915050565b713d9130b734b6b0ba34b7b72fbab936111d1160711b815287515f9061213e816012850160208d016119c9565b6a11161134b6b0b3b2911d1160a91b601291840191820152885161216981601d840160208d016119c9565b6d222c226e616d65223a224944202360901b601d9290910191820152875161219881602b840160208c016119c9565b7f222c2261747472696275746573223a5b7b2274726169745f74797065223a2250602b9290910191820152753937b8399021b932b0ba32b21116113b30b63ab2911d60511b604b82015286516121f5816061840160208b016119c9565b6122db6122cb6122c561228d61228761225261224c6061888a01017f7d2c7b2274726169745f74797065223a2250726f70732053706f6e736f7265648152691116113b30b63ab2911d60b11b6020820152602a0190565b8d6120f6565b7f7d2c7b2274726169745f74797065223a22557365726e616d65222c2276616c7581526232911d60e91b602082015260230190565b8a6120f6565b7f7d2c7b2274726169745f74797065223a22566f7465732043617374222c227661815265363ab2911d1160d11b602082015260260190565b876120f6565b63227d5d7d60e01b815260040190565b9b9a5050505050505050505050565b5f63ffffffff8084168061230c57634e487b7160e01b5f52601260045260245ffd5b9216919091069291505056fe3c736372697074207372633d22646174613a746578742f6a6176617363726970743b6261736536342c3c2f6469763e3c2f6469763e3c64697620636c6173733d2267223e3c2f6469763e3c6469762069643d227a223e3c64697620636c6173733d226c223e566f74657320436173743c2f6469763e3c64697620636c6173733d2273222069643d226d223e25323533437363726970742532353230737263253235334425323532326461746125323533417465787425323532466a617661736372697074253235334262617365363425323532433c7374796c653e626f64797b666f6e742d66616d696c793a506f7070696e732c73616e732d73657269663b6d617267696e3a303b70616464696e673a303b646973706c61793a666c65783b6a7573746966792d636f6e74656e743a63656e7465723b616c69676e2d6974656d733a63656e7465727d23637b706f736974696f6e3a72656c61746976657d23777b706f736974696f6e3a6162736f6c7574653b646973706c61793a666c65783b666c65782d646972656374696f6e3a636f6c756d6e3b6865696768743a313030253b636f6c6f723a236666663b666f6e742d7765696768743a3430307d2e747b666f6e742d73697a653a6d696e283476772c347668297d2e6c7b666f6e742d73697a653a6d696e283476772c347668297d2e732c2e757b666f6e742d73697a653a6d696e28313276772c31327668293b666f6e742d7765696768743a3830303b666f6e742d66616d696c793a4d6f6e747365727261742c73616e732d73657269667d2e757b666f6e742d73697a653a6d696e283876772c387668293b6f766572666c6f773a68696464656e3b666f6e742d66616d696c793a4d6f6e747365727261742c73616e732d73657269667d2e677b666c65782d67726f773a317d23617b6d617267696e2d746f703a312e3572656d3b6d617267696e2d6c6566743a312e3572656d7d237a7b6d617267696e2d626f74746f6d3a312e3572656d3b6d617267696e2d6c6566743a312e3572656d7d236d7b6d617267696e2d626f74746f6d3a63616c63283172656d202d20387078297d2e707b77696474683a31303076773b6865696768743a31303076683b6261636b67726f756e642d636f6c6f723a3c73637269707420747970653d22746578742f6a6176617363726970742b677a697022207372633d22646174613a746578742f6a6176617363726970743b6261736536342c3c6d61696e2069643d22632220636c6173733d22702220646174612d636f6c6f723d223c73766720786d6c6e733d22687474703a2f2f7777772e77332e6f72672f323030302f737667222076696577426f783d223020302037303020373030223e3c666f726569676e4f626a6563742077696474683d223130302522206865696768743d2231303025223e3c626f647920786d6c6e733d22687474703a2f2f7777772e77332e6f72672f313939392f7868746d6c223e2532353343736372697074253235323074797065253235334425323532327465787425323532466a6176617363726970742532353242677a697025323532322532353230737263253235334425323532326461746125323533417465787425323532466a617661736372697074253235334262617365363425323532433c7374796c653e626f64797b666f6e742d66616d696c793a506f7070696e732c73616e732d73657269663b6d617267696e3a303b70616464696e673a303b646973706c61793a666c65783b6a7573746966792d636f6e74656e743a63656e7465723b616c69676e2d6974656d733a63656e7465727d23637b706f736974696f6e3a72656c61746976657d23777b706f736974696f6e3a6162736f6c7574653b646973706c61793a666c65783b666c65782d646972656374696f6e3a636f6c756d6e3b6865696768743a313030253b636f6c6f723a236666663b666f6e742d7765696768743a3430307d2e747b666f6e742d73697a653a323870787d2e6c7b666f6e742d73697a653a323470783b6d617267696e2d746f703a313070787d2e732c2e757b666f6e742d73697a653a383070783b666f6e742d7765696768743a3830303b666f6e742d66616d696c793a4d6f6e747365727261742c73616e732d73657269667d2e757b666f6e742d73697a653a353670783b6f766572666c6f773a68696464656e3b666f6e742d66616d696c793a4d6f6e747365727261742c73616e732d73657269667d2e677b666c65782d67726f773a317d23617b6d617267696e2d746f703a312e3572656d3b6d617267696e2d6c6566743a312e3572656d7d237a7b6d617267696e2d626f74746f6d3a312e3572656d3b6d617267696e2d6c6566743a312e3572656d7d236d7b6d617267696e2d626f74746f6d3a63616c63283172656d202d20387078297d2e707b77696474683a2037303070783b206865696768743a2037303070783b206261636b67726f756e642d636f6c6f723a2532353343736372697074253235323074797065253235334425323532327465787425323532466a6176617363726970742532353242706e6725323532322532353230737263253235334425323532326461746125323533417465787425323532466a617661736372697074253235334262617365363425323532437b226e616d65223a224e6f756e7320577261707065642032303233222c22696d616765223a22697066733a2f2f6261667962656966643374796e623375653477746677697137367675787433753578326d7a72797473636f3569797a637666783534636c346b7761222c226465736372697074696f6e223a224120636f6d6d656d6f726174697665204e465420666f7220616c6c207468652070656f706c6520696e766f6c76656420696e2070726f6c696665726174696e6720746865204e6f756e732044414f20696e2032303233227d3c6c696e6b20687265663d2268747470733a2f2f666f6e74732e676f6f676c65617069732e636f6d222072656c3d22707265636f6e6e656374222f3e3c6c696e6b20687265663d2268747470733a2f2f666f6e74732e677374617469632e636f6d222072656c3d22707265636f6e6e656374222063726f73736f726967696e3d2274727565222f3e3c6c696e6b20687265663d2268747470733a2f2f666f6e74732e676f6f676c65617069732e636f6d2f637373323f66616d696c793d506f7070696e733a77676874403230303b3330303b3430303b3530303b3630303b3730303b3830303b393030222072656c3d227374796c657368656574222f3e3c6c696e6b20687265663d2268747470733a2f2f666f6e74732e676f6f676c65617069732e636f6d2f6373733f66616d696c793d4d6f6e747365727261743a3430302c383030222072656c3d227374796c657368656574222f3e3c7374796c652073636f7065643d2274727565223e406d656469612073637265656e20616e6420286d696e2d6865696768743a3732307078297b23617b6d617267696e2d746f703a322e3572656d3b6d617267696e2d6c6566743a322e3572656d7d237a7b6d617267696e2d626f74746f6d3a322e3572656d3b6d617267696e2d6c6566743a322e3572656d7d7d406d656469612073637265656e20616e6420286d61782d6865696768743a3435307078297b23617b6d617267696e2d746f703a3172656d3b6d617267696e2d6c6566743a3172656d7d237a7b6d617267696e2d626f74746f6d3a3172656d3b6d617267696e2d6c6566743a3172656d7d7d406d656469612073637265656e20616e6420286d61782d6865696768743a3330307078297b23617b6d617267696e2d746f703a2e3572656d3b6d617267696e2d6c6566743a2e3572656d7d237a7b6d617267696e2d626f74746f6d3a2e3572656d3b6d617267696e2d6c6566743a2e3572656d7d236d7b6d617267696e2d626f74746f6d3a307d7d3c2f7374796c653e3c2f6469763e3c64697620636c6173733d226c223e437265617465643c2f6469763e3c64697620636c6173733d2273223e3c7363726970743e646f63756d656e742e6164644576656e744c697374656e65722822444f4d436f6e74656e744c6f61646564222c2866756e6374696f6e28297b66756e6374696f6e206528297b72657475726e2077696e646f772e696e6e65724865696768743e3d77696e646f772e696e6e657257696474683f77696e646f772e696e6e657257696474683a77696e646f772e696e6e65724865696768747d636f6e737420743d646f63756d656e742e717565727953656c6563746f7228226d61696e22292c6e3d66756e6374696f6e2865297b636f6e737420743d323134373438333634373b6c6574206e3d6525743b72657475726e28293d3e286e3d31363830372a6e25742c6e2f74297d287061727365496e7428742e646174617365742e736565642c313029293b6c6574206f3d66756e6374696f6e28652c74297b72657475726e204d6174682e666c6f6f72287428292a65297d28342c6e292c793d6528292c6c3d6528292c783d6c2f3732302c723d343d3d6f3f32303a333d3d6f3f34303a323d3d6f3f36303a313d3d6f3f38303a3132302c693d5b5d2c613d3230302c733d3130303b76617220633d742e646174617365742e636f6c6f723b636f6e737420753d646f63756d656e742e637265617465456c656d656e74282263616e76617322292c683d646f63756d656e742e676574456c656d656e744279496428226322293b682e636c6173734c6973742e72656d6f766528227022292c682e617070656e644368696c642875293b636f6e737420663d752e676574436f6e746578742822326422293b66756e6374696f6e206428652c742c6e297b72657475726e28312d6e292a652b6e2a747d66756e6374696f6e207728652c742c6e2c6f2c792c6c2c78297b72657475726e7b783a64286428652c742c78292c6428742c6e2c78292c78292c793a642864286f2c792c78292c6428792c6c2c78292c78297d7d66756e6374696f6e207028652c742c6e2c6f2c79297b6c6574206c3d332a28742d65292c783d332a286e2d74292d6c2c723d332a28742d65292c693d332a286e2d74292d722c613d6f2d652d722d693b72657475726e7b783a286f2d652d6c2d78292a4d6174682e706f7728792c33292b782a4d6174682e706f7728792c32292b6c2a792b652c793a612a4d6174682e706f7728792c33292b692a4d6174682e706f7728792c32292b722a792b657d7d636f6c733d792f28722a78292c726f77733d6c2f28722a78293b766172206d3d6e28292c763d6e28292c4d3d6e28292c673d6e28292c453d6e28292c4c3d6e28292c433d6e28292c533d6e28292c713d6e28292c483d6e28292c493d6e28292c523d6e28293b6c657420573d7b783a3336302a6d2a782c793a3336302a762a787d2c7a3d7b783a3165332a4d2a782c793a3165332a672a787d2c413d7b783a3530302a452a782c793a3165332a4c2a782b3530302a787d2c423d7b783a313135302a432a782d3135302a782c793a3165332a532a787d2c443d7b783a3165332a712a782c793a3165332a482a787d2c463d7b783a313135302a492a782d3135302a782c793a3165332a522a782b3530302a787d3b666f72286c657420653d303b653c3d732f333b652b2b297b6c657420743d7728572e782c7a2e782c412e782c572e792c7a2e792c412e792c652f28732f3329293b692e707573682874297d666f72286c657420653d303b653c3d732f333b652b2b297b6c657420743d652f28732f33292c6e3d7028412e782c422e782c442e782c462e782c74292c6f3d7028412e792c422e792c442e792c462e792c74293b692e70757368287b783a6e2c793a6f7d297d666f72286c657420653d303b653c3d732f333b652b2b297b6c657420743d652f28732f33292c6e3d6428462e782c572e782c74292c6f3d6428462e792c572e792c74293b692e70757368287b783a6e2c793a6f7d297d666f72286c657420653d303b653c3d732f323b652b2b297b6c657420743d652f28732f32292c6e3d7028412e782c422e782c442e782c462e782c74292c6f3d7028412e792c422e792c442e792c462e792c74293b692e70757368287b783a6e2c793a6f7d297d6c6574204f3d303b77696e646f772e6164644576656e744c697374656e65722822726573697a65222c2866756e6374696f6e28297b793d6528292c6c3d6528292c783d6c2f3732302c723d6f3d3d342a783f32302a783a333d3d6f3f34302a783a323d3d6f3f36302a783a313d3d6f3f38302a783a3132302a782c662e63616e7661732e77696474683d792c662e63616e7661732e6865696768743d6c3b6c657420743d7b783a3336302a6d2a782c793a3336302a762a787d2c6e3d7b783a3165332a4d2a782c793a3165332a672a787d2c613d7b783a3530302a452a782c793a3165332a4c2a782b3530302a787d2c633d7b783a313135302a432a782d3135302a782c793a3165332a532a787d2c753d7b783a3165332a712a782c793a3165332a482a787d2c683d7b783a313135302a492a782d3135302a782c793a3165332a522a782b3530302a787d3b693d5b5d3b666f72286c657420653d303b653c3d732f333b652b2b297b6c6574206f3d7728742e782c6e2e782c612e782c742e792c6e2e792c612e792c652f28732f3329293b692e70757368286f297d666f72286c657420653d303b653c3d732f333b652b2b297b6c657420743d652f28732f33292c6e3d7028612e782c632e782c752e782c682e782c74292c6f3d7028612e792c632e792c752e792c682e792c74293b692e70757368287b783a6e2c793a6f7d297d666f72286c657420653d303b653c3d732f333b652b2b297b6c6574206e3d652f28732f33292c6f3d6428682e782c742e782c6e292c793d6428682e792c742e792c6e293b692e70757368287b783a6f2c793a797d297d666f72286c657420653d303b653c3d732f323b652b2b297b6c657420743d652f28732f32292c6e3d7028612e782c632e782c752e782c682e782c74292c6f3d7028612e792c632e792c752e792c682e792c74293b692e70757368287b783a6e2c793a6f7d297d7d29292c66756e6374696f6e207428297b4f2b2b2c66756e6374696f6e28297b662e63616e7661732e77696474683d6528292c662e63616e7661732e6865696768743d6528292c662e66696c6c5374796c653d632c662e66696c6c5265637428302c302c792c6c293b666f72286c657420653d303b653c613b652b2b297b6c657420743d284f2d312b652a732f612b692e6c656e6774682925692e6c656e6774682c6e3d695b4d6174682e666c6f6f722874295d2c6f3d4d6174682e666c6f6f72286e2e782f72292a722c793d4d6174682e666c6f6f72286e2e792f72292a722c6c3d322a65253336303b662e66696c6c5374796c653d6068736c28247b6c7d2c20313030252c2035302529602c662e66696c6c52656374286f2c792d31302c722c72297d7d28292c73657454696d656f7574282828293d3e72657175657374416e696d6174696f6e4672616d65287429292c3235297d28297d29293b3c2f7363726970743e3c73637269707420747970653d22746578742f6a6176617363726970742b706e6722207372633d22646174613a746578742f6a6176617363726970743b6261736536342c223e3c6469762069643d2277223e3c6469762069643d2261223e3c64697620636c6173733d2274223e4e6f756e73205772617070656420323032333c2f6469763e3c64697620636c6173733d2275223e2070726f70733c2f6469763e3c64697620636c6173733d226c223e53706f6e736f7265643c2f6469763e3c64697620636c6173733d2273223ea2646970667358221220072d8eaef5bd8a1d9112f18776de506b856ec97425b459bbb702c1b6cc06e2ed64736f6c63430008150033",
  "devdoc": {
    "errors": {
      "AccountBalanceOverflow()": [
        {
          "details": "The recipient's balance has overflowed."
        }
      ],
      "AlreadyInitialized()": [
        {
          "details": "Cannot double-initialize."
        }
      ],
      "BalanceQueryForZeroAddress()": [
        {
          "details": "Cannot query the balance for the zero address."
        }
      ],
      "NewOwnerIsZeroAddress()": [
        {
          "details": "The `newOwner` cannot be the zero address."
        }
      ],
      "NoHandoverRequest()": [
        {
          "details": "The `pendingOwner` does not have a valid handover request."
        }
      ],
      "NotOwnerNorApproved()": [
        {
          "details": "Only the token owner or an approved account can manage the token."
        }
      ],
      "TokenAlreadyExists()": [
        {
          "details": "The token already exists."
        }
      ],
      "TokenDoesNotExist()": [
        {
          "details": "The token does not exist."
        }
      ],
      "TransferFromIncorrectOwner()": [
        {
          "details": "The token must be owned by `from`."
        }
      ],
      "TransferToNonERC721ReceiverImplementer()": [
        {
          "details": "Cannot safely transfer to a contract that does not implement the ERC721Receiver interface."
        }
      ],
      "TransferToZeroAddress()": [
        {
          "details": "Cannot mint or transfer to the zero address."
        }
      ],
      "Unauthorized()": [
        {
          "details": "The caller is not authorized to call the function."
        }
      ]
    },
    "events": {
      "Approval(address,address,uint256)": {
        "details": "Emitted when `owner` enables `account` to manage the `id` token."
      },
      "ApprovalForAll(address,address,bool)": {
        "details": "Emitted when `owner` enables or disables `operator` to manage all of their tokens."
      },
      "OwnershipHandoverCanceled(address)": {
        "details": "The ownership handover to `pendingOwner` has been canceled."
      },
      "OwnershipHandoverRequested(address)": {
        "details": "An ownership handover to `pendingOwner` has been requested."
      },
      "OwnershipTransferred(address,address)": {
        "details": "The ownership is transferred from `oldOwner` to `newOwner`. This event is intentionally kept the same as OpenZeppelin's Ownable to be compatible with indexers and [EIP-173](https://eips.ethereum.org/EIPS/eip-173), despite it not being as lightweight as a single argument event."
      },
      "Transfer(address,address,uint256)": {
        "details": "Emitted when token `id` is transferred from `from` to `to`."
      }
    },
    "kind": "dev",
    "methods": {
      "approve(address,uint256)": {
        "details": "Sets `account` as the approved account to manage token `id`. Requirements: - Token `id` must exist. - The caller must be the owner of the token,   or an approved operator for the token owner. Emits an {Approval} event."
      },
      "balanceOf(address)": {
        "details": "Returns the number of tokens owned by `owner`. Requirements: - `owner` must not be the zero address."
      },
      "cancelOwnershipHandover()": {
        "details": "Cancels the two-step ownership handover to the caller, if any."
      },
      "completeOwnershipHandover(address)": {
        "details": "Allows the owner to complete the two-step ownership handover to `pendingOwner`. Reverts if there is no existing ownership handover requested by `pendingOwner`."
      },
      "constructor": {
        "params": {
          "_mintFee": "Fee in wei per mint"
        }
      },
      "contractURI()": {
        "returns": {
          "_0": "Base64 encoded metadata data URI"
        }
      },
      "eip712Domain()": {
        "details": "See: https://eips.ethereum.org/EIPS/eip-5267"
      },
      "getApproved(uint256)": {
        "details": "Returns the account approved to manage token `id`. Requirements: - Token `id` must exist."
      },
      "isApprovedForAll(address,address)": {
        "details": "Returns whether `operator` is approved to manage the tokens of `owner`."
      },
      "owner()": {
        "details": "Returns the owner of the contract."
      },
      "ownerOf(uint256)": {
        "details": "Returns the owner of token `id`. Requirements: - Token `id` must exist."
      },
      "ownershipHandoverExpiresAt(address)": {
        "details": "Returns the expiry timestamp for the two-step ownership handover to `pendingOwner`."
      },
      "renounceOwnership()": {
        "details": "Allows the owner to renounce their ownership."
      },
      "requestOwnershipHandover()": {
        "details": "Request a two-step ownership handover to the caller. The request will automatically expire in 48 hours (172800 seconds) by default."
      },
      "safeTransferFrom(address,address,uint256)": {
        "details": "Equivalent to `safeTransferFrom(from, to, id, \"\")`."
      },
      "safeTransferFrom(address,address,uint256,bytes)": {
        "details": "Transfers token `id` from `from` to `to`. Requirements: - Token `id` must exist. - `from` must be the owner of the token. - `to` cannot be the zero address. - The caller must be the owner of the token, or be approved to manage the token. - If `to` refers to a smart contract, it must implement   {IERC721Receiver-onERC721Received}, which is called upon a safe transfer. Emits a {Transfer} event."
      },
      "setApprovalForAll(address,bool)": {
        "details": "Sets whether `operator` is approved to manage the tokens of the caller. Emits an {ApprovalForAll} event."
      },
      "supportsInterface(bytes4)": {
        "details": "Returns true if this contract implements the interface defined by `interfaceId`. See: https://eips.ethereum.org/EIPS/eip-165 This function call must use less than 30000 gas."
      },
      "tokenURI(uint256)": {
        "params": {
          "tokenId": "Token/Nouns ID"
        },
        "returns": {
          "_0": "Base64 encoded metadata data URI"
        }
      },
      "transferFrom(address,address,uint256)": {
        "details": "Transfers token `id` from `from` to `to`. Requirements: - Token `id` must exist. - `from` must be the owner of the token. - `to` cannot be the zero address. - The caller must be the owner of the token, or be approved to manage the token. Emits a {Transfer} event."
      },
      "transferOwnership(address)": {
        "details": "Allows the owner to transfer the ownership to `newOwner`."
      }
    },
    "version": 1
  },
  "userdoc": {
    "errors": {
      "InvalidPayment()": [
        {
          "notice": "Caller provided incorrect payable amount"
        }
      ]
    },
    "kind": "user",
    "methods": {
      "contractURI()": {
        "notice": "Read contract metadata"
      },
      "mint(address,(uint16,uint16,uint24,string))": {
        "notice": "Mint a Nouns Wrapped token.         Caller must send mintFee wei as msg.value.         Caller must provide an EIP-712 `Mint` signature."
      },
      "mintFee()": {
        "notice": "Fee in wei per mint"
      },
      "name()": {
        "notice": "Read token name"
      },
      "seeds(uint256)": {
        "notice": "Random seed by tokenId"
      },
      "statsOf(uint256)": {
        "notice": "Read stats by tokenId"
      },
      "symbol()": {
        "notice": "Read token symbol"
      },
      "tokenIdCounter()": {
        "notice": "Last minted token ID"
      },
      "tokenIdOf(address)": {
        "notice": "tokenId by owner"
      },
      "tokenURI(uint256)": {
        "notice": "Read token metadata"
      },
      "withdrawBalance(address)": {
        "notice": "Withdraw contract balance. Only callable by owner."
      }
    },
    "version": 1
  },
  "storageLayout": {
    "storage": [
      {
        "astId": 61,
        "contract": "contracts/NounsWrapped.sol:NounsWrapped",
        "label": "renderer",
        "offset": 0,
        "slot": "0",
        "type": "t_contract(Renderer)936"
      },
      {
        "astId": 70,
        "contract": "contracts/NounsWrapped.sol:NounsWrapped",
        "label": "tokenIdCounter",
        "offset": 0,
        "slot": "1",
        "type": "t_uint256"
      },
      {
        "astId": 86,
        "contract": "contracts/NounsWrapped.sol:NounsWrapped",
        "label": "statsOf",
        "offset": 0,
        "slot": "2",
        "type": "t_mapping(t_uint256,t_struct(WrappedStats)80_storage)"
      },
      {
        "astId": 91,
        "contract": "contracts/NounsWrapped.sol:NounsWrapped",
        "label": "seeds",
        "offset": 0,
        "slot": "3",
        "type": "t_mapping(t_uint256,t_uint32)"
      },
      {
        "astId": 96,
        "contract": "contracts/NounsWrapped.sol:NounsWrapped",
        "label": "tokenIdOf",
        "offset": 0,
        "slot": "4",
        "type": "t_mapping(t_address,t_uint256)"
      }
    ],
    "types": {
      "t_address": {
        "encoding": "inplace",
        "label": "address",
        "numberOfBytes": "20"
      },
      "t_contract(Renderer)936": {
        "encoding": "inplace",
        "label": "contract Renderer",
        "numberOfBytes": "20"
      },
      "t_mapping(t_address,t_uint256)": {
        "encoding": "mapping",
        "key": "t_address",
        "label": "mapping(address => uint256)",
        "numberOfBytes": "32",
        "value": "t_uint256"
      },
      "t_mapping(t_uint256,t_struct(WrappedStats)80_storage)": {
        "encoding": "mapping",
        "key": "t_uint256",
        "label": "mapping(uint256 => struct NounsWrapped.WrappedStats)",
        "numberOfBytes": "32",
        "value": "t_struct(WrappedStats)80_storage"
      },
      "t_mapping(t_uint256,t_uint32)": {
        "encoding": "mapping",
        "key": "t_uint256",
        "label": "mapping(uint256 => uint32)",
        "numberOfBytes": "32",
        "value": "t_uint32"
      },
      "t_string_storage": {
        "encoding": "bytes",
        "label": "string",
        "numberOfBytes": "32"
      },
      "t_struct(WrappedStats)80_storage": {
        "encoding": "inplace",
        "label": "struct NounsWrapped.WrappedStats",
        "members": [
          {
            "astId": 73,
            "contract": "contracts/NounsWrapped.sol:NounsWrapped",
            "label": "props",
            "offset": 0,
            "slot": "0",
            "type": "t_uint16"
          },
          {
            "astId": 75,
            "contract": "contracts/NounsWrapped.sol:NounsWrapped",
            "label": "sponsoredProps",
            "offset": 2,
            "slot": "0",
            "type": "t_uint16"
          },
          {
            "astId": 77,
            "contract": "contracts/NounsWrapped.sol:NounsWrapped",
            "label": "votes",
            "offset": 4,
            "slot": "0",
            "type": "t_uint24"
          },
          {
            "astId": 79,
            "contract": "contracts/NounsWrapped.sol:NounsWrapped",
            "label": "username",
            "offset": 0,
            "slot": "1",
            "type": "t_string_storage"
          }
        ],
        "numberOfBytes": "64"
      },
      "t_uint16": {
        "encoding": "inplace",
        "label": "uint16",
        "numberOfBytes": "2"
      },
      "t_uint24": {
        "encoding": "inplace",
        "label": "uint24",
        "numberOfBytes": "3"
      },
      "t_uint256": {
        "encoding": "inplace",
        "label": "uint256",
        "numberOfBytes": "32"
      },
      "t_uint32": {
        "encoding": "inplace",
        "label": "uint32",
        "numberOfBytes": "4"
      }
    }
  }
}