{
  "address": "0xB74beB379885bb58FA30fC2a76b35D93Dd4A0d2b",
  "abi": [
    {
      "inputs": [
        {
          "internalType": "address",
          "name": "_owner",
          "type": "address"
        },
        {
          "internalType": "uint256",
          "name": "_mintFee",
          "type": "uint256"
        }
      ],
      "stateMutability": "nonpayable",
      "type": "constructor"
    },
    {
      "inputs": [],
      "name": "AccountBalanceOverflow",
      "type": "error"
    },
    {
      "inputs": [],
      "name": "AlreadyInitialized",
      "type": "error"
    },
    {
      "inputs": [],
      "name": "BalanceQueryForZeroAddress",
      "type": "error"
    },
    {
      "inputs": [],
      "name": "InvalidPayment",
      "type": "error"
    },
    {
      "inputs": [],
      "name": "NewOwnerIsZeroAddress",
      "type": "error"
    },
    {
      "inputs": [],
      "name": "NoHandoverRequest",
      "type": "error"
    },
    {
      "inputs": [],
      "name": "NotOwnerNorApproved",
      "type": "error"
    },
    {
      "inputs": [],
      "name": "TokenAlreadyExists",
      "type": "error"
    },
    {
      "inputs": [],
      "name": "TokenDoesNotExist",
      "type": "error"
    },
    {
      "inputs": [],
      "name": "TransferFromIncorrectOwner",
      "type": "error"
    },
    {
      "inputs": [],
      "name": "TransferToNonERC721ReceiverImplementer",
      "type": "error"
    },
    {
      "inputs": [],
      "name": "TransferToZeroAddress",
      "type": "error"
    },
    {
      "inputs": [],
      "name": "Unauthorized",
      "type": "error"
    },
    {
      "anonymous": false,
      "inputs": [
        {
          "indexed": true,
          "internalType": "address",
          "name": "owner",
          "type": "address"
        },
        {
          "indexed": true,
          "internalType": "address",
          "name": "account",
          "type": "address"
        },
        {
          "indexed": true,
          "internalType": "uint256",
          "name": "id",
          "type": "uint256"
        }
      ],
      "name": "Approval",
      "type": "event"
    },
    {
      "anonymous": false,
      "inputs": [
        {
          "indexed": true,
          "internalType": "address",
          "name": "owner",
          "type": "address"
        },
        {
          "indexed": true,
          "internalType": "address",
          "name": "operator",
          "type": "address"
        },
        {
          "indexed": false,
          "internalType": "bool",
          "name": "isApproved",
          "type": "bool"
        }
      ],
      "name": "ApprovalForAll",
      "type": "event"
    },
    {
      "anonymous": false,
      "inputs": [
        {
          "indexed": true,
          "internalType": "address",
          "name": "pendingOwner",
          "type": "address"
        }
      ],
      "name": "OwnershipHandoverCanceled",
      "type": "event"
    },
    {
      "anonymous": false,
      "inputs": [
        {
          "indexed": true,
          "internalType": "address",
          "name": "pendingOwner",
          "type": "address"
        }
      ],
      "name": "OwnershipHandoverRequested",
      "type": "event"
    },
    {
      "anonymous": false,
      "inputs": [
        {
          "indexed": true,
          "internalType": "address",
          "name": "oldOwner",
          "type": "address"
        },
        {
          "indexed": true,
          "internalType": "address",
          "name": "newOwner",
          "type": "address"
        }
      ],
      "name": "OwnershipTransferred",
      "type": "event"
    },
    {
      "anonymous": false,
      "inputs": [
        {
          "indexed": false,
          "internalType": "uint256",
          "name": "oldMintFee",
          "type": "uint256"
        },
        {
          "indexed": false,
          "internalType": "uint256",
          "name": "newMintFee",
          "type": "uint256"
        }
      ],
      "name": "SetMintFee",
      "type": "event"
    },
    {
      "anonymous": false,
      "inputs": [
        {
          "indexed": true,
          "internalType": "address",
          "name": "from",
          "type": "address"
        },
        {
          "indexed": true,
          "internalType": "address",
          "name": "to",
          "type": "address"
        },
        {
          "indexed": true,
          "internalType": "uint256",
          "name": "id",
          "type": "uint256"
        }
      ],
      "name": "Transfer",
      "type": "event"
    },
    {
      "inputs": [
        {
          "internalType": "address",
          "name": "account",
          "type": "address"
        },
        {
          "internalType": "uint256",
          "name": "id",
          "type": "uint256"
        }
      ],
      "name": "approve",
      "outputs": [],
      "stateMutability": "payable",
      "type": "function"
    },
    {
      "inputs": [
        {
          "internalType": "address",
          "name": "owner",
          "type": "address"
        }
      ],
      "name": "balanceOf",
      "outputs": [
        {
          "internalType": "uint256",
          "name": "result",
          "type": "uint256"
        }
      ],
      "stateMutability": "view",
      "type": "function"
    },
    {
      "inputs": [
        {
          "internalType": "uint256",
          "name": "tokenId",
          "type": "uint256"
        }
      ],
      "name": "burn",
      "outputs": [],
      "stateMutability": "nonpayable",
      "type": "function"
    },
    {
      "inputs": [],
      "name": "cancelOwnershipHandover",
      "outputs": [],
      "stateMutability": "payable",
      "type": "function"
    },
    {
      "inputs": [
        {
          "internalType": "address",
          "name": "pendingOwner",
          "type": "address"
        }
      ],
      "name": "completeOwnershipHandover",
      "outputs": [],
      "stateMutability": "payable",
      "type": "function"
    },
    {
      "inputs": [],
      "name": "contractURI",
      "outputs": [
        {
          "internalType": "string",
          "name": "",
          "type": "string"
        }
      ],
      "stateMutability": "view",
      "type": "function"
    },
    {
      "inputs": [],
      "name": "eip712Domain",
      "outputs": [
        {
          "internalType": "bytes1",
          "name": "fields",
          "type": "bytes1"
        },
        {
          "internalType": "string",
          "name": "name",
          "type": "string"
        },
        {
          "internalType": "string",
          "name": "version",
          "type": "string"
        },
        {
          "internalType": "uint256",
          "name": "chainId",
          "type": "uint256"
        },
        {
          "internalType": "address",
          "name": "verifyingContract",
          "type": "address"
        },
        {
          "internalType": "bytes32",
          "name": "salt",
          "type": "bytes32"
        },
        {
          "internalType": "uint256[]",
          "name": "extensions",
          "type": "uint256[]"
        }
      ],
      "stateMutability": "view",
      "type": "function"
    },
    {
      "inputs": [
        {
          "internalType": "uint256",
          "name": "id",
          "type": "uint256"
        }
      ],
      "name": "getApproved",
      "outputs": [
        {
          "internalType": "address",
          "name": "result",
          "type": "address"
        }
      ],
      "stateMutability": "view",
      "type": "function"
    },
    {
      "inputs": [
        {
          "internalType": "address",
          "name": "owner",
          "type": "address"
        },
        {
          "internalType": "address",
          "name": "operator",
          "type": "address"
        }
      ],
      "name": "isApprovedForAll",
      "outputs": [
        {
          "internalType": "bool",
          "name": "result",
          "type": "bool"
        }
      ],
      "stateMutability": "view",
      "type": "function"
    },
    {
      "inputs": [
        {
          "internalType": "address",
          "name": "to",
          "type": "address"
        },
        {
          "components": [
            {
              "internalType": "uint16",
              "name": "props",
              "type": "uint16"
            },
            {
              "internalType": "uint16",
              "name": "sponsoredProps",
              "type": "uint16"
            },
            {
              "internalType": "uint24",
              "name": "votes",
              "type": "uint24"
            },
            {
              "internalType": "uint24",
              "name": "propHouseVotes",
              "type": "uint24"
            },
            {
              "internalType": "uint16",
              "name": "candProps",
              "type": "uint16"
            },
            {
              "internalType": "uint24",
              "name": "propsFeedback",
              "type": "uint24"
            },
            {
              "internalType": "string",
              "name": "username",
              "type": "string"
            }
          ],
          "internalType": "struct NounsWrapped.WrappedStats",
          "name": "stats",
          "type": "tuple"
        }
      ],
      "name": "mint",
      "outputs": [],
      "stateMutability": "payable",
      "type": "function"
    },
    {
      "inputs": [],
      "name": "mintFee",
      "outputs": [
        {
          "internalType": "uint256",
          "name": "",
          "type": "uint256"
        }
      ],
      "stateMutability": "view",
      "type": "function"
    },
    {
      "inputs": [],
      "name": "name",
      "outputs": [
        {
          "internalType": "string",
          "name": "",
          "type": "string"
        }
      ],
      "stateMutability": "pure",
      "type": "function"
    },
    {
      "inputs": [],
      "name": "owner",
      "outputs": [
        {
          "internalType": "address",
          "name": "result",
          "type": "address"
        }
      ],
      "stateMutability": "view",
      "type": "function"
    },
    {
      "inputs": [
        {
          "internalType": "uint256",
          "name": "id",
          "type": "uint256"
        }
      ],
      "name": "ownerOf",
      "outputs": [
        {
          "internalType": "address",
          "name": "result",
          "type": "address"
        }
      ],
      "stateMutability": "view",
      "type": "function"
    },
    {
      "inputs": [
        {
          "internalType": "address",
          "name": "pendingOwner",
          "type": "address"
        }
      ],
      "name": "ownershipHandoverExpiresAt",
      "outputs": [
        {
          "internalType": "uint256",
          "name": "result",
          "type": "uint256"
        }
      ],
      "stateMutability": "view",
      "type": "function"
    },
    {
      "inputs": [],
      "name": "renderer",
      "outputs": [
        {
          "internalType": "contract Renderer",
          "name": "",
          "type": "address"
        }
      ],
      "stateMutability": "view",
      "type": "function"
    },
    {
      "inputs": [],
      "name": "renounceOwnership",
      "outputs": [],
      "stateMutability": "payable",
      "type": "function"
    },
    {
      "inputs": [],
      "name": "requestOwnershipHandover",
      "outputs": [],
      "stateMutability": "payable",
      "type": "function"
    },
    {
      "inputs": [
        {
          "internalType": "address",
          "name": "from",
          "type": "address"
        },
        {
          "internalType": "address",
          "name": "to",
          "type": "address"
        },
        {
          "internalType": "uint256",
          "name": "id",
          "type": "uint256"
        }
      ],
      "name": "safeTransferFrom",
      "outputs": [],
      "stateMutability": "payable",
      "type": "function"
    },
    {
      "inputs": [
        {
          "internalType": "address",
          "name": "from",
          "type": "address"
        },
        {
          "internalType": "address",
          "name": "to",
          "type": "address"
        },
        {
          "internalType": "uint256",
          "name": "id",
          "type": "uint256"
        },
        {
          "internalType": "bytes",
          "name": "data",
          "type": "bytes"
        }
      ],
      "name": "safeTransferFrom",
      "outputs": [],
      "stateMutability": "payable",
      "type": "function"
    },
    {
      "inputs": [
        {
          "internalType": "uint256",
          "name": "tokenId",
          "type": "uint256"
        }
      ],
      "name": "seeds",
      "outputs": [
        {
          "internalType": "uint32",
          "name": "seed",
          "type": "uint32"
        }
      ],
      "stateMutability": "view",
      "type": "function"
    },
    {
      "inputs": [
        {
          "internalType": "address",
          "name": "operator",
          "type": "address"
        },
        {
          "internalType": "bool",
          "name": "isApproved",
          "type": "bool"
        }
      ],
      "name": "setApprovalForAll",
      "outputs": [],
      "stateMutability": "nonpayable",
      "type": "function"
    },
    {
      "inputs": [
        {
          "internalType": "uint256",
          "name": "_mintFee",
          "type": "uint256"
        }
      ],
      "name": "setMintFee",
      "outputs": [],
      "stateMutability": "nonpayable",
      "type": "function"
    },
    {
      "inputs": [
        {
          "internalType": "uint256",
          "name": "tokenId",
          "type": "uint256"
        }
      ],
      "name": "statsOf",
      "outputs": [
        {
          "internalType": "uint16",
          "name": "props",
          "type": "uint16"
        },
        {
          "internalType": "uint16",
          "name": "sponsoredProps",
          "type": "uint16"
        },
        {
          "internalType": "uint24",
          "name": "votes",
          "type": "uint24"
        },
        {
          "internalType": "uint24",
          "name": "propHouseVotes",
          "type": "uint24"
        },
        {
          "internalType": "uint16",
          "name": "candProps",
          "type": "uint16"
        },
        {
          "internalType": "uint24",
          "name": "propsFeedback",
          "type": "uint24"
        },
        {
          "internalType": "string",
          "name": "username",
          "type": "string"
        }
      ],
      "stateMutability": "view",
      "type": "function"
    },
    {
      "inputs": [
        {
          "internalType": "bytes4",
          "name": "interfaceId",
          "type": "bytes4"
        }
      ],
      "name": "supportsInterface",
      "outputs": [
        {
          "internalType": "bool",
          "name": "result",
          "type": "bool"
        }
      ],
      "stateMutability": "view",
      "type": "function"
    },
    {
      "inputs": [],
      "name": "symbol",
      "outputs": [
        {
          "internalType": "string",
          "name": "",
          "type": "string"
        }
      ],
      "stateMutability": "pure",
      "type": "function"
    },
    {
      "inputs": [],
      "name": "tokenIdCounter",
      "outputs": [
        {
          "internalType": "uint256",
          "name": "",
          "type": "uint256"
        }
      ],
      "stateMutability": "view",
      "type": "function"
    },
    {
      "inputs": [
        {
          "internalType": "address",
          "name": "",
          "type": "address"
        }
      ],
      "name": "tokenIdOf",
      "outputs": [
        {
          "internalType": "uint256",
          "name": "",
          "type": "uint256"
        }
      ],
      "stateMutability": "view",
      "type": "function"
    },
    {
      "inputs": [
        {
          "internalType": "uint256",
          "name": "tokenId",
          "type": "uint256"
        }
      ],
      "name": "tokenURI",
      "outputs": [
        {
          "internalType": "string",
          "name": "",
          "type": "string"
        }
      ],
      "stateMutability": "view",
      "type": "function"
    },
    {
      "inputs": [
        {
          "internalType": "address",
          "name": "from",
          "type": "address"
        },
        {
          "internalType": "address",
          "name": "to",
          "type": "address"
        },
        {
          "internalType": "uint256",
          "name": "id",
          "type": "uint256"
        }
      ],
      "name": "transferFrom",
      "outputs": [],
      "stateMutability": "payable",
      "type": "function"
    },
    {
      "inputs": [
        {
          "internalType": "address",
          "name": "newOwner",
          "type": "address"
        }
      ],
      "name": "transferOwnership",
      "outputs": [],
      "stateMutability": "payable",
      "type": "function"
    },
    {
      "inputs": [
        {
          "internalType": "address",
          "name": "to",
          "type": "address"
        }
      ],
      "name": "withdrawBalance",
      "outputs": [],
      "stateMutability": "nonpayable",
      "type": "function"
    }
  ],
  "transactionHash": "0xf9b60bf15b4e787ce2bf70960941743b1217ee7e9b619a88a212253b34cac031",
  "args": [
    "0x0cfecb5D359E6C59ABd1d2Aa794F52C15055f451",
    "0"
  ],
  "numDeployments": 8,
  "solcInputHash": "31776382a9a62c133384face6c438323",
  "bytecode": "0x61012034620001b65762005d5d6001600160401b03601f38839003908101601f191684019082821185831017620001a25780859160409586948552833981010312620001b65782516001600160a01b03938482169291839003620001b65760200151306080524660a05260a062000075620001ba565b60128152600160208201714e6f756e732057726170706564203230323360701b81526020620000a3620001ba565b8381520192603160f81b845251902091208160c0528060e0528651917f8b73c3c69bb8fe3d512ecc4cf759cc79239f7b179b0ffacaa9a75d522b39400f8352602083015286820152466060820152306080820152209461010095865284516140708082019482861090861117620001a25762001ced8239805f94039084f08015620001985783546001600160a01b03191691161782556001556002819055638b78c6d8198290557f8be0079c531659141344cd1fd0a4f28419497f9722a3daafe3b4186f6b6457e08180a351611b129182620001db833960805182505060a05182505060c05182505060e05182505051815050f35b85513d85823e3d90fd5b634e487b7160e01b5f52604160045260245ffd5b5f80fd5b60408051919082016001600160401b03811183821017620001a25760405256fe60806040526004361015610011575f80fd5b5f3560e01c806301ffc9a71461021457806306fdde031461020f578063081812fc1461020a578063095ea7b31461020557806313966db51461020057806323b872dd146101fb57806325692962146101f657806342842e0e146101f157806342966c68146101ec57806354d1f13d146101e75780636352211e146101e2578063666bf751146101dd57806370a08231146101d8578063715018a6146101d3578063756af45f146101ce578063773c02d4146101c95780637bc5d64d146101c457806384b0196e146101bf5780638ada6b0f146101ba5780638da5cb5b146101b557806395d89b41146101b057806398bdf6f5146101ab578063a22cb465146101a6578063b88d4fde146101a1578063c87b56dd1461019c578063e8a3d48514610197578063e985e9c514610192578063eddd0d9c1461018d578063f04e283e14610188578063f0503e8014610183578063f2fde38b1461017e5763fee81cf414610179575f80fd5b61101c565b610fe1565b610fb1565b610f64565b610f10565b610ecc565b610e5c565b610d26565b610c8a565b610c18565b610bfb565b610bb0565b610b84565b610b5d565b610aae565b610a24565b6108c1565b610880565b61083a565b6107e7565b6106b4565b610684565b61063e565b610532565b6104e6565b610498565b610484565b610432565b61037c565b6102f2565b6102bf565b34610261576020366003190112610261576004356001600160e01b0319811681036102615760209060e01c60405190635b5e139f8114906301ffc9a76380ac58cd82149114171715158152f35b5f80fd5b5f5b8381106102765750505f910152565b8181015183820152602001610267565b9060209161029f81518092818552858086019101610265565b601f01601f1916010190565b9060206102bc928181520190610286565b90565b34610261575f366003190112610261576102ee6102da61106a565b604051918291602083526020830190610286565b0390f35b34610261576020366003190112610261576004355f818152673ec412a9852d173d60c11b601c5260209020810101805460601b1561034357600101546040516001600160a01b039091168152602090f35b63ceea21b65f526004601cfd5b600435906001600160a01b038216820361026157565b602435906001600160a01b038216820361026157565b604036600319011261026157610390610350565b6024355f818152673ec412a9852d173d60c11b3317601c526020812082018201805491936001600160a01b03908116921690811561042557829082331433151715610401575b600101557f8c5be1e5ebec7d5bd14f71427d1e84f3dd0314c0f7b2291e5b200ac8c7c3b9258480a480f35b90508185526030600c2054156104185782906103d6565b634b6e7f1885526004601cfd5b63ceea21b685526004601cfd5b34610261575f366003190112610261576020600154604051908152f35b6060906003190112610261576001600160a01b0390600435828116810361026157916024359081168103610261579060443590565b6104966104903661044f565b916117cf565b005b5f806003193601126104e35763389a75e1600c523381526202a30042016020600c2055337fdbf36a107da19e49527a7176a1babf963b4b0ff8cde35ee35d6cd8f1f9ac7e1d8280a280f35b80fd5b6104ef3661044f565b6104fa8183856117cf565b813b61050257005b60405191602083019383851067ffffffffffffffff86111761052d57610496946040525f8452611a4a565b610931565b3461026157602036600319011261026157638b78c6d81954600435906001600160a01b031633148015610629575b156105be5761059d816105756105aa93611982565b61058f61058a825f52600360205260405f2090565b6116ff565b5f52600460205260405f2090565b805463ffffffff19169055565b335f90815260056020526040812055005b55005b60405162461bcd60e51b815260206004820152603860248201527f4e6f756e73577261707065643a2075736572206973206e6f74206f776e65722060448201527f6f6620636f6e7472616374206f722074686520746f6b656e00000000000000006064820152608490fd5b50335f5260056020528060405f205414610560565b5f806003193601126104e35763389a75e1600c52338152806020600c2055337ffa7b8eab7da67f412cc9575ed43464468f9bfbae89d1675917346ca6d8fe3c928280a280f35b346102615760203660031901126102615760206106a26004356117a2565b6040516001600160a01b039091168152f35b600319604036820112610261576106c9610350565b6024359167ffffffffffffffff83116102615760e09083360301126102615760015434036107a2576001600160a01b0381165f9081526005602052604090206105bb91906107189054156113ab565b61072b61072660025461141a565b600255565b61074c60025493600401610747855f52600360205260405f2090565b6115a1565b61077f610758846116b1565b61076a855f52600460205260405f2090565b9063ffffffff1663ffffffff19825416179055565b61078983826118e1565b6001600160a01b03165f90815260056020526040902090565b60405162461bcd60e51b815260206004820152601f60248201527f4e6f756e73577261707065643a20696e636f7272656374207061796d656e74006044820152606490fd5b3461026157602036600319011261026157610800610350565b801561082d57673ec412a9852d173d60c11b601c525f52602063ffffffff601c600c205416604051908152f35b638f4eb6045f526004601cfd5b5f806003193601126104e35761084e61174e565b80638b78c6d8198181547f8be0079c531659141344cd1fd0a4f28419497f9722a3daafe3b4186f6b6457e08280a35580f35b3461026157602036600319011261026157610899610350565b6108a161174e565b5f80918180389247905af1156108b45780f35b63b12d13eb90526004601cfd5b34610261576020366003190112610261576001600160a01b036108e2610350565b165f526005602052602060405f2054604051908152f35b90600182811c92168015610927575b602083101461091357565b634e487b7160e01b5f52602260045260245ffd5b91607f1691610908565b634e487b7160e01b5f52604160045260245ffd5b6040810190811067ffffffffffffffff82111761052d57604052565b90601f8019910116810190811067ffffffffffffffff82111761052d57604052565b9060405191825f8254610995816108f9565b9081845260209460019182811690815f14610a0257506001146109c4575b5050506109c292500383610961565b565b5f90815285812095935091905b8183106109ea5750506109c293508201015f80806109b3565b855488840185015294850194879450918301916109d1565b925050506109c294925060ff191682840152151560051b8201015f80806109b3565b34610261576020366003190112610261576004355f52600360205260405f208054906102ee61ffff91610a5d600162ffffff9201610983565b906040519484869582168652808260101c166020870152828260201c166040870152828260381c1660608701528160501c16608086015260601c1660a084015260e060c084015260e0830190610286565b34610261575f36600319011261026157610ac661106a565b60405190610ad382610945565b6001808352610b13602093603160f81b85820152610b0560405194600f60f81b865260e08787015260e0860190610286565b908482036040860152610286565b924660608401523060808401525f60a084015282840360c0840152806060519485815201936080915f5b828110610b4a5785870386f35b8351875295810195928101928401610b3d565b34610261575f366003190112610261575f546040516001600160a01b039091168152602090f35b34610261575f36600319011261026157638b78c6d819546040516001600160a01b039091168152602090f35b34610261575f366003190112610261576102ee604051610bcf81610945565b600b81526a4e5720f09f8e813230323360a81b6020820152604051918291602083526020830190610286565b34610261575f366003190112610261576020600254604051908152f35b3461026157604036600319011261026157610c31610350565b6024358015158091036102615781601c52670a5a2e7a00000000600852335f52806030600c20555f5260018060a01b0316337f17307eab39ab6107e8899845ad3d59bd9653f200f220920489ca2b5937696c3160205fa3005b608036600319011261026157610c9e610350565b610ca6610366565b6044356064359167ffffffffffffffff93848411610261573660238501121561026157836004013594851161026157366024868601011161026157610cec8383836117cf565b813b610cf457005b5f602086806024610d076104969a61104e565b98610d156040519a8b610961565b828a52018389013786010152611a4a565b34610261576020366003190112610261576004355f610d55610d50835f52600360205260405f2090565b6112ad565b81549092906001600160a01b0316610d82610d78835f52600460205260405f2090565b5463ffffffff1690565b91610d8f855161ffff1690565b92610e01610da2602088015161ffff1690565b96610db3604082015162ffffff1690565b90610dc4606082015162ffffff1690565b608082015161ffff169060c0610de060a085015162ffffff1690565b930151936040519b8c9a8b998a99637941da8960e11b8b5260048b0161134c565b03915afa908115610e57576102ee91610e2a915f91610e36575b50610e24611102565b90611194565b604051918291826102ab565b610e51913d8091833e610e498183610961565b810190611098565b5f610e1b565b6110f7565b34610261575f806003193601126104e3578054604051635f17cac360e01b815291908190839060049082906001600160a01b03165afa8015610e57576102ee92826102da9392610eb1575b5050610e24611102565b610ec592503d8091833e610e498183610961565b5f80610ea7565b3461026157604036600319011261026157610ee5610350565b610eed610366565b601c52670a5a2e7a000000006008525f5260206030600c20546040519015158152f35b34610261576020366003190112610261577ffb91bfd69d367c5765cbdee560d21d74d56c2472a5c55dce2a7bda24e567c4346040600435610f4f61174e565b600154908060015582519182526020820152a1005b602036600319011261026157610f78610350565b610f8061174e565b63389a75e1600c52805f526020600c209081544211610fa4575f610496925561176a565b636f5e88185f526004601cfd5b34610261576020366003190112610261576004355f526004602052602063ffffffff60405f205416604051908152f35b602036600319011261026157610ff5610350565b610ffd61174e565b8060601b1561100f576104969061176a565b637448fbae5f526004601cfd5b3461026157602036600319011261026157611035610350565b63389a75e1600c525f52602080600c2054604051908152f35b67ffffffffffffffff811161052d57601f01601f191660200190565b6040519061107782610945565b60128252714e6f756e732057726170706564203230323360701b6020830152565b6020818303126102615780519067ffffffffffffffff8211610261570181601f820112156102615780516110cb8161104e565b926110d96040519485610961565b81845260208284010111610261576102bc9160208085019101610265565b6040513d5f823e3d90fd5b6040519061110f82610945565b601082526f30b8383634b1b0ba34b7b717b539b7b760811b6020830152565b602d6109c291939293604051948591643230ba309d60d91b602084015261115f815180926020602587019101610265565b8201670ed8985cd94d8d0b60c21b60258201526111858251809360208785019101610265565b0103600d810185520183610961565b6111bd6020604051836111b08295518092858086019101610265565b8101038084520182610961565b80915f9260609251806111d7575b50506102bc925061112e565b9092506003936002938585840104851b92604051957f4142434445464748494a4b4c4d4e4f505152535455565758595a616263646566601f52603f976106707f6768696a6b6c6d6e6f707172737475767778797a303132333435363738392d5f188952602088018689019960048360208d01975b0192828451818160121c16518b538181600c1c1651600153818160061c16518853165185538851815201918683101561128857600490849061124b565b5050935060406102bc9901604052613d3d60f01b920690048203525282525f806111cb565b9060405160e0810181811067ffffffffffffffff82111761052d5760405260c061134760018395611341815461ffff908181168852818160101c16602089015261132f62ffffff9261130c848460201c1660408c019062ffffff169052565b62ffffff603884901c85161660608b01528260501c1660808a019061ffff169052565b60601c1660a087019062ffffff169052565b01610983565b910152565b9594909691926102bc9998949363ffffffff61012099168852602088015261ffff9384809216604089015216606087015262ffffff948580921660808801521660a08601521660c08401521660e0820152816101008201520190610286565b156113b257565b60405162461bcd60e51b815260206004820152602660248201527f4e6f756e73577261707065643a207573657220616c7265616479206861732061604482015265103a37b5b2b760d11b6064820152608490fd5b634e487b7160e01b5f52601160045260245ffd5b5f1981146114285760010190565b611406565b3561ffff811681036102615790565b3562ffffff811681036102615790565b903590601e1981360301821215610261570180359067ffffffffffffffff82116102615760200191813603831361026157565b81811061148a575050565b5f815560010161147f565b9190601f81116114a457505050565b6109c2925f5260205f20906020601f840160051c830193106114ce575b601f0160051c019061147f565b90915081906114c1565b90929167ffffffffffffffff811161052d576114fe816114f884546108f9565b84611495565b5f601f821160011461153c57819061152d9394955f92611531575b50508160011b915f199060031b1c19161790565b9055565b013590505f80611519565b601f1982169461154f845f5260205f2090565b91805b878110611589575083600195969710611570575b505050811b019055565b01355f19600384901b60f8161c191690555f8080611566565b90926020600181928686013581550194019101611552565b6001906116a86109c29361ffff6115b78261142d565b168354908061ffff19831617855563ffff00006115d66020850161142d565b60101b1690818163ffffffff1985161717865566ffffff000000006115fd6040860161143c565b60201b169266ffffffffffffff191617171783556116466116206060830161143c565b845469ffffff00000000000000191660389190911b69ffffff0000000000000016178455565b6116716116556080830161142d565b845461ffff60501b191660509190911b61ffff60501b16178455565b61169e61168060a0830161143c565b845462ffffff60601b191660609190911b62ffffff60601b16178455565b60c081019061144c565b929091016114d8565b5f19430143811161142857604051916020830191428352406040840152606083015260608252608082019180831067ffffffffffffffff84111761052d5763ffffffff926040525190201690565b60015f918281550161171181546108f9565b8061171b57505050565b82601f821160011461172c57505055565b909180825261174a601f60208420940160051c84016001850161147f565b5555565b638b78c6d81954330361175d57565b6382b429005f526004601cfd5b60018060a01b0316638b78c6d8198181547f8be0079c531659141344cd1fd0a4f28419497f9722a3daafe3b4186f6b6457e05f80a355565b5f818152673ec412a9852d173d60c11b601c5260209020810101546001600160a01b031690811561034357565b5f838152673ec412a9852d173d60c11b3317601c908152602082208501850180546001600160a01b03958616959485169481168086148102156118c5575085156118b957848452838260010180548033148833141715611897575b61188f575b505085851818905580600c205f19815401905583825280600c2060018154019163ffffffff8316156118835750557fddf252ad1be2c89b69c2b068fc378daa952ba7f163c4a11628f55a4df523b3ef9080a4565b6004906301336cea8552fd5b55835f61182f565b9091506030600c2054156118ad5790859161182a565b600485634b6e7f188852fd5b60048363ea553b348652fd5b8385600492156118d85763a11481009052fd5b63ceea21b69052fd5b6001600160a01b03168015611975575f828152673ec412a9852d173d60c11b601c5260208120830183018054606081901b6119685783179055818152601c600c2060018154019063ffffffff82161561195b57557fddf252ad1be2c89b69c2b068fc378daa952ba7f163c4a11628f55a4df523b3ef8180a4565b6301336cea83526004601cfd5b63c991cbb183526004601cfd5b63ea553b345f526004601cfd5b61198b816117a2565b505f818152673ec412a9852d173d60c11b601c52602081208201820180546001600160a01b03811691908215611a3d57829081855284836001018054801560011715611a16575b611a0e575b5050189055601c600c2080545f190190557fddf252ad1be2c89b69c2b068fc378daa952ba7f163c4a11628f55a4df523b3ef8280a4565b55845f6119d7565b91509192506030600c205415611a305784929186916119d2565b634b6e7f1886526004601cfd5b63ceea21b684526004601cfd5b9060a46020939460405195869463150b7a028652338787015260018060a01b03166040860152606085015260808085015280518091818060a0880152611ac8575b505001905f601c8401915af115611aba575b5163757a42ff60e11b01611aad57565b63d1a57ed65f526004601cfd5b3d15611a9d573d5f823e3d90fd5b818760c08801920160045afa50805f611a8b56fea264697066735822122030598f2a2e2e67fb7a0e49190771b75da364f1f01553047bad50ebca7d6520cb64736f6c634300081500336080806040523461001657614055908161001b8239f35b5f80fdfe60806040526004361015610011575f80fd5b5f3560e01c8063053f1eb01461023157806306f582061461022c5780632bee6807146101f557806332ab619c1461022757806333174f98146101c85780633708be65146102225780633d5be2c21461021d57806343f2614f146102185780635f17cac314610213578063640bab411461020e57806372617f8a146102095780637510ac24146102045780637dbb90a2146101c35780637f369319146101ff57806387598e52146101eb5780638c8c3796146101fa578063a891b35e146101f5578063aabc9896146101f0578063afae76fa146101eb578063b55ccc62146101c8578063bc689620146101e6578063be58b0a9146101aa578063bee84ae3146101e1578063bf35dd0b146101aa578063c46b294d146101dc578063cd475f26146101d7578063cdea0cef146101d2578063ce5ad179146101cd578063d0c3efa8146101c8578063d5ed88ce146101c3578063d61974f1146101be578063d9237f14146101b9578063f051dcf8146101b4578063f283b512146101af578063f49717ee146101aa5763f6130adc146101a5575f80fd5b610fe4565b610d52565b610f18565b610efd565b610e86565b610e31565b610bff565b610989565b610e16565b610ddb565b610dc5565b610daa565b610d6d565b610d37565b610c62565b610cf2565b610822565b610ccc565b610c18565b610be4565b610bbe565b610b74565b610a47565b6109fd565b6109e2565b6109a4565b61093e565b6105f1565b61044b565b634e487b7160e01b5f52604160045260245ffd5b604081019081106001600160401b0382111761026557604052565b610236565b60e081019081106001600160401b0382111761026557604052565b61010081019081106001600160401b0382111761026557604052565b60c081019081106001600160401b0382111761026557604052565b6102a081019081106001600160401b0382111761026557604052565b61018081019081106001600160401b0382111761026557604052565b6101c081019081106001600160401b0382111761026557604052565b606081019081106001600160401b0382111761026557604052565b60a081019081106001600160401b0382111761026557604052565b610a4081019081106001600160401b0382111761026557604052565b61028081019081106001600160401b0382111761026557604052565b608081019081106001600160401b0382111761026557604052565b90601f801991011681019081106001600160401b0382111761026557604052565b604051906103c78261026a565b565b604051906103c78261024a565b6001600160401b03811161026557601f01601f191660200190565b5f5b8381106104025750505f910152565b81810151838201526020016103f3565b9060209161042b815180928185528580860191016103f1565b601f01601f1916010190565b906020610448928181520190610412565b90565b346104ac575f3660031901126104ac576104a860405161046a8161024a565b601a81527f253343253246626f647925334525334325324668746d6c2533450000000000006020820152604051918291602083526020830190610412565b0390f35b5f80fd5b6044359061ffff821682036104ac57565b60c4359061ffff821682036104ac57565b60a4359061ffff821682036104ac57565b6084359062ffffff821682036104ac57565b60a4359062ffffff821682036104ac57565b60e4359062ffffff821682036104ac57565b60c4359062ffffff821682036104ac57565b81601f820112156104ac57803590610542826103d6565b926105506040519485610399565b828452602083830101116104ac57815f926020809301838601378301015290565b906101006003198301126104ac5760043563ffffffff811681036104ac579160243561ffff811681036104ac57916105a76104b0565b9160643562ffffff811681036104ac57916105c06104e3565b916105c96104d2565b916105d2610519565b9160e435906001600160401b0382116104ac576104489160040161052b565b346104ac576104a861061461060536610571565b9695909594919493929361303d565b604051918291602083526020830190610412565b6001600160401b0381116102655760051b60200190565b35906001600160a01b03821682036104ac57565b359060058210156104ac57565b91909160e0818403126104ac576106756103ba565b926001600160401b0382358181116104ac578261069391850161052b565b85526106a16020840161063f565b602086015260408301358181116104ac57826106be91850161052b565b60408601526106cf60608401610653565b606086015260808301358181116104ac57826106ec91850161052b565b608086015260a08301358181116104ac578261070991850161052b565b60a086015260c08301359081116104ac57610724920161052b565b60c0830152565b81601f820112156104ac5780359160209161074584610628565b936107536040519586610399565b808552838086019160051b830101928084116104ac57848301915b84831061077e5750505050505090565b82356001600160401b0381116104ac57869161079f84848094890101610660565b81520192019161076e565b6003196020828201126104ac57600435916001600160401b03918284116104ac5760409084830301126104ac57604051926107e48461024a565b80600401358381116104ac578260046107ff9284010161072b565b845260248101359283116104ac5761081a920160040161072b565b602082015290565b346104ac576104a8610614610836366107aa565b613dfd565b6005111561084557565b634e487b7160e01b5f52602160045260245ffd5b9060058210156108455752565b90815180825260208092019182818360051b82019501935f915b8483106108905750505050505090565b909192939495848061092e83856001950387528a5161091b6109086108e36108c160e0855190808852870190610412565b898060a01b038886015116888701526040808601519087830390880152610412565b6108f560608086015190870190610859565b6080808501519086830390870152610412565b60a0808401519085830390860152610412565b9160c08092015191818403910152610412565b9801930193019194939290610880565b346104ac5761097b6104a861096461095536610571565b96959095949194939293612935565b604092919251938493604085526040850190610866565b908382036020850152610866565b346104ac575f3660031901126104ac576020604051600d8152f35b346104ac575f3660031901126104ac57602060405160458152f35b604051906109cc8261024a565b60078252661e17b432b0b21f60c91b6020830152565b346104ac575f3660031901126104ac576104a86106146109bf565b346104ac575f3660031901126104ac576104a8604051610a1c8161024a565b600a8152692533436865616425334560b01b6020820152604051918291602083526020830190610412565b346104ac575f3660031901126104ac576104a8604051610a6681610285565b60d181527f7b226e616d65223a224e6f756e7320577261707065642032303233222c22696d60208201527f616765223a22697066733a2f2f6261667962656966643374796e62337565347760408201527f746677697137367675787433753578326d7a72797473636f3569797a6376667860608201527f3534636c346b7761222c226465736372697074696f6e223a224120636f6d6d6560808201527f6d6f726174697665204e465420666f7220616c6c207468652070656f706c652060a08201527f696e766f6c76656420696e2070726f6c696665726174696e6720746865204e6f60c082015270756e732044414f20696e2032303233227d60781b60e082015260405191829182610437565b346104ac575f3660031901126104ac576104a8604051610b938161024a565b600a81526925334368746d6c25334560b01b6020820152604051918291602083526020830190610412565b346104ac5760203660031901126104ac57602060405160036002600435010460021b8152f35b346104ac575f3660031901126104ac57602060405160168152f35b346104ac576104a8610614610c13366107aa565b613c15565b346104ac575f3660031901126104ac576104a8604051610c378161024a565b600a815269253343626f647925334560b01b6020820152604051918291602083526020830190610412565b346104ac575f3660031901126104ac57602060405160278152f35b60206003198201126104ac57600435906001600160401b0382116104ac5761044891600401610660565b9091610cbe61044893604084526040840190610412565b916020818403910152610412565b346104ac57610ce2610cdd36610c7d565b6137bf565b906104a860405192839283610ca7565b346104ac576104a8610614610d0636610571565b96959095949194939293612b9a565b60405190610d228261024a565b60068252651e343a36b61f60d11b6020830152565b346104ac575f3660031901126104ac576104a8610614610d15565b346104ac575f3660031901126104ac57602060405160178152f35b346104ac575f3660031901126104ac576020604051605a8152f35b60405190610d958261024a565b60068252651e3432b0b21f60d11b6020830152565b346104ac575f3660031901126104ac576104a8610614610d88565b346104ac57610ce2610dd636610c7d565b613a7a565b346104ac576104a8610614610def36610c7d565b613b2b565b60405190610e018261024a565b60068252651e3137b23c9f60d11b6020830152565b346104ac575f3660031901126104ac576104a8610614610df4565b346104ac575f3660031901126104ac576104a8604051610e508161024a565b6015815274646174612533417465787425324668746d6c25324360581b6020820152604051918291602083526020830190610412565b346104ac575f3660031901126104ac576104a8604051610ea58161024a565b600d81526c2533432532466865616425334560981b6020820152604051918291602083526020830190610412565b60405190610ee08261024a565b600e82526d1e17b137b23c9f1e17b43a36b61f60911b6020830152565b346104ac575f3660031901126104ac576104a8610614610ed3565b346104ac576101203660031901126104ac5760043563ffffffff811681036104ac57610f426104b0565b906064359061ffff821682036104ac57610f5a6104e3565b610f626104f5565b610f6a6104c1565b90610f73610507565b9261010435956001600160401b0387116104ac576104a897610f9c610fa698369060040161052b565b9660243590613176565b60405191829182610437565b60405190610fbf8261024a565b601682527519185d184e9d195e1d0bda1d1b5b0ed8985cd94d8d0b60521b6020830152565b346104ac575f3660031901126104ac576104a8610614610fb2565b604080519161100d836102a1565b6005835282915f91825b60a080821015611060578351602092916110308261026a565b606080835280859289848601528189860152898286015281608086015284015260c0830152828901015201611017565b50509293505050565b6040908151611077816102bc565b6014815280925f90815b61028081106110905750505050565b602090825161109e8161026a565b606080825283908682840152808684015286818401528060808401528060a084015260c0830152828701015201611081565b634e487b7160e01b5f52603260045260245ffd5b8051156110f15760200190565b6110d0565b8051600110156110f15760400190565b8051600210156110f15760600190565b8051600310156110f15760800190565b8051600410156110f15760a00190565b8051600510156110f15760c00190565b8051600610156110f15760e00190565b8051600710156110f1576101000190565b8051600810156110f1576101200190565b8051600910156110f1576101400190565b8051600a10156110f1576101600190565b8051600b10156110f1576101800190565b8051600c10156110f1576101a00190565b8051600d10156110f1576101c00190565b8051600e10156110f1576101e00190565b8051600f10156110f1576102000190565b8051601010156110f1576102200190565b8051601110156110f1576102400190565b8051601210156110f1576102600190565b8051601310156110f1576102800190565b80518210156110f15760209160051b010190565b60405190611254826102d8565b61015782527f383030222072656c3d227374796c657368656574222f3e000000000000000000610160837f3c6c696e6b20687265663d2268747470733a2f2f666f6e74732e676f6f676c6560208201527f617069732e636f6d222072656c3d22707265636f6e6e656374222f3e3c6c696e60408201527f6b20687265663d2268747470733a2f2f666f6e74732e677374617469632e636f60608201527f6d222072656c3d22707265636f6e6e656374222063726f73736f726967696e3d60808201527f2274727565222f3e3c6c696e6b20687265663d2268747470733a2f2f666f6e7460a08201527f732e676f6f676c65617069732e636f6d2f637373323f66616d696c793d506f7060c08201527f70696e733a77676874403230303b3330303b3430303b3530303b3630303b373060e08201527f303b3830303b393030222072656c3d227374796c657368656574222f3e3c6c696101008201527f6e6b20687265663d2268747470733a2f2f666f6e74732e676f6f676c656170696101208201527f732e636f6d2f6373733f66616d696c793d4d6f6e747365727261743a3430302c6101408201520152565b6040519061140e826102bc565b7f773b6865696768743a31303076683b6261636b67726f756e642d636f6c6f723a610280808452837f3c7374796c653e626f64797b666f6e742d66616d696c793a506f7070696e732c60208201527f73616e732d73657269663b6d617267696e3a303b70616464696e673a303b646960408201527f73706c61793a666c65783b6a7573746966792d636f6e74656e743a63656e746560608201527f723b616c69676e2d6974656d733a63656e7465727d23637b706f736974696f6e60808201527f3a72656c61746976657d23777b706f736974696f6e3a6162736f6c7574653b6460a08201527f6973706c61793a666c65783b666c65782d646972656374696f6e3a636f6c756d60c08201527f6e3b6865696768743a313030253b636f6c6f723a236666663b666f6e742d776560e08201527f696768743a3430307d2e747b666f6e742d73697a653a6d696e283476772c34766101008201527f68297d2e6c7b666f6e742d73697a653a6d696e28322e3576772c322e357668296101208201527f3b6d617267696e2d746f703a3570787d2e732c2e757b666f6e742d73697a653a6101408201527f6d696e28362e3576772c362e357668293b666f6e742d7765696768743a3630306101608201527f3b666f6e742d66616d696c793a4d6f6e747365727261742c73616e732d7365726101808201527f69667d2e757b666f6e742d73697a653a6d696e283876772c387668293b6f76656101a08201527f72666c6f773a68696464656e3b666f6e742d66616d696c793a4d6f6e747365726101c08201527f7261742c73616e732d73657269667d2e677b666c65782d67726f773a317d23616101e08201527f7b6d617267696e2d746f703a312e3572656d3b6d617267696e2d6c6566743a316102008201527f2e3572656d7d237a7b6d617267696e2d626f74746f6d3a312e3572656d3b6d616102208201527f7267696e2d6c6566743a312e3572656d7d236d7b6d617267696e2d626f74746f6102408201527f6d3a63616c63283172656d202d20387078297d2e707b77696474683a313030766102608201520152565b604051906117258261024a565b60098252683e9e17b9ba3cb6329f60b91b6020830152565b6040519061174a826102f4565b61018f82526e3a37b69d183ebe9e17b9ba3cb6329f60891b6101a0837f3c7374796c652073636f7065643d2274727565223e406d65646961207363726560208201527f656e20616e6420286d696e2d6865696768743a3732307078297b23617b6d617260408201527f67696e2d746f703a322e3572656d3b6d617267696e2d6c6566743a322e35726560608201527f6d7d237a7b6d617267696e2d626f74746f6d3a322e3572656d3b6d617267696e60808201527f2d6c6566743a322e3572656d7d7d406d656469612073637265656e20616e642060a08201527f286d61782d6865696768743a3435307078297b23617b6d617267696e2d746f7060c08201527f3a3172656d3b6d617267696e2d6c6566743a3172656d7d237a7b6d617267696e60e08201527f2d626f74746f6d3a3172656d3b6d617267696e2d6c6566743a3172656d7d7d406101008201527f6d656469612073637265656e20616e6420286d61782d6865696768743a3330306101208201527f7078297b23617b6d617267696e2d746f703a2e3572656d3b6d617267696e2d6c6101408201527f6566743a2e3572656d7d237a7b6d617267696e2d626f74746f6d3a2e3572656d6101608201527f3b6d617267696e2d6c6566743a2e3572656d7d236d7b6d617267696e2d626f746101808201520152565b6040519061194482610310565b602382527f3c6d61696e2069643d22632220636c6173733d22702220646174612d636f6c6f602083015262391e9160e91b6040830152565b604051906119898261024a565b600d82526c11103230ba3096b9b2b2b21e9160991b6020830152565b604051906119b28261032b565b606482527f223e3c6469762069643d2277223e3c6469762069643d2261223e3c646976206360208301527f6c6173733d2274223e4e6f756e7320577261707065642032303233202d20427960408301527f204e6f756e734b61726d612e78797a3c2f6469763e3c64697620636c6173733d606083015263113a911f60e11b6080830152565b60405190611a448261032b565b606282527f3c2f6469763e3c2f6469763e3c64697620636c6173733d2267223e3c2f64697660208301527f3e3c6469762069643d227a223e3c64697620636c6173733d226c223e566f746560408301527f7320436173743c2f6469763e3c64697620636c6173733d2273222069643d226d606083015261111f60f11b6080830152565b60405190611ad482610310565b603382527f3c2f6469763e3c64697620636c6173733d226c223e44414f2070726f70733c2f6020830152723234bb1f1e3234bb1031b630b9b99e9139911f60691b6040830152565b60405190611b2982610310565b603982527f726f70733c2f6469763e3c64697620636c6173733d2273223e000000000000006040837f3c2f6469763e3c64697620636c6173733d226c223e43616e646964617465205060208201520152565b60405190611b8882610310565b603f82527f6f75736520566f7465733c2f6469763e3c64697620636c6173733d2273223e006040837f2070726f70733c2f6469763e3c64697620636c6173733d226c223e50726f704860208201520152565b60405190611be782610310565b603f82527f61636b7320676976656e3c2f6469763e3c64697620636c6173733d2273223e006040837f20766f7465733c2f6469763e3c64697620636c6173733d226c223e466565646260208201520152565b60405190611c4682610310565b603d82527f706f6e736f7265643c2f6469763e3c64697620636c6173733d2273223e0000006040837f20666565646261636b733c2f6469763e3c64697620636c6173733d226c223e5360208201520152565b60405190611ca58261024a565b601f82527f2070726f70733c2f6469763e3c2f6469763e3c2f6469763e3c2f6d61696e3e006020830152565b60405190611cde82610346565b610a1982527f65287429292c3235297d28297d29293b3c2f7363726970743e00000000000000610a20837f3c7363726970743e646f63756d656e742e6164644576656e744c697374656e6560208201527f722822444f4d436f6e74656e744c6f61646564222c2866756e6374696f6e282960408201527f7b66756e6374696f6e206528297b72657475726e2077696e646f772e696e6e6560608201527f724865696768743e3d77696e646f772e696e6e657257696474683f77696e646f60808201527f772e696e6e657257696474683a77696e646f772e696e6e65724865696768747d60a08201527f636f6e737420743d646f63756d656e742e717565727953656c6563746f72282260c08201527f6d61696e22292c6e3d66756e6374696f6e2865297b636f6e737420743d32313460e08201527f373438333634373b6c6574206e3d6525743b72657475726e28293d3e286e3d316101008201527f363830372a6e25742c6e2f74297d287061727365496e7428742e6461746173656101208201527f742e736565642c313029293b6c6574206f3d66756e6374696f6e28652c74297b6101408201527f72657475726e204d6174682e666c6f6f72287428292a65297d28342c6e292c796101608201527f3d6528292c6c3d6528292c783d6c2f3732302c723d343d3d6f3f32303a333d3d6101808201527f6f3f34303a323d3d6f3f36303a313d3d6f3f38303a3132302c693d5b5d2c613d6101a08201527f3230302c733d3130303b76617220633d742e646174617365742e636f6c6f723b6101c08201527f636f6e737420753d646f63756d656e742e637265617465456c656d656e7428226101e08201527f63616e76617322292c683d646f63756d656e742e676574456c656d656e7442796102008201527f496428226322293b682e636c6173734c6973742e72656d6f766528227022292c6102208201527f682e617070656e644368696c642875293b636f6e737420663d752e676574436f6102408201527f6e746578742822326422293b66756e6374696f6e206428652c742c6e297b72656102608201527f7475726e28312d6e292a652b6e2a747d66756e6374696f6e207728652c742c6e6102808201527f2c6f2c792c6c2c78297b72657475726e7b783a64286428652c742c78292c64286102a08201527f742c6e2c78292c78292c793a642864286f2c792c78292c6428792c6c2c78292c6102c08201527f78297d7d66756e6374696f6e207028652c742c6e2c6f2c79297b6c6574206c3d6102e08201527f332a28742d65292c783d332a286e2d74292d6c2c723d332a28742d65292c693d6103008201527f332a286e2d74292d722c613d6f2d652d722d693b72657475726e7b783a286f2d6103208201527f652d6c2d78292a4d6174682e706f7728792c33292b782a4d6174682e706f77286103408201527f792c32292b6c2a792b652c793a612a4d6174682e706f7728792c33292b692a4d6103608201527f6174682e706f7728792c32292b722a792b657d7d636f6c733d792f28722a78296103808201527f2c726f77733d6c2f28722a78293b766172206d3d6e28292c763d6e28292c4d3d6103a08201527f6e28292c673d6e28292c453d6e28292c4c3d6e28292c433d6e28292c533d6e286103c08201527f292c713d6e28292c483d6e28292c493d6e28292c523d6e28293b6c657420573d6103e08201527f7b783a3336302a6d2a782c793a3336302a762a787d2c7a3d7b783a3165332a4d6104008201527f2a782c793a3165332a672a787d2c413d7b783a3530302a452a782c793a3165336104208201527f2a4c2a782b3530302a787d2c423d7b783a313135302a432a782d3135302a782c6104408201527f793a3165332a532a787d2c443d7b783a3165332a712a782c793a3165332a482a6104608201527f787d2c463d7b783a313135302a492a782d3135302a782c793a3165332a522a786104808201527f2b3530302a787d3b666f72286c657420653d303b653c3d732f333b652b2b297b6104a08201527f6c657420743d7728572e782c7a2e782c412e782c572e792c7a2e792c412e792c6104c08201527f652f28732f3329293b692e707573682874297d666f72286c657420653d303b656104e08201527f3c3d732f333b652b2b297b6c657420743d652f28732f33292c6e3d7028412e786105008201527f2c422e782c442e782c462e782c74292c6f3d7028412e792c422e792c442e792c6105208201527f462e792c74293b692e70757368287b783a6e2c793a6f7d297d666f72286c65746105408201527f20653d303b653c3d732f333b652b2b297b6c657420743d652f28732f33292c6e6105608201527f3d6428462e782c572e782c74292c6f3d6428462e792c572e792c74293b692e706105808201527f757368287b783a6e2c793a6f7d297d666f72286c657420653d303b653c3d732f6105a08201527f323b652b2b297b6c657420743d652f28732f32292c6e3d7028412e782c422e786105c08201527f2c442e782c462e782c74292c6f3d7028412e792c422e792c442e792c462e792c6105e08201527f74293b692e70757368287b783a6e2c793a6f7d297d6c6574204f3d303b77696e6106008201527f646f772e6164644576656e744c697374656e65722822726573697a65222c28666106208201527f756e6374696f6e28297b793d6528292c6c3d6528292c783d6c2f3732302c723d6106408201527f6f3d3d342a783f32302a783a333d3d6f3f34302a783a323d3d6f3f36302a783a6106608201527f313d3d6f3f38302a783a3132302a782c662e63616e7661732e77696474683d796106808201527f2c662e63616e7661732e6865696768743d6c3b6c657420743d7b783a3336302a6106a08201527f6d2a782c793a3336302a762a787d2c6e3d7b783a3165332a4d2a782c793a31656106c08201527f332a672a787d2c613d7b783a3530302a452a782c793a3165332a4c2a782b35306106e08201527f302a787d2c633d7b783a313135302a432a782d3135302a782c793a3165332a536107008201527f2a787d2c753d7b783a3165332a712a782c793a3165332a482a787d2c683d7b786107208201527f3a313135302a492a782d3135302a782c793a3165332a522a782b3530302a787d6107408201527f3b693d5b5d3b666f72286c657420653d303b653c3d732f333b652b2b297b6c656107608201527f74206f3d7728742e782c6e2e782c612e782c742e792c6e2e792c612e792c652f6107808201527f28732f3329293b692e70757368286f297d666f72286c657420653d303b653c3d6107a08201527f732f333b652b2b297b6c657420743d652f28732f33292c6e3d7028612e782c636107c08201527f2e782c752e782c682e782c74292c6f3d7028612e792c632e792c752e792c682e6107e08201527f792c74293b692e70757368287b783a6e2c793a6f7d297d666f72286c657420656108008201527f3d303b653c3d732f333b652b2b297b6c6574206e3d652f28732f33292c6f3d646108208201527f28682e782c742e782c6e292c793d6428682e792c742e792c6e293b692e7075736108408201527f68287b783a6f2c793a797d297d666f72286c657420653d303b653c3d732f323b6108608201527f652b2b297b6c657420743d652f28732f32292c6e3d7028612e782c632e782c756108808201527f2e782c682e782c74292c6f3d7028612e792c632e792c752e792c682e792c74296108a08201527f3b692e70757368287b783a6e2c793a6f7d297d7d29292c66756e6374696f6e206108c08201527f7428297b4f2b2b2c66756e6374696f6e28297b662e63616e7661732e776964746108e08201527f683d6528292c662e63616e7661732e6865696768743d6528292c662e66696c6c6109008201527f5374796c653d632c662e66696c6c5265637428302c302c792c6c293b666f72286109208201527f6c657420653d303b653c613b652b2b297b6c657420743d284f2d312b652a732f6109408201527f612b692e6c656e6774682925692e6c656e6774682c6e3d695b4d6174682e666c6109608201527f6f6f722874295d2c6f3d4d6174682e666c6f6f72286e2e782f72292a722c793d6109808201527f4d6174682e666c6f6f72286e2e792f72292a722c6c3d322a65253336303b662e6109a08201527f66696c6c5374796c653d6068736c28247b6c7d2c20313030252c2035302529606109c08201527f2c662e66696c6c52656374286f2c792d31302c722c72297d7d28292c736574546109e08201527f696d656f7574282828293d3e72657175657374416e696d6174696f6e4672616d610a008201520152565b9192979693959097612945610fff565b9660c0998a9788978896876129598d6110e4565b5101612963611247565b90528761296f8d6110f6565b5101612979611401565b90528b8861298683613539565b9161299090611106565b5101528761299d8d611116565b51016129a7611718565b9052876129b38d611126565b51016129bd61173d565b90526129c7611069565b9d8e91816129d4846110e4565b51016129de611937565b90526129e981613539565b826129f3856110f6565b51015281612a0084611106565b5101612a0a61197c565b905263ffffffff16612a1b90613fe2565b91612a2590611116565b510152868d81612a3482611126565b5101612a3e6119a5565b9052612a4990611136565b51015285612a568d611146565b5101612a60611a37565b90528b62ffffff9687809616612a7590613fe2565b91612a7f90611156565b51015287612a8c8d611167565b5101612a96611ac7565b90528b61ffff9889809416612aaa90613fe2565b91612ab490611178565b51015288612ac18d611189565b5101612acb611b1c565b905216612ad790613fe2565b87612ae18c61119a565b51015286612aee8b6111ab565b5101612af8611b7b565b905216612b0490613fe2565b85612b0e8a6111bc565b51015284612b1b896111cd565b5101612b25611bda565b905216612b3190613fe2565b83612b3b886111de565b51015282612b48876111ef565b5101612b52611c39565b905216612b5e90613fe2565b81612b6886611200565b51015280612b7585611211565b5101612b7f611c98565b9052612b8a84611222565b5101612b94611cd1565b90529190565b9161044897959391612bad979593612935565b60405191612bba8361024a565b82526020820152613dfd565b60405190612bd382610362565b61025c82527f68743a2037303070783b206261636b67726f756e642d636f6c6f723a00000000610260837f3c7374796c653e626f64797b666f6e742d66616d696c793a506f7070696e732c60208201527f73616e732d73657269663b6d617267696e3a303b70616464696e673a303b646960408201527f73706c61793a666c65783b6a7573746966792d636f6e74656e743a63656e746560608201527f723b616c69676e2d6974656d733a63656e7465727d23637b706f736974696f6e60808201527f3a72656c61746976657d23777b706f736974696f6e3a6162736f6c7574653b6460a08201527f6973706c61793a666c65783b666c65782d646972656374696f6e3a636f6c756d60c08201527f6e3b6865696768743a313030253b636f6c6f723a236666663b666f6e742d776560e08201527f696768743a3430307d2e747b666f6e742d73697a653a323870787d2e6c7b666f6101008201527f6e742d73697a653a313570783b6d617267696e2d746f703a3670787d2e732c2e6101208201527f757b666f6e742d73697a653a353070783b666f6e742d7765696768743a3630306101408201527f3b666f6e742d66616d696c793a4d6f6e747365727261742c73616e732d7365726101608201527f69667d2e757b666f6e742d73697a653a353670783b6f766572666c6f773a68696101808201527f6464656e3b666f6e742d66616d696c793a4d6f6e747365727261742c73616e736101a08201527f2d73657269667d2e677b666c65782d67726f773a317d23617b6d617267696e2d6101c08201527f746f703a312e3572656d3b6d617267696e2d6c6566743a312e3572656d7d237a6101e08201527f7b6d617267696e2d626f74746f6d3a312e3572656d3b6d617267696e2d6c65666102008201527f743a312e3572656d7d236d7b6d617267696e2d626f74746f6d3a63616c6328316102208201527f72656d202d20387078297d2e707b77696474683a2037303070783b20686569676102408201520152565b60405190612ec58261024a565b600f82526e1e39ba3cb6329f1e17b9ba3cb6329f60891b6020830152565b60405190612ef0826102a1565b609382527f3c73766720786d6c6e733d22687474703a2f2f7777772e77332e6f72672f323060208301527f30302f737667222076696577426f783d223020302037303020373030223e3c6660408301527f6f726569676e4f626a6563742077696474683d2231303025222068656967687460608301527f3d2231303025223e3c626f647920786d6c6e733d22687474703a2f2f7777772e6080830152723b999737b93397989c9c9c97bc343a36b6111f60691b60a0830152565b60405190612fb78261024a565b601d82527f3c2f626f64793e3c2f666f726569676e4f626a6563743e3c2f7376673e0000006020830152565b91908201809211612ff057565b634e487b7160e01b5f52601160045260245ffd5b604051906130118261024a565b601a82527f646174613a696d6167652f7376672b786d6c3b6261736536342c0000000000006020830152565b9591936130c8979361305495613073979389612935565b91909260c0613062856110f6565b510161306c612bc6565b9052613539565b60c061307e84611106565b51015260c061308c83611116565b5101613096611718565b905260c06130a383611126565b51016130ad612eb8565b9052601381526130bb6103c9565b9182526020820152613c15565b61312b6130d3612ee3565b916131256130df612faa565b9161311f6131186130fe6130f68851855190612fe3565b865190612fe3565b60209060408051916060818401018252018152015f815290565b9586613e40565b84613e40565b82613e40565b610448613136613004565b916131596131526130fe6130f684516002600391010460021b90565b9384613e40565b82613e84565b90613172602092828151948592016103f1565b0190565b9283898989898986899e9b9c99989f9d9a8686868686868f61319797612b9a565b9e6131a19761303d565b986131ab90613fe2565b9561ffff808094166131bc90613fe2565b92166131c790613fe2565b9262ffffff808093166131d990613fe2565b95166131e490613fe2565b95166131ef90613fe2565b95166131fa90613fe2565b604051713d9130b734b6b0ba34b7b72fbab936111d1160711b6020820152998a9991979160328b0161322b9161315f565b6b1116101134b6b0b3b2911d1160a11b8152600c016132499161315f565b6f222c20226e616d65223a20224944202360801b815260100161326b9161315f565b7f222c202261747472696275746573223a5b7b2274726169745f74797065223a2081527f2250726f70732043726561746564222c202276616c7565223a0000000000000060208201526039016132c09161315f565b7f7d2c7b2274726169745f74797065223a202250726f70732053706f6e736f726581526b32111610113b30b63ab2911d60a11b6020820152602c016133049161315f565b7f7d2c7b2274726169745f74797065223a2022566f7465732043617374222c227681526530b63ab2911d60d11b60208201526026016133429161315f565b7f7d2c7b2274726169745f74797065223a202250726f70486f75736520566f746581526a399116113b30b63ab2911d60a91b6020820152602b016133859161315f565b7f7d2c7b2274726169745f74797065223a202243616e6469646174652050726f7081526a399116113b30b63ab2911d60a91b6020820152602b016133c89161315f565b7f7d2c7b2274726169745f74797065223a2022466565646261636b73206769766581526a371116113b30b63ab2911d60a91b6020820152602b0161340b9161315f565b7f7d2c7b2274726169745f74797065223a2022557365726e616d65222c2276616c8152643ab2911d1160d91b60208201526025016134489161315f565b63227d5d7d60e01b815260040103601f19810182526104489082610399565b604051906134748261024a565b60078252662344353343354560c81b6020830152565b604051906134978261024a565b6007825266119a9c9c1ba32360c91b6020830152565b604051906134ba8261024a565b60078252662344433545374160c81b6020830152565b604051906134dd8261024a565b60078252662331343236453160c81b6020830152565b604051906135008261024a565b60078252662331423338463560c81b6020830152565b604051906135238261024a565b60078252662345333746393560c81b6020830152565b90604051916135478361026a565b600683525f5b60c0811061361a5750916136169192613564613467565b61356d836110e4565b52613577826110e4565b5061358061348a565b613589836110f6565b52613593826110f6565b5061359c6134ad565b6135a583611106565b526135af82611106565b506135b86134d0565b6135c183611116565b526135cb82611116565b506135d46134f3565b6135dd83611126565b526135e782611126565b506135f0613516565b6135f983611136565b5261360382611136565b50600663ffffffff809216061690611233565b5190565b80606060208093870101520161354d565b604051906136388261037e565b6044825263194d8d0b60e21b6060837f3c73637269707420747970653d22746578742f6a6176617363726970742b706e60208201527f6722207372633d22646174613a746578742f6a6176617363726970743b62617360408201520152565b604051906136a48261024a565b600b82526a111f1e17b9b1b934b83a1f60a91b6020830152565b604051906136cb8261037e565b60458252641cd94d8d0b60da1b6060837f3c73637269707420747970653d22746578742f6a6176617363726970742b677a60208201527f697022207372633d22646174613a746578742f6a6176617363726970743b626160408201520152565b6040519061373882610310565b60298252681d0ed8985cd94d8d0b60ba1b6040837f3c736372697074207372633d22646174613a746578742f6a617661736372697060208201520152565b604051906137838261024a565b60088252671e39b1b934b83a1f60c11b6020830152565b604051906137a78261024a565b60098252681e17b9b1b934b83a1f60b91b6020830152565b9060608201600181516137d18161083b565b6137da8161083b565b036137f3575090506137ea613776565b9061044861379a565b600281516138008161083b565b6138098161083b565b036138225750905061381961372b565b90610448613697565b6003815161382f8161083b565b6138388161083b565b03613848575090506138196136be565b600490516138558161083b565b61385e8161083b565b146138705760a0608083015192015190565b905061381961362b565b604051906138878261032b565b607c82527f32466a61766173637269707425323533426261736536342532353243000000006080837f253235334373637269707425323532307479706525323533442532353232746560208201527f787425323532466a6176617363726970742532353242706e672532353232253260408201527f353230737263253235334425323532326461746125323533417465787425323560608201520152565b604051906139328261024a565b601f82527f25323532322532353345253235334325323532467363726970742532353345006020830152565b6040519061396b8261032b565b607d82527f3532466a617661736372697074253235334262617365363425323532430000006080837f253235334373637269707425323532307479706525323533442532353232746560208201527f787425323532466a6176617363726970742532353242677a697025323532322560408201527f323532307372632532353344253235323264617461253235334174657874253260608201520152565b60405190613a168261037e565b604982526873653634253235324360b81b6060837f253235334373637269707425323532307372632532353344253235323264617460208201527f6125323533417465787425323532466a6176617363726970742532353342626160408201520152565b906060820160018151613a8c8161083b565b613a958161083b565b148015613b0e575b15613ab657509050613aad613a09565b90610448613925565b60038151613ac38161083b565b613acc8161083b565b03613adc57509050613aad61395e565b60049051613ae98161083b565b613af28161083b565b14613b045760a0608083015192015190565b9050613aad61387a565b5060028151613b1c8161083b565b613b258161083b565b14613a9d565b60c08101518051613c10575060018060a01b0360208201511660408251920151916040518092633e58d56560e21b82528180613b6d5f97889660048401610ca7565b03915afa918215613c04578092613b8357505090565b9091503d8082843e613b958184610399565b820191602081840312613bfc578051906001600160401b038211613c00570182601f82011215613bfc57805191613bcb836103d6565b93613bd96040519586610399565b83855260208484010111613bf957509061044891602080850191016103f1565b80fd5b5080fd5b8280fd5b604051903d90823e3d90fd5b905090565b5f81518051613ccf575b50613c4f602083019182518051613cbf575b5060270160209060408051916060818401018252018152015f815290565b91613c5b61311f610d15565b613c6661311f610d88565b518051613caf575b50613c80613c7a6109bf565b83613e40565b613c8b613c7a610df4565b518051613c9f575b50610448613125610ed3565b613ca99082613d95565b5f613c93565b613cb99083613d95565b5f613c6e565b613cc890613cdf565b015f613c31565b613cd99150613cdf565b5f613c1f565b80518015613d8f57905f90819060019384805b613d00575b50505050905090565b93859192939415613d76575b5f90613d21613d1b8787611233565b51613b2b565b8060c0613d2e8989611233565b5101525101613d46613d408787611233565b516137bf565b9190806080613d558a8a611233565b5101528260a0613d658a8a611233565b510152510190510194939291613cf2565b93019281841015613d88578490613d0c565b9280613cf7565b50505f90565b5f9182600180805b613daa575b505050505050565b15613deb575b8181613de660a0613dc18988611233565b51613dd060808201518a613e40565b613dde60c08201518a613e40565b015187613e40565b613d9d565b8094019382518510613db05780613da2565b613e0690613c15565b610448613e346016600360028551010460021b0160209060408051916060818401018252018152015f815290565b9161315961311f610fb2565b90613e4c815183613f70565b805190602090818381830192010190828551860101905b828110613e7557505050508151019052565b80518252908301908301613e63565b8151918215613f6b5760039260028481830104811b9285830692613ea88587613f70565b604051967f4142434445464748494a4b4c4d4e4f505152535455565758595a616263646566601f52603f61022f197f6768696a6b6c6d6e6f707172737475767778797a303132333435363738392d5f01815260048260208a518b0101948601955b0193828551818160121c165183538181600c1c16516001840153818160061c165189840153165184820153019284811015613f48576004908390613f09565b5050509150506001603d92838115158403531460011b9003538151019052604052565b505050565b90613f8690603f19601f19840151019251612fe3565b11613f8d57565b60405162461bcd60e51b815260206004820152602760248201527f44796e616d69634275666665723a20417070656e64696e67206f7574206f66206044820152663137bab732399760c91b6064820152608490fd5b90604051608081019260a082016040525f8452925b5f190192600a906030828206018553049283613ff757809350608091030191601f190191825256fea26469706673582212209b4934416d5428af6dbbb54c38e559697b69a3f80215fe0ac3cb80dc4b1c873c64736f6c63430008150033",
  "devdoc": {
    "errors": {
      "AccountBalanceOverflow()": [
        {
          "details": "The recipient's balance has overflowed."
        }
      ],
      "AlreadyInitialized()": [
        {
          "details": "Cannot double-initialize."
        }
      ],
      "BalanceQueryForZeroAddress()": [
        {
          "details": "Cannot query the balance for the zero address."
        }
      ],
      "NewOwnerIsZeroAddress()": [
        {
          "details": "The `newOwner` cannot be the zero address."
        }
      ],
      "NoHandoverRequest()": [
        {
          "details": "The `pendingOwner` does not have a valid handover request."
        }
      ],
      "NotOwnerNorApproved()": [
        {
          "details": "Only the token owner or an approved account can manage the token."
        }
      ],
      "TokenAlreadyExists()": [
        {
          "details": "The token already exists."
        }
      ],
      "TokenDoesNotExist()": [
        {
          "details": "The token does not exist."
        }
      ],
      "TransferFromIncorrectOwner()": [
        {
          "details": "The token must be owned by `from`."
        }
      ],
      "TransferToNonERC721ReceiverImplementer()": [
        {
          "details": "Cannot safely transfer to a contract that does not implement the ERC721Receiver interface."
        }
      ],
      "TransferToZeroAddress()": [
        {
          "details": "Cannot mint or transfer to the zero address."
        }
      ],
      "Unauthorized()": [
        {
          "details": "The caller is not authorized to call the function."
        }
      ]
    },
    "events": {
      "Approval(address,address,uint256)": {
        "details": "Emitted when `owner` enables `account` to manage the `id` token."
      },
      "ApprovalForAll(address,address,bool)": {
        "details": "Emitted when `owner` enables or disables `operator` to manage all of their tokens."
      },
      "OwnershipHandoverCanceled(address)": {
        "details": "The ownership handover to `pendingOwner` has been canceled."
      },
      "OwnershipHandoverRequested(address)": {
        "details": "An ownership handover to `pendingOwner` has been requested."
      },
      "OwnershipTransferred(address,address)": {
        "details": "The ownership is transferred from `oldOwner` to `newOwner`. This event is intentionally kept the same as OpenZeppelin's Ownable to be compatible with indexers and [EIP-173](https://eips.ethereum.org/EIPS/eip-173), despite it not being as lightweight as a single argument event."
      },
      "Transfer(address,address,uint256)": {
        "details": "Emitted when token `id` is transferred from `from` to `to`."
      }
    },
    "kind": "dev",
    "methods": {
      "approve(address,uint256)": {
        "details": "Sets `account` as the approved account to manage token `id`. Requirements: - Token `id` must exist. - The caller must be the owner of the token,   or an approved operator for the token owner. Emits an {Approval} event."
      },
      "balanceOf(address)": {
        "details": "Returns the number of tokens owned by `owner`. Requirements: - `owner` must not be the zero address."
      },
      "cancelOwnershipHandover()": {
        "details": "Cancels the two-step ownership handover to the caller, if any."
      },
      "completeOwnershipHandover(address)": {
        "details": "Allows the owner to complete the two-step ownership handover to `pendingOwner`. Reverts if there is no existing ownership handover requested by `pendingOwner`."
      },
      "constructor": {
        "params": {
          "_mintFee": "Fee in wei per mint"
        }
      },
      "contractURI()": {
        "returns": {
          "_0": "Base64 encoded metadata data URI"
        }
      },
      "eip712Domain()": {
        "details": "See: https://eips.ethereum.org/EIPS/eip-5267"
      },
      "getApproved(uint256)": {
        "details": "Returns the account approved to manage token `id`. Requirements: - Token `id` must exist."
      },
      "isApprovedForAll(address,address)": {
        "details": "Returns whether `operator` is approved to manage the tokens of `owner`."
      },
      "owner()": {
        "details": "Returns the owner of the contract."
      },
      "ownerOf(uint256)": {
        "details": "Returns the owner of token `id`. Requirements: - Token `id` must exist."
      },
      "ownershipHandoverExpiresAt(address)": {
        "details": "Returns the expiry timestamp for the two-step ownership handover to `pendingOwner`."
      },
      "renounceOwnership()": {
        "details": "Allows the owner to renounce their ownership."
      },
      "requestOwnershipHandover()": {
        "details": "Request a two-step ownership handover to the caller. The request will automatically expire in 48 hours (172800 seconds) by default."
      },
      "safeTransferFrom(address,address,uint256)": {
        "details": "Equivalent to `safeTransferFrom(from, to, id, \"\")`."
      },
      "safeTransferFrom(address,address,uint256,bytes)": {
        "details": "Transfers token `id` from `from` to `to`. Requirements: - Token `id` must exist. - `from` must be the owner of the token. - `to` cannot be the zero address. - The caller must be the owner of the token, or be approved to manage the token. - If `to` refers to a smart contract, it must implement   {IERC721Receiver-onERC721Received}, which is called upon a safe transfer. Emits a {Transfer} event."
      },
      "setApprovalForAll(address,bool)": {
        "details": "Sets whether `operator` is approved to manage the tokens of the caller. Emits an {ApprovalForAll} event."
      },
      "setMintFee(uint256)": {
        "params": {
          "_mintFee": "New mint fee"
        }
      },
      "supportsInterface(bytes4)": {
        "details": "Returns true if this contract implements the interface defined by `interfaceId`. See: https://eips.ethereum.org/EIPS/eip-165 This function call must use less than 30000 gas."
      },
      "tokenURI(uint256)": {
        "params": {
          "tokenId": "Token/Nouns ID"
        },
        "returns": {
          "_0": "Base64 encoded metadata data URI"
        }
      },
      "transferFrom(address,address,uint256)": {
        "details": "Transfers token `id` from `from` to `to`. Requirements: - Token `id` must exist. - `from` must be the owner of the token. - `to` cannot be the zero address. - The caller must be the owner of the token, or be approved to manage the token. Emits a {Transfer} event."
      },
      "transferOwnership(address)": {
        "details": "Allows the owner to transfer the ownership to `newOwner`."
      }
    },
    "version": 1
  },
  "userdoc": {
    "errors": {
      "InvalidPayment()": [
        {
          "notice": "Caller provided incorrect payable amount"
        }
      ]
    },
    "events": {
      "SetMintFee(uint256,uint256)": {
        "notice": "emitted when owner changes the mint fee"
      }
    },
    "kind": "user",
    "methods": {
      "contractURI()": {
        "notice": "Read contract metadata"
      },
      "mint(address,(uint16,uint16,uint24,uint24,uint16,uint24,string))": {
        "notice": "Mint a Nouns Wrapped token.         Caller must send mintFee wei as msg.value.         Caller must provide an EIP-712 `Mint` signature."
      },
      "mintFee()": {
        "notice": "Fee in wei per mint"
      },
      "name()": {
        "notice": "Read token name"
      },
      "seeds(uint256)": {
        "notice": "Random seed by tokenId"
      },
      "setMintFee(uint256)": {
        "notice": "Change mint fee. Only callable by owner."
      },
      "statsOf(uint256)": {
        "notice": "Read stats by tokenId"
      },
      "symbol()": {
        "notice": "Read token symbol"
      },
      "tokenIdCounter()": {
        "notice": "Last minted token ID"
      },
      "tokenIdOf(address)": {
        "notice": "tokenId by owner"
      },
      "tokenURI(uint256)": {
        "notice": "Read token metadata"
      },
      "withdrawBalance(address)": {
        "notice": "Withdraw contract balance. Only callable by owner."
      }
    },
    "version": 1
  },
  "storageLayout": {
    "storage": [
      {
        "astId": 61,
        "contract": "contracts/NounsWrapped.sol:NounsWrapped",
        "label": "renderer",
        "offset": 0,
        "slot": "0",
        "type": "t_contract(Renderer)1094"
      },
      {
        "astId": 74,
        "contract": "contracts/NounsWrapped.sol:NounsWrapped",
        "label": "mintFee",
        "offset": 0,
        "slot": "1",
        "type": "t_uint256"
      },
      {
        "astId": 77,
        "contract": "contracts/NounsWrapped.sol:NounsWrapped",
        "label": "tokenIdCounter",
        "offset": 0,
        "slot": "2",
        "type": "t_uint256"
      },
      {
        "astId": 99,
        "contract": "contracts/NounsWrapped.sol:NounsWrapped",
        "label": "statsOf",
        "offset": 0,
        "slot": "3",
        "type": "t_mapping(t_uint256,t_struct(WrappedStats)93_storage)"
      },
      {
        "astId": 104,
        "contract": "contracts/NounsWrapped.sol:NounsWrapped",
        "label": "seeds",
        "offset": 0,
        "slot": "4",
        "type": "t_mapping(t_uint256,t_uint32)"
      },
      {
        "astId": 109,
        "contract": "contracts/NounsWrapped.sol:NounsWrapped",
        "label": "tokenIdOf",
        "offset": 0,
        "slot": "5",
        "type": "t_mapping(t_address,t_uint256)"
      }
    ],
    "types": {
      "t_address": {
        "encoding": "inplace",
        "label": "address",
        "numberOfBytes": "20"
      },
      "t_contract(Renderer)1094": {
        "encoding": "inplace",
        "label": "contract Renderer",
        "numberOfBytes": "20"
      },
      "t_mapping(t_address,t_uint256)": {
        "encoding": "mapping",
        "key": "t_address",
        "label": "mapping(address => uint256)",
        "numberOfBytes": "32",
        "value": "t_uint256"
      },
      "t_mapping(t_uint256,t_struct(WrappedStats)93_storage)": {
        "encoding": "mapping",
        "key": "t_uint256",
        "label": "mapping(uint256 => struct NounsWrapped.WrappedStats)",
        "numberOfBytes": "32",
        "value": "t_struct(WrappedStats)93_storage"
      },
      "t_mapping(t_uint256,t_uint32)": {
        "encoding": "mapping",
        "key": "t_uint256",
        "label": "mapping(uint256 => uint32)",
        "numberOfBytes": "32",
        "value": "t_uint32"
      },
      "t_string_storage": {
        "encoding": "bytes",
        "label": "string",
        "numberOfBytes": "32"
      },
      "t_struct(WrappedStats)93_storage": {
        "encoding": "inplace",
        "label": "struct NounsWrapped.WrappedStats",
        "members": [
          {
            "astId": 80,
            "contract": "contracts/NounsWrapped.sol:NounsWrapped",
            "label": "props",
            "offset": 0,
            "slot": "0",
            "type": "t_uint16"
          },
          {
            "astId": 82,
            "contract": "contracts/NounsWrapped.sol:NounsWrapped",
            "label": "sponsoredProps",
            "offset": 2,
            "slot": "0",
            "type": "t_uint16"
          },
          {
            "astId": 84,
            "contract": "contracts/NounsWrapped.sol:NounsWrapped",
            "label": "votes",
            "offset": 4,
            "slot": "0",
            "type": "t_uint24"
          },
          {
            "astId": 86,
            "contract": "contracts/NounsWrapped.sol:NounsWrapped",
            "label": "propHouseVotes",
            "offset": 7,
            "slot": "0",
            "type": "t_uint24"
          },
          {
            "astId": 88,
            "contract": "contracts/NounsWrapped.sol:NounsWrapped",
            "label": "candProps",
            "offset": 10,
            "slot": "0",
            "type": "t_uint16"
          },
          {
            "astId": 90,
            "contract": "contracts/NounsWrapped.sol:NounsWrapped",
            "label": "propsFeedback",
            "offset": 12,
            "slot": "0",
            "type": "t_uint24"
          },
          {
            "astId": 92,
            "contract": "contracts/NounsWrapped.sol:NounsWrapped",
            "label": "username",
            "offset": 0,
            "slot": "1",
            "type": "t_string_storage"
          }
        ],
        "numberOfBytes": "64"
      },
      "t_uint16": {
        "encoding": "inplace",
        "label": "uint16",
        "numberOfBytes": "2"
      },
      "t_uint24": {
        "encoding": "inplace",
        "label": "uint24",
        "numberOfBytes": "3"
      },
      "t_uint256": {
        "encoding": "inplace",
        "label": "uint256",
        "numberOfBytes": "32"
      },
      "t_uint32": {
        "encoding": "inplace",
        "label": "uint32",
        "numberOfBytes": "4"
      }
    }
  }
}