{
  "_format": "hh-sol-artifact-1",
  "contractName": "ScriptyCore",
  "sourceName": "scripty.sol/contracts/scripty/core/ScriptyCore.sol",
  "abi": [
    {
      "inputs": [],
      "name": "BODY_OPEN_RAW",
      "outputs": [
        {
          "internalType": "bytes",
          "name": "",
          "type": "bytes"
        }
      ],
      "stateMutability": "view",
      "type": "function"
    },
    {
      "inputs": [],
      "name": "BODY_OPEN_URL_SAFE",
      "outputs": [
        {
          "internalType": "bytes",
          "name": "",
          "type": "bytes"
        }
      ],
      "stateMutability": "view",
      "type": "function"
    },
    {
      "inputs": [],
      "name": "BODY_RAW_BYTES",
      "outputs": [
        {
          "internalType": "uint256",
          "name": "",
          "type": "uint256"
        }
      ],
      "stateMutability": "view",
      "type": "function"
    },
    {
      "inputs": [],
      "name": "BODY_SAFE_BYTES",
      "outputs": [
        {
          "internalType": "uint256",
          "name": "",
          "type": "uint256"
        }
      ],
      "stateMutability": "view",
      "type": "function"
    },
    {
      "inputs": [],
      "name": "DATA_HTML_BASE64_URI_RAW",
      "outputs": [
        {
          "internalType": "bytes",
          "name": "",
          "type": "bytes"
        }
      ],
      "stateMutability": "view",
      "type": "function"
    },
    {
      "inputs": [],
      "name": "DATA_HTML_URL_SAFE",
      "outputs": [
        {
          "internalType": "bytes",
          "name": "",
          "type": "bytes"
        }
      ],
      "stateMutability": "view",
      "type": "function"
    },
    {
      "inputs": [],
      "name": "HEAD_CLOSE_RAW",
      "outputs": [
        {
          "internalType": "bytes",
          "name": "",
          "type": "bytes"
        }
      ],
      "stateMutability": "view",
      "type": "function"
    },
    {
      "inputs": [],
      "name": "HEAD_CLOSE_URL_SAFE",
      "outputs": [
        {
          "internalType": "bytes",
          "name": "",
          "type": "bytes"
        }
      ],
      "stateMutability": "view",
      "type": "function"
    },
    {
      "inputs": [],
      "name": "HEAD_OPEN_RAW",
      "outputs": [
        {
          "internalType": "bytes",
          "name": "",
          "type": "bytes"
        }
      ],
      "stateMutability": "view",
      "type": "function"
    },
    {
      "inputs": [],
      "name": "HEAD_OPEN_URL_SAFE",
      "outputs": [
        {
          "internalType": "bytes",
          "name": "",
          "type": "bytes"
        }
      ],
      "stateMutability": "view",
      "type": "function"
    },
    {
      "inputs": [],
      "name": "HEAD_RAW_BYTES",
      "outputs": [
        {
          "internalType": "uint256",
          "name": "",
          "type": "uint256"
        }
      ],
      "stateMutability": "view",
      "type": "function"
    },
    {
      "inputs": [],
      "name": "HEAD_URL_SAFE_BYTES",
      "outputs": [
        {
          "internalType": "uint256",
          "name": "",
          "type": "uint256"
        }
      ],
      "stateMutability": "view",
      "type": "function"
    },
    {
      "inputs": [],
      "name": "HTML_BASE64_DATA_URI_BYTES",
      "outputs": [
        {
          "internalType": "uint256",
          "name": "",
          "type": "uint256"
        }
      ],
      "stateMutability": "view",
      "type": "function"
    },
    {
      "inputs": [],
      "name": "HTML_BODY_CLOSED_RAW",
      "outputs": [
        {
          "internalType": "bytes",
          "name": "",
          "type": "bytes"
        }
      ],
      "stateMutability": "view",
      "type": "function"
    },
    {
      "inputs": [],
      "name": "HTML_BODY_CLOSED_URL_SAFE",
      "outputs": [
        {
          "internalType": "bytes",
          "name": "",
          "type": "bytes"
        }
      ],
      "stateMutability": "view",
      "type": "function"
    },
    {
      "inputs": [],
      "name": "HTML_OPEN_RAW",
      "outputs": [
        {
          "internalType": "bytes",
          "name": "",
          "type": "bytes"
        }
      ],
      "stateMutability": "view",
      "type": "function"
    },
    {
      "inputs": [],
      "name": "HTML_OPEN_URL_SAFE",
      "outputs": [
        {
          "internalType": "bytes",
          "name": "",
          "type": "bytes"
        }
      ],
      "stateMutability": "view",
      "type": "function"
    },
    {
      "inputs": [],
      "name": "HTML_RAW_BYTES",
      "outputs": [
        {
          "internalType": "uint256",
          "name": "",
          "type": "uint256"
        }
      ],
      "stateMutability": "view",
      "type": "function"
    },
    {
      "inputs": [],
      "name": "HTML_URL_SAFE_BYTES",
      "outputs": [
        {
          "internalType": "uint256",
          "name": "",
          "type": "uint256"
        }
      ],
      "stateMutability": "view",
      "type": "function"
    },
    {
      "inputs": [],
      "name": "RAW_BYTES",
      "outputs": [
        {
          "internalType": "uint256",
          "name": "",
          "type": "uint256"
        }
      ],
      "stateMutability": "view",
      "type": "function"
    },
    {
      "inputs": [],
      "name": "URLS_RAW_BYTES",
      "outputs": [
        {
          "internalType": "uint256",
          "name": "",
          "type": "uint256"
        }
      ],
      "stateMutability": "view",
      "type": "function"
    },
    {
      "inputs": [],
      "name": "URLS_SAFE_BYTES",
      "outputs": [
        {
          "internalType": "uint256",
          "name": "",
          "type": "uint256"
        }
      ],
      "stateMutability": "view",
      "type": "function"
    },
    {
      "inputs": [],
      "name": "URL_SAFE_BYTES",
      "outputs": [
        {
          "internalType": "uint256",
          "name": "",
          "type": "uint256"
        }
      ],
      "stateMutability": "view",
      "type": "function"
    },
    {
      "inputs": [
        {
          "components": [
            {
              "internalType": "string",
              "name": "name",
              "type": "string"
            },
            {
              "internalType": "address",
              "name": "contractAddress",
              "type": "address"
            },
            {
              "internalType": "bytes",
              "name": "contractData",
              "type": "bytes"
            },
            {
              "internalType": "enum HTMLTagType",
              "name": "tagType",
              "type": "uint8"
            },
            {
              "internalType": "bytes",
              "name": "tagOpen",
              "type": "bytes"
            },
            {
              "internalType": "bytes",
              "name": "tagClose",
              "type": "bytes"
            },
            {
              "internalType": "bytes",
              "name": "tagContent",
              "type": "bytes"
            }
          ],
          "internalType": "struct HTMLTag",
          "name": "htmlTag",
          "type": "tuple"
        }
      ],
      "name": "fetchTagContent",
      "outputs": [
        {
          "internalType": "bytes",
          "name": "",
          "type": "bytes"
        }
      ],
      "stateMutability": "view",
      "type": "function"
    },
    {
      "inputs": [
        {
          "internalType": "uint256",
          "name": "value",
          "type": "uint256"
        }
      ],
      "name": "sizeForBase64Encoding",
      "outputs": [
        {
          "internalType": "uint256",
          "name": "",
          "type": "uint256"
        }
      ],
      "stateMutability": "pure",
      "type": "function"
    },
    {
      "inputs": [
        {
          "components": [
            {
              "internalType": "string",
              "name": "name",
              "type": "string"
            },
            {
              "internalType": "address",
              "name": "contractAddress",
              "type": "address"
            },
            {
              "internalType": "bytes",
              "name": "contractData",
              "type": "bytes"
            },
            {
              "internalType": "enum HTMLTagType",
              "name": "tagType",
              "type": "uint8"
            },
            {
              "internalType": "bytes",
              "name": "tagOpen",
              "type": "bytes"
            },
            {
              "internalType": "bytes",
              "name": "tagClose",
              "type": "bytes"
            },
            {
              "internalType": "bytes",
              "name": "tagContent",
              "type": "bytes"
            }
          ],
          "internalType": "struct HTMLTag",
          "name": "htmlTag",
          "type": "tuple"
        }
      ],
      "name": "tagOpenCloseForHTMLTag",
      "outputs": [
        {
          "internalType": "bytes",
          "name": "",
          "type": "bytes"
        },
        {
          "internalType": "bytes",
          "name": "",
          "type": "bytes"
        }
      ],
      "stateMutability": "pure",
      "type": "function"
    },
    {
      "inputs": [
        {
          "components": [
            {
              "internalType": "string",
              "name": "name",
              "type": "string"
            },
            {
              "internalType": "address",
              "name": "contractAddress",
              "type": "address"
            },
            {
              "internalType": "bytes",
              "name": "contractData",
              "type": "bytes"
            },
            {
              "internalType": "enum HTMLTagType",
              "name": "tagType",
              "type": "uint8"
            },
            {
              "internalType": "bytes",
              "name": "tagOpen",
              "type": "bytes"
            },
            {
              "internalType": "bytes",
              "name": "tagClose",
              "type": "bytes"
            },
            {
              "internalType": "bytes",
              "name": "tagContent",
              "type": "bytes"
            }
          ],
          "internalType": "struct HTMLTag",
          "name": "htmlTag",
          "type": "tuple"
        }
      ],
      "name": "tagOpenCloseForHTMLTagURLSafe",
      "outputs": [
        {
          "internalType": "bytes",
          "name": "",
          "type": "bytes"
        },
        {
          "internalType": "bytes",
          "name": "",
          "type": "bytes"
        }
      ],
      "stateMutability": "pure",
      "type": "function"
    }
  ],
  "bytecode": "0x6080806040523461001657610ea4908161001b8239f35b5f80fdfe608060408181526004361015610013575f80fd5b5f91823560e01c908163053f1eb0146105785750806333174f98146102965780633708be651461055d5780633d5be2c21461051757806343f2614f146104ce578063640bab411461048557806372617f8a1461045f5780637510ac24146104445780637f369319146103fb57806387598e52146103db5780638c8c3796146103e0578063afae76fa146103db578063b55ccc6214610296578063bc68962014610396578063be58b0a9146101a4578063bee84ae31461037b578063bf35dd0b146101a4578063c46b294d14610336578063cd475f261461030e578063cdea0cef146102e0578063ce5ad1791461029b578063d0c3efa814610296578063d61974f114610242578063d9237f14146101f6578063f051dcf8146101a9578063f49717ee146101a45763f6130adc14610148575f80fd5b346101a057816003193601126101a057805161019c91610167826105d9565b601682527519185d184e9d195e1d0bda1d1b5b0ed8985cd94d8d0b60521b6020830152519182916020835260208301906106a0565b0390f35b5080fd5b6108a7565b50346101a057816003193601126101a057805161019c916101c9826105d9565b600e82526d1e17b137b23c9f1e17b43a36b61f60911b6020830152519182916020835260208301906106a0565b50346101a057816003193601126101a057805161019c91610216826105d9565b600d82526c2533432532466865616425334560981b6020830152519182916020835260208301906106a0565b50346101a057816003193601126101a057805161019c91610262826105d9565b6015825274646174612533417465787425324668746d6c25324360581b6020830152519182916020835260208301906106a0565b6106c5565b50346101a057816003193601126101a057805161019c916102bb826105d9565b60068252651e3137b23c9f60d11b6020830152519182916020835260208301906106a0565b50346101a05761019c906102fb6102f636610753565b610d6c565b90519182916020835260208301906106a0565b50346101a05761019c9061032961032436610753565b610b28565b9290915192839283610882565b50346101a057816003193601126101a057805161019c91610356826105d9565b60068252651e3432b0b21f60d11b6020830152519182916020835260208301906106a0565b50346101a057816003193601126101a05760209051605a8152f35b50346101a057816003193601126101a057805161019c916103b6826105d9565b60068252651e343a36b61f60d11b6020830152519182916020835260208301906106a0565b6106e4565b50346101a05761019c906103296103f636610753565b6108e9565b50346101a057816003193601126101a057805161019c9161041b826105d9565b600a825269253343626f647925334560b01b6020830152519182916020835260208301906106a0565b50346101a057816003193601126101a0576020905160168152f35b50346101a05760203660031901126101a0576020905160036002600435010460021b8152f35b50346101a057816003193601126101a057805161019c916104a5826105d9565b600a82526925334368746d6c25334560b01b6020830152519182916020835260208301906106a0565b50346101a057816003193601126101a057805161019c916104ee826105d9565b600a8252692533436865616425334560b01b6020830152519182916020835260208301906106a0565b50346101a057816003193601126101a057805161019c91610537826105d9565b60078252661e17b432b0b21f60c91b6020830152519182916020835260208301906106a0565b50346101a057816003193601126101a0576020905160458152f35b919050346105d557826003193601126105d55761019c9250610599826105d9565b601a82527f253343253246626f647925334525334325324668746d6c2533450000000000006020830152519182916020835260208301906106a0565b8280fd5b6040810190811067ffffffffffffffff8211176105f557604052565b634e487b7160e01b5f52604160045260245ffd5b6080810190811067ffffffffffffffff8211176105f557604052565b60a0810190811067ffffffffffffffff8211176105f557604052565b90601f8019910116810190811067ffffffffffffffff8211176105f557604052565b67ffffffffffffffff81116105f557601f01601f191660200190565b5f5b8381106106905750505f910152565b8181015183820152602001610681565b906020916106b98151809281855285808601910161067f565b601f01601f1916010190565b346106e0575f3660031901126106e0576020604051600d8152f35b5f80fd5b346106e0575f3660031901126106e057602060405160278152f35b92919261070b82610663565b916107196040519384610641565b8294818452818301116106e0578281602093845f960137010152565b9080601f830112156106e057816020610750933591016106ff565b90565b600319906020818301126106e05760049081359167ffffffffffffffff938484116106e05760e09084840301126106e0576040519360e085018581108282111761086f57604052838201358181116106e0578401836023820112156106e05783816024856107c494013591016106ff565b855260248401356001600160a01b03811681036106e057602086015260448401358181116106e05783836107fa92870101610735565b6040860152606484013560058110156106e057606086015260848401358181116106e057838361082c92870101610735565b608086015260a48401358181116106e057838361084b92870101610735565b60a086015260c48401359081116106e057610867930101610735565b60c082015290565b604183634e487b7160e01b5f525260245ffd5b9091610899610750936040845260408401906106a0565b9160208184039101526106a0565b346106e0575f3660031901126106e057602060405160178152f35b604051906108cf826105d9565b600b82526a111f1e17b9b1b934b83a1f60a91b6020830152565b906060820180516005811015610adb5760010361094a5750905060405161090f816105d9565b60088152671e39b1b934b83a1f60c11b602082015290604051610931816105d9565b60098152681e17b9b1b934b83a1f60b91b602082015290565b80516005811015610adb576002036109c1575090506040516060810181811067ffffffffffffffff8211176105f557604052602981527f3c736372697074207372633d22646174613a746578742f6a61766173637269706020820152681d0ed8985cd94d8d0b60ba1b6040820152906107506108c2565b80516005811015610adb57600303610a49575090506040516109e281610609565b604581527f3c73637269707420747970653d22746578742f6a6176617363726970742b677a60208201527f697022207372633d22646174613a746578742f6a6176617363726970743b62616040820152641cd94d8d0b60da1b6060820152906107506108c2565b516005811015610adb57600414610a675760a0608083015192015190565b9050604051610a7581610609565b604481527f3c73637269707420747970653d22746578742f6a6176617363726970742b706e60208201527f6722207372633d22646174613a746578742f6a6176617363726970743b626173604082015263194d8d0b60e21b6060820152906107506108c2565b634e487b7160e01b5f52602160045260245ffd5b60405190610afc826105d9565b601f82527f25323532322532353345253235334325323532467363726970742532353345006020830152565b906060820180516005811015610adb576001148015610d58575b15610bc157509050604051610b5681610609565b604981527f253235334373637269707425323532307372632532353344253235323264617460208201527f6125323533417465787425323532466a6176617363726970742532353342626160408201526873653634253235324360b81b606082015290610750610aef565b80516005811015610adb57600303610c8757509050604051610be281610625565b607d81527f253235334373637269707425323532307479706525323533442532353232746560208201527f787425323532466a6176617363726970742532353242677a697025323532322560408201527f323532307372632532353344253235323264617461253235334174657874253260608201527f3532466a61766173637269707425323533426261736536342532353243000000608082015290610750610aef565b516005811015610adb57600414610ca55760a0608083015192015190565b9050604051610cb381610625565b607c81527f253235334373637269707425323532307479706525323533442532353232746560208201527f787425323532466a6176617363726970742532353242706e672532353232253260408201527f353230737263253235334425323532326461746125323533417465787425323560608201527f32466a6176617363726970742532353342626173653634253235324300000000608082015290610750610aef565b5080516005811015610adb57600214610b42565b60c08101518051610e695750610db260018060a01b03602083015116916040815191015190604051928391633e58d56560e21b83526040600484015260448301906106a0565b936003198286030160248301528180610dcd5f9788966106a0565b03915afa918215610e5d578092610de357505090565b9091503d8082843e610df58184610641565b8201916020818403126101a05780519067ffffffffffffffff82116105d5570182601f820112156101a057805191610e2c83610663565b93610e3a6040519586610641565b83855260208484010111610e5a575090610750916020808501910161067f565b80fd5b604051903d90823e3d90fd5b90509056fea2646970667358221220fe13073232dddeee2fdba1e0ad0d34647f76a630b4d16901bbb83c98614a734864736f6c63430008150033",
  "linkReferences": {},
  "deployedLinkReferences": {}
}