{
  "_format": "hh-sol-artifact-1",
  "contractName": "ScriptyCore",
  "sourceName": "scripty.sol/contracts/scripty/core/ScriptyCore.sol",
  "abi": [
    {
      "inputs": [],
      "name": "BODY_OPEN_RAW",
      "outputs": [
        {
          "internalType": "bytes",
          "name": "",
          "type": "bytes"
        }
      ],
      "stateMutability": "view",
      "type": "function"
    },
    {
      "inputs": [],
      "name": "BODY_OPEN_URL_SAFE",
      "outputs": [
        {
          "internalType": "bytes",
          "name": "",
          "type": "bytes"
        }
      ],
      "stateMutability": "view",
      "type": "function"
    },
    {
      "inputs": [],
      "name": "BODY_RAW_BYTES",
      "outputs": [
        {
          "internalType": "uint256",
          "name": "",
          "type": "uint256"
        }
      ],
      "stateMutability": "view",
      "type": "function"
    },
    {
      "inputs": [],
      "name": "BODY_SAFE_BYTES",
      "outputs": [
        {
          "internalType": "uint256",
          "name": "",
          "type": "uint256"
        }
      ],
      "stateMutability": "view",
      "type": "function"
    },
    {
      "inputs": [],
      "name": "DATA_HTML_BASE64_URI_RAW",
      "outputs": [
        {
          "internalType": "bytes",
          "name": "",
          "type": "bytes"
        }
      ],
      "stateMutability": "view",
      "type": "function"
    },
    {
      "inputs": [],
      "name": "DATA_HTML_URL_SAFE",
      "outputs": [
        {
          "internalType": "bytes",
          "name": "",
          "type": "bytes"
        }
      ],
      "stateMutability": "view",
      "type": "function"
    },
    {
      "inputs": [],
      "name": "HEAD_CLOSE_RAW",
      "outputs": [
        {
          "internalType": "bytes",
          "name": "",
          "type": "bytes"
        }
      ],
      "stateMutability": "view",
      "type": "function"
    },
    {
      "inputs": [],
      "name": "HEAD_CLOSE_URL_SAFE",
      "outputs": [
        {
          "internalType": "bytes",
          "name": "",
          "type": "bytes"
        }
      ],
      "stateMutability": "view",
      "type": "function"
    },
    {
      "inputs": [],
      "name": "HEAD_OPEN_RAW",
      "outputs": [
        {
          "internalType": "bytes",
          "name": "",
          "type": "bytes"
        }
      ],
      "stateMutability": "view",
      "type": "function"
    },
    {
      "inputs": [],
      "name": "HEAD_OPEN_URL_SAFE",
      "outputs": [
        {
          "internalType": "bytes",
          "name": "",
          "type": "bytes"
        }
      ],
      "stateMutability": "view",
      "type": "function"
    },
    {
      "inputs": [],
      "name": "HEAD_RAW_BYTES",
      "outputs": [
        {
          "internalType": "uint256",
          "name": "",
          "type": "uint256"
        }
      ],
      "stateMutability": "view",
      "type": "function"
    },
    {
      "inputs": [],
      "name": "HEAD_URL_SAFE_BYTES",
      "outputs": [
        {
          "internalType": "uint256",
          "name": "",
          "type": "uint256"
        }
      ],
      "stateMutability": "view",
      "type": "function"
    },
    {
      "inputs": [],
      "name": "HTML_BASE64_DATA_URI_BYTES",
      "outputs": [
        {
          "internalType": "uint256",
          "name": "",
          "type": "uint256"
        }
      ],
      "stateMutability": "view",
      "type": "function"
    },
    {
      "inputs": [],
      "name": "HTML_BODY_CLOSED_RAW",
      "outputs": [
        {
          "internalType": "bytes",
          "name": "",
          "type": "bytes"
        }
      ],
      "stateMutability": "view",
      "type": "function"
    },
    {
      "inputs": [],
      "name": "HTML_BODY_CLOSED_URL_SAFE",
      "outputs": [
        {
          "internalType": "bytes",
          "name": "",
          "type": "bytes"
        }
      ],
      "stateMutability": "view",
      "type": "function"
    },
    {
      "inputs": [],
      "name": "HTML_OPEN_RAW",
      "outputs": [
        {
          "internalType": "bytes",
          "name": "",
          "type": "bytes"
        }
      ],
      "stateMutability": "view",
      "type": "function"
    },
    {
      "inputs": [],
      "name": "HTML_OPEN_URL_SAFE",
      "outputs": [
        {
          "internalType": "bytes",
          "name": "",
          "type": "bytes"
        }
      ],
      "stateMutability": "view",
      "type": "function"
    },
    {
      "inputs": [],
      "name": "HTML_RAW_BYTES",
      "outputs": [
        {
          "internalType": "uint256",
          "name": "",
          "type": "uint256"
        }
      ],
      "stateMutability": "view",
      "type": "function"
    },
    {
      "inputs": [],
      "name": "HTML_URL_SAFE_BYTES",
      "outputs": [
        {
          "internalType": "uint256",
          "name": "",
          "type": "uint256"
        }
      ],
      "stateMutability": "view",
      "type": "function"
    },
    {
      "inputs": [],
      "name": "RAW_BYTES",
      "outputs": [
        {
          "internalType": "uint256",
          "name": "",
          "type": "uint256"
        }
      ],
      "stateMutability": "view",
      "type": "function"
    },
    {
      "inputs": [],
      "name": "URLS_RAW_BYTES",
      "outputs": [
        {
          "internalType": "uint256",
          "name": "",
          "type": "uint256"
        }
      ],
      "stateMutability": "view",
      "type": "function"
    },
    {
      "inputs": [],
      "name": "URLS_SAFE_BYTES",
      "outputs": [
        {
          "internalType": "uint256",
          "name": "",
          "type": "uint256"
        }
      ],
      "stateMutability": "view",
      "type": "function"
    },
    {
      "inputs": [],
      "name": "URL_SAFE_BYTES",
      "outputs": [
        {
          "internalType": "uint256",
          "name": "",
          "type": "uint256"
        }
      ],
      "stateMutability": "view",
      "type": "function"
    },
    {
      "inputs": [
        {
          "components": [
            {
              "internalType": "string",
              "name": "name",
              "type": "string"
            },
            {
              "internalType": "address",
              "name": "contractAddress",
              "type": "address"
            },
            {
              "internalType": "bytes",
              "name": "contractData",
              "type": "bytes"
            },
            {
              "internalType": "enum HTMLTagType",
              "name": "tagType",
              "type": "uint8"
            },
            {
              "internalType": "bytes",
              "name": "tagOpen",
              "type": "bytes"
            },
            {
              "internalType": "bytes",
              "name": "tagClose",
              "type": "bytes"
            },
            {
              "internalType": "bytes",
              "name": "tagContent",
              "type": "bytes"
            }
          ],
          "internalType": "struct HTMLTag",
          "name": "htmlTag",
          "type": "tuple"
        }
      ],
      "name": "fetchTagContent",
      "outputs": [
        {
          "internalType": "bytes",
          "name": "",
          "type": "bytes"
        }
      ],
      "stateMutability": "view",
      "type": "function"
    },
    {
      "inputs": [
        {
          "internalType": "uint256",
          "name": "value",
          "type": "uint256"
        }
      ],
      "name": "sizeForBase64Encoding",
      "outputs": [
        {
          "internalType": "uint256",
          "name": "",
          "type": "uint256"
        }
      ],
      "stateMutability": "pure",
      "type": "function"
    },
    {
      "inputs": [
        {
          "components": [
            {
              "internalType": "string",
              "name": "name",
              "type": "string"
            },
            {
              "internalType": "address",
              "name": "contractAddress",
              "type": "address"
            },
            {
              "internalType": "bytes",
              "name": "contractData",
              "type": "bytes"
            },
            {
              "internalType": "enum HTMLTagType",
              "name": "tagType",
              "type": "uint8"
            },
            {
              "internalType": "bytes",
              "name": "tagOpen",
              "type": "bytes"
            },
            {
              "internalType": "bytes",
              "name": "tagClose",
              "type": "bytes"
            },
            {
              "internalType": "bytes",
              "name": "tagContent",
              "type": "bytes"
            }
          ],
          "internalType": "struct HTMLTag",
          "name": "htmlTag",
          "type": "tuple"
        }
      ],
      "name": "tagOpenCloseForHTMLTag",
      "outputs": [
        {
          "internalType": "bytes",
          "name": "",
          "type": "bytes"
        },
        {
          "internalType": "bytes",
          "name": "",
          "type": "bytes"
        }
      ],
      "stateMutability": "pure",
      "type": "function"
    },
    {
      "inputs": [
        {
          "components": [
            {
              "internalType": "string",
              "name": "name",
              "type": "string"
            },
            {
              "internalType": "address",
              "name": "contractAddress",
              "type": "address"
            },
            {
              "internalType": "bytes",
              "name": "contractData",
              "type": "bytes"
            },
            {
              "internalType": "enum HTMLTagType",
              "name": "tagType",
              "type": "uint8"
            },
            {
              "internalType": "bytes",
              "name": "tagOpen",
              "type": "bytes"
            },
            {
              "internalType": "bytes",
              "name": "tagClose",
              "type": "bytes"
            },
            {
              "internalType": "bytes",
              "name": "tagContent",
              "type": "bytes"
            }
          ],
          "internalType": "struct HTMLTag",
          "name": "htmlTag",
          "type": "tuple"
        }
      ],
      "name": "tagOpenCloseForHTMLTagURLSafe",
      "outputs": [
        {
          "internalType": "bytes",
          "name": "",
          "type": "bytes"
        },
        {
          "internalType": "bytes",
          "name": "",
          "type": "bytes"
        }
      ],
      "stateMutability": "pure",
      "type": "function"
    }
  ],
  "bytecode": "0x608060405234801561000f575f80fd5b50610da48061001d5f395ff3fe608060405234801561000f575f80fd5b50600436106101a1575f3560e01c8063bc689620116100f3578063ce5ad17911610093578063d9237f141161006e578063d9237f14146103e0578063f051dcf81461040c578063f49717ee1461032c578063f6130adc14610439575f80fd5b8063ce5ad17914610387578063d0c3efa8146101f7578063d61974f1146103ac575f80fd5b8063bf35dd0b116100ce578063bf35dd0b1461032c578063c46b294d1461033c578063cd475f2614610361578063cdea0cef14610374575f80fd5b8063bc68962014610307578063be58b0a91461032c578063bee84ae314610334575f80fd5b806372617f8a1161015e57806387598e521161013957806387598e52146102de5780638c8c3796146102e6578063afae76fa146102de578063b55ccc62146101f7575f80fd5b806372617f8a1461028d5780637510ac24146102ad5780637f369319146102b5575f80fd5b8063053f1eb0146101a557806333174f98146101f75780633708be651461020d5780633d5be2c21461021557806343f2614f1461023b578063640bab4114610264575b5f80fd5b6101e16040518060400160405280601a81526020017f253343253246626f647925334525334325324668746d6c25334500000000000081525081565b6040516101ee919061087a565b60405180910390f35b6101ff600d81565b6040519081526020016101ee565b6101ff604581565b6101e1604051806040016040528060078152602001661e17b432b0b21f60c91b81525081565b6101e16040518060400160405280600a8152602001692533436865616425334560b01b81525081565b6101e16040518060400160405280600a81526020016925334368746d6c25334560b01b81525081565b6101ff61029b366004610893565b5f600360028301046004029050919050565b6101ff601681565b6101e16040518060400160405280600a815260200169253343626f647925334560b01b81525081565b6101ff602781565b6102f96102f43660046109ba565b61046e565b6040516101ee929190610ad0565b6101e1604051806040016040528060068152602001651e343a36b61f60d11b81525081565b6101ff601781565b6101ff605a81565b6101e1604051806040016040528060068152602001651e3432b0b21f60d11b81525081565b6102f961036f3660046109ba565b610614565b6101e16103823660046109ba565b610797565b6101e1604051806040016040528060068152602001651e3137b23c9f60d11b81525081565b6101e160405180604001604052806015815260200174646174612533417465787425324668746d6c25324360581b81525081565b6101e16040518060400160405280600d81526020016c2533432532466865616425334560981b81525081565b6101e16040518060400160405280600e81526020016d1e17b137b23c9f1e17b43a36b61f60911b81525081565b6101e16040518060400160405280601681526020017519185d184e9d195e1d0bda1d1b5b0ed8985cd94d8d0b60521b81525081565b60608060018360600151600481111561048957610489610afd565b036104da57604051806040016040528060088152602001671e39b1b934b83a1f60c11b815250604051806040016040528060098152602001681e17b9b1b934b83a1f60b91b81525091509150915091565b6002836060015160048111156104f2576104f2610afd565b0361053d57604051806060016040528060298152602001610b7b602991396040518060400160405280600b81526020016a111f1e17b9b1b934b83a1f60a91b81525091509150915091565b60038360600151600481111561055557610555610afd565b036105a057604051806080016040528060458152602001610bed604591396040518060400160405280600b81526020016a111f1e17b9b1b934b83a1f60a91b81525091509150915091565b6004836060015160048111156105b8576105b8610afd565b0361060357604051806080016040528060448152602001610d2b604491396040518060400160405280600b81526020016a111f1e17b9b1b934b83a1f60a91b81525091509150915091565b5050608081015160a0909101519091565b60608060018360600151600481111561062f5761062f610afd565b1480610650575060028360600151600481111561064e5761064e610afd565b145b156106ad57604051806080016040528060498152602001610ba4604991396040518060400160405280601f81526020017f253235323225323533452532353343253235324673637269707425323533450081525091509150915091565b6003836060015160048111156106c5576106c5610afd565b03610722576040518060a00160405280607d8152602001610c32607d91396040518060400160405280601f81526020017f253235323225323533452532353343253235324673637269707425323533450081525091509150915091565b60048360600151600481111561073a5761073a610afd565b03610603576040518060a00160405280607c8152602001610caf607c91396040518060400160405280601f81526020017f253235323225323533452532353343253235324673637269707425323533450081525091509150915091565b60c081015151606090156107ad575060c0015190565b602082015182516040808501519051633e58d56560e21b81526001600160a01b039093169263f9635594926107e6929091600401610ad0565b5f60405180830381865afa158015610800573d5f803e3d5ffd5b505050506040513d5f823e601f3d908101601f191682016040526108279190810190610b11565b92915050565b5f5b8381101561084757818101518382015260200161082f565b50505f910152565b5f815180845261086681602086016020860161082d565b601f01601f19169290920160200192915050565b602081525f61088c602083018461084f565b9392505050565b5f602082840312156108a3575f80fd5b5035919050565b634e487b7160e01b5f52604160045260245ffd5b60405160e0810167ffffffffffffffff811182821017156108e1576108e16108aa565b60405290565b604051601f8201601f1916810167ffffffffffffffff81118282101715610910576109106108aa565b604052919050565b5f67ffffffffffffffff821115610931576109316108aa565b50601f01601f191660200190565b5f82601f83011261094e575f80fd5b813561096161095c82610918565b6108e7565b818152846020838601011115610975575f80fd5b816020850160208301375f918101602001919091529392505050565b80356001600160a01b03811681146109a7575f80fd5b919050565b8035600581106109a7575f80fd5b5f602082840312156109ca575f80fd5b813567ffffffffffffffff808211156109e1575f80fd5b9083019060e082860312156109f4575f80fd5b6109fc6108be565b823582811115610a0a575f80fd5b610a168782860161093f565b825250610a2560208401610991565b6020820152604083013582811115610a3b575f80fd5b610a478782860161093f565b604083015250610a59606084016109ac565b6060820152608083013582811115610a6f575f80fd5b610a7b8782860161093f565b60808301525060a083013582811115610a92575f80fd5b610a9e8782860161093f565b60a08301525060c083013582811115610ab5575f80fd5b610ac18782860161093f565b60c08301525095945050505050565b604081525f610ae2604083018561084f565b8281036020840152610af4818561084f565b95945050505050565b634e487b7160e01b5f52602160045260245ffd5b5f60208284031215610b21575f80fd5b815167ffffffffffffffff811115610b37575f80fd5b8201601f81018413610b47575f80fd5b8051610b5561095c82610918565b818152856020838501011115610b69575f80fd5b610af482602083016020860161082d56fe3c736372697074207372633d22646174613a746578742f6a6176617363726970743b6261736536342c25323533437363726970742532353230737263253235334425323532326461746125323533417465787425323532466a617661736372697074253235334262617365363425323532433c73637269707420747970653d22746578742f6a6176617363726970742b677a697022207372633d22646174613a746578742f6a6176617363726970743b6261736536342c2532353343736372697074253235323074797065253235334425323532327465787425323532466a6176617363726970742532353242677a697025323532322532353230737263253235334425323532326461746125323533417465787425323532466a617661736372697074253235334262617365363425323532432532353343736372697074253235323074797065253235334425323532327465787425323532466a6176617363726970742532353242706e6725323532322532353230737263253235334425323532326461746125323533417465787425323532466a617661736372697074253235334262617365363425323532433c73637269707420747970653d22746578742f6a6176617363726970742b706e6722207372633d22646174613a746578742f6a6176617363726970743b6261736536342ca2646970667358221220171ac35418abbcabf3610d817e142196d8b40794e9b2c8ca9963684a92cba0cb64736f6c63430008150033",
  "linkReferences": {},
  "deployedLinkReferences": {}
}